:10000000F6C00FC350C30EC10DC10CC10BC10AC154
:1000100009C108C107C106C105C104C164C302C149
:1000200001C100C1FFC0000000000000002F00005F
:100030000007000700147F147F14242A7F2A12C4AB
:10004000C810264636495522500005030000001C02
:100050002241000041221C0014083E081408083EFA
:1000600008080000503000101010101000606000F0
:100070000020100804023E5149453E00427F4000E6
:1000800042615149462141454B311814127F1027D6
:10009000454545393C4A494930017109050336490E
:1000A000494936064949291E0036360000005636B1
:1000B00000000814224100141414141400412214E6
:1000C0000802015109063E5965655E7E1111117ED7
:1000D0007F494949363E414141227F4141221C7FAF
:1000E000494949417F090909013E4149497A7F0847
:1000F00008087F00417F41002040413F017F0814F4
:1001000022417F404040407F020C027F7F04081064
:100110007F3E4141413E7F090909063E4151215E32
:100120007F09192946464949493101017F01013FAB
:100130004040403F1F2040201F3F4038403F631455
:1001400008146307087008076151494543007F415F
:100150004100552A552A550041417F000402010201
:1001600004404040404000010204002054545478B0
:100170007F484444383844444420384444487F3815
:1001800054545418087E0901020C5252523E7F0802
:1001900004047800447D40002040443D007F102846
:1001A000440000417F40007C041804787C0804046B
:1001B0007838444444387C14141408081414187C07
:1001C0007C080404084854545420043F4440203C14
:1001D0004040207C1C2040201C3C4030403C4428B7
:1001E0001028440C5050503C4464544C440011249A
:1001F0001FBECFE5D4E0DEBFCDBF12E0A0E6B0E089
:10020000E4E7FDE102C005900D92A639B107D9F7E8
:1002100012E0A6E9B2E001C01D92A63DB107E1F7E8
:1002200076D2A6CDEDCECF92DF92EF92FF920F93D2
:100230001F937C01262F6AE070E04FDDD62EC72E7B
:1002400030E08901000F111F020F131F040F111D51
:10025000000F111F02551D4F862F972F6AE070E087
:100260003CDDE82FF0E084E0EE0FFF1F8A95E1F718
:10027000C7016AE070E031DD90E0E82BF92B8D2DAD
:100280009C2D6AE070E029DDCB016AE070E025DD9D
:10029000382F20E0E22BF32BD801ED93FC931F9134
:1002A0000F91FF90EF90DF90CF900895882311F089
:1002B000389801C0389A88EC90E00197F1F7369AA7
:1002C0003699FECF08952091C0023091C102389A2C
:1002D00088EC90E00197F1F7369A3699FECF211518
:1002E000310549F08091C6029091C702820F931F99
:1002F0009695879504C08091C6029091C70290930D
:10030000C1028093C0022091C2023091C30238988A
:1003100088EC90E00197F1F7369A3699FECF2115D7
:10032000310549F08091C6029091C702820F931F58
:100330009695879504C08091C6029091C7029093CC
:10034000C3028093C20208951F931092C1021092BB
:10035000C0021092C3021092C20210E0B4DF1F5F0D
:100360001F3FE1F71F910895CF92DF92EF92FF9226
:100370000F931F93082F10E06091C0027091C1028B
:10038000A6E9CA2EA2E0DA2E7801EE0CFF1CEE0CD4
:10039000FF1CEC0CFD1C882777FD8095982F88D9D1
:1003A0009B01AC0160E070EC8FEF93E459D8F7014A
:1003B00060837183828393836091C2027091C302D0
:1003C0000D5F1F4F000F111F000F111FC00ED11E18
:1003D000882777FD8095982F6BD99B01AC0160E051
:1003E00070EC8FEF93E43CD8F601608371838283D5
:1003F00093831F910F91FF90EF90DF90CF9008951E
:100400008FEF93E090936100809360000895DF92F6
:10041000EF92FF920F931F93CF93DF93D82E6091AB
:10042000C0027091C102082F10E0882777FD8095E7
:10043000982F3ED9000F111F000F111FF801EA5627
:10044000FD4F208131814281538115D78BD97B01AA
:100450006091C2027091C302882777FD8095982F22
:1004600027D90E551D4FF8012081318142815381DA
:1004700002D778D9EB019701261B370B37FF03C052
:10048000309521953F4F609160007091610084E646
:1004900090E0AC01249FC001259F900D349F900DEA
:1004A00011241BDC162F072FC70160E04D2DBBDE8A
:1004B000CE0161E04D2DB7DE812F902F62E04D2DF2
:1004C000B2DEDF91CF911F910F91FF90EF90DF90FF
:1004D0000895CF92DF92FF920F931F93CF93DF93F4
:1004E0008C019FB7F8948BB78F738BBF9FBFA1D23E
:1004F00080E090E061E070E085D280917F00909193
:10050000800060E04ED282E00030180719F485E0E8
:1005100090E002C081E090E063E070E073D28BE590
:1005200060E0F0D1C2E6D0E0FF2430E9C32E31E034
:10053000D32E83E260E0E6D182E00030180719F4A0
:1005400080E090E002C08881998144D080E29EE4FE
:10055000F6013197F1F70197D9F783E260E0D2D144
:10056000F3DE83E260E0CED18F2DF801099582E0C1
:100570000030180729F0F394229683E0F816C9F6A4
:1005800080E090E027D08DE560E0BCD182E090E093
:1005900065E070E037D280916E0090916F0060E06E
:1005A00000D288E893E120E931E0F9013197F1F7D1
:1005B0000197D9F79FB7F89480E48ABF8BB7806C16
:1005C0008BBF9FBFDF91CF911F910F91FF90DF9065
:1005D000CF900895AC0120E030E061E070E0AB988E
:1005E000CB01022E02C0880F991F0A94E2F78423E0
:1005F0009523892B11F0AC9A01C0AC98AB9A2F5F70
:100600003F4F2031310559F7AA9A0000AA98089562
:10061000AA98AB9884B38C6184BB80E090E0DADF69
:1006200008951F920F920FB60F9211242F933F93AC
:100630004F938F939F93EF93FF9340B380E49FE199
:100640000197F1F780E48ABF829921C0E091D4023A
:10065000F091D502209181003091C40244FF08C07E
:10066000878190859093D5028093D402215007C052
:10067000858196819093D5028093D4022F5F209339
:1006800081008FB7F89431603093C4028FBFFF911F
:10069000EF919F918F914F913F912F910F900FBEAE
:1006A0000F901F9018951F920F920FB60F92112462
:1006B0008F939F9380E89EE30197F1F780E88ABFCC
:1006C00083990AC0809381009FB7F8948091C402F7
:1006D00082608093C4029FBF9F918F910F900FBE45
:1006E0000F901F9018951F920F920FB60F92112422
:1006F0008F939F9384B195B19093C7028093C60264
:100700009F918F910F900FBE0F901F90189518BA60
:1007100017BA15BA14BA12BA11BA80E888B98AE0C1
:1007200085BF80EC8BBF17B88FE886B971DF88EE84
:1007300093E07CD378948FB7F8949091C40290930F
:10074000C5028FBF8091C50280FF09C09FB7F89492
:100750008091C4028E7F8093C4029FBF5DD28FB709
:10076000F8949091C4029093C5028FBF8091C50206
:1007700081FF11C09FB7F8948091C4028D7F809350
:10078000C4029FBF5CD39FB7F8948091C40281607C
:100790008093C4029FBF8FB7F8949091C402909346
:1007A000C5028FBF8091C50284FF13C087E092E02D
:1007B00090DE9FB7F8948091C4028F7E8093C4022C
:1007C0009FBF9FB7F8948091C40281608093C40258
:1007D0009FBF8FB7F8949091C4029093C5028FBFCA
:1007E0008091C50285FF0BC084EB91E072DE9FB75C
:1007F000F8948091C4028F7D8093C4029FBF8FB70D
:10080000F8949091C4029093C5028FBF8091C50265
:1008100086FF91CF80E092E05CDE9FB7F8948091F4
:10082000C4028F7B8093C4029FBF85CF982F8A30EC
:1008300010F4805D08958A50863010F08FE308959B
:10084000892F895C0895282F982F92959F709A3050
:1008500018F4892F805D08C0892F8A50863010F0E7
:100860008FE302C0892F895C8093C802922F9F700A
:100870009A3018F4892F805D08C0892F8A508630FD
:1008800010F08FE302C0892F895C8093C90208951C
:100890009C0180709F709A3018F4892F805D08C089
:1008A000892F8A50863010F08FE302C0892F895C2F
:1008B0008093C902C901807F907034E09695879536
:1008C0003A95E1F7982F8A3010F4805D07C08A507E
:1008D000863010F08FE302C0892F895C8093CA02B2
:1008E000922F9F709A3018F4892F805D08C0892F4D
:1008F0008A50863010F08FE302C0892F895C809384
:10090000CB020895CF93DF93282F362F803208F43F
:100910002CE5C091CC02D091CD02CE0164E570E00F
:10092000DCD98068C198C2988FB9779BFECFC19AF5
:10093000CE0164E570E0D1D96064C198C2986FB906
:10094000779BFECFC19A85E0289FC0011124FC014E
:10095000EA57F040855790402491220F311120959D
:10096000C198C29A2FB9779BFECFC19A3196E817EA
:10097000F90791F7332339F0C198C29A8FEF8FB9F5
:10098000779BFECF05C0C198C29A1FB8779BFECF58
:10099000C19A2696D093CD02C093CC02DF91CF911D
:1009A00008950F931F93CF93DF93082F162F282FAF
:1009B000392FE90103C02196612FA4DF9E01201B7E
:1009C000922F88818823B9F71123B9F02223A9F047
:1009D0002E3098F42EE030E0291B3109C901880F30
:1009E000991F820F931F880F9FEFC198C29A9FB9DA
:1009F000779BFECFC19A8150C1F7DF91CF911F91B4
:100A00000F91089524E530E0629FA001639F500D8F
:100A1000729F500D11249C01220F331F280F391F84
:100A2000220F331F420F531F5093CD024093CC022D
:100A30000895C198C29880E88FB9779BFECFC19A7C
:100A4000C198C29880E48FB9779BFECFC19A80E0AD
:100A500090E0C198C29A1FB8779BFECFC19A0196C9
:100A600021E0883F9207A9F70895AF92BF92CF92F5
:100A7000DF92EF92FF920F931F938C01C09A87B37E
:100A80008F6287BB84EF91E020E931E0F901319773
:100A9000F1F70197D9F7C09880EA9FE00197F1F745
:100AA000C09A80E58DB9C19AC198C29881E28FB988
:100AB000779BFECFC19AC198C29888EC8FB9779B7B
:100AC000FECFC19AC198C29886E08FB9779BFECFBE
:100AD000C19AC198C29883E18FB9779BFECFC19A22
:100AE000C198C29880E28FB9779BFECFC19AC19816
:100AF000C2988CE08FB9779BFECFC19A9ADFC198DC
:100B0000C29881E28FB9779BFECFC19AC198C298F3
:100B10008EE98FB9779BFECFC19AC198C29880E2C7
:100B20008FB9779BFECFC19AB80180E090E06BD679
:100B30005B016C0120E030E04AE755E49CD37B0187
:100B40008C0120E030E040E85FE387D588231CF487
:100B500061E070E020C0C801B70120E03FEF4FE73F
:100B600057E425D51816A4F4C601B50120E030E0FD
:100B700040E251E480D3BBD180E991E005C0FC01A3
:100B80003197F1F76150704061157105C1F706C0EA
:100B9000C801B701ACD1CB010197F1F71F910F91BB
:100BA000FF90EF90DF90CF90BF90AF90089541DF1E
:100BB0000895C198613011F4C29A01C0C2988FB9EA
:100BC000779BFECFC19A08951F93162F61DE809107
:100BD000C902612F97DE8091CA02612F93DE809156
:100BE000CB02612F8FDE80E2612F8CDE1F91089592
:100BF0001F93162F28DE8091C802612F83DE80911B
:100C0000C902612F7FDE1F91089582EA90E09093E0
:100C1000D5028093D4020895EF92FF920F931F9311
:100C2000CF93DF9306DF2FB7F8948091D402909191
:100C3000D5029093D3028093D2022FBFE091D202CB
:100C4000F091D302C581D681FF24F39404C0F394BC
:100C50000D80DE81C02DCE17DF07C9F724E02F15E8
:100C600010F484E0F82E409181008F2D90E081589F
:100C70009F4F242F30E0821793073CF48FE7F80E44
:100C8000F092810021E8F20E05C047FD03C080E824
:100C90008093810080918100282F30E02F573040D1
:100CA00041E004C00F80D885C02D4F5F842F90E0B5
:100CB00082179307BCF380E090E060E070E0A2DE72
:100CC000809191009091920061E06BDEEE2402E051
:100CD00010E026C080E090E0B80194DE29853A85D6
:100CE0008091C5009091C6002817390731F4B801EA
:100CF0006150704080E090E085DE29853A8560E0B3
:100D00008091D2029091D3028C179D0709F461E083
:100D1000C90147DE0D80DE81C02DE3940F5F1F4FB8
:100D2000EF14C0F28091D2029091D3028C5B90407C
:100D300009F075C083E090E062E070E063DE82E578
:100D400060E0E0DD87E090E062E070E05BDE87E499
:100D500060E0D8DD8BE090E062E070E053DE82E49A
:100D600060E0D0DD80E090E063E070E04BDE81E3A6
:100D700060E0C8DD82E090E063E070E043DE8091F7
:100D8000AE029091AF0260E01FDF8091B0029091BF
:100D9000B10260E019DF8091B2029091B30260E08D
:100DA00013DF80E090E064E070E02CDE82E360E03E
:100DB000A9DD82E090E064E070E024DE8091B4027E
:100DC0009091B50260E000DF8091B6029091B70289
:100DD00060E0FADE8091B8029091B90260E0F4DE42
:100DE00080E090E065E070E00DDE85E260E08ADDA5
:100DF00082E090E065E070E005DE8091BA029091BB
:100E0000BB0260E0E1DE8091BC029091BD0260E037
:100E1000DBDE8091BE029091BF0260E0D5DEDF9103
:100E2000CF911F910F91FF90EF90089522EA30E04B
:100E30003093D5022093D40218DEEEDE08958FB7EA
:100E4000F8942091D4023091D5023093D3022093AC
:100E5000D2028FBFE091D202F091D302E081E23062
:100E600059F1E33030F4EE23A9F0E13009F03EC04F
:100E700008C0E43051F1E430D8F0E53009F036C074
:100E80002DC08FB7F894E091D402F091D502238160
:100E9000348108C08FB7F894E091D402F091D50264
:100EA000218132813093D5022093D4028FBF15C0A7
:100EB00080E090E08FDBEECF9FB7F8948091C40282
:100EC00080618093C4029FBFDCCF9FB7F89480916C
:100ED000C40280628093C4029FBF08959FB7F894B4
:100EE0008091C40280648093C4029FBF0895EF92F2
:100EF000FF920F931F937B018C0120E030E040E0D4
:100F00005FE480D388237CF0C801B70120E030E0A3
:100F100040E05FE45ED126D49B01AC01205030401C
:100F20004040504805C0C801B7011CD49B01AC012A
:100F3000B901CA011F910F91FF90EF900895A0E0B1
:100F4000B0E0E4EAF7E0DDC6DC012B01FA019C9198
:100F5000923008F439C1EB018881823008F433C142
:100F6000943069F4843009F02FC111969C91119747
:100F70008981981709F428C1ADE8B1E025C1843012
:100F800009F421C18230A9F4923009F01DC19A01FF
:100F9000AD0188E0EA010990AE01E90109929E01E4
:100FA0008150C1F7E201898111969C918923818347
:100FB00008C1923009F407C112962D903C90139706
:100FC000EB018A819B811496AD90BD90CD90DC9011
:100FD0001797EC80FD800E811F819101281B390B32
:100FE000B90137FF04C066277727621B730B603295
:100FF00071050CF061C0121613066CF5370148013B
:10100000062E04C096948794779467940A94D2F736
:1010100021E030E040E050E004C0220F331F441FC5
:10102000551F6A95D2F721503040404050402E2144
:101030003F2140235123211531054105510521F060
:1010400021E030E040E050E079018A01E628F7280D
:10105000082919293CC0232BD1F1260E371E350152
:101060004601062E04C096948794779467940A9458
:10107000D2F721E030E040E050E004C0220F331FFF
:10108000441F551F6A95D2F72150304040405040D0
:101090002A213B214C215D212115310541055105B6
:1010A00021F021E030E040E050E059016A01A6283B
:1010B000B728C828D9280BC0821593052CF01C012D
:1010C000AA24BB24650103C0EE24FF2487011196E6
:1010D0009C91D20111968C91981709F445C09923DF
:1010E00039F0A80197012A193B094C095D0906C08E
:1010F000A60195012E193F09400B510B57FD08C061
:1011000011823382228224833583468357831DC014
:1011100081E081833382228288279927DC01821B28
:10112000930BA40BB50B84839583A683B7830DC063
:10113000220F331F441F551F248335834683578353
:1011400082819381019793838283248135814681B3
:101150005781DA01C9010197A109B1098F5F9F4F3A
:10116000AF4FBF4328F30BC0918333822282EA0C36
:10117000FB1C0C1D1D1DE482F5820683178383E092
:101180008083248135814681578157FF1AC0C90168
:10119000AA2797FDA095BA2F81709070A070B070AB
:1011A0005695479537952795822B932BA42BB52BD6
:1011B00084839583A683B7838281938101969383E9
:1011C0008283DF0101C0D201CD01CDB7DEB7E2E1FC
:1011D000B4C5A0E2B0E0EEEEF8E09FC569837A8383
:1011E0008B839C832D833E834F835887E9E0EE2ECB
:1011F000F12CEC0EFD1ECE010196B7019DD48E019F
:101200000F5E1F4FCE010596B80196D48A8991E0F2
:1012100089278A8BC701B801AE01475E5F4F8FDE19
:10122000B6D3A096E6E095C5A0E2B0E0E9E1F9E02A
:1012300074C569837A838B839C832D833E834F831C
:101240005887F9E0EF2EF12CEC0EFD1ECE01019631
:10125000B70172D48E010F5E1F4FCE010596B80103
:101260006BD4C701B801AE01475E5F4F68DE8FD314
:10127000A096E6E06EC5A0E2B0E0E0E4F9E041C58A
:1012800069837A838B839C832D833E834F83588726
:10129000CE010196BE01675F7F4F4ED4CE01059609
:1012A000BE016F5E7F4F48D49985923088F089895E
:1012B0008230C8F0943019F4823051F404C0843084
:1012C00029F4923081F48DE891E0C6C0923049F45F
:1012D00020E09A858A89981321E02A87CE01099611
:1012E000BBC0823049F420E09A858A89981321E0B6
:1012F0002A8BCE014196B0C02D843E844F845888FD
:101300006D887E888F88988CEE24FF248701AA241C
:10131000BB24650140E050E060E070E0E0E0F0E018
:10132000C10181709070892BE9F0E60CF71C081D53
:10133000191D9A01AB012A0D3B1D4C1D5D1D80E05E
:1013400090E0A0E0B0E0E614F7040805190520F4E9
:1013500081E090E0A0E0B0E0BA01A901480F591F78
:101360006A1F7B1FAA0CBB1CCC1CDD1C97FE08C08F
:1013700081E090E0A0E0B0E0A82AB92ACA2ADB2ADE
:101380003196E032F10549F0660C771C881C991CF7
:101390005694479437942794C3CFFA85EA892B89CA
:1013A0003C898B859C85280F391F2E5F3F4F17C0C6
:1013B000CA0181709070892B61F016950795F7949A
:1013C000E79480E090E0A0E0B0E8E82AF92A0A2B50
:1013D0001B2B76956795579547952F5F3F4F77FD68
:1013E000E7CF0CC0440F551F661F771F17FD4160E4
:1013F000EE0CFF1C001F111F21503040403090E0C8
:10140000590790E0690790E4790760F32B8F3C8FD0
:10141000DB01CA018F779070A070B07080349105A5
:10142000A105B10561F447FD0AC0E114F10401050D
:10143000110529F0405C5F4F6F4F7F4F40781A8E47
:10144000FE1711F081E08A8F4D8F5E8F6F8F78A32A
:1014500083E0898FCE0149969AD2A096E2E16DC4CD
:10146000A8E1B0E0E5E3FAE054C469837A838B83B2
:101470009C832D833E834F835887B9E0EB2EF12C5C
:10148000EC0EFD1ECE010196B70156D38E010F5E04
:101490001F4FCE010596B8014FD32985223008F49D
:1014A0007EC03989323010F4B8017CC08A859A89AF
:1014B00089278A87243011F0223031F4231709F06C
:1014C0006EC06DE871E06EC0343039F41D861E8642
:1014D0001F86188A1C861B8604C0323021F484E0E3
:1014E0008987B7015FC02B853C858B899C89281B28
:1014F000390B3C872B87ED84FE840F851889AD88D6
:10150000BE88CF88D88CEA14FB040C051D0540F476
:10151000EE0CFF1C001F111F215030403C872B8711
:1015200020E030E040E050E080E090E0A0E0B0E477
:1015300060E070E0EA14FB040C051D0540F0282B68
:10154000392B4A2B5B2BEA18FB080C091D09B695B1
:10155000A79597958795EE0CFF1C001F111F6F5FD5
:101560007F4F6F31710531F7DA01C9018F779070C4
:10157000A070B07080349105A105B10561F427FD1C
:101580000AC0E114F1040105110529F0205C3F4F68
:101590004F4F5F4F20782D873E874F87588BBE0176
:1015A000675F7F4FCB01F3D16896EAE0CEC3A8E135
:1015B000B0E0ECEDFAE0B1C369837A838B839C835E
:1015C0002D833E834F83588789E0E82EF12CEC0E63
:1015D000FD1ECE010196B701AFD28E010F5E1F4FE7
:1015E000CE010596B801A8D28985823038F0898964
:1015F000823020F0C701B80117D301C08FEF689681
:10160000E6E0A7C3A8E1B0E0E7E0FBE086C36983BA
:101610007A838B839C832D833E834F83588789E015
:10162000E82EF12CEC0EFD1ECE010196B70184D2FE
:101630008E010F5E1F4FCE010596B8017DD28985C0
:10164000823038F08989823020F0C701B801ECD2AD
:1016500001C08FEF6896E6E07CC3A8E1B0E0E2E36A
:10166000FBE05BC369837A838B839C832D833E83FA
:101670004F83588789E0E82EF12CEC0EFD1ECE0139
:101680000196B70159D28E010F5E1F4FCE0105960C
:10169000B80152D28985823038F08989823020F0B1
:1016A000C701B801C1D201C081E06896E6E051C32C
:1016B000A8E0B0E0EDE5FBE02DC39B01AC0183E0C9
:1016C0008983DA01C9018827B7FD83959927AA275D
:1016D000BB27B82E211531054105510519F482E0CB
:1016E000898339C08823A9F0203080E0380780E062
:1016F000480780E8580729F460E070E080E09FEC3C
:101700002EC0EE24FF248701E21AF30A040B150B06
:1017100002C079018A018EE1C82ED12CDC82CB82F5
:10172000ED82FE820F831887C801B701E1D00197CF
:101730001816190684F4082E04C0EE0CFF1C001FB6
:10174000111F0A94D2F7ED82FE820F831887C81A00
:10175000D90ADC82CB82BA82CE01019618D12896B2
:10176000E9E0F4C2ACE0B0E0E7EBFBE0DAC26983A9
:101770007A838B839C83CE010196BE016B5F7F4F82
:10178000DBD18D81823061F1823050F1843021F4DF
:101790008E81882351F12EC02F81388537FD20C0DE
:1017A0006E812F3131051CF06623F9F023C08EE1E4
:1017B00090E0821B930B29853A854B855C8504C09C
:1017C00056954795379527958A95D2F76623B1F0B8
:1017D00050954095309521953F4F4F4F5F4F0EC02C
:1017E00020E030E040E050E009C02FEF3FEF4FEF46
:1017F0005FE704C020E030E040E050E8B901CA01F2
:101800002C96E2E0AAC2A8E0B0E0E8E0FCE081C2E9
:101810007B018C01611571058105910519F482E048
:1018200089835FC083E089838EE1C82ED12CDC825E
:10183000CB82ED82FE820F831887C801B70158D092
:10184000FC013197F7FF3BC0222733272E1B3F0BAC
:1018500057016801022E04C0D694C794B794A79488
:101860000A94D2F740E050E060E070E081E090E060
:10187000A0E0B0E004C0880F991FAA1FBB1F2A95E3
:10188000D2F70197A109B1098E219F21A023B1238D
:101890000097A105B10521F041E050E060E070E063
:1018A0004A295B296C297D294D835E836F83788764
:1018B0008EE190E08E1B9F0B9C838B8312C0309730
:1018C00081F00E2E04C0EE0CFF1C001F111F0A94A5
:1018D000D2F7ED82FE820F831887CE1ADF0ADC82F0
:1018E000CB821A82CE01019652D02896EAE02DC210
:1018F000EF92FF920F931F937B018C0180E0E8161B
:1019000080E0F80681E0080780E0180788F48FEF90
:10191000E816F1040105110531F028F088E090E0A7
:10192000A0E0B0E017C080E090E0A0E0B0E012C01E
:1019300080E0E81680E0F80680E0080781E01807FC
:1019400028F088E190E0A0E0B0E004C080E190E001
:10195000A0E0B0E020E230E040E050E0281B390B8E
:101960004A0B5B0B04C016950795F794E7948A958C
:10197000D2F7F701EB56FE4F8081281B3109410950
:101980005109C9011F910F91FF90EF900895DF92C7
:10199000EF92FF920F931F93FC01E480F580068184
:1019A0001781D1808081823048F480E090E0A0E10E
:1019B000B0E0E82AF92A0A2B1B2BA5C0843009F4D1
:1019C0009FC0823021F4EE24FF24870105C0E1147A
:1019D000F1040105110519F4E0E0F0E096C0628120
:1019E00073819FEF623879070CF05BC022E83FEF0C
:1019F000261B370B2A3131052CF020E030E040E087
:101A000050E02AC0B801A701022E04C07695679560
:101A1000579547950A94D2F781E090E0A0E0B0E0B6
:101A200004C0880F991FAA1FBB1F2A95D2F70197E0
:101A3000A109B1098E219F21A023B1230097A105FF
:101A4000B10521F081E090E0A0E0B0E09A01AB01A7
:101A5000282B392B4A2B5B2BDA01C9018F77907029
:101A6000A070B07080349105A105B10539F427FF4D
:101A700009C0205C3F4F4F4F5F4F04C0215C3F4F78
:101A80004F4F5F4FE0E0F0E02030A0E03A07A0E0E9
:101A90004A07A0E45A0710F0E1E0F0E079018A017A
:101AA00027C06038710564F5FB01E158FF4FD8018C
:101AB000C7018F779070A070B07080349105A10538
:101AC000B10539F4E7FE0DC080E490E0A0E0B0E09D
:101AD00004C08FE390E0A0E0B0E0E80EF91E0A1F1A
:101AE0001B1F17FF05C016950795F794E7943196CD
:101AF00087E016950795F794E7948A95D1F705C086
:101B0000EE24FF248701EFEFF0E06E2F6795662744
:101B10006795902F9F77D794DD24D7948E2F869545
:101B2000492F462B582F5D29B701CA011F910F91EC
:101B3000FF90EF90DF900895FC01DB01408151811F
:101B40002281622F6F7770E0221F2227221F93814C
:101B5000892F880F822B282F30E0991F9927991FF2
:101B600011969C93119721153105A9F54115510541
:101B70006105710511F482E037C082E89FEF13968A
:101B80009C938E9312979A01AB0167E0220F331F4B
:101B9000441F551F6A95D1F783E08C930DC0220F27
:101BA000331F441F551F12968D919C9113970197D7
:101BB00013969C938E931297203080E0380780E034
:101BC000480780E4580758F314962D933D934D939E
:101BD0005C93179708952F3F310579F4411551050E
:101BE0006105710519F484E08C93089564FF03C0C6
:101BF00081E08C9312C01C9210C02F573040139676
:101C00003C932E93129783E08C9387E0440F551FEB
:101C1000661F771F8A95D1F7706414964D935D9374
:101C20006D937C93179708951F93DC01FB019C91A2
:101C3000923008F447C08081823008F443C0943069
:101C400051F411961C91843099F58181682F70E0D0
:101C5000611B71093FC0843021F0923031F4823031
:101C6000B9F18181882389F12DC011961C911197BA
:101C70008230F1F081811817D9F412962D913C91A0
:101C80001397828193818217930794F0281739075D
:101C9000BCF014968D919D910D90BC91A02D248146
:101CA000358146815781281739074A075B0718F4A1
:101CB000112341F00AC082179307A407B50740F427
:101CC000112319F061E070E005C06FEF7FEF02C0F3
:101CD00060E070E0CB011F910895AA1BBB1B51E18E
:101CE00007C0AA1FBB1FA617B70710F0A61BB70B8C
:101CF000881F991F5A95A9F780959095BC01CD0131
:101D000008952F923F924F925F926F927F928F929F
:101D10009F92AF92BF92CF92DF92EF92FF920F937A
:101D20001F93CF93DF93CDB7DEB7CA1BDB0B0FB684
:101D3000F894DEBF0FBECDBF09942A883988488841
:101D40005F846E847D848C849B84AA84B984C884D7
:101D5000DF80EE80FD800C811B81AA81B981CE0FCE
:101D6000D11D0FB6F894DEBF0FBECDBFED010895B3
:041D7000F894FFCF15
:101D7400FF03900048002400446F6E652100680052
:101D8400506C6561736520776169742E2E2E007026
:101D940000802D2D436F6C6F727320434D502D2D99
:101DA4000082002F2F205374617274202020202F72
:101DB4002F00020000BC00D6003E0193002F2F200C
:101DC400526573756C74733A202F2F0003A20000C0
:101DD40000BC00BC00AD002F2F205365747570202B
:101DE4002020202F2F00010000F0003E01A200C798
:101DF400002F2F43616C6C6962726174652F2F0030
:101E040004D60000000A012401E1002F2F205365AD
:101E140074207A65726F202F2F0005D600000024ED
:101E240001F000FB002F2F204261636B2020202053
:101E3400202F2F0000D6000000F0000A0115012F0A
:101E44002F20526561646D652020202F2F00010032
:101E5400008201A200D6002F015B2050726F6772CE
:101E6400616D6D65723A5D5B2020206272756E71E2
:101E74006C2020205D5B20202020286174292020F4
:101E840020205D5B2020676D61696C2E636F6D207F
:101E94005D00003E01000082018201490100000052
:101EA4000000000000000102020303030304040411
:101EB40004040404040505050505050505050505D3
:101EC40005050505050606060606060606060606B3
:101ED400060606060606060606060606060606069E
:101EE4000606060606070707070707070707070783
:101EF400070707070707070707070707070707076E
:101F0400070707070707070707070707070707075D
:101F1400070707070707070707070707070707074D
:101F24000707070707080808080808080808080832
:101F3400080808080808080808080808080808081D
:101F4400080808080808080808080808080808080D
:101F540008080808080808080808080808080808FD
:101F640008080808080808080808080808080808ED
:101F740008080808080808080808080808080808DD
:101F840008080808080808080808080808080808CD
:101F940008080808080808080808080808080808BD
:061FA4000808080808000F
:00000001FF
