:100000000C9446020C94E0030C943C0C0C94630298
:100010000C9463020C94000C0C9463020C94630225
:100020000C9463020C9463020C9463020C946302BC
:100030000C9463020C9463020C9463020C946302AC
:100040000C9463020C9463020C9463020C9463029C
:100050000C94630204030904160362007200750025
:100060006E0071006C002E006400650076001403C1
:1000700043006F006C006F007200730043004D007E
:1000800050001201100100000008C016DF05010336
:100090000102000109022200010100800A09040096
:1000A00000010300000009210101000122160007E0
:1000B0000581030800640600FF0901A1011500265F
:1000C000FF00750895800900B20201C00000000021
:1000D0000000002F00000007000700147F147F14A9
:1000E000242A7F2A12C4C8102646364955225000B9
:1000F00005030000001C2241000041221C001408DE
:100100003E081408083E0808000050300010101087
:100110001010006060000020100804023E514945A4
:100120003E00427F400042615149462141454B31EA
:100130001814127F1027454545393C4A494930017A
:10014000710905033649494936064949291E0036D1
:100150003600000056360000081422410014141422
:100160001414004122140802015109063E59656524
:100170005E7E1111117E7F494949363E414141223F
:100180007F4141221C7F494949417F090909013EBC
:100190004149497A7F0808087F00417F410020409B
:1001A000413F017F081422417F404040407F020CC4
:1001B000027F7F0408107F3E4141413E7F090909CB
:1001C000063E4151215E7F09192946464949493178
:1001D00001017F01013F4040403F1F2040201F3F61
:1001E0004038403F631408146307087008076151E2
:1001F000494543007F414100552A552A5500414158
:100200007F0004020102044040404040000102041B
:100210000020545454787F4844443838444444209F
:10022000384444487F3854545418087E0901020C5D
:100230005252523E7F0804047800447D4000204022
:10024000443D007F1028440000417F40007C04189A
:1002500004787C0804047838444444387C1414142A
:1002600008081414187C7C080404084854545420CA
:10027000043F4440203C4040207C1C2040201C3C4B
:100280004030403C44281028440C5050503C4464BA
:10029000544C44FFFF7F7F455D5D5D5D5D5D5D5D51
:1002A0005D5D7F7F415F5D5D5D5D5D5D5D5D5D4170
:1002B0007F7F415F5F5F5F5F5F5F5F5F5F7F7F410A
:1002C0005F5D5D5D5D5D5D5D5D5D417F7F437D7D0E
:1002D0007D7D7D7D7D7D7D7F7F5155555555555566
:1002E0005555457F7FFFFFFFFFFFFFFFFFFFFFFF2C
:1002F000FFFFFFFFFFFFFFFFFFFFFFFFFFFFFFFF0E
:10030000FFFFFFFFFFFFFFFFFFFFFFFFFFFFFFFFFD
:10031000FFFFFFFFFFFFFFFFFFFFFFFFFFFFFFFFED
:10032000FFFFFFFFFFFFFFFFFFFFFFFFFFFFFFFFDD
:10033000FFFFFFFFFFFFFFFFFFFFFFFFFFFF0C0CB3
:10034000FCFCFCFCFCFCFCFCFCFCFCFCFCFCFCFCED
:10035000FCFCFCFCFCFFFFFF0C0CFCFCFCFCF0F0CC
:10036000F3F3F3C3CFCFCFCFC3F3F3F3F0F0FCFC41
:10037000FCFC0000FFFFFF00009F9F9C9C9C9C9C3E
:100380009C9C9C9C9C9C9C9C9C9C9C8080FFFFFFBC
:10039000FFFFE0E0E7E7E7E7E7E7E7E7E7E7E7E7CB
:1003A000E7E7E7E7E7E7E7E7E7FFFFFFE0E0FFFF73
:1003B000FFFFFFFFFFFFFFFFFFFFFFFFFFFFFFFF4D
:1003C000FFFFFFFFFFFFE0E0FFFFFFE0E0FFFFFFB9
:1003D000FFFFFFFFFFFFFFFFFFFFFFFFFFFFFFFF2D
:1003E000FFFFFFFFFFFFFFFFFFFFFFFFFFFFFFFF1D
:1003F000FFFFFFFFFFFFFFFFFFFFFFFFFFFFFFFF0D
:10040000FFFFFFFFFFFFFFFFFFFFFFFFFFFFFFFFFC
:10041000FFFFFFFFFFFFFFFFFFFFFFFFFFFFFFFFEC
:10042000FFFFFFFFFFFFFFFFFFFFFFFFFFFFFFFFDC
:10043000FFFFFFFFFFFFFFFFFFFFC8DBDBC3FFCBBB
:10044000FBFBFBFFCBDFDFC3FFCBFBFBC3FFCBDB48
:10045000DBDF037FFFC0FFFF017E665A5A425A5E10
:10046000627FFFC7BBABABCFFFCBFBC3FBC3FFCBF5
:10047000DBDBC3DBFFC2FFC0FFDFFFCBDBDBFFCB80
:10048000DBDBC3FFCBFBC3FBC3FFFF0011241FBE9D
:10049000CFE5D8E0DEBFCDBF13E0A0E6B0E0E2EDEF
:1004A000F6E302C005900D92A435B107D9F713E029
:1004B000A4E5B3E001C01D92AB3CB107E1F70E9497
:1004C0002A0A0C94671B0C94000085B7826085BFD4
:1004D0008BB780648BBF8BE480939D038AE5809308
:1004E0009C0308951F93DC01162F80919C0384FFC9
:1004F00007C080919D0398E8892780939D0303C0DE
:100500008AE580939C03912FEEE9F3E08D9181932E
:100510009150E1F78EE993E0612F0E94DC031C5FAC
:1005200010939C031F9108951F93CF93DF936091C5
:10053000AD03635067FDBFC08091AA03CCE0D0E05B
:10054000C81BD109CF54DC4F8091A9038D3209F02B
:100550009FC0683009F0ADC083EC809391038AE5B9
:1005600080936000109254038881807641F0CE0120
:100570000E94D80D282F8F3F09F479C07FC09A813F
:1005800010929A038981882321F410929B0322E020
:1005900067C0853019F49093AE0361C0863009F0CE
:1005A0004AC08B81813041F482E890E09093AC03A3
:1005B0008093AB0322E13BC0823041F484E990E0B8
:1005C0009093AC038093AB0322E231C08330D1F42B
:1005D0008A81882341F484E590E09093AC03809372
:1005E000AB0324E024C0813019F488E590E018C002
:1005F0008230E1F48EE690E09093AC038093AB03FD
:1006000024E115C0813241F486EA90E09093AC0376
:100610008093AB0329E00BC0823241F486EB90E07B
:100620009093AC038093AB0326E101C020E080E40B
:100630008093540323C0883021F421E080EB93E0C1
:1006400011C0893019F49093B00309C08A3011F4B5
:1006500021E006C08B3019F48BE480939D0320E0E9
:100660008AE993E09093AC038093AB0307C0888141
:1006700087FD2E8180E88093540306C08F818823F4
:1006800019F48E81821708F0822F8093610011C0C7
:100690008091540387FF0DC0CE010E94ED0D8F3F66
:1006A00021F48EE18093600004C0882311F0109241
:1006B00061001092AD038091600084FF5AC0809168
:1006C00061008F3F09F455C0182F893008F018E0F9
:1006D000811B809361008091910398E88927809322
:1006E0009103112399F18091540387FF09C082E996
:1006F00093E0612F0E94980D182F8930A0F526C035
:100700002091AB033091AC0386FF0DC0A2E9B3E0AA
:1007100080E090E0F901E80FF91FE491ED93019674
:100720001817C1F708C0D901912FE2E9F3E08D91C4
:1007300081939150E1F71150812F90E01F5F019656
:10074000820F931F9093AC038093AB0382E993E0F5
:10075000612F0E94DC03612F6C5F6C3041F08FEFE2
:100760008093610004C08FEF809361006EE160931D
:10077000600094E180B3867031F49150D9F7109203
:10078000AE031092A803DF91CF911F910895A82F77
:10079000B92F80E090E041E050EA609530E009C078
:1007A0002D9182279795879510F084279527305EA5
:1007B000C8F36F5FA8F30895EADF8D939D930895C2
:1007C000CF93CFB7CF93DF93C395819BE9F7819BFD
:1007D0000BC0819B09C0819B07C0819B05C0819B89
:1007E00003C0819B01C08BC06F93C091AA03DD271A
:1007F000CF54DC4F2F9365E5819B03C02F916F9100
:10080000E6CF0F931F934F9320E040E15F9300B337
:10081000067001FB27F93F9350E03BE039C01670AA
:1008200040642F77012F5F5F1EC0406810B31670C1
:100830002F7752501FC0406400B32F770670D1F15C
:100840005F5F00C023C0406210B32F77167091F134
:100850005F5F00C025C006701027515012F45D5F25
:100860000000115027952C3F10B3C8F616700127D1
:10087000015027952C3FC8F64227499300B30670D4
:1008800010274F73115027952C3FA8F64695469593
:1008900010B3167079F00127015027952C3F98F678
:1008A0006B5A60F3315000B3B0F600C010E41ABFC9
:1008B000002719C03B503195C31BD04010E41ABF2C
:1008C0000881033C09F10B34F9F02091A803198148
:1008D000110F1213EDCF4A81441F093651F10D3229
:1008E00011F0013E29F70093AF033F915F914F91C3
:1008F0001F910F912F916F91CAB7C6FD65CFDF9100
:10090000CF91CFBFCF9118952091AF03222369F3E8
:100910001091AD03112391F5343092F13093AD0372
:100920002093A9031091AA033BE0311B3093AA0343
:1009300027C00091AD0301300CF50AE54F7049F472
:100940003091600034FD1DC000936000C1E9D3E028
:100950001CC030919C0334FD14C000939C03CDE96E
:10096000D3E013C0052710E000C0000002BB1AC08E
:10097000052710E0221F1DC010E021C04AE502C07B
:1009800032ED432FC4E1D0E032E011B31660919A0A
:1009900002B311BB56E020E865E320FF052702BB48
:1009A000279517951C3FF0F66695B8F7B1F720FF2D
:1009B000052702BB279517951C3FD0F6279517955D
:1009C00017FF052700001C3F02BBB0F629913A959E
:1009D00019F7097F1091AE03110FC651D04002BB29
:1009E00011F01093A80310E41ABF026011B3197F2D
:1009F000402F497F54E05A95F1F702BB11BB42BB2F
:100A000074CF86E0809357038091550390E024E0F3
:100A1000880F991F2A95E1F780935603E9EBF0E0E0
:100A200088E224E192E0218380839283339681508F
:100A30008E31C9F7089508958091BB00815080934D
:100A4000BB00882319F484E08093BB000895809153
:100A5000BB008F5F8093BB00853019F481E08093E9
:100A6000BB000895FC019281923009F1933018F493
:100A7000913021F505C0933051F09430F9F40FC056
:100A80008181815081838930F0F486E206C08181C2
:100A90008F5F81838732B8F089E0818308958081F8
:100AA00081508083823078F482E58083089580814C
:100AB0008F5F8083823538F090830895108281E1C2
:100AC000818382E0828308952F923F924F925F92BA
:100AD0006F927F928F929F92AF92BF92CF92DF924E
:100AE000EF92FF920F931F93CF93DF930E94970F84
:100AF00080E090E065E070E00E94800F80918800C7
:100B00009091890061E00E94630E8091560361E03C
:100B10000E94D8102091B800822E869486948694E4
:100B2000277081E090E0982E01C0990C2A95EAF791
:100B3000AA2464E5462E51E0652E712C43E0542E24
:100B40006AC02A2C33246101CC0CDD1C7601E20C36
:100B5000F31C89EB90E0E80EF91EE701B980B6942A
:100B6000B694B694B49C800111248881080F111D9D
:100B7000C80164E570E00E94AD1A806860E00E94E0
:100B80009610C80164E570E00E94AD1A862F80645B
:100B900060E00E94961089818770362D01C0330F66
:100BA0008A95EAF780915703E9EBF0E0859DA00173
:100BB00011244E0F5F1FD601B70115C02181EB0133
:100BC00098818081981771F4822F869586958695F5
:100BD000B81641F42770C30102C0880F991F2A95E7
:100BE000E2F7382B3396E417F50741F7A20DB31D52
:100BF000A754BF4F9091B7008C91981739F48B147C
:100C000029F4892D8F77382BE0E89E2A832F61E025
:100C10000E949610A39480915703A81608F491CFD0
:100C200097FC1FC004E5809E800111248091B700CD
:100C3000080F111DC80164E570E00E94AD1A8068BC
:100C400060E00E949610C80164E570E00E94AD1A51
:100C5000862F806460E00E949610892D61E00E94DA
:100C60009610DF91CF911F910F91FF90EF90DF9041
:100C7000CF90BF90AF909F908F907F906F905F903C
:100C80004F903F902F9008950E949D1A6FE470E05E
:100C90000E94C11A8E5F8093B7000E949D1A6CE17A
:100CA00070E00E94C11A865F8093B80008950E9488
:100CB000440686E0809357038091550390E074E0EA
:100CC000880F991F7A95E1F780935603E9EBF0E0DE
:100CD00088E224E192E021838083928333968150DD
:100CE0008E31C9F780E090E060E070E00E94800FF4
:100CF000809171009091720061E00E94630E0E94E9
:100D000064050895CF93DF93C9EBD0E0CE010E9434
:100D10003205239680E0C73DD807C1F789E014C0AB
:100D200090E0DC01AA0FBB1FA80FB91FA754BF4F4B
:100D30000197FC01EE0FFF1FE80FF91FE754FF4F6B
:100D4000828112968C93822F282F215048F7909100
:100D5000B9008091B700981709F0CAC09091BA0005
:100D60008091B800981709F0C3C00E944406809192
:100D70005703282F2F5F20935703855090915503D9
:100D80009295907F982B909356032A3008F4B0C028
:100D90000E94970F809155038F5F80935503833096
:100DA000D0F11092550383E090E062E070E00E9481
:100DB000800F80919E0090919F0060E00E94630EE2
:100DC00083E090E063E070E00E94800F8091A900D2
:100DD0009091AA0060E00E94630E80E090E065E0E0
:100DE00070E00E94800F8091B3009091B40061E0A8
:100DF0000E94630E2FB7F89480918503909186032B
:100E0000826090938603809385032FBF88EC809344
:100E1000B6008EE153C083E090E062E070E00E9493
:100E2000800F80917C0090917D0060E00E94630EB5
:100E300082E090E063E070E00E94800F8091930078
:100E40009091940060E00E94630E8091550360E0F1
:100E50000E94D81080E090E065E070E00E94800F72
:100E6000809188009091890061E00E94630E8091DA
:100E7000560361E00E94D81080E261E00E94120EE9
:100E80006091B60070E0882777FD8095982F0E94CA
:100E90002C1720E030E040EC5FE30E94F0150E9448
:100EA00020136093B6008091550390E09C01220FBF
:100EB000331F280F391F8091B500821B8093B50026
:100EC0008399FECF80E49FE10197F1F780E88ABF24
:100ED0008091B600809305018091B50080938A03CC
:100EE000809155038295807F809356030E94570618
:100EF0000E946405DF91CF9108951F939C016AE0E1
:100F000070E00E94AD1A462F172F862F972F6AE0A8
:100F100070E00E94AD1AE82FF0E084E0EE0FFF1FB2
:100F20008A95E1F7C9016AE070E00E94AD1A90E08D
:100F3000E82BF92B842F912F6AE070E00E94AD1A04
:100F4000CB016AE070E00E94AD1A382F20E0E22B5E
:100F5000F32BCF011F910895109284031092830305
:100F6000AB9AA39A20E030E040E050E060E0E0E09F
:100F7000F4E0369A3699FECF84B195B1909384030C
:100F800080938303809183039091840391FF0BC02E
:100F90008091830390918403DF01A81BB90BB09368
:100FA0008403A09383038091830390918403A0E042
:100FB000B0E0280F391F4A1F5B1F6F5F653FC9F6FE
:100FC000AB98BB27A52F942F832F909384038093F6
:100FD0008303089590E02091830330918403FC0102
:100FE000EE0FFF1FE959FC4F31832083880F991FB3
:100FF000FC01E75AFC4F0190F081E02DE21BF30B5E
:10100000DC01AB58BC4F1196FC93EE93F7FF06C082
:10101000882799278E1B9F0B8D939C930895209171
:10102000830330918403E82FF0E0EE0FFF1FE75AAF
:10103000FC4F31832083089580916703909168036A
:1010400090935A03809359038091690390916A03A6
:1010500090935C0380935B0380916B0390916C038E
:1010600090935E0380935D0380916D0390916E0376
:101070009093600380935F0380916F03909170035E
:101080009093620380936103809171039091720346
:10109000909364038093630380917303909174032E
:1010A0009093660380936503109276031092750304
:1010B000109278031092770310927A0310927903BA
:1010C00010927C0310927B0310927E0310927D039A
:1010D0001092800310927F0310928203109281037A
:1010E0000E94970F85E090E063E070E00E94800F1F
:1010F00083E560E00E94120E81E660E00E94120E1D
:1011000086E760E00E94120E85E660E00E94120E03
:1011100084E660E00E94120E88E893E120E931E065
:10112000F9013197F1F70197D9F708954F925F923E
:101130006F927F929F92AF92BF92CF92DF92EF9287
:10114000FF920F931F93CF93DF933C018FB7F894D7
:101150009BB79F779BBF8FBF0E94970F80E090E067
:1011600061E070E00E94800F809102019091030184
:1011700060E00E94630E81E090E063E070E00E9416
:10118000800F8BE560E00E94120E81E0809358038F
:101190000E949402C9EDD0E0992470E9472E71E0D5
:1011A000572E8CEF90E00E94C8096091040170E016
:1011B00080E090E00E94DE1720E030E04AE754E44F
:1011C0000E94F6145B016C0120E030E04AE755E430
:1011D0000E94F6147B018C0120E030E040E85FE3E0
:1011E0000E94FC1688231CF461E070E022C0C80154
:1011F000B70120E03FEF4FE757E40E949C16181616
:10120000A4F4C601B50120E030E040E251E40E94C0
:10121000F6140E94201305C0C2010197F1F7615036
:10122000704061157105C1F707C0C801B7010E9480
:101230002013CB010197F1F783E260E00E94120EC8
:10124000809158038F5F809358030E949402888195
:1012500099810E94C8096091040170E080E090E0EB
:101260000E94DE1720E030E04AE754E40E94F614C2
:101270005B016C0120E030E04AE755E40E94F6147F
:101280007B018C0120E030E040E85FE30E94FC1627
:1012900088231CF461E070E022C0C801B70120E09F
:1012A0003FEF4FE757E40E949C161816A4F4C601BE
:1012B000B50120E030E040E251E40E94F6140E94C3
:1012C000201305C0C2010197F1F76150704061150C
:1012D0007105C1F707C0C801B7010E942013CB01F7
:1012E0000197F1F70E94AC0783E260E00E94120EC2
:1012F000809158038F5F809358030E949402892D38
:10130000F30109959394229683E0981609F049CF4A
:1013100081E2809358030E9494028CEF90E00E9437
:10132000C8098DE560E00E94120E82E090E065E061
:1013300070E00E94800F8091F1009091F20060E0D7
:101340000E94630E88E893E120E931E0F9013197CA
:10135000F1F70197D9F78FEF809358030E94940219
:101360009FB7F89480E48ABF8BB780688BBF9FBF1C
:10137000DF91CF911F910F91FF90EF90DF90CF9071
:10138000BF90AF909F907F906F905F904F90089527
:10139000AC0120E030E061E070E0DB98CB01022E90
:1013A00002C0880F991F0A94E2F784239523892BA2
:1013B00011F0DA9A01C0DA98DB9A2F5F3F4F2031A3
:1013C000310559F7DC9A0000DC9808951F93182F17
:1013D000CB010E94C809812F02C0000081508823E0
:1013E000E1F7109580E090E00E94C80902C000007B
:1013F00011501123E1F780E090E00E94C8091F918D
:101400000895DC98DB988AB38C618ABB80E090E019
:101410000E94C809089520E030E0482F50E0DB9892
:10142000CA01022E02C0959587950A94E2F780FFC3
:1014300002C0DA9A01C0DA98DB9A2F5F3F4F23305F
:10144000310569F7DC9A0000DC9808958FB7F894AD
:101450008FBF08951F931BBA1ABA18BA17BA15BAD4
:10146000A39A939A11BA85B3806F85BB84B38F70AA
:1014700084BB90E898B988E085BF9BBF12BC13BEBF
:101480001FBC1EBC15BC19BE0E94E60D86E085BDC2
:1014900089E087B987E886B9369A3699FECF84B154
:1014A00095B190938403809383030E9494020E94D9
:1014B000010A0E94940288ED90E00E94C8090E94EF
:1014C000940288EE93E00E94A7120E9494027894FE
:1014D0001FEF0E9494028FB7F894209185033091FA
:1014E000860330938803209387038FBF80918703FF
:1014F00080FF1DC02FB7F8948091850390918603DB
:101500008E7F90938603809385032FBF2FB7F89427
:10151000809185039091860390938803809387033D
:101520002FBF8091870386FD02C00E94EF108FB706
:10153000F89420918503309186033093880320939B
:1015400087038FBF8091870381FF1AC02FB7F8945C
:1015500080918503909186038D7F9093860380937D
:1015600085032FBF0E94B2122FB7F8948091850394
:1015700090918603816090938603809385032FBFAB
:101580008FB7F894209185033091860330938803B8
:10159000209387038FBF8091870384FF1EC08AEE4C
:1015A00097E00E949608109358032FB7F894809103
:1015B0008503909186038F7E9093860380938503A5
:1015C0002FBF2FB7F8948091850390918603816097
:1015D00090938603809385032FBF8FB7F894209153
:1015E00085033091860330938803209387038FBF50
:1015F0008091870385FF10C08FE098E00E949608D5
:101600002FB7F89480918503909186038F7D9093F6
:101610008603809385032FBF8FB7F89420918503AD
:101620003091860330938803209387038FBF809186
:1016300087039091880391FF1DC02FB7F894809184
:101640008503909186039D7F909386038093850305
:101650002FBF0E941C088FB7F8948FBF2FB7F89444
:101660008091850390918603816090938603809397
:1016700085032FBF8FB7F89420918503309186039F
:1016800030938803209387038FBF8091870382FF65
:1016900026C02FB7F89480918503909186038B7FA5
:1016A00090938603809385032FBF8091C903909107
:1016B000CA0321E08234920731F08657914019F035
:1016C00081E00E9418122FB7F894809185039091C1
:1016D0008603816090938603809385032FBF8FB725
:1016E000F8942091850330918603309388032093EA
:1016F00087038FBF8091870383FF26C02FB7F8949D
:101700008091850390918603877F909386038093D1
:1017100085032FBF8091C9039091CA0321E08234D1
:10172000920731F08657914019F080E00E9418121C
:101730002FB7F894809185039091860381609093F0
:101740008603809385032FBF8FB7F894209185037C
:101750003091860330938803209387038FBF809155
:10176000870387FF1EC02FB7F8948091850390915F
:1017700086038F7790938603809385032FBF0E9403
:10178000570614BC89B7806489BF2FB7F89480913D
:1017900085039091860380649093860380938503EC
:1017A0002FBF8FB7F8942091850330918603309333
:1017B0008803209387038FBF8091870390918803CC
:1017C00090FF87CE2FB7F894809185039091860380
:1017D0009E7F90938603809385032FBF89B78F7B6D
:1017E00089BF0E941B052FB7F894809185039091C3
:1017F00086038F7B90938603809385032FBF69CEEA
:101800001F920F920FB60F9211242F933F934F9375
:101810005F936F937F938F939F93AF93BF93EF9358
:10182000FF9380918A03815080938A038F5F99F49C
:10183000809105018150809305018F5F31F4809183
:10184000B600809305010E9444060E9482068091A2
:10185000B50080938A03FF91EF91BF91AF919F9163
:101860008F917F916F915F914F913F912F910F9049
:101870000FBE0F901F9018951F920F920FB60F92E8
:1018800011242F933F934F935F936F937F938F9385
:101890009F93AF93BF93EF93FF9380E49FE10197F2
:1018A000F1F780E88ABF83B3807F803911F482E04A
:1018B0000FC0803611F481E00BC0803C11F484E04D
:1018C00007C0803311F483E003C0803F61F780E0FC
:1018D00083999EC0882341F42FB7F89480918503A3
:1018E0009091860382608FC0813091F4E091C903AA
:1018F000F091CA03878190859093CA038093C903AE
:101900002FB7F894809185039091860388607BC0FF
:10191000823091F4E091C903F091CA0385819681E8
:101920009093CA038093C9032FB7F89480918503DD
:1019300090918603846067C020918503309186036F
:10194000833051F58FB7F894309388032093870341
:101950008FBF8091870386FF02C00E941C05809183
:10196000C9039091CA0321E08234920741F42FB752
:10197000F8948091850390918603926044C08A5ABE
:10198000914009F045C08091040181508093040189
:10199000882391F589E02EC08FB7F894309388039F
:1019A000209387038FBF8091870386FF02C00E9428
:1019B00027058091C9039091CA0321E0843C9207D6
:1019C00019F488E291E006C021E08832920739F4E8
:1019D00084EC91E09093CA038093C9030DC08A5AA6
:1019E000914051F4809104018F5F809304018A300B
:1019F00019F481E0809304012FB7F8948091850356
:101A000090918603816090938603809385032FBF16
:101A1000FF91EF91BF91AF919F918F917F916F91C6
:101A20005F914F913F912F910F900FBE0F901F909C
:101A30001895982F8A3010F4805D08958A5086306A
:101A400010F08FE30895892F895C0895282F982F2F
:101A500092959F709A3018F4892F805D08C0892F65
:101A60008A50863010F08FE302C0892F895C809302
:101A70008B03922F9F709A3018F4892F805D08C0D5
:101A8000892F8A50863010F08FE302C0892F895C3D
:101A900080938C0308959C01932F92959F709A30A8
:101AA00018F4892F805D08C0892F8A50863010F085
:101AB0008FE302C0892F895C80938B03C9018070FA
:101AC0009F709A3018F4892F805D08C0892F8A5042
:101AD000863010F08FE302C0892F895C80938C03DD
:101AE000C901807F907034E0969587953A95E1F72B
:101AF000982F8A3010F4805D07C08A50863010F02D
:101B00008FE302C0892F895C80938D03922F9F7091
:101B10009A3018F4892F805D08C0892F8A5086304A
:101B200010F08FE302C0892F895C80938E030895A3
:101B3000FC0180915803808380910601833479F4FD
:101B400081831282809159038383148280915B0385
:101B50008583168280915D0387838DE410C08D3468
:101B600089F4818312828091670383831482809138
:101B700069038583168280916B03878384E4809355
:101B8000060114C0843491F481831282809175031C
:101B900083831482809177038583168280917903F1
:101BA000878383E48093060110925803862F08955B
:101BB000FC0180818076803239F48181813011F09E
:101BC000893011F48FEF089580E008950E94650236
:101BD000899A89980E9494020895EF92FF920F9338
:101BE0001F93CF93DF93062FEC0110E080E9E82EDE
:101BF00081E0F82E0DC0888160E00E94D81088EE48
:101C000093E0F7013197F1F70197D9F71F5F21961C
:101C1000101788F381E0DF91CF911F910F91FF9012
:101C2000EF900895CF93DF93282F362F803208F45A
:101C30002CE5C0918F03D0919003CE0164E570E054
:101C40000E94AD1A8068C398C4988FB9779BFECF65
:101C5000C39ACE0164E570E00E94AD1A6064C39837
:101C6000C4986FB9779BFECFC39A85E0289FC001C7
:101C70001124FC01E45DFF4F8F5C9F4F2491220FE4
:101C800031112095C398C49A2FB9779BFECFC39A80
:101C90003196E817F90791F7332339F0C398C49ABE
:101CA0008FEF8FB9779BFECF05C0C398C49A1FB83A
:101CB000779BFECFC39A2696D0939003C0938F0351
:101CC000DF91CF9108950F931F93CF93DF93082F48
:101CD000162F282F392FE90104C02196612F0E9469
:101CE000120E9E01201B922F88818823B1F71123A9
:101CF000B9F02223A9F02E3098F42EE030E0291B11
:101D00003109C901880F991F820F931F880F9FEF18
:101D1000C398C49A9FB9779BFECFC39A8150C1F7ED
:101D2000DF91CF911F910F9108952F923F924F9283
:101D30005F926F927F928F929F92AF92BF92CF925B
:101D4000DF92EF92FF920F931F93CF93DF935C018B
:101D50006B01742E602EE0918F03F0919003CF0100
:101D600064E570E00E94AD1A8068C398C4988FB98A
:101D7000779BFECFC39ACF0164E570E00E94AD1A55
:101D80006064C398C4986FB9779BFECFC39A4090A4
:101D9000B3015090B4018090040180E3880E40E0CC
:101DA00065E0362EE22EFF2408E010E00E191F0930
:101DB00022242A944F5FF5019080992019F008940D
:101DC000A11CB11CC201840F911DA816B90619F4FB
:101DD0004A3009F4982CF6012081222319F0089446
:101DE000C11CD11CC816D90619F44A3009F4282D93
:101DF000239DC0011124EC01C45DDF4F939CD001F1
:101E00001124A45DBF4F8F5C9F4F992011F450E0C7
:101E100003C0FD015491550F222311F430E003C09B
:101E2000FE013491330FE32FF0E0652F70E0662060
:101E300069F0002E02C0EE0FFF1F0A94E2F70E2C8D
:101E400002C0759567950A94E2F70CC0002E02C097
:101E5000F595E7950A94E2F70E2C02C0660F771FFE
:101E60000A94E2F73E2F362B71103095C398C49A2E
:101E70003FB9779BFECFC39A21961196C817D90711
:101E800009F0C3CF772031F0C398C49A2FB8779B5D
:101E9000FECF05C0C398C49A1FB8779BFECFC39AE4
:101EA000992009F087CF222309F084CF7720A9F069
:101EB0004E3098F42EE030E0241B3109C901880F20
:101EC000991F820F931F880F9FEFC398C49A9FB9E1
:101ED000779BFECFC39A8150C1F7DF91CF911F91BD
:101EE0000F91FF90EF90DF90CF90BF90AF909F90B9
:101EF0008F907F906F905F904F903F902F900895BC
:101F000024E530E0629FA001639F500D729F500D49
:101F100011249C01220F331F280F391F220F331F5A
:101F2000420F531F5093900340938F030895C3981B
:101F3000C49880E88FB9779BFECFC39AC398C498A2
:101F400081E48FB9779BFECFC39A80E090E0C3987D
:101F5000C49A1FB8779BFECFC39A019621E0843ABA
:101F60009207A9F70895C398C49880E88FB9779B22
:101F7000FECFC39AC398C49880E48FB9779BFECFF5
:101F8000C39AE3E9F2E08491C398C49A8FB9779B2E
:101F9000FECFC39A319682E0E73EF807A1F7E7EE5D
:101FA000F2E08491C398C49A8FB9779BFECFC39A0D
:101FB000319684E0EB38F807A1F7E7E3F4E0849189
:101FC000C398C49A8FB9779BFECFC39A319684E0A9
:101FD000EB38F807A1F70895AF92BF92CF92DF9246
:101FE000EF92FF920F931F938C01C29A87B38C6B71
:101FF00087BB84EF91E020E931E0F9013197F1F7F7
:102000000197D9F7C29880EA9FE00197F1F7C29A49
:1020100080E58DB9C39AC398C49881E28FB9779B44
:10202000FECFC39AC398C49888EC8FB9779BFECF34
:10203000C39AC398C49886E08FB9779BFECFC39AA2
:10204000C398C49883E18FB9779BFECFC39AC39896
:10205000C49880E28FB9779BFECFC39AC398C49887
:102060008CE08FB9779BFECFC39A0E94B30FC398C1
:10207000C49881E28FB9779BFECFC39AC398C49866
:102080008EE98FB9779BFECFC39AC398C49880E23C
:102090008FB9779BFECFC39AB80180E090E00E9491
:1020A000DE175B016C0120E030E04AE755E40E9456
:1020B000F6147B018C0120E030E040E85FE30E94F1
:1020C000FC1688231CF461E070E024C0C801B7014D
:1020D00020E03FEF4FE757E40E949C161816B4F437
:1020E000C601B50120E030E040E251E40E94F61460
:1020F0000E94201380E991E005C0FC013197F1F7BF
:102100006150704061157105C1F707C0C801B70182
:102110000E942013CB010197F1F71F910F91FF90BF
:10212000EF90DF90CF90BF90AF900895C39861304B
:1021300011F4C49A01C0C4988FB9779BFECFC39A9B
:1021400008951F93162F0E944B0D80918B03612FD2
:102150000E94120E80918C03612F0E94120E8091BA
:102160008D03612F0E94120E80918E03612F0E94B9
:10217000120E80E2612F0E94120E1F9108951F938C
:10218000162F0E944B0D80918C03612F0E94120E1E
:1021900080918D03612F0E94120E80918E03612F1A
:1021A0000E94120E80E2612F0E94120E1F9108956C
:1021B0001F93162F0E94260D80918B03612F0E9482
:1021C000120E80918C03612F0E94120E1F910895B0
:1021D00088E291E09093CA038093C9030895EF9237
:1021E000FF920F931F93CF93DF930E94970F2FB708
:1021F000F8948091C9039091CA039093C803809387
:10220000C7032FBFE091C703F091C803C581D681F2
:10221000FF24F39404C0F3940D80DE81C02DCE170B
:10222000DF07C9F724E02F1518F484E0F82E03C067
:1022300082E08F1510F4C781D08580E090E060E0E7
:1022400070E00E94800F809117019091180161E069
:102250000E94630EEE2401E010E03AC080E090E0BE
:10226000B8010E94800F21E0C234D20729F480E037
:1022700090E0B8010E94800F29853A8560E0809146
:10228000C7039091C8038C179D0709F461E0C90149
:102290000E94630E81E0CA3AD807A1F489E090E079
:1022A000B8010E94800F20910401205D60E08091C0
:1022B000C7039091C8038C179D0709F461E0822F32
:1022C0000E94120E0D80DE81C02DE3940F5F1F4F20
:1022D000EF1420F28091C7039091C803825491407B
:1022E00009F09FC083E090E062E070E00E94800F00
:1022F00082E560E00E94120E87E090E062E070E00C
:102300000E94800F87E460E00E94120E8BE090E054
:1023100062E070E00E94800F82E460E00E94120E92
:1023200080E090E063E070E00E94800F83E460E072
:102330000E94120E82E090E063E070E00E94800F45
:102340008091590390915A030E947D0760E00E949A
:10235000BF1080915B0390915C030E947D0760E059
:102360000E94BF1080915D0390915E030E947D07E3
:1023700060E00E94BF1080E090E064E070E00E94A6
:10238000800F8DE460E00E94120E82E090E064E035
:1023900070E00E94800F80916703909168030E9413
:1023A0007D0760E00E94BF108091690390916A03ED
:1023B0000E947D0760E00E94BF1080916B039091A6
:1023C0006C030E947D0760E00E94BF1080E090E0F7
:1023D00065E070E00E94800F84E460E00E94120ECD
:1023E00082E090E065E070E00E94800F80917503CC
:1023F000909176030E947D0760E00E94BF1080915B
:102400007703909178030E947D0760E00E94BF10DF
:102410008091790390917A030E947D0760E00E9489
:10242000BF10DF91CF911F910F91FF90EF90089512
:102430009F92AF92BF92CF92DF92EF92FF920F9353
:102440001F93CF93DF93982E8FB7F8942091C903F1
:102450003091CA033093C8032093C7038FBFE09124
:10246000C703F091C803A581B6812185328511E0AB
:1024700005C01F5F15960D90BC91A02D19968D91EA
:102480009C911A9782179307A1F7153008F014E072
:102490000E94970FE091C703F091C803133038F4FE
:1024A000EF01CC2420E9A22E21E0B22E3FC0C7814B
:1024B000D085F7CF80E090E0B7010E94800F99208F
:1024C00019F0EF81F88502C0ED81FE81218532850A
:1024D00069857A8540E08091C7039091C8038C1785
:1024E0009D0709F441E0C9012C2D092D0E94950E8C
:1024F0000D80DE81C02DD3940894E11CF11CD1160F
:10250000C8F2E091C703F091C803133010F4EF0153
:1025100002C0C781D08584EF91E0F5013197F1F7D2
:102520000197D9F7C39488E0C81629F0DD2491E01B
:10253000E92EF12CE4CFDF91CF911F910F91FF9005
:10254000EF90DF90CF90BF90AF909F90089528E2DA
:1025500031E03093CA032093C9030E94EC0F0E941C
:10256000EF1008958FB7F8942091C9033091CA03F2
:102570003093C8032093C7038FBFE091C703F09146
:10258000C803E081E33039F1E43028F4E13061F050
:10259000E23030F512C0E630C1F1E73009F442C054
:1025A000E43009F04CC024C08FB7F894E091C9031F
:1025B000F091CA032381348108C08FB7F894E09169
:1025C000C903F091CA03218132813093CA03209359
:1025D000C9038FBF19C080E090E00E94C809EDCF09
:1025E0002FB7F8948091850390918603806114C081
:1025F0002FB7F89480918503909186038062909321
:102600008603809385032FBF08952FB7F894809198
:102610008503909186038068909386038093850359
:102620002FBFC2CF2FB7F894809185039091860376
:10263000916090938603809385032FBFBECF08954A
:10264000EF92FF920F931F937B018C0120E030E00B
:1026500040E05FE40E94CC1688238CF0C801B701EB
:1026600020E030E040E05FE40E9498140E948A1766
:102670009B01AC01205030404040504806C0C8018A
:10268000B7010E948A179B01AC01B901CA011F91D1
:102690000F91FF90EF900895A0E0B0E0E2E5F3E144
:1026A0000C94D41ADC012B01FA019C91923008F4AD
:1026B00039C1EB018881823008F433C1943069F468
:1026C000843009F02FC111969C9111978981981738
:1026D00009F428C1A7E4B2E025C1843009F421C17E
:1026E0008230A9F4923009F01DC19A01AD0188E051
:1026F000EA010990AE01E90109929E018150C1F7FA
:10270000E201898111969C918923818308C19230CD
:1027100009F407C112962D903C901397EB018A8122
:102720009B811496AD90BD90CD90DC901797EC8076
:10273000FD800E811F819101281B390BB90137FFE4
:1027400004C066277727621B730B603271050CF09B
:1027500061C0121613066CF537014801062E04C03D
:1027600096948794779467940A94D2F721E030E0A6
:1027700040E050E004C0220F331F441F551F6A95EC
:10278000D2F721503040404050402E213F2140237D
:102790005123211531054105510521F021E030E09B
:1027A00040E050E079018A01E628F7280829192934
:1027B0003CC0232BD1F1260E371E35014601062ED3
:1027C00004C096948794779467940A94D2F721E092
:1027D00030E040E050E004C0220F331F441F551F7B
:1027E0006A95D2F721503040404050402A213B2189
:1027F0004C215D21211531054105510521F021E0D4
:1028000030E040E050E059016A01A628B728C82806
:10281000D9280BC0821593052CF01C01AA24BB24D7
:10282000650103C0EE24FF24870111969C91D2011B
:1028300011968C91981709F445C0992339F0A80195
:1028400097012A193B094C095D0906C0A6019501AB
:102850002E193F09400B510B57FD08C011823382DE
:10286000228224833583468357831DC081E0818380
:102870003382228288279927DC01821B930BA40BC9
:10288000B50B84839583A683B7830DC0220F331FB6
:10289000441F551F24833583468357838281938148
:1028A0000197938382832481358146815781DA01A0
:1028B000C9010197A109B1098F5F9F4FAF4FBF4376
:1028C00028F30BC0918333822282EA0CFB1C0C1D7F
:1028D0001D1DE482F5820683178383E080832481B3
:1028E00035814681578157FF1AC0C901AA2797FD34
:1028F000A095BA2F81709070A070B07056954795D2
:1029000037952795822B932BA42BB52B8483958306
:10291000A683B78382819381019693838283DF01AB
:1029200001C0D201CD01CDB7DEB7E2E10C94F01ABF
:10293000A0E2B0E0EEE9F4E10C94E01A69837A8356
:102940008B839C832D833E834F835887E9E0EE2E53
:10295000F12CEC0EFD1ECE010196B7010E947B19F1
:102960008E010F5E1F4FCE010596B8010E947B19A4
:102970008A8991E089278A8BC701B801AE01475E39
:102980005F4F0E944C130E94A618A096E6E00C949C
:10299000FC1AA0E2B0E0EFECF4E10C94E01A6983D9
:1029A0007A838B839C832D833E834F835887F9E002
:1029B000EF2EF12CEC0EFD1ECE010196B7010E9408
:1029C0007B198E010F5E1F4FCE010596B8010E9444
:1029D0007B19C701B801AE01475E5F4F0E944C13DF
:1029E0000E94A618A096E6E00C94FC1AA0E2B0E0C3
:1029F000ECEFF4E10C94D41A69837A838B839C8383
:102A00002D833E834F835887CE010196BE01675FB9
:102A10007F4F0E947B19CE010596BE016F5E7F4FEE
:102A20000E947B199985923088F089898230C8F09C
:102A3000943019F4823051F404C0843029F4923077
:102A400081F487E492E0C6C0923049F420E09A8590
:102A50008A89981321E02A87CE010996BBC082306B
:102A600049F420E09A858A89981321E02A8BCE01C7
:102A70004196B0C02D843E844F8458886D887E88EE
:102A80008F88988CEE24FF248701AA24BB2465013B
:102A900040E050E060E070E0E0E0F0E0C101817013
:102AA0009070892BE9F0E60CF71C081D191D9A019E
:102AB000AB012A0D3B1D4C1D5D1D80E090E0A0E0A8
:102AC000B0E0E614F7040805190520F481E090E071
:102AD000A0E0B0E0BA01A901480F591F6A1F7B1F8F
:102AE000AA0CBB1CCC1CDD1C97FE08C081E090E04A
:102AF000A0E0B0E0A82AB92ACA2ADB2A3196E0323F
:102B0000F10549F0660C771C881C991C5694479473
:102B100037942794C3CFFA85EA892B893C898B8522
:102B20009C85280F391F2E5F3F4F17C0CA01817047
:102B30009070892B61F016950795F794E79480E0E3
:102B400090E0A0E0B0E8E82AF92A0A2B1B2B769542
:102B50006795579547952F5F3F4F77FDE7CF0CC09F
:102B6000440F551F661F771F17FD4160EE0CFF1CB9
:102B7000001F111F21503040403090E0590790E075
:102B8000690790E4790760F32B8F3C8FDB01CA0162
:102B90008F779070A070B07080349105A105B10559
:102BA00061F447FD0AC0E114F1040105110529F0A3
:102BB000405C5F4F6F4F7F4F40781A8EFE1711F0C9
:102BC00081E08A8F4D8F5E8F6F8F78A383E0898F2E
:102BD000CE0149960E94A618A096E2E10C94F01A44
:102BE000A8E1B0E0E6EFF5E10C94DC1A69837A83A2
:102BF0008B839C832D833E834F835887B9E0EB2ED4
:102C0000F12CEC0EFD1ECE010196B7010E947B193E
:102C10008E010F5E1F4FCE010596B8010E947B19F1
:102C20002985223008F47EC03989323010F4B80189
:102C30007CC08A859A8989278A87243011F02230BE
:102C400031F4231709F06EC067E472E06EC03430CF
:102C500039F41D861E861F86188A1C861B8604C0B2
:102C6000323021F484E08987B7015FC02B853C8531
:102C70008B899C89281B390B3C872B87ED84FE842C
:102C80000F851889AD88BE88CF88D88CEA14FB04DC
:102C90000C051D0540F4EE0CFF1C001F111F2150F8
:102CA00030403C872B8720E030E040E050E080E07F
:102CB00090E0A0E0B0E460E070E0EA14FB040C05F2
:102CC0001D0540F0282B392B4A2B5B2BEA18FB08FB
:102CD0000C091D09B695A79597958795EE0CFF1CD5
:102CE000001F111F6F5F7F4F6F31710531F7DA01E0
:102CF000C9018F779070A070B07080349105A105E4
:102D0000B10561F427FD0AC0E114F10401051105C4
:102D100029F0205C3F4F4F4F5F4F20782D873E8733
:102D20004F87588BBE01675F7F4FCB010E94A6186B
:102D30006896EAE00C94F81AA8E1B0E0E2EAF6E15D
:102D40000C94E01A69837A838B839C832D833E8362
:102D50004F83588789E0E82EF12CEC0EFD1ECE0142
:102D60000196B7010E947B198E010F5E1F4FCE01A5
:102D70000596B8010E947B198985823040F08989C7
:102D8000823028F0C701B8010E94F31901C08FEF0B
:102D90006896E6E00C94FC1AA8E1B0E0E2EDF6E1FA
:102DA0000C94E01A69837A838B839C832D833E8302
:102DB0004F83588789E0E82EF12CEC0EFD1ECE01E2
:102DC0000196B7010E947B198E010F5E1F4FCE0145
:102DD0000596B8010E947B198985823040F0898967
:102DE000823028F0C701B8010E94F31901C08FEFAB
:102DF0006896E6E00C94FC1AA8E1B0E0E2E0F7E1A6
:102E00000C94E01A69837A838B839C832D833E83A1
:102E10004F83588789E0E82EF12CEC0EFD1ECE0181
:102E20000196B7010E947B198E010F5E1F4FCE01E4
:102E30000596B8010E947B198985823040F0898906
:102E4000823028F0C701B8010E94F31901C081E067
:102E50006896E6E00C94FC1AA8E0B0E0E2E3F7E143
:102E60000C94DD1A9B01AC0183E08983DA01C9016E
:102E70008827B7FD83959927AA27BB27B82E211548
:102E800031054105510519F482E089833AC0882350
:102E9000A9F0203080E0380780E0480780E8580734
:102EA00029F460E070E080E09FEC30C0EE24FF2465
:102EB0008701E21AF30A040B150B02C079018A019B
:102EC0008EE1C82ED12CDC82CB82ED82FE820F8374
:102ED0001887C801B7010E945718019718161906DC
:102EE00084F4082E04C0EE0CFF1C001F111F0A946E
:102EF000D2F7ED82FE820F831887C81AD90ADC82C6
:102F0000CB82BA82CE0101960E94A6182896E9E0EB
:102F10000C94F91AACE0B0E0E0E9F7E10C94E41AA3
:102F200069837A838B839C83CE010196BE016B5F9C
:102F30007F4F0E947B198D81823061F1823050F188
:102F4000843021F48E81882351F12EC02F81388561
:102F500037FD20C06E812F3131051CF06623F9F05A
:102F600023C08EE190E0821B930B29853A854B8527
:102F70005C8504C056954795379527958A95D2F775
:102F80006623B1F050954095309521953F4F4F4FB6
:102F90005F4F0EC020E030E040E050E009C02FEF6E
:102FA0003FEF4FEF5FE704C020E030E040E050E843
:102FB000B901CA012C96E2E00C94001BA8E0B0E035
:102FC000E4EEF7E10C94DC1A7B018C0161157105CC
:102FD0008105910519F482E0898360C083E08983CB
:102FE0008EE1C82ED12CDC82CB82ED82FE820F8353
:102FF0001887C801B7010E945718FC013197F7FFE5
:103000003BC0222733272E1B3F0B57016801022E9E
:1030100004C0D694C794B794A7940A94D2F740E01A
:1030200050E060E070E081E090E0A0E0B0E004C03B
:10303000880F991FAA1FBB1F2A95D2F70197A109D4
:10304000B1098E219F21A023B1230097A105B105CD
:1030500021F041E050E060E070E04A295B296C29F2
:103060007D294D835E836F8378878EE190E08E1B90
:103070009F0B9C838B8312C0309781F00E2E04C06F
:10308000EE0CFF1C001F111F0A94D2F7ED82FE8286
:103090000F831887CE1ADF0ADC82CB821A82CE0118
:1030A00001960E94A6182896EAE00C94F81AEF926E
:1030B000FF920F931F937B018C0180E0E81680E064
:1030C000F80681E0080780E0180788F48FEFE8161B
:1030D000F1040105110531F028F088E090E0A0E04E
:1030E000B0E017C080E090E0A0E0B0E012C080E067
:1030F000E81680E0F80680E0080781E0180728F06D
:1031000088E190E0A0E0B0E004C080E190E0A0E0C1
:10311000B0E020E230E040E050E0281B390B4A0BE1
:103120005B0B04C016950795F794E7948A95D2F740
:10313000F701E15BFD4F8081281B310941095109ED
:10314000C9011F910F91FF90EF900895DF92EF92C8
:10315000FF920F931F93FC01E480F5800681178195
:10316000D1808081823048F480E090E0A0E1B0E03E
:10317000E82AF92A0A2B1B2BA5C0843009F49FC02A
:10318000823021F4EE24FF24870105C0E114F1040C
:103190000105110519F4E0E0F0E096C06281738149
:1031A0009FEF623879070CF05BC022E83FEF261BE7
:1031B000370B2A3131052CF020E030E040E050E0C0
:1031C0002AC0B801A701022E04C0769567955795CD
:1031D00047950A94D2F781E090E0A0E0B0E004C007
:1031E000880F991FAA1FBB1F2A95D2F70197A10923
:1031F000B1098E219F21A023B1230097A105B1051C
:1032000021F081E090E0A0E0B0E09A01AB01282B32
:10321000392B4A2B5B2BDA01C9018F779070A07094
:10322000B07080349105A105B10539F427FF09C0BC
:10323000205C3F4F4F4F5F4F04C0215C3F4F4F4FCB
:103240005F4FE0E0F0E02030A0E03A07A0E04A075E
:10325000A0E45A0710F0E1E0F0E079018A0127C00C
:103260006038710564F5FB01E158FF4FD801C701D3
:103270008F779070A070B07080349105A105B10572
:1032800039F4E7FE0DC080E490E0A0E0B0E004C0B7
:103290008FE390E0A0E0B0E0E80EF91E0A1F1B1FCC
:1032A00017FF05C016950795F794E794319687E0C8
:1032B00016950795F794E7948A95D1F705C0EE2403
:1032C000FF248701EFEFF0E06E2F67956627679583
:1032D000902F9F77D794DD24D7948E2F8695492FF2
:1032E000462B582F5D29B701CA011F910F91FF90FE
:1032F000EF90DF900895FC01DB0140815181228134
:10330000622F6F7770E0221F2227221F9381892F5F
:10331000880F822B282F30E0991F9927991F11962B
:103320009C93119721153105A9F5411551056105AA
:10333000710511F482E037C082E89FEF13969C93E9
:103340008E9312979A01AB0167E0220F331F441F3F
:10335000551F6A95D1F783E08C930DC0220F331F60
:10336000441F551F12968D919C91139701971396A8
:103370009C938E931297203080E0380780E04807B6
:1033800080E4580758F314962D933D934D935C9326
:10339000179708952F3F310579F4411551056105BF
:1033A000710519F484E08C93089564FF03C081E0F3
:1033B0008C9312C01C9210C02F57304013963C9330
:1033C0002E93129783E08C9387E0440F551F661F5E
:1033D000771F8A95D1F7706414964D935D936D9322
:1033E0007C93179708951F93DC01FB019C91923009
:1033F00008F447C08081823008F443C0943051F40F
:1034000011961C91843099F58181682F70E0611BC1
:1034100071093FC0843021F0923031F48230B9F12B
:103420008181882389F12DC011961C9111978230DA
:10343000F1F081811817D9F412962D913C911397D0
:10344000828193818217930794F028173907BCF083
:1034500014968D919D910D90BC91A02D2481358164
:1034600046815781281739074A075B0718F411234B
:1034700041F00AC082179307A407B50740F411234F
:1034800019F061E070E005C06FEF7FEF02C060E00F
:1034900070E0CB011F910895A0E0B0E0E2E5FAE111
:1034A0000C94DC1AEC01A880B980CA80DB80A114DE
:1034B000B104C104D10441F484E2A82E89EDB82EF0
:1034C0008BE5C82E87E0D82EC601B5012DE133EF7C
:1034D00041E050E00E942A1B27EA31E440E050E03E
:1034E0000E940B1B7B018C01C601B5012DE133EF5E
:1034F00041E050E00E942A1BCA01B9012CEE34EFD2
:103500004FEF5FEF0E940B1B6E0D7F1D801F911F01
:1035100097FF04C061507040804090486883798371
:103520008A839B839B013F77C901CDB7DEB7EAE071
:103530000C94F81A0E944C1A08958FE493E00E94AC
:103540004C1A0895A0E0B0E080934F03909350038D
:10355000A0935103B09352030895AA1BBB1B51E1E2
:1035600007C0AA1FBB1FA617B70710F0A61BB70BF3
:10357000881F991F5A95A9F780959095BC01CD0198
:10358000089597FB092E07260AD077FD04D0E5DFC2
:1035900006D000201AF4709561957F4F0895F6F7D4
:1035A000909581959F4F08952F923F924F925F92F1
:1035B0006F927F928F929F92AF92BF92CF92DF9243
:1035C000EF92FF920F931F93CF93DF93CDB7DEB7A8
:1035D000CA1BDB0B0FB6F894DEBF0FBECDBF09943C
:1035E0002A88398848885F846E847D848C849B8493
:1035F000AA84B984C884DF80EE80FD800C811B81A1
:10360000AA81B981CE0FD11D0FB6F894DEBF0FBECF
:10361000CDBFED010895629FD001739FF001829F9D
:10362000E00DF11D649FE00DF11D929FF00D839F51
:10363000F00D749FF00D659FF00D9927729FB00DEE
:10364000E11DF91F639FB00DE11DF91FBD01CF0101
:103650001124089597FB092E05260ED057FD04D09E
:1036600014D00AD0001C38F450954095309521951F
:103670003F4F4F4F5F4F0895F6F7909580957095A7
:1036800061957F4F8F4F9F4F0895A1E21A2EAA1B7D
:10369000BB1BFD010DC0AA1FBB1FEE1FFF1FA21702
:1036A000B307E407F50720F0A21BB30BE40BF50BFF
:1036B000661F771F881F991F1A9469F76095709588
:1036C000809590959B01AC01BD01CF010895F894C0
:0236D000FFCF2A
:1036D2005AFF2D2D536E616B652067616D652D2D2F
:1036E200006200596F752077696E21007300536381
:1036F2006F72653A203078007E004C6576656C3AD0
:103702002023008A00476F742066756E3F00950083
:10371200476F20776F726B2100A000206272756E76
:10372200716C00AB001EC8461401080301080301B6
:103732000803010803010803010803010803010843
:1037420003010803010803FF03900048002400D886
:1037520000B4006C00FC00436F6D706C65746521F1
:1037620000E700506C6561736520776169742E2EE5
:103772002E00F30002C843802D2D436F6C6F7273CD
:1037820020434D502D2D0008012F2F2053746172BC
:1037920074202020202F2F0002000042015C01F83B
:1037A2000119012F2F20526573756C74733A202F03
:1037B2002F0003280100004201420133012F2F2074
:1037C200536E616B65202020202F2F0006000076AB
:1037D20001900128014D012F2F2047616D65204F77
:1037E2004E3A202F2F00075C010000760176016718
:1037F200012F2F205365747570202020202F2F0059
:10380200010000C401F8015C0181012F2F204465F1
:103812006C6179202073202F2F000590010000C4D5
:1038220001DE019B012F2F2043616C69627261747A
:10383200652F2F000490010000DE01AA01B5012FBF
:103842002F204261636B20202020202F2F00009028
:10385200010000AA01C401CF012F2F20526561642B
:103862006D652020202F2F000100003C02280190CE
:1038720001E9015B2050726F6772616D6D65723A8A
:103882005D5B2020206272756E716C2020205D5B72
:103892002020202028617429202020205D5B202008
:1038A200676D61696C2E636F6D205D0000F8010029
:1038B200003C023C02030200000000000000000085
:1038C20001020203030303040404040404040405C0
:1038D2000505050505050505050505050505050695
:1038E2000606060606060606060606060606060676
:1038F2000606060606060606060606060606060765
:103902000707070707070707070707070707070745
:103912000707070707070707070707070707070735
:103922000707070707070707070707070707070725
:103932000707070707070707070707070707070814
:1039420008080808080808080808080808080808F5
:1039520008080808080808080808080808080808E5
:1039620008080808080808080808080808080808D5
:1039720008080808080808080808080808080808C5
:1039820008080808080808080808080808080808B5
:1039920008080808080808080808080808080808A5
:1039A2000808080808080808080808080808080895
:1039B200080808080808080808080808080808018C
:0439C2000000000001
:00000001FF
