:100000000C940A020C9427020C9494070C94270277
:100010000C9427020C9458070C9427020C94270286
:100020000C9427020C9427020C9427020C942702AC
:100030000C9427020C9427020C9427020C9427029C
:100040000C9427020C9427020C9427020C9427028C
:100050000C942702000000000000002F00000007A1
:10006000000700147F147F14242A7F2A12C4C810AA
:10007000264636495522500005030000001C224147
:10008000000041221C0014083E081408083E08081D
:1000900000005030001010101010006060000020B0
:1000A000100804023E5149453E00427F4000426133
:1000B0005149462141454B311814127F10274545BF
:1000C00045393C4A494930017109050336494949D6
:1000D00036064949291E0036360000005636000013
:1000E00008142241001414141414004122140802AC
:1000F000015109063E5965655E7E1111117E7F49E9
:100100004949363E414141227F4141221C7F4949B4
:1001100049417F090909013E4149497A7F08080898
:100120007F00417F41002040413F017F0814224170
:100130007F404040407F020C027F7F0408107F3EDA
:100140004141413E7F090909063E4151215E7F0937
:10015000192946464949493101017F01013F404083
:10016000403F1F2040201F3F4038403F6314081489
:100170006307087008076151494543007F4141000A
:10018000552A552A550041417F00040201020440CE
:1001900040404040000102040020545454787F48FD
:1001A0004444383844444420384444487F38545404
:1001B0005418087E0901020C5252523E7F08040472
:1001C0007800447D40002040443D007F10284400DA
:1001D00000417F40007C041804787C0804047838CF
:1001E000444444387C14141408081414187C7C0803
:1001F0000404084854545420043F4440203C4040E8
:10020000207C1C2040201C3C4030403C44281028CE
:10021000440C5050503C4464544C44FFFF7F7F4595
:100220005D5D5D5D5D5D5D5D5D5D7F7F415F5D5DD4
:100230005D5D5D5D5D5D5D417F7F415F5F5F5F5FD8
:100240005F5F5F5F5F7F7F415F5D5D5D5D5D5D5DAA
:100250005D5D417F7F437D7D7D7D7D7D7D7D7D7F7E
:100260007F515555555555555555457F7FFFFFFFD6
:10027000FFFFFFFFFFFFFFFFFFFFFFFFFFFFFFFF8E
:10028000FFFFFFFFFFFFFFFFFFFFFFFFFFFFFFFF7E
:10029000FFFFFFFFFFFFFFFFFFFFFFFFFFFFFFFF6E
:1002A000FFFFFFFFFFFFFFFFFFFFFFFFFFFFFFFF5E
:1002B000FFFFFFFFFFFFFFFFFFFFFFFFFFFFFFFF4E
:1002C000FFFFFFFFFFFF0C0CFCFCFCFCFCFCFCFC3C
:1002D000FCFCFCFCFCFCFCFCFCFCFCFCFCFFFFFF55
:1002E0000C0CFCFCFCFCF0F0F3F3F3C3CFCFCFCF4E
:1002F000C3F3F3F3F0F0FCFCFCFC0000FFFFFF0095
:10030000009F9F9C9C9C9C9C9C9C9C9C9C9C9C9CC3
:100310009C9C9C8080FFFFFFFFFFE0E0E7E7E7E7B2
:10032000E7E7E7E7E7E7E7E7E7E7E7E7E7E7E7E75D
:10033000E7FFFFFFE0E0FFFFFFFFFFFFFFFFFFFF23
:10034000FFFFFFFFFFFFFFFFFFFFFFFFFFFFE0E0FB
:10035000FFFFFFE0E0FFFFFFFFFFFFFFFFFFFFFFEB
:10036000FFFFFFFFFFFFFFFFFFFFFFFFFFFFFFFF9D
:10037000FFFFFFFFFFFFFFFFFFFFFFFFFFFFFFFF8D
:10038000FFFFFFFFFFFFFFFFFFFFFFFFFFFFFFFF7D
:10039000FFFFFFFFFFFFFFFFFFFFFFFFFFFFFFFF6D
:1003A000FFFFFFFFFFFFFFFFFFFFFFFFFFFFFFFF5D
:1003B000FFFFFFFFFFFFFFFFFFFFFFFFFFFFFFFF4D
:1003C000FFFFC8DBDBC3FFCBFBFBFBFFCBDFDFC3E8
:1003D000FFCBFBFBC3FFCBDBDBDF037FFFC0FFFFFC
:1003E000017E665A5A425A5E627FFFC7BBABABCFF3
:1003F000FFCBFBC3FBC3FFCBDBDBC3DBFFC2FFC019
:10040000FFDFFFCBDBDBFFCBDBDBC3FFCBFBC3FBC8
:10041000C3FFFF0011241FBECFE5D8E0DEBFCDBF74
:1004200013E0A0E6B0E0EEE2F3E302C005900D9227
:10043000A035B107D9F713E0A0E5B3E001C01D92E4
:10044000AF38B107E1F70E94E8090C9495190C94B4
:10045000000086E0809352038091500390E024E0F6
:10046000880F991F2A95E1F780935103E7EBF0E09D
:1004700088E224E192E02183808392833396815045
:100480008E31C9F7089508958091B9008150809305
:10049000B900882319F484E08093B900089580910D
:1004A000B9008F5F8093B900853019F481E08093A3
:1004B000B9000895FC019281923009F1933018F44B
:1004C000913021F505C0933051F09430F9F40FC00C
:1004D0008181815081838930F0F486E206C0818178
:1004E0008F5F81838732B8F089E0818308958081AE
:1004F00081508083823078F482E580830895808102
:100500008F5F8083823538F090830895108281E177
:10051000818382E0828308952F923F924F925F926F
:100520006F927F928F929F92AF92BF92CF92DF9203
:10053000EF92FF920F931F93CF93DF930E94C50D0D
:1005400080E090E065E070E00E94AE0D8091860052
:100550009091870061E00E94910C8091510361E0CD
:100560000E94060F2091B600822E8694869486946F
:10057000277081E090E0982E01C0990C2A95EAF747
:10058000AA2464E5462E51E0652E712C43E0542EDA
:100590006AC02A2C33246101CC0CDD1C7601E20CEC
:1005A000F31C87EB90E0E80EF91EE701B980B694E2
:1005B000B694B694B49C800111248881080F111D53
:1005C000C80164E570E00E94DB18806860E00E946A
:1005D000C40EC80164E570E00E94DB18862F8064B9
:1005E00060E00E94C40E89818770362D01C0330FF0
:1005F0008A95EAF780915203E7EBF0E0859DA00130
:1006000011244E0F5F1FD601B70115C02181EB01E8
:1006100098818081981771F4822F869586958695AA
:10062000B81641F42770C30102C0880F991F2A959C
:10063000E2F7382B3396E417F50741F7A20DB31D07
:10064000A954BF4F9091B5008C91981739F48B1431
:1006500029F4892D8F77382BE0E89E2A832F61E0DB
:100660000E94C40EA39480915203A81608F491CF5F
:1006700097FC1FC004E5809E800111248091B50085
:10068000080F111DC80164E570E00E94DB18806846
:1006900060E00E94C40EC80164E570E00E94DB18AF
:1006A000862F806460E00E94C40E892D61E00E9464
:1006B000C40EDF91CF911F910F91FF90EF90DF90CB
:1006C000CF90BF90AF909F908F907F906F905F90F2
:1006D0004F903F902F9008950E94CB186FE470E0E8
:1006E0000E94EF188E5F8093B5000E94CB186CE1DA
:1006F00070E00E94EF18865F8093B60008950E9414
:100700006C0386E0809352038091500390E074E084
:10071000880F991F7A95E1F780935103E7EBF0E09A
:1007200088E224E192E02183808392833396815092
:100730008E31C9F780E090E060E070E00E94AE0D7D
:1007400080916F009091700061E00E94910C0E9476
:100750008C020895CF93DF93C7EBD0E0CE010E94C7
:100760005A02239680E0C53DD807C1F789E014C03E
:1007700090E0DC01AA0FBB1FA80FB91FA954BF4FFF
:100780000197FC01EE0FFF1FE80FF91FE954FF4F1F
:10079000828112968C93822F282F215048F79091B6
:1007A000B7008091B500981709F0CAC09091B800C1
:1007B0008091B600981709F0C3C00E946C03809125
:1007C0005203282F2F5F209352038550909150039E
:1007D0009295907F982B909351032A3008F4B0C0E3
:1007E0000E94C50D809150038F5F8093500383302A
:1007F000D0F11092500383E090E062E070E00E943C
:10080000AE0D80919C0090919D0060E00E94910C43
:1008100083E090E063E070E00E94AE0D8091A7005D
:100820009091A80060E00E94910C80E090E065E06B
:1008300070E00E94AE0D8091B1009091B20061E035
:100840000E94910C2FB7F89480917F0390918003C0
:1008500082609093800380937F032FBF88EC809306
:10086000B4008EE153C083E090E062E070E00E944B
:10087000AE0D80917A0090917B0060E00E94910C17
:1008800082E090E063E070E00E94AE0D8091910004
:100890009091920060E00E94910C8091500360E082
:1008A0000E94060F80E090E065E070E00E94AE0DCF
:1008B000809186009091870061E00E94910C809168
:1008C000510361E00E94060F80E261E00E94400C4B
:1008D0006091B40070E0882777FD8095982F0E9482
:1008E0005A1520E030E040EC5FE30E941E140E94A5
:1008F0004E116093B4008091500390E09C01220F50
:10090000331F280F391F8091B300821B8093B300DF
:100910008399FECF80E49FE10197F1F780E88ABFD9
:100920008091B400809303018091B300809384038D
:10093000809150038295807F809351030E947F03B2
:100940000E948C02DF91CF9108951F939C016AE071
:1009500070E00E94DB18462F172F862F972F6AE032
:1009600070E00E94DB18E82FF0E084E0EE0FFF1F3C
:100970008A95E1F7C9016AE070E00E94DB1890E017
:10098000E82BF92B842F912F6AE070E00E94DB188E
:10099000CB016AE070E00E94DB18382F20E0E22BE8
:1009A000F32BCF011F91089510927E0310927D03C7
:1009B000AB9AA39A20E030E040E050E060E0E0E055
:1009C000F4E0369A3699FECF84B195B190937E03C8
:1009D00080937D0380917D0390917E0391FF0BC0F6
:1009E00080917D0390917E03DF01A81BB90BB0932A
:1009F0007E03A0937D0380917D0390917E03A0E010
:100A0000B0E0280F391F4A1F5B1F6F5F653FC9F6B3
:100A1000AB98BB27A52F942F832F90937E038093B1
:100A20007D03089590E020917D0330917E03FC01C9
:100A3000EE0FFF1FEF59FC4F31832083880F991F62
:100A4000FC01ED5AFC4F0190F081E02DE21BF30B0D
:100A5000DC01A159BC4F1196FC93EE93F7FF06C041
:100A6000882799278E1B9F0B8D939C930895209127
:100A70007D0330917E03E82FF0E0EE0FFF1FED5A6B
:100A8000FC4F31832083089580916103909162032C
:100A90009093540380935303809163039091640374
:100AA000909356038093550380916503909166035C
:100AB0009093580380935703809167039091680344
:100AC00090935A03809359038091690390916A032C
:100AD00090935C0380935B0380916B0390916C0314
:100AE00090935E0380935D0380916D0390916E03FC
:100AF0009093600380935F031092700310926F03D2
:100B00001092720310927103109274031092730387
:100B10001092760310927503109278031092770367
:100B200010927A031092790310927C0310927B0347
:100B30000E94C50D85E090E063E070E00E94AE0D7C
:100B400083E560E00E94400C81E660E00E94400C7A
:100B500086E760E00E94400C85E660E00E94400C61
:100B600084E660E00E94400C88E893E120E931E0EF
:100B7000F9013197F1F70197D9F708954F925F92F4
:100B80006F927F929F92AF92BF92CF92DF92EF923D
:100B9000FF920F931F93CF93DF933C019FB7F8947D
:100BA0008BB78F778BBF9FBF0E94C50D80E090E011
:100BB00061E070E00E94AE0D809100019091010112
:100BC00060E00E94910C81E090E063E070E00E94A0
:100BD000AE0D8BE560E00E94400CC7EDD0E099249B
:100BE00070E9472E71E0572E8CEF90E00E94FA06D4
:100BF0006091020170E080E090E00E940C1620E01D
:100C000030E04AE754E40E9424135B016C0120E0C9
:100C100030E04AE755E40E9424137B018C0120E078
:100C200030E040E85FE30E942A1588231CF461E06D
:100C300070E022C0C801B70120E03FEF4FE757E462
:100C40000E94CA141816A4F4C601B50120E030E0D1
:100C500040E251E40E9424130E944E1105C0C201DB
:100C60000197F1F76150704061157105C1F707C038
:100C7000C801B7010E944E11CB010197F1F783E241
:100C800060E00E94400C888199810E94FA06609180
:100C9000020170E080E090E00E940C1620E030E05D
:100CA0004AE754E40E9424135B016C0120E030E029
:100CB0004AE755E40E9424137B018C0120E030E0D8
:100CC00040E85FE30E942A1588231CF461E070E08D
:100CD00022C0C801B70120E03FEF4FE757E40E9470
:100CE000CA141816A4F4C601B50120E030E040E2B1
:100CF00051E40E9424130E944E1105C0C2010197C5
:100D0000F1F76150704061157105C1F707C0C80166
:100D1000B7010E944E11CB010197F1F783E260E029
:100D20000E94400C0E94D40483E260E00E94400CC8
:100D3000892DF30109959394229687E0981609F07E
:100D400053CF8CEF90E00E94FA068DE560E00E94A0
:100D5000400C82E090E065E070E00E94AE0D809172
:100D6000EF009091F00060E00E94910C88E893E120
:100D700020E931E0F9013197F1F70197D9F79FB7F1
:100D8000F89480E48ABF8BB780688BBF9FBFDF91E8
:100D9000CF911F910F91FF90EF90DF90CF90BF9078
:100DA000AF909F907F906F905F904F9008951BB889
:100DB00088E08AB98EE880BD10BC87E689B90895BD
:100DC0001F93182F8A3019F48DE00E94E0065D9B76
:100DD000FECF1CB91F910895CF93DF93EC0102C0A1
:100DE0000E94E006FE01219684918823C9F7DF91D5
:100DF000CF910895AC0120E030E061E070E0DB9835
:100E0000CB01022E02C0880F991F0A94E2F78423B7
:100E10009523892B11F0DA9A01C0DA98DB9A2F5FBB
:100E20003F4F2031310559F7DC9A0000DC980895D6
:100E30001F93182FCB010E94FA06812F02C00000D9
:100E400081508823E1F7109580E090E00E94FA0637
:100E500002C0000011501123E1F780E090E00E94F1
:100E6000FA061F910895DC98DB988AB38C618ABBDF
:100E700080E090E00E94FA06089520E030E0482FDC
:100E800050E0DB98CA01022E02C0959587950A941E
:100E9000E2F780FF02C0DA9A01C0DA98DB9A2F5F8E
:100EA0003F4F2330310569F7DC9A0000DC98089544
:100EB0001F920F920FB60F9211242F933F934F93CF
:100EC0005F936F937F938F939F93AF93BF93EF93B2
:100ED000FF93809184038150809384038F5F99F402
:100EE000809103018150809303018F5F31F48091E1
:100EF000B400809303010E946C030E94AA038091B6
:100F0000B30080938403FF91EF91BF91AF919F91C4
:100F10008F917F916F915F914F913F912F910F90A2
:100F20000FBE0F901F9018951F920F920FB60F9241
:100F300011242F933F934F935F936F937F938F93DE
:100F40009F93AF93BF93EF93FF9380E49FE101974B
:100F5000F1F780E88ABF83B3807F803911F482E0A3
:100F60000FC0803611F481E00BC0803C11F484E0A6
:100F700007C0803311F483E003C0803F61F780E055
:100F800083999EC0882341F42FB7F89480917F0302
:100F90009091800382608FC0813091F4E0918D0345
:100FA000F0918E038781908590938E0380938D03BB
:100FB0002FB7F89480917F039091800388607BC065
:100FC000823091F4E0918D03F0918E0385819681BA
:100FD00090938E0380938D032FB7F89480917F03B5
:100FE00090918003846067C020917F0330918003DB
:100FF000833051F58FB7F8943093820320938103A7
:101000008FBF8091810386FF02C00E9444028091BD
:101010008D0390918E0321E08F33920741F42FB717
:10102000F89480917F0390918003926044C0875A26
:10103000914009F045C080910201815080930201E6
:10104000882391F589E02EC08FB7F89430938203FE
:10105000209381038FBF8091810386FF02C00E948D
:101060004F0280918D0390918E0321E0813C920785
:1010700019F485E291E006C021E08532920739F447
:1010800081EC91E090938E0380938D030DC0875A7D
:10109000914051F4809102018F5F809302018A3068
:1010A00019F481E0809302012FB7F89480917F03B7
:1010B0009091800381609093800380937F032FBF82
:1010C000FF91EF91BF91AF919F918F917F916F9120
:1010D0005F914F913F912F910F900FBE0F901F90F6
:1010E00018951F931FB7F89483E40E94E00680913F
:1010F0005303909154030E94A504892F0E94E00697
:1011000080915303909154030E94A5040E94E0062D
:1011100080915503909156030E94A504892F0E9447
:10112000E00680915503909156030E94A5040E9409
:10113000E00680915703909158030E94A504892FDF
:101140000E94E00680915703909158030E94A504E5
:101150000E94E0068091590390915A030E94A504D1
:10116000892F0E94E0068091590390915A030E94B2
:10117000A5040E94E00680915B0390915C030E94AD
:10118000A504892F0E94E00680915B0390915C0387
:101190000E94A5040E94E00680915D0390915E0389
:1011A0000E94A504892F0E94E00680915D03909122
:1011B0005E030E94A5040E94E00680915F03909167
:1011C00060030E94A504892F0E94E00680915F03BE
:1011D000909160030E94A5040E94E0068DE40E94A5
:1011E000E00680916103909162030E94A504892F1B
:1011F0000E94E00680916103909162030E94A50421
:101200000E94E00680916303909164030E94A5040C
:10121000892F0E94E00680916303909164030E94ED
:10122000A5040E94E00680916503909166030E94E8
:10123000A504892F0E94E0068091650390916603C2
:101240000E94A5040E94E0068091670390916803C4
:101250000E94A504892F0E94E00680916703909167
:1012600068030E94A5040E94E006809169039091A2
:101270006A030E94A504892F0E94E00680916903F9
:1012800090916A030E94A5040E94E00680916B037E
:1012900090916C030E94A504892F0E94E006809122
:1012A0006B0390916C030E94A5040E94E00680915C
:1012B0006D0390916E030E94A504892F0E94E006A1
:1012C00080916D0390916E030E94A5040E94E00638
:1012D00084E40E94E00680916F03909170030E9465
:1012E000A504892F0E94E00680916F0390917003FE
:1012F0000E94A5040E94E006809171039091720300
:101300000E94A504892F0E94E006809171039091AC
:1013100072030E94A5040E94E006809173039091DD
:1013200074030E94A504892F0E94E0068091730334
:10133000909174030E94A5040E94E00680917503B9
:10134000909176030E94A504892F0E94E006809167
:101350007503909176030E94A5040E94E006809197
:101360007703909178030E94A504892F0E94E006DC
:1013700080917703909178030E94A5040E94E00673
:101380008091790390917A030E94A504892F0E948D
:10139000E0068091790390917A030E94A5040E944F
:1013A000E00680917B0390917C030E94A504892F25
:1013B0000E94E00680917B0390917C030E94A5042B
:1013C0000E94E00685E40E94E0061FBF1F91089579
:1013D0000E94D70688E893E120E931E0F9013197CE
:1013E000F1F70197D9F781E00E94E00618BA17BA21
:1013F00015BAA39A939A11BA85B3806F85BB84B34B
:101400008F7084BB90E898B988E085BF9BBF12BC01
:1014100013BE1FBC1EBC15BC19BE86E085BD89E08D
:1014200087B987E886B9369A3699FECF84B195B1E7
:1014300090937E0380937D030E94330780E090E0C9
:101440000E94FA0688EE93E00E94D51082E00E9486
:10145000E006789483E00E94E0068FB7F89420912C
:101460007F033091800330938203209381038FBFE9
:101470008091810380FF1DC02FB7F89480917F0376
:10148000909180038E7F9093800380937F032FBF82
:101490002FB7F89480917F039091800390938203FB
:1014A000809381032FBF8091810386FD02C00E943B
:1014B0001D0F8FB7F89420917F03309180033093F4
:1014C0008203209381038FBF8091810381FF1AC023
:1014D0002FB7F89480917F03909180038D7F909334
:1014E000800380937F032FBF0E94E0102FB7F894F2
:1014F00080917F039091800381609093800380931B
:101500007F032FBF8FB7F89420917F033091800322
:1015100030938203209381038FBF8091810384FFE6
:101520001EC082E195E00E94BE050E9471082FB79F
:10153000F89480917F03909180038F7E9093800335
:1015400080937F032FBF2FB7F89480917F039091F2
:10155000800381609093800380937F032FBF8FB7B8
:10156000F89420917F03309180033093820320937D
:1015700081038FBF8091810385FF10C087E395E0D1
:101580000E94BE052FB7F89480917F03909180034D
:101590008F7D9093800380937F032FBF8FB7F89444
:1015A00020917F0330918003309382032093810345
:1015B0008FBF809181039091820391FF1CC02FB750
:1015C000F89480917F03909180039D7F9093800396
:1015D00080937F032FBF0E9444050E9471082FB79C
:1015E000F89480917F0390918003816090938003B1
:1015F00080937F032FBF8FB7F89420917F033091A2
:10160000800330938203209381038FBF80918103F5
:1016100082FF26C02FB7F89480917F0390918003BA
:101620008B7F9093800380937F032FBF80918D03E6
:1016300090918E0321E08F33920731F083579140D0
:1016400019F081E00E9446102FB7F89480917F0333
:101650009091800381609093800380937F032FBFDC
:101660008FB7F89420917F033091800330938203E9
:10167000209381038FBF8091810383FF26C02FB702
:10168000F89480917F0390918003877F90938003EB
:1016900080937F032FBF80918D0390918E0321E073
:1016A0008F33920731F08357914019F080E00E9408
:1016B00046102FB7F89480917F039091800381604A
:1016C0009093800380937F032FBF8FB7F89420916E
:1016D0007F033091800330938203209381038FBF77
:1016E0008091810387FF1EC02FB7F89480917F03FC
:1016F000909180038F779093800380937F032FBF17
:101700000E947F0314BC89B7806489BF2FB7F89407
:1017100080917F03909180038064909380038093F5
:101720007F032FBF8FB7F89420917F033091800300
:1017300030938203209381038FBF80918103909126
:10174000820390FF8ACE2FB7F89480917F03909107
:1017500080039E7F9093800380937F032FBF89B780
:101760008F7B89BF0E9443022FB7F89480917F033B
:10177000909180038F7B9093800380937F032FBF92
:101780006CCE982F8A3010F4805D08958A50863090
:1017900010F08FE30895892F895C0895282F982FE2
:1017A00092959F709A3018F4892F805D08C0892F18
:1017B0008A50863010F08FE302C0892F895C8093B5
:1017C0008503922F9F709A3018F4892F805D08C08E
:1017D000892F8A50863010F08FE302C0892F895CF0
:1017E0008093860308959C01932F92959F709A3061
:1017F00018F4892F805D08C0892F8A50863010F038
:101800008FE302C0892F895C80938503C9018070B2
:101810009F709A3018F4892F805D08C0892F8A50F4
:10182000863010F08FE302C0892F895C8093860395
:10183000C901807F907034E0969587953A95E1F7DD
:10184000982F8A3010F4805D07C08A50863010F0DF
:101850008FE302C0892F895C80938703922F9F704A
:101860009A3018F4892F805D08C0892F8A508630FD
:1018700010F08FE302C0892F895C8093880308955C
:10188000CF93DF93282F362F803208F42CE5C091B8
:101890008903D0918A03CE0164E570E00E94DB18D1
:1018A0008068C398C4988FB9779BFECFC39ACE0146
:1018B00064E570E00E94DB186064C398C4986FB957
:1018C000779BFECFC39A85E0289FC0011124FC01BD
:1018D000EC54F040875490402491220F3111209510
:1018E000C398C49A2FB9779BFECFC39A3196E81755
:1018F000F90791F7332339F0C398C49A8FEF8FB962
:10190000779BFECF05C0C398C49A1FB8779BFECFC4
:10191000C39A2696D0938A03C0938903DF91CF910F
:1019200008950F931F93CF93DF93082F162F282F1F
:10193000392FE90104C02196612F0E94400C9E01BD
:10194000201B922F88818823B1F71123B9F022231D
:10195000A9F02E3098F42EE030E0291B3109C9019E
:10196000880F991F820F931F880F9FEFC398C49A07
:101970009FB9779BFECFC39A8150C1F7DF91CF917A
:101980001F910F9108952F923F924F925F926F9205
:101990007F928F929F92AF92BF92CF92DF92EF92FF
:1019A000FF920F931F93CF93DF935C016B01742E13
:1019B000602EE0918903F0918A03CF0164E570E025
:1019C0000E94DB188068C398C4988FB9779BFECFBC
:1019D000C39ACF0164E570E00E94DB186064C3988D
:1019E000C4986FB9779BFECFC39A4090B0015090D6
:1019F000B1018090020180E3880E40E065E0362E60
:101A0000E22EFF2408E010E00E191F0922242A9478
:101A10004F5FF5019080992019F00894A11CB11C2A
:101A2000C201840F911DA816B90619F44A3009F4B1
:101A3000982CF6012081222319F00894C11CD11C96
:101A4000C816D90619F44A3009F4282D239DC0017F
:101A50001124EC01CC54D040939CD0011124AC54FF
:101A6000B04087549040992011F450E003C0FD012C
:101A70005491550F222311F430E003C0FE0134913C
:101A8000330FE32FF0E0652F70E0662069F0002E41
:101A900002C0EE0FFF1F0A94E2F70E2C02C07595EC
:101AA00067950A94E2F70CC0002E02C0F595E79501
:101AB0000A94E2F70E2C02C0660F771F0A94E2F731
:101AC0003E2F362B71103095C398C49A3FB9779B3F
:101AD000FECFC39A21961196C817D90709F0C3CF34
:101AE000772031F0C398C49A2FB8779BFECF05C0FA
:101AF000C398C49A1FB8779BFECFC39A992009F068
:101B000087CF222309F084CF7720A9F04E3098F4B4
:101B10002EE030E0241B3109C901880F991F820F84
:101B2000931F880F9FEFC398C49A9FB9779BFECFEE
:101B3000C39A8150C1F7DF91CF911F910F91FF9010
:101B4000EF90DF90CF90BF90AF909F908F907F905D
:101B50006F905F904F903F902F90089524E530E074
:101B6000629FA001639F500D729F500D11249C0134
:101B7000220F331F280F391F220F331F420F531F0D
:101B800050938A03409389030895C398C49880E8CA
:101B90008FB9779BFECFC39AC398C49881E48FB95D
:101BA000779BFECFC39A80E090E0C398C49A1FB899
:101BB000779BFECFC39A019621E0843A9207A9F75A
:101BC0000895C398C49880E88FB9779BFECFC39AD5
:101BD000C398C49880E48FB9779BFECFC39AEBE19A
:101BE000F2E08491C398C49A8FB9779BFECFC39AD1
:101BF000319682E0EF36F807A1F7EFE6F2E0849144
:101C0000C398C49A8FB9779BFECFC39A319684E06C
:101C1000E331F807A1F7EFEBF3E08491C398C49A9E
:101C20008FB9779BFECFC39A319684E0E331F807F2
:101C3000A1F70895AF92BF92CF92DF92EF92FF92F9
:101C40000F931F938C01C29A87B38C6B87BB84EF71
:101C500091E020E931E0F9013197F1F70197D9F7E7
:101C6000C29880EA9FE00197F1F7C29A80E58DB9AA
:101C7000C39AC398C49881E28FB9779BFECFC39A69
:101C8000C398C49888EC8FB9779BFECFC39AC3984A
:101C9000C49886E08FB9779BFECFC39AC398C49847
:101CA00083E18FB9779BFECFC39AC398C49880E233
:101CB0008FB9779BFECFC39AC398C4988CE08FB935
:101CC000779BFECFC39A0E94E10DC398C49881E22E
:101CD0008FB9779BFECFC39AC398C4988EE98FB90A
:101CE000779BFECFC39AC398C49880E28FB9779B45
:101CF000FECFC39AB80180E090E00E940C165B0111
:101D00006C0120E030E04AE755E40E9424137B0197
:101D10008C0120E030E040E85FE30E942A15882330
:101D20001CF461E070E024C0C801B70120E03FEF7F
:101D30004FE757E40E94CA141816B4F4C601B5015F
:101D400020E030E040E251E40E9424130E944E1152
:101D500080E991E005C0FC013197F1F761507040D6
:101D600061157105C1F707C0C801B7010E944E1186
:101D7000CB010197F1F71F910F91FF90EF90DF904A
:101D8000CF90BF90AF900895C398613011F4C49A7A
:101D900001C0C4988FB9779BFECFC39A08951F9353
:101DA000162F0E94F30B80918503612F0E94400C37
:101DB00080918603612F0E94400C80918703612FE0
:101DC0000E94400C80918803612F0E94400C80E2A9
:101DD000612F0E94400C1F9108951F93162F0E949F
:101DE000F30B80918603612F0E94400C8091870342
:101DF000612F0E94400C80918803612F0E94400C4B
:101E000080E2612F0E94400C1F9108951F93162FAE
:101E10000E94CE0B80918503612F0E94400C80911F
:101E20008603612F0E94400C1F91089585E291E086
:101E300090938E0380938D030895EF92FF920F93FA
:101E40001F93CF93DF930E94C50D2FB7F894809115
:101E50008D0390918E0390938C0380938B032FBFFF
:101E6000E0918B03F0918C03C581D681FF24F3941C
:101E700004C0F3940D80DE81C02DCE17DF07C9F7B3
:101E800024E02F1518F484E0F82E03C082E08F15AB
:101E900010F4C781D08580E090E060E070E00E949F
:101EA000AE0D809114019091150161E00E94910C9A
:101EB000EE2401E010E03AC080E090E0B8010E941A
:101EC000AE0D21E0CF33D20729F480E090E0B801D5
:101ED0000E94AE0D29853A8560E080918B03909138
:101EE0008C038C179D0709F461E0C9010E94910CD5
:101EF00081E0C73AD807A1F489E090E0B8010E94D8
:101F0000AE0D20910201205D60E080918B039091E5
:101F10008C038C179D0709F461E0822F0E94400C0E
:101F20000D80DE81C02DE3940F5F1F4FEF1420F270
:101F300080918B0390918C038F53914009F09FC047
:101F400083E090E062E070E00E94AE0D82E560E028
:101F50000E94400C87E090E062E070E00E94AE0DCD
:101F600087E460E00E94400C8BE090E062E070E06B
:101F70000E94AE0D82E460E00E94400C80E090E0A0
:101F800063E070E00E94AE0D83E460E00E94400CCC
:101F900082E090E063E070E00E94AE0D8091530318
:101FA000909154030E94A50460E00E94ED0E809180
:101FB0005503909156030E94A50460E00E94ED0E27
:101FC00080915703909158030E94A50460E00E94FD
:101FD000ED0E80E090E064E070E00E94AE0D8DE4D4
:101FE00060E00E94400C82E090E064E070E00E94BB
:101FF000AE0D80916103909162030E94A50460E0A0
:102000000E94ED0E80916303909164030E94A504E9
:1020100060E00E94ED0E80916503909166030E943E
:10202000A50460E00E94ED0E80E090E065E070E0C5
:102030000E94AE0D84E460E00E94400C82E090E0DB
:1020400065E070E00E94AE0D80916F039091700387
:102050000E94A50460E00E94ED0E809171039091B2
:1020600072030E94A50460E00E94ED0E809173034C
:10207000909174030E94A50460E00E94ED0EDF9130
:10208000CF911F910F91FF90EF9008959F92AF9283
:10209000BF92CF92DF92EF92FF920F931F93CF9355
:1020A000DF93982E8FB7F89420918D0330918E0393
:1020B00030938C0320938B038FBFE0918B03F091BF
:1020C0008C03A581B6812185328511E005C01F5F93
:1020D00015960D90BC91A02D19968D919C911A97F3
:1020E00082179307A1F7153008F014E00E94C50D80
:1020F000E0918B03F0918C03133038F4EF01CC2482
:1021000020E9A22E21E0B22E3FC0C781D085F7CFB3
:1021100080E090E0B7010E94AE0D992019F0EF81A8
:10212000F88502C0ED81FE812185328569857A8539
:1021300040E080918B0390918C038C179D0709F4EC
:1021400041E0C9012C2D092D0E94C30C0D80DE81B8
:10215000C02DD3940894E11CF11CD116C8F2E09173
:102160008B03F0918C03133010F4EF0102C0C78190
:10217000D08584EF91E0F5013197F1F70197D9F718
:10218000C39488E0C81629F0DD2491E0E92EF12CF3
:10219000E4CFDF91CF911F910F91FF90EF90DF90EF
:1021A000CF90BF90AF909F90089525E231E030939B
:1021B0008E0320938D030E941A0E0E941D0F089516
:1021C0008FB7F89420918D0330918E0330938C0358
:1021D00020938B038FBFE0918B03F0918C03E08100
:1021E000E33039F1E43028F4E13061F0E23030F5E9
:1021F00012C0E630C1F1E73009F442C0E43009F022
:102200004CC024C08FB7F894E0918D03F0918E03F9
:102210002381348108C08FB7F894E0918D03F09149
:102220008E032181328130938E0320938D038FBFE3
:1022300019C080E090E00E94FA06EDCF2FB7F89425
:1022400080917F0390918003806114C02FB7F89430
:1022500080917F03909180038062909380038093AC
:102260007F032FBF08952FB7F89480917F0390913B
:10227000800380689093800380937F032FBFC2CF39
:102280002FB7F89480917F03909180039160909391
:10229000800380937F032FBFBECF0895EF92FF92FC
:1022A0000F931F937B018C0120E030E040E05FE45E
:1022B0000E94FA1488238CF0C801B70120E030E0B6
:1022C00040E05FE40E94C6120E94B8159B01AC0179
:1022D000205030404040504806C0C801B7010E941D
:1022E000B8159B01AC01B901CA011F910F91FF9074
:1022F000EF900895A0E0B0E0E0E8F1E10C9402195D
:10230000DC012B01FA019C91923008F439C1EB01F8
:102310008881823008F433C1943069F4843009F044
:102320002FC111969C9111978981981709F428C1A2
:10233000A4E4B2E025C1843009F421C18230A9F4BB
:10234000923009F01DC19A01AD0188E0EA010990BF
:10235000AE01E90109929E018150C1F7E201898134
:1023600011969C918923818308C1923009F407C199
:1023700012962D903C901397EB018A819B811496C5
:10238000AD90BD90CD90DC901797EC80FD800E81D4
:102390001F819101281B390BB90137FF04C0662743
:1023A0007727621B730B603271050CF061C0121647
:1023B00013066CF537014801062E04C096948794E5
:1023C000779467940A94D2F721E030E040E050E03F
:1023D00004C0220F331F441F551F6A95D2F72150A6
:1023E0003040404050402E213F21402351232115B1
:1023F00031054105510521F021E030E040E050E099
:1024000079018A01E628F728082919293CC0232BDD
:10241000D1F1260E371E35014601062E04C09694D2
:102420008794779467940A94D2F721E030E040E0F3
:1024300050E004C0220F331F441F551F6A95D2F786
:1024400021503040404050402A213B214C215D2109
:10245000211531054105510521F021E030E040E032
:1024600050E059016A01A628B728C828D9280BC00E
:10247000821593052CF01C01AA24BB24650103C01E
:10248000EE24FF24870111969C91D20111968C9124
:10249000981709F445C0992339F0A80197012A1922
:1024A0003B094C095D0906C0A60195012E193F099B
:1024B000400B510B57FD08C01182338222822483C6
:1024C0003583468357831DC081E081833382228216
:1024D00088279927DC01821B930BA40BB50B8483FF
:1024E0009583A683B7830DC0220F331F441F551F4A
:1024F0002483358346835783828193810197938315
:1025000082832481358146815781DA01C90101978F
:10251000A109B1098F5F9F4FAF4FBF4328F30BC095
:10252000918333822282EA0CFB1C0C1D1D1DE48268
:10253000F5820683178383E0808324813581468179
:10254000578157FF1AC0C901AA2797FDA095BA2F36
:1025500081709070A070B07056954795379527950B
:10256000822B932BA42BB52B84839583A683B783CF
:1025700082819381019693838283DF0101C0D2011E
:10258000CD01CDB7DEB7E2E10C941E19A0E2B0E0B8
:10259000ECECF2E10C940E1969837A838B839C83B3
:1025A0002D833E834F835887E9E0EE2EF12CEC0E0D
:1025B000FD1ECE010196B7010E94A9178E010F5E84
:1025C0001F4FCE010596B8010E94A9178A8991E094
:1025D00089278A8BC701B801AE01475E5F4F0E9411
:1025E0007A110E94D416A096E6E00C942A19A0E273
:1025F000B0E0EDEFF2E10C940E1969837A838B83DE
:102600009C832D833E834F835887F9E0EF2EF12C76
:10261000EC0EFD1ECE010196B7010E94A9178E0196
:102620000F5E1F4FCE010596B8010E94A917C70182
:10263000B801AE01475E5F4F0E947A110E94D41626
:10264000A096E6E00C942A19A0E2B0E0EAE2F3E1F9
:102650000C94021969837A838B839C832D833E8338
:102660004F835887CE010196BE01675F7F4F0E945E
:10267000A917CE010596BE016F5E7F4F0E94A91774
:102680009985923088F089898230C8F0943019F4A5
:10269000823051F404C0843029F4923081F484E40F
:1026A00092E0C6C0923049F420E09A858A89981356
:1026B00021E02A87CE010996BBC0823049F420E090
:1026C0009A858A89981321E02A8BCE014196B0C061
:1026D0002D843E844F8458886D887E888F88988C9E
:1026E000EE24FF248701AA24BB24650140E050E0CA
:1026F00060E070E0E0E0F0E0C10181709070892B53
:10270000E9F0E60CF71C081D191D9A01AB012A0D12
:102710003B1D4C1D5D1D80E090E0A0E0B0E0E614A4
:10272000F7040805190520F481E090E0A0E0B0E08E
:10273000BA01A901480F591F6A1F7B1FAA0CBB1CB5
:10274000CC1CDD1C97FE08C081E090E0A0E0B0E06A
:10275000A82AB92ACA2ADB2A3196E032F10549F0C3
:10276000660C771C881C991C5694479437942794C0
:10277000C3CFFA85EA892B893C898B859C85280FF4
:10278000391F2E5F3F4F17C0CA0181709070892B8F
:1027900061F016950795F794E79480E090E0A0E04B
:1027A000B0E8E82AF92A0A2B1B2B769567955795EE
:1027B00047952F5F3F4F77FDE7CF0CC0440F551F64
:1027C000661F771F17FD4160EE0CFF1C001F111FD5
:1027D00021503040403090E0590790E0690790E484
:1027E000790760F32B8F3C8FDB01CA018F779070E4
:1027F000A070B07080349105A105B10561F447FD6A
:102800000AC0E114F1040105110529F0405C5F4F95
:102810006F4F7F4F40781A8EFE1711F081E08A8F3C
:102820004D8F5E8F6F8F78A383E0898FCE0149969D
:102830000E94D416A096E2E10C941E19A8E1B0E023
:10284000E4E2F4E10C940A1969837A838B839C8314
:102850002D833E834F835887B9E0EB2EF12CEC0E8D
:10286000FD1ECE010196B7010E94A9178E010F5ED1
:102870001F4FCE010596B8010E94A9172985223065
:1028800008F47EC03989323010F4B8017CC08A85E2
:102890009A8989278A87243011F0223031F423174E
:1028A00009F06EC064E472E06EC0343039F41D8605
:1028B0001E861F86188A1C861B8604C0323021F4AF
:1028C00084E08987B7015FC02B853C858B899C8913
:1028D000281B390B3C872B87ED84FE840F851889D4
:1028E000AD88BE88CF88D88CEA14FB040C051D0582
:1028F00040F4EE0CFF1C001F111F215030403C879C
:102900002B8720E030E040E050E080E090E0A0E065
:10291000B0E460E070E0EA14FB040C051D0540F033
:10292000282B392B4A2B5B2BEA18FB080C091D09B5
:10293000B695A79597958795EE0CFF1C001F111F64
:102940006F5F7F4F6F31710531F7DA01C9018F7702
:102950009070A070B07080349105A105B10561F44C
:1029600027FD0AC0E114F1040105110529F0205CDE
:102970003F4F4F4F5F4F20782D873E874F87588BB3
:10298000BE01675F7F4FCB010E94D4166896EAE0D4
:102990000C942619A8E1B0E0E0EDF4E10C940E19D6
:1029A00069837A838B839C832D833E834F835887EF
:1029B00089E0E82EF12CEC0EFD1ECE010196B70148
:1029C0000E94A9178E010F5E1F4FCE010596B80118
:1029D0000E94A9178985823040F08989823028F0C9
:1029E000C701B8010E94211801C08FEF6896E6E088
:1029F0000C942A19A8E1B0E0E0E0F5E10C940E197E
:102A000069837A838B839C832D833E834F8358878E
:102A100089E0E82EF12CEC0EFD1ECE010196B701E7
:102A20000E94A9178E010F5E1F4FCE010596B801B7
:102A30000E94A9178985823040F08989823028F068
:102A4000C701B8010E94211801C08FEF6896E6E027
:102A50000C942A19A8E1B0E0E0E3F5E10C940E191A
:102A600069837A838B839C832D833E834F8358872E
:102A700089E0E82EF12CEC0EFD1ECE010196B70187
:102A80000E94A9178E010F5E1F4FCE010596B80157
:102A90000E94A9178985823040F08989823028F008
:102AA000C701B8010E94211801C081E06896E6E0E4
:102AB0000C942A19A8E0B0E0E0E6F5E10C940B19BB
:102AC0009B01AC0183E08983DA01C9018827B7FD46
:102AD00083959927AA27BB27B82E211531054105D3
:102AE000510519F482E089833AC08823A9F0203087
:102AF00080E0380780E0480780E8580729F460E064
:102B000070E080E09FEC30C0EE24FF248701E21AE1
:102B1000F30A040B150B02C079018A018EE1C82E5D
:102B2000D12CDC82CB82ED82FE820F831887C80114
:102B3000B7010E94851601971816190684F4082E0D
:102B400004C0EE0CFF1C001F111F0A94D2F7ED8287
:102B5000FE820F831887C81AD90ADC82CB82BA8218
:102B6000CE0101960E94D4162896E9E00C9427190C
:102B7000ACE0B0E0EEEBF5E10C94121969837A83D6
:102B80008B839C83CE010196BE016B5F7F4F0E94B9
:102B9000A9178D81823061F1823050F1843021F4A7
:102BA0008E81882351F12EC02F81388537FD20C0BA
:102BB0006E812F3131051CF06623F9F023C08EE1C0
:102BC00090E0821B930B29853A854B855C8504C078
:102BD00056954795379527958A95D2F76623B1F094
:102BE00050954095309521953F4F4F4F5F4F0EC008
:102BF00020E030E040E050E009C02FEF3FEF4FEF22
:102C00005FE704C020E030E040E050E8B901CA01CD
:102C10002C96E2E00C942E19A8E0B0E0E2E1F6E197
:102C20000C940A197B018C016115710581059105D0
:102C300019F482E0898360C083E089838EE1C82E25
:102C4000D12CDC82CB82ED82FE820F831887C801F3
:102C5000B7010E948516FC013197F7FF3BC0222780
:102C600033272E1B3F0B57016801022E04C0D69458
:102C7000C794B794A7940A94D2F740E050E060E07C
:102C800070E081E090E0A0E0B0E004C0880F991F00
:102C9000AA1FBB1F2A95D2F70197A109B1098E215E
:102CA0009F21A023B1230097A105B10521F041E0A8
:102CB00050E060E070E04A295B296C297D294D8352
:102CC0005E836F8378878EE190E08E1B9F0B9C83E1
:102CD0008B8312C0309781F00E2E04C0EE0CFF1CC7
:102CE000001F111F0A94D2F7ED82FE820F8318870E
:102CF000CE1ADF0ADC82CB821A82CE0101960E94B4
:102D0000D4162896EAE00C942619EF92FF920F93BE
:102D10001F937B018C0180E0E81680E0F80681E0DB
:102D2000080780E0180788F48FEFE816F104010522
:102D3000110531F028F088E090E0A0E0B0E017C085
:102D400080E090E0A0E0B0E012C080E0E81680E013
:102D5000F80680E0080781E0180728F088E190E095
:102D6000A0E0B0E004C080E190E0A0E0B0E020E2AC
:102D700030E040E050E0281B390B4A0B5B0B04C0ED
:102D800016950795F794E7948A95D2F7F701E45BD7
:102D9000FD4F8081281B310941095109C9011F914B
:102DA0000F91FF90EF900895DF92EF92FF920F93B3
:102DB0001F93FC01E480F58006811781D18080811A
:102DC000823048F480E090E0A0E1B0E0E82AF92AFF
:102DD0000A2B1B2BA5C0843009F49FC0823021F43C
:102DE000EE24FF24870105C0E114F104010511055B
:102DF00019F4E0E0F0E096C0628173819FEF6238E1
:102E000079070CF05BC022E83FEF261B370B2A3115
:102E100031052CF020E030E040E050E02AC0B8015D
:102E2000A701022E04C076956795579547950A9499
:102E3000D2F781E090E0A0E0B0E004C0880F991FD5
:102E4000AA1FBB1F2A95D2F70197A109B1098E21AC
:102E50009F21A023B1230097A105B10521F081E0B6
:102E600090E0A0E0B0E09A01AB01282B392B4A2B6F
:102E70005B2BDA01C9018F779070A070B07080343D
:102E80009105A105B10539F427FF09C0205C3F4F2A
:102E90004F4F5F4F04C0215C3F4F4F4F5F4FE0E00B
:102EA000F0E02030A0E03A07A0E04A07A0E45A078B
:102EB00010F0E1E0F0E079018A0127C06038710587
:102EC00064F5FB01E158FF4FD801C7018F7790707F
:102ED000A070B07080349105A105B10539F4E7FE0A
:102EE0000DC080E490E0A0E0B0E004C08FE390E08B
:102EF000A0E0B0E0E80EF91E0A1F1B1F17FF05C077
:102F000016950795F794E794319687E016950795FF
:102F1000F794E7948A95D1F705C0EE24FF24870142
:102F2000EFEFF0E06E2F679566276795902F9F77FC
:102F3000D794DD24D7948E2F8695492F462B582F72
:102F40005D29B701CA011F910F91FF90EF90DF90AB
:102F50000895FC01DB01408151812281622F6F774E
:102F600070E0221F2227221F9381892F880F822B36
:102F7000282F30E0991F9927991F11969C9311973C
:102F800021153105A9F5411551056105710511F4AA
:102F900082E037C082E89FEF13969C938E9312973E
:102FA0009A01AB0167E0220F331F441F551F6A953A
:102FB000D1F783E08C930DC0220F331F441F551FA0
:102FC00012968D919C911397019713969C938E93D3
:102FD0001297203080E0380780E0480780E45807E7
:102FE00058F314962D933D934D935C931797089542
:102FF0002F3F310579F4411551056105710519F42B
:1030000084E08C93089564FF03C081E08C9312C028
:103010001C9210C02F57304013963C932E9312975A
:1030200083E08C9387E0440F551F661F771F8A95B6
:10303000D1F7706414964D935D936D937C931797BD
:1030400008951F93DC01FB019C91923008F447C066
:103050008081823008F443C0943051F411961C9161
:10306000843099F58181682F70E0611B71093FC040
:10307000843021F0923031F48230B9F1818188239B
:1030800089F12DC011961C9111978230F1F0818148
:103090001817D9F412962D913C9113978281938140
:1030A0008217930794F028173907BCF014968D9176
:1030B0009D910D90BC91A02D248135814681578131
:1030C000281739074A075B0718F4112341F00AC093
:1030D00082179307A407B50740F4112319F061E0A4
:1030E00070E005C06FEF7FEF02C060E070E0CB01E1
:1030F0001F910895A0E0B0E0E0E8F8E10C940A190F
:10310000EC01A880B980CA80DB80A114B104C1049D
:10311000D10441F484E2A82E89EDB82E8BE5C82EA7
:1031200087E0D82EC601B5012DE133EF41E050E034
:103130000E94581927EA31E440E050E00E94391912
:103140007B018C01C601B5012DE133EF41E050E078
:103150000E945819CA01B9012CEE34EF4FEF5FEF0E
:103160000E9439196E0D7F1D801F911F97FF04C0AB
:103170006150704080409048688379838A839B8344
:103180009B013F77C901CDB7DEB7EAE00C94261961
:103190000E947A1808958CE493E00E947A180895AA
:1031A000A0E0B0E080934C0390934D03A0934E03B6
:1031B000B0934F030895AA1BBB1B51E107C0AA1F80
:1031C000BB1FA617B70710F0A61BB70B881F991FC8
:1031D0005A95A9F780959095BC01CD01089597FB6C
:1031E000092E07260AD077FD04D0E5DF06D000209F
:1031F0001AF4709561957F4F0895F6F79095819533
:103200009F4F08952F923F924F925F926F927F92BD
:103210008F929F92AF92BF92CF92DF92EF92FF92E6
:103220000F931F93CF93DF93CDB7DEB7CA1BDB0B92
:103230000FB6F894DEBF0FBECDBF09942A88398837
:1032400048885F846E847D848C849B84AA84B9843E
:10325000C884DF80EE80FD800C811B81AA81B9814A
:10326000CE0FD11D0FB6F894DEBF0FBECDBFED015E
:103270000895629FD001739FF001829FE00DF11DC0
:10328000649FE00DF11D929FF00D839FF00D749FE0
:10329000F00D659FF00D9927729FB00DE11DF91F8C
:1032A000639FB00DE11DF91FBD01CF0111240895E9
:1032B00097FB092E05260ED057FD04D014D00AD056
:1032C000001C38F450954095309521953F4F4F4F55
:1032D0005F4F0895F6F790958095709561957F4FB3
:1032E0008F4F9F4F0895A1E21A2EAA1BBB1BFD0111
:1032F0000DC0AA1FBB1FEE1FFF1FA217B307E407D5
:10330000F50720F0A21BB30BE40BF50B661F771F2C
:10331000881F991F1A9469F760957095809590950C
:0E3320009B01AC01BD01CF010895F894FFCFD1
:10332E002D2D536E616B652067616D652D2D0060CF
:10333E0000596F752077696E2100710053636F72AB
:10334E00653A203078007C004C6576656C3A202317
:10335E00008800476F742066756E3F009300476FBC
:10336E0020776F726B21009E00206272756E716CF9
:10337E0000A9001EC8461401080301080301080332
:10338E0001080301080301080301080301080301F2
:10339E000803010803FF03900048002400D800B47E
:1033AE00006C00FC00436F6D706C6574652100E568
:1033BE0000506C6561736520776169742E2E2E0046
:1033CE00F10002C8802D2D436F6C6F727320434D38
:1033DE00502D2D0005012F2F205374617274202063
:1033EE0020202F2F000200003F015901F501160188
:1033FE002F2F20526573756C74733A202F2F000394
:10340E00250100003F013F0130012F2F20536E6137
:10341E006B65202020202F2F0006000073018D01E8
:10342E0025014A012F2F2047616D65204F4E3A200E
:10343E002F2F0007590100007301730164012F2F14
:10344E00205365747570202020202F2F000100005E
:10345E00C101F50159017E012F2F2044656C617960
:10346E00202073202F2F00058D010000C101DB01EC
:10347E0098012F2F2043616C6962726174652F2F42
:10348E0000048D010000DB01A701B2012F2F2042A5
:10349E0061636B20202020202F2F00008D01000063
:1034AE00A701C101CC012F2F20526561646D6520EB
:1034BE0020202F2F00010000390225018D01E60189
:1034CE005B2050726F6772616D6D65723A5D5B2045
:1034DE0020206272756E716C2020205D5B20202092
:1034EE002028617429202020205D5B2020676D61DB
:1034FE00696C2E636F6D205D0000F50100003902CE
:10350E00390200020000000000000000000102026B
:10351E00030303030404040404040404050505055D
:10352E000505050505050505050505050606060639
:10353E00060606060606060606060606060606061D
:10354E000606060606060606060606060707070709
:10355E0007070707070707070707070707070707ED
:10356E0007070707070707070707070707070707DD
:10357E0007070707070707070707070707070707CD
:10358E0007070707070707070707070708080808B9
:10359E00080808080808080808080808080808089D
:1035AE00080808080808080808080808080808088D
:1035BE00080808080808080808080808080808087D
:1035CE00080808080808080808080808080808086D
:1035DE00080808080808080808080808080808085D
:1035EE00080808080808080808080808080808084D
:1035FE00080808080808080808080808080808083D
:10360E00080808080808080808080808010000004B
:00000001FF
