:100000000C940A020C9427020C94CA080C94270240
:100010000C9427020C948E080C9427020C9427024F
:100020000C9427020C9427020C9427020C942702AC
:100030000C9427020C9427020C9427020C9427029C
:100040000C9427020C9427020C9427020C9427028C
:100050000C942702000000000000002F00000007A1
:10006000000700147F147F14242A7F2A12C4C810AA
:10007000264636495522500005030000001C224147
:10008000000041221C0014083E081408083E08081D
:1000900000005030001010101010006060000020B0
:1000A000100804023E5149453E00427F4000426133
:1000B0005149462141454B311814127F10274545BF
:1000C00045393C4A494930017109050336494949D6
:1000D00036064949291E0036360000005636000013
:1000E00008142241001414141414004122140802AC
:1000F000015109063E5965655E7E1111117E7F49E9
:100100004949363E414141227F4141221C7F4949B4
:1001100049417F090909013E4149497A7F08080898
:100120007F00417F41002040413F017F0814224170
:100130007F404040407F020C027F7F0408107F3EDA
:100140004141413E7F090909063E4151215E7F0937
:10015000192946464949493101017F01013F404083
:10016000403F1F2040201F3F4038403F6314081489
:100170006307087008076151494543007F4141000A
:10018000552A552A550041417F00040201020440CE
:1001900040404040000102040020545454787F48FD
:1001A0004444383844444420384444487F38545404
:1001B0005418087E0901020C5252523E7F08040472
:1001C0007800447D40002040443D007F10284400DA
:1001D00000417F40007C041804787C0804047838CF
:1001E000444444387C14141408081414187C7C0803
:1001F0000404084854545420043F4440203C4040E8
:10020000207C1C2040201C3C4030403C44281028CE
:10021000440C5050503C4464544C44FFFF7F7F4595
:100220005D5D5D5D5D5D5D5D5D5D7F7F415F5D5DD4
:100230005D5D5D5D5D5D5D417F7F415F5F5F5F5FD8
:100240005F5F5F5F5F7F7F415F5D5D5D5D5D5D5DAA
:100250005D5D417F7F437D7D7D7D7D7D7D7D7D7F7E
:100260007F515555555555555555457F7FFFFFFFD6
:10027000FFFFFFFFFFFFFFFFFFFFFFFFFFFFFFFF8E
:10028000FFFFFFFFFFFFFFFFFFFFFFFFFFFFFFFF7E
:10029000FFFFFFFFFFFFFFFFFFFFFFFFFFFFFFFF6E
:1002A000FFFFFFFFFFFFFFFFFFFFFFFFFFFFFFFF5E
:1002B000FFFFFFFFFFFFFFFFFFFFFFFFFFFFFFFF4E
:1002C000FFFFFFFFFFFF0C0CFCFCFCFCFCFCFCFC3C
:1002D000FCFCFCFCFCFCFCFCFCFCFCFCFCFFFFFF55
:1002E0000C0CFCFCFCFCF0F0F3F3F3C3CFCFCFCF4E
:1002F000C3F3F3F3F0F0FCFCFCFC0000FFFFFF0095
:10030000009F9F9C9C9C9C9C9C9C9C9C9C9C9C9CC3
:100310009C9C9C8080FFFFFFFFFFE0E0E7E7E7E7B2
:10032000E7E7E7E7E7E7E7E7E7E7E7E7E7E7E7E75D
:10033000E7FFFFFFE0E0FFFFFFFFFFFFFFFFFFFF23
:10034000FFFFFFFFFFFFFFFFFFFFFFFFFFFFE0E0FB
:10035000FFFFFFE0E0FFFFFFFFFFFFFFFFFFFFFFEB
:10036000FFFFFFFFFFFFFFFFFFFFFFFFFFFFFFFF9D
:10037000FFFFFFFFFFFFFFFFFFFFFFFFFFFFFFFF8D
:10038000FFFFFFFFFFFFFFFFFFFFFFFFFFFFFFFF7D
:10039000FFFFFFFFFFFFFFFFFFFFFFFFFFFFFFFF6D
:1003A000FFFFFFFFFFFFFFFFFFFFFFFFFFFFFFFF5D
:1003B000FFFFFFFFFFFFFFFFFFFFFFFFFFFFFFFF4D
:1003C000FFFFC8DBDBC3FFCBFBFBFBFFCBDFDFC3E8
:1003D000FFCBFBFBC3FFCBDBDBDF037FFFC0FFFFFC
:1003E000017E665A5A425A5E627FFFC7BBABABCFF3
:1003F000FFCBFBC3FBC3FFCBDBDBC3DBFFC2FFC019
:10040000FFDFFFCBDBDBFFCBDBDBC3FFCBFBC3FBC8
:10041000C3FFFF0011241FBECFE5D8E0DEBFCDBF74
:1004200013E0A0E6B0E0EEE9FDE202C005900D9217
:10043000A036B107D9F713E0A0E6B3E001C01D92E2
:10044000AF38B107E1F70E94EA060C94CD160C9480
:10045000000086E0809362038091600390E024E0D6
:10046000880F991F2A95E1F780936103E7EBF0E08D
:1004700088E224E192E02183808392833396815045
:100480008E31C9F7089508958091B9008150809305
:10049000B900882319F484E08093B900089580910D
:1004A000B9008F5F8093B900853019F481E08093A3
:1004B000B9000895FC019281923009F1933018F44B
:1004C000913021F505C0933051F09430F9F40FC00C
:1004D0008181815081838930F0F486E206C0818178
:1004E0008F5F81838732B8F089E0818308958081AE
:1004F00081508083823078F482E580830895808102
:100500008F5F8083823538F090830895108281E177
:10051000818382E0828308952F923F924F925F926F
:100520006F927F928F929F92AF92BF92CF92DF9203
:10053000EF92FF920F931F93CF93DF930E94360B9E
:1005400080E090E065E070E00E941F0B80918600E3
:100550009091870061E00E941E0A8091610361E032
:100560000E94590C2091B600822E8694869486941F
:10057000277081E090E0982E01C0990C2A95EAF747
:10058000AA2464E5462E51E0652E712C43E0542EDA
:100590006AC02A2C33246101CC0CDD1C7601E20CEC
:1005A000F31C87EB90E0E80EF91EE701B980B694E2
:1005B000B694B694B49C800111248881080F111D53
:1005C000C80164E570E00E941316806860E00E9434
:1005D000350CC80164E570E00E941316862F806414
:1005E00060E00E94350C89818770362D01C0330F81
:1005F0008A95EAF780916203E7EBF0E0859DA00120
:1006000011244E0F5F1FD601B70115C02181EB01E8
:1006100098818081981771F4822F869586958695AA
:10062000B81641F42770C30102C0880F991F2A959C
:10063000E2F7382B3396E417F50741F7A20DB31D07
:10064000A954BF4F9091B5008C91981739F48B1431
:1006500029F4892D8F77382BE0E89E2A832F61E0DB
:100660000E94350CA39480916203A81608F491CFE0
:1006700097FC1FC004E5809E800111248091B50085
:10068000080F111DC80164E570E00E941316806810
:1006900060E00E94350CC80164E570E00E9413160A
:1006A000862F806460E00E94350C892D61E00E94F5
:1006B000350CDF91CF911F910F91FF90EF90DF905C
:1006C000CF90BF90AF909F908F907F906F905F90F2
:1006D0004F903F902F9008950E9403166FE470E0B2
:1006E0000E9427168E5F8093B5000E9403166CE16E
:1006F00070E00E942716865F8093B60008950E94DE
:100700006C0386E0809362038091600390E074E064
:10071000880F991F7A95E1F780936103E7EBF0E08A
:1007200088E224E192E02183808392833396815092
:100730008E31C9F780E090E060E070E00E941F0B0E
:1007400080916F009091700061E00E941E0A0E94EB
:100750008C020895CF93DF93C7EBD0E0CE010E94C7
:100760005A02239680E0C53DD807C1F789E014C03E
:1007700090E0DC01AA0FBB1FA80FB91FA954BF4FFF
:100780000197FC01EE0FFF1FE80FF91FE954FF4F1F
:10079000828112968C93822F282F215048F79091B6
:1007A000B7008091B500981709F0CAC09091B800C1
:1007B0008091B600981709F0C3C00E946C03809125
:1007C0006203282F2F5F209362038550909160036E
:1007D0009295907F982B909361032A3008F4B0C0D3
:1007E0000E94360B809160038F5F8093600383309B
:1007F000D0F11092600383E090E062E070E00E942C
:100800001F0B80919C0090919D0060E00E941E0A49
:1008100083E090E063E070E00E941F0B8091A700EE
:100820009091A80060E00E941E0A80E090E065E0E0
:1008300070E00E941F0B8091B1009091B20061E0C6
:100840000E941E0A2FB7F8948091790390917A0341
:10085000826090937A03809379032FBF88EC809312
:10086000B4008EE153C083E090E062E070E00E944B
:100870001F0B80917A0090917B0060E00E941E0A1D
:1008800082E090E063E070E00E941F0B8091910095
:100890009091920060E00E941E0A8091600360E0E7
:1008A0000E94590C80E090E065E070E00E941F0B10
:1008B000809186009091870061E00E941E0A8091DD
:1008C000610361E00E94590C80E261E00E94CD0961
:1008D0006091B40070E0882777FD8095982F0E9482
:1008E000921220E030E040EC5FE30E9456110E943B
:1008F000860E6093B4008091600390E09C01220F0B
:10090000331F280F391F8091B300821B8093B300DF
:100910008399FECF80E49FE10197F1F780E88ABFD9
:100920008091B400809312018091B3008093800382
:10093000809160038295807F809361030E947F0392
:100940000E948C02DF91CF910895CF92DF92EF92B7
:10095000FF920F931F937C01262F6AE070E00E94A4
:100960001316D62EC72E30E08901000F111F020F7B
:10097000131F040F111D000F111F0D591C4F862F3F
:10098000972F6AE070E00E941316E82FF0E084E0F1
:10099000EE0FFF1F8A95E1F7C7016AE070E00E9441
:1009A000131690E0E82BF92B8D2D9C2D6AE070E05A
:1009B0000E941316CB016AE070E00E941316382FD4
:1009C00020E0E22BF32BD801ED93FC931F910F91C4
:1009D000FF90EF90DF90CF900895882311F0389822
:1009E00001C0389A88EC90E00197F1F7369A369971
:1009F000FECF84B195B190937F0380937E030895D9
:100A0000389A88EC90E00197F1F7369A3699FECF44
:100A100084B195B190937F0380937E0380917E0390
:100A200090917F039093760380937503389888ECB8
:100A300090E00197F1F7369A3699FECF84B195B1DF
:100A400090937F0380937E0380917E0390917F0338
:100A500090937803809377030895FF920F931F93E9
:100A6000CF93DF9310927603109275031092780360
:100A70001092770300E010E0C0E0D0E0FF240E9475
:100A800000058091750390917603080F191F8091DE
:100A9000770390917803C80FD91FF39480E4F81678
:100AA00071F776E0169507957A95E1F766E0D695A9
:100AB000C7956A95E1F71093760300937503D09379
:100AC0007803C0937703DF91CF911F910F91FF902F
:100AD0000895CF92DF92EF92FF920F931F93082F0A
:100AE00010E06091750370917603A5EDCA2EA0E029
:100AF000DA2E7801EE0CFF1CEE0CFF1CEC0CFD1C3A
:100B000080E090E00E9444139B01AC0160E070EC37
:100B10008FEF93E40E945611F70160837183828303
:100B2000938360917703709178030D5F1F4F000FDF
:100B3000111F000F111FC00ED11E80E090E00E9417
:100B400044139B01AC0160E070EC8FEF93E40E94D2
:100B50005611F60160837183828393831F910F91F5
:100B6000FF90EF90DF90CF9008958FEF93E09093F8
:100B7000EE008093ED000895DF92EF92FF920F93C5
:100B80001F93CF93DF93D82E6091750370917603F6
:100B9000082F10E080E090E00E944413000F111F26
:100BA000000F111FF801EB52FF4F2081318142816C
:100BB00053810E945C100E94F0127B0160917703C8
:100BC0007091780380E090E00E9444130F511F4F12
:100BD000F80120813181428153810E945C100E9482
:100BE000F012EB019701261B370B37FF03C030953E
:100BF00021953F4F6091ED007091EE0084E690E00A
:100C0000AC01249FC001259F900D349F900D1124AD
:100C10000E941316162F072FC70160E04D2D0E946A
:100C2000A504CE0161E04D2D0E94A504812F902FD7
:100C300062E04D2D0E94A504DF91CF911F910F918D
:100C4000FF90EF90DF900895CF92DF92EF92FF92A6
:100C50001F93CF93DF937C019FB7F8948BB78F7767
:100C60008BBF9FBF0E94360B80E090E061E070E098
:100C70000E941F0B809110019091110160E00E9471
:100C80001E0A85EBE81685E0F80619F485E090E089
:100C900002C081E090E063E070E00E941F0B8BE5F2
:100CA00060E00E94CD098CEF90E00E94C20680E3D4
:100CB00095E720E931E0F9013197F1F70197D9F78C
:100CC000CFEED0E010E030E9C32E31E0D32E83E246
:100CD00060E00E94CD0985EBE81685E0F80619F47E
:100CE00080E090E002C0888199810E94C20680E382
:100CF00095E7F6013197F1F70197D9F783E260E0C4
:100D00000E94CD090E942D0583E260E00E94CD097A
:100D1000812FF701099585EBE81685E0F80621F0AB
:100D20001F5F2296133099F680E090E00E94C20681
:100D30008DE560E00E94CD0982E090E065E070E022
:100D40000E941F0B8091FF009091000160E00E94C3
:100D50001E0A88E893E120E931E0F9013197F1F7C3
:100D60000197D9F79FB7F89480E48ABF8BB7806862
:100D70008BBF9FBFDF91CF911F91FF90EF90DF90CE
:100D8000CF900895AC0120E030E061E070E0DB98A6
:100D9000CB01022E02C0880F991F0A94E2F7842328
:100DA0009523892B11F0DA9A01C0DA98DB9A2F5F2C
:100DB0003F4F2031310559F7DC9A0000DC98089547
:100DC000DC98DB988AB38C618ABB80E090E00E945B
:100DD000C206089518BA17BA15BA14BA88E082BBC9
:100DE00011BA80EF85BB84B38F7084BB80E888B96B
:100DF0008AE085BF80EC8BBF86E085BD17B887E8A9
:100E000086B90E94E00688EE93E00E94030E789473
:100E10008FB7F8942091790330917A0330937C0353
:100E200020937B038FBF80917B0380FF1DC02FB772
:100E3000F8948091790390917A038E7F90937A034E
:100E4000809379032FBF2FB7F89480917903909105
:100E50007A0390937C0380937B032FBF80917B0365
:100E600087FD02C00E94700C8FB7F894209179031F
:100E700030917A0330937C0320937B038FBF809162
:100E80007B0381FF1AC02FB7F8948091790390916A
:100E90007A038D7F90937A03809379032FBF0E940A
:100EA0000E0E2FB7F8948091790390917A038160A8
:100EB00090937A03809379032FBF8FB7F894209192
:100EC000790330917A0330937C0320937B038FBFA7
:100ED00080917B0384FF1CC08CEB95E00E9424066C
:100EE0002FB7F8948091790390917A038F7E909335
:100EF0007A03809379032FBF2FB7F89480917903F9
:100F000090917A03816090937A03809379032FBF45
:100F10008FB7F8942091790330917A0330937C0352
:100F200020937B038FBF80917B0385FF10C089E6F0
:100F300095E00E9424062FB7F89480917903909150
:100F40007A038F7D90937A03809379032FBF8FB7B5
:100F5000F8942091790330917A0330937C032093A5
:100F60007B038FBF80917B0386FF10C085EB95E0EC
:100F70000E9424062FB7F8948091790390917A0308
:100F80008F7B90937A03809379032FBF8FB7F89468
:100F90002091790330917A0330937C0320937B0373
:100FA0008FBF80917B0382FF26C02FB7F89480917A
:100FB000790390917A038B7F90937A0380937903DE
:100FC0002FBF80918D0390918E0321E08E34920784
:100FD00031F08258914019F081E00E94740D2FB7D2
:100FE000F8948091790390917A03816090937A03C9
:100FF000809379032FBF8FB7F894209179033091B4
:101000007A0330937C0320937B038FBF80917B0313
:1010100083FF26C02FB7F8948091790390917A03CB
:10102000877F90937A03809379032FBF80918D03FC
:1010300090918E0321E08E34920731F082589140D6
:1010400019F080E00E94740D2FB7F8948091790315
:1010500090917A03816090937A03809379032FBFF4
:101060008FB7F8942091790330917A0330937C0301
:1010700020937B038FBF80917B0390917C0390FF33
:101080001EC02FB7F8948091790390917A039E7FC8
:1010900090937A03809379032FBF0E947F0314BC3F
:1010A00089B7806489BF2FB7F894809179039091B4
:1010B0007A03806890937A03809379032FBF8FB768
:1010C000F8942091790330917A0330937C03209334
:1010D0007B038FBF80917B0390917C0391FF98CE1F
:1010E0002FB7F8948091790390917A039D7F909324
:1010F0007A03809379032FBF89B78F7B89BF0E94C2
:1011000043022FB7F8948091790390917A038F77F7
:1011100090937A03809379032FBF7ACE1F920F9218
:101120000FB60F9211242F933F934F935F936F93BA
:101130007F938F939F93AF93BF93EF93FF93809190
:1011400080038150809380038F5F99F48091120116
:101150008150809312018F5F31F48091B4008093AD
:1011600012010E946C030E94AA038091B300809335
:101170008003FF91EF91BF91AF919F918F917F91EC
:101180006F915F914F913F912F910F900FBE0F90F4
:101190001F9018951F920F920FB60F9211242F9344
:1011A0003F934F935F936F937F938F939F93AF93EF
:1011B000BF93EF93FF9380E49FE10197F1F780E8FD
:1011C0008ABF83B3807F803911F482E00FC08036FC
:1011D00011F481E00BC0803C11F484E007C080333F
:1011E00011F483E003C0803F61F780E0839958C029
:1011F000882341F42FB7F8948091790390917A0372
:10120000826013C08130B9F4E0918D03F0918E03B8
:101210008781908590938E0380938D032FB7F894E8
:101220008091790390917A03886090937A038093F8
:1012300079032FBF35C0823091F4E0918D03F09196
:101240008E038581968190938E0380938D032FB7B3
:10125000F8948091790390917A038460E6CF20918D
:10126000790330917A03833071F48FB7F894309317
:101270007C0320937B038FBF80917B0387FF10C08B
:101280000E9444020DC08FB7F89430937C032093E2
:101290007B038FBF80917B0387FF02C00E944F02B8
:1012A000FF91EF91BF91AF919F918F917F916F913E
:1012B0005F914F913F912F910F900FBE0F901F9014
:1012C0001895982F8A3010F4805D08958A508630E2
:1012D00010F08FE30895892F895C0895282F982FA7
:1012E00092959F709A3018F4892F805D08C0892FDD
:1012F0008A50863010F08FE302C0892F895C80937A
:101300008103922F9F709A3018F4892F805D08C056
:10131000892F8A50863010F08FE302C0892F895CB4
:101320008093820308959C0180709F709A3018F416
:10133000892F805D08C0892F8A50863010F08FE396
:1013400002C0892F895C80938203C901807F9070DD
:1013500034E0969587953A95E1F7982F8A3010F406
:10136000805D07C08A50863010F08FE302C0892F5D
:10137000895C80938303922F9F709A3018F4892F91
:10138000805D08C0892F8A50863010F08FE302C03C
:10139000892F895C809384030895CF93DF93282F4E
:1013A000362F803208F42CE5C0918503D091860356
:1013B000CE0164E570E00E9413168068C398C4985B
:1013C0008FB9779BFECFC39ACE0164E570E00E948F
:1013D00013166064C398C4986FB9779BFECFC39A05
:1013E00085E0289FC0011124FC01EC54F040875493
:1013F00090402491220F31112095C398C49A2FB99F
:10140000779BFECFC39A3196E817F90791F73323FC
:1014100039F0C398C49A8FEF8FB9779BFECF05C080
:10142000C398C49A1FB8779BFECFC39A2696D093D1
:101430008603C0938503DF91CF9108950F931F9387
:10144000CF93DF93082F162F282F392FE90104C0DF
:101450002196612F0E94CD099E01201B922F888129
:101460008823B1F71123B9F02223A9F02E3098F484
:101470002EE030E0291B3109C901880F991F820F26
:10148000931F880F9FEFC398C49A9FB9779BFECF95
:10149000C39A8150C1F7DF91CF911F910F910895A9
:1014A0005F926F927F928F929F92AF92BF92CF92F4
:1014B000DF92EF92FF920F931F93CF93DF935C0124
:1014C0006B01842E702EE0918503F0918603CF018D
:1014D00064E570E00E9413168068C398C4988FB9C1
:1014E000779BFECFC39ACF0164E570E00E9413168C
:1014F0006064C398C4986FB9779BFECFC39A992450
:1015000065E0662EE22EFF2408E010E00E191F09A8
:1015100055245A949394F5014081442319F008947A
:10152000A11CB11CF6012081222319F00894C11CD2
:10153000D11C269DC0011124EC01CC54D040469D05
:10154000D0011124AC54B04087549040442311F48E
:1015500050E003C0FD015491550F222311F430E0F7
:1015600003C0FE013491330FE32FF0E0652F70E0EC
:10157000772069F0002E02C0EE0FFF1F0A94E2F7F9
:101580000E2C02C0759567950A94E2F70CC0002EE8
:1015900002C0F595E7950A94E2F70E2C02C0660F9B
:1015A000771F0A94E2F73E2F362B81103095C398AF
:1015B000C49A3FB9779BFECFC39A21961196C8175C
:1015C000D90709F0C3CF882031F0C398C49A5FB817
:1015D000779BFECF05C0C398C49A1FB8779BFECFF8
:1015E000C39A442309F096CF222309F093CF882091
:1015F000B1F0FDE0F91598F02EE030E0291931093D
:10160000C901880F991F820F931F880F9FEFC398FE
:10161000C49A9FB9779BFECFC39A8150C1F7DF91DF
:10162000CF911F910F91FF90EF90DF90CF90BF90DF
:10163000AF909F908F907F906F905F90089524E57A
:1016400030E0629FA001639F500D729F500D1124E6
:101650009C01220F331F280F391F220F331F420F07
:10166000531F50938603409385030895C398C498ED
:1016700080E88FB9779BFECFC39AC398C49881E462
:101680008FB9779BFECFC39A80E090E0C398C49A4D
:101690001FB8779BFECFC39A019621E0843A920748
:1016A000A9F70895C398C49880E88FB9779BFECFB7
:1016B000C39AC398C49880E48FB9779BFECFC39A2E
:1016C000EBE1F2E08491C398C49A8FB9779BFECF87
:1016D000C39A319682E0EF36F807A1F7EFE6F2E021
:1016E0008491C398C49A8FB9779BFECFC39A3196E1
:1016F00084E0E331F807A1F7EFEBF3E08491C398BE
:10170000C49A8FB9779BFECFC39A319684E0E331B8
:10171000F807A1F70895AF92BF92CF92DF92EF92B0
:10172000FF920F931F938C01C29A87B38C6B87BB78
:1017300084EF91E020E931E0F9013197F1F7019769
:10174000D9F7C29880EA9FE00197F1F7C29A80E545
:101750008DB9C39AC398C49881E28FB9779BFECFA5
:10176000C39AC398C49888EC8FB9779BFECFC39A6D
:10177000C398C49886E08FB9779BFECFC39AC3986D
:10178000C49883E18FB9779BFECFC39AC398C4985E
:1017900080E28FB9779BFECFC39AC398C4988CE040
:1017A0008FB9779BFECFC39A0E94520BC398C498FF
:1017B00081E28FB9779BFECFC39AC398C4988EE914
:1017C0008FB9779BFECFC39AC398C49880E28FB934
:1017D000779BFECFC39AB80180E090E00E9444134B
:1017E0005B016C0120E030E04AE755E40E945C10A8
:1017F0007B018C0120E030E040E85FE30E94621250
:1018000088231CF461E070E024C0C801B70120E027
:101810003FEF4FE757E40E9402121816B4F4C601D6
:10182000B50120E030E040E251E40E945C100E94EB
:10183000860E80E991E005C0FC013197F1F7615017
:10184000704061157105C1F707C0C801B7010E945A
:10185000860ECB010197F1F71F910F91FF90EF904A
:10186000DF90CF90BF90AF900895C398613011F48E
:10187000C49A01C0C4988FB9779BFECFC39A0895CC
:101880001F93162F0E94930980918203612F0E945B
:10189000CD0980918303612F0E94CD09809184033B
:1018A000612F0E94CD0980E2612F0E94CD091F9116
:1018B00008951F93162F0E946E0980918103612F56
:1018C0000E94CD0980918203612F0E94CD091F9152
:1018D000089584E391E090938E0380938D0308959F
:1018E000EF92FF920F931F93CF93DF930E94360BDB
:1018F0002FB7F89480918D0390918E0390938C0371
:1019000080938B032FBFE0918B03F0918C03C581F3
:10191000D681FF24F39404C0F3940D80DE81C02DA2
:10192000CE17DF07C9F724E02F1518F484E0F82E4E
:1019300003C082E08F1510F4C781D08580E090E06D
:1019400060E070E00E941F0B8091230190912401C0
:1019500061E00E941E0AEE2401E010E027C080E052
:1019600090E0B8010E941F0B29853A8580915701AC
:10197000909158012817390729F480E090E0B801C8
:101980000E941F0B29853A8560E080918B0390911E
:101990008C038C179D0709F461E0C9010E941E0A9F
:1019A0000D80DE81C02DE3940F5F1F4FEF14B8F25E
:1019B00080918B0390918C038E54914009F08DC0DF
:1019C00083E090E062E070E00E941F0B82E560E03F
:1019D0000E94CD0987E090E062E070E00E941F0B5A
:1019E00087E460E00E94CD098BE090E062E070E067
:1019F0000E941F0B82E460E00E94CD0980E090E02D
:101A000063E070E00E941F0B81E360E00E94CD095B
:101A100082E090E063E070E00E941F0B809163031E
:101A20009091640360E00E94400C80916503909166
:101A3000660360E00E94400C809167039091680308
:101A400060E00E94400C80E090E064E070E00E9462
:101A50001F0B82E360E00E94CD0982E090E064E029
:101A600070E00E941F0B8091690390916A0360E00F
:101A70000E94400C80916B0390916C0360E00E9487
:101A8000400C80916D0390916E0360E00E94400CC9
:101A900080E090E065E070E00E941F0B85E260E06E
:101AA0000E94CD0982E090E065E070E00E941F0B8B
:101AB00080916F039091700360E00E94400C8091D0
:101AC00071039091720360E00E94400C8091730357
:101AD0009091740360E00E94400CDF91CF911F91C0
:101AE0000F91FF90EF9008959F92AF92BF92CF9287
:101AF000DF92EF92FF920F931F93CF93DF93982E75
:101B00008FB7F89420918D0330918E0330938C031E
:101B100020938B038FBFE0918B03F0918C03A58101
:101B2000B6812185328511E005C01F5F15960D90A5
:101B3000BC91A02D19968D919C911A9782179307AD
:101B4000A1F7153008F014E00E94360BE0918B03EA
:101B5000F0918C03133038F4EF01CC2420E9A22E4D
:101B600021E0B22E3FC0C781D085F7CF80E090E062
:101B7000B7010E941F0B992019F0EF81F88502C070
:101B8000ED81FE812185328569857A8540E08091ED
:101B90008B0390918C038C179D0709F441E0C901D8
:101BA0002C2D092D0E94500A0D80DE81C02DD3946A
:101BB0000894E11CF11CD116C8F2E0918B03F0915E
:101BC0008C03133010F4EF0102C0C781D08584EF7D
:101BD00091E0F5013197F1F70197D9F7C39488E0C7
:101BE000C81629F0DD2491E0E92EF12CE4CFDF9135
:101BF000CF911F910F91FF90EF90DF90CF90BF900A
:101C0000AF909F90089524E331E030938E032093AA
:101C10008D030E948B0B0E94700C08958FB7F8946F
:101C200020918D0330918E0330938C0320938B038E
:101C30008FBFE0918B03F0918C03E081E33049F199
:101C4000E43028F4E13071F0E23040F514C0E530C2
:101C5000A9F1E53058F1E63009F43DC0E73009F06C
:101C600054C046C08FB7F894E0918D03F0918E0375
:101C70002381348108C08FB7F894E0918D03F091EF
:101C80008E032181328130938E0320938D038FBF89
:101C900021C080E090E00E94C206EDCF2FB7F894FB
:101CA0008091790390917A0380611CC02FB7F894DA
:101CB0008091790390917A03806207C02FB7F894DE
:101CC0008091790390917A03806490937A03809352
:101CD00079032FBF08952FB7F894809179039091DD
:101CE0007A03916090937A03809379032FBFBACFE0
:101CF0002FB7F8948091790390917A039260909332
:101D00007A03809379032FBFB6CF0895EF92FF92A5
:101D10000F931F937B018C0120E030E040E05FE4F3
:101D20000E94321288238CF0C801B70120E030E015
:101D300040E05FE40E94FE0F0E94F0129B01AC01A4
:101D4000205030404040504806C0C801B7010E94B2
:101D5000F0129B01AC01B901CA011F910F91FF90D4
:101D6000EF900895A0E0B0E0E8EBFEE00C943A16A6
:101D7000DC012B01FA019C91923008F439C1EB018E
:101D80008881823008F433C1943069F4843009F0DA
:101D90002FC111969C9111978981981709F428C138
:101DA000A3E5B2E025C1843009F421C18230A9F451
:101DB000923009F01DC19A01AD0188E0EA01099055
:101DC000AE01E90109929E018150C1F7E2018981CA
:101DD00011969C918923818308C1923009F407C12F
:101DE00012962D903C901397EB018A819B8114965B
:101DF000AD90BD90CD90DC901797EC80FD800E816A
:101E00001F819101281B390BB90137FF04C06627D8
:101E10007727621B730B603271050CF061C01216DC
:101E200013066CF537014801062E04C0969487947A
:101E3000779467940A94D2F721E030E040E050E0D4
:101E400004C0220F331F441F551F6A95D2F721503B
:101E50003040404050402E213F2140235123211546
:101E600031054105510521F021E030E040E050E02E
:101E700079018A01E628F728082919293CC0232B73
:101E8000D1F1260E371E35014601062E04C0969468
:101E90008794779467940A94D2F721E030E040E089
:101EA00050E004C0220F331F441F551F6A95D2F71C
:101EB00021503040404050402A213B214C215D219F
:101EC000211531054105510521F021E030E040E0C8
:101ED00050E059016A01A628B728C828D9280BC0A4
:101EE000821593052CF01C01AA24BB24650103C0B4
:101EF000EE24FF24870111969C91D20111968C91BA
:101F0000981709F445C0992339F0A80197012A19B7
:101F10003B094C095D0906C0A60195012E193F0930
:101F2000400B510B57FD08C011823382228224835B
:101F30003583468357831DC081E0818333822282AB
:101F400088279927DC01821B930BA40BB50B848394
:101F50009583A683B7830DC0220F331F441F551FDF
:101F600024833583468357838281938101979383AA
:101F700082832481358146815781DA01C901019725
:101F8000A109B1098F5F9F4FAF4FBF4328F30BC02B
:101F9000918333822282EA0CFB1C0C1D1D1DE482FE
:101FA000F5820683178383E080832481358146810F
:101FB000578157FF1AC0C901AA2797FDA095BA2FCC
:101FC00081709070A070B0705695479537952795A1
:101FD000822B932BA42BB52B84839583A683B78365
:101FE00082819381019693838283DF0101C0D201B4
:101FF000CD01CDB7DEB7E2E10C945616A0E2B0E019
:10200000E4E0F0E10C94461669837A838B839C8329
:102010002D833E834F835887E9E0EE2EF12CEC0EA2
:10202000FD1ECE010196B7010E94E1148E010F5EE4
:102030001F4FCE010596B8010E94E1148A8991E0F4
:1020400089278A8BC701B801AE01475E5F4F0E94A6
:10205000B20E0E940C14A096E6E00C946216A0E268
:10206000B0E0E5E3F0E10C94461669837A838B8354
:102070009C832D833E834F835887F9E0EF2EF12C0C
:10208000EC0EFD1ECE010196B7010E94E1148E01F7
:102090000F5E1F4FCE010596B8010E94E114C701E3
:1020A000B801AE01475E5F4F0E94B20E0E940C1451
:1020B000A096E6E00C946216A0E2B0E0E2E6F0E161
:1020C0000C943A1669837A838B839C832D833E8399
:1020D0004F835887CE010196BE01675F7F4F0E94F4
:1020E000E114CE010596BE016F5E7F4F0E94E114A0
:1020F0009985923088F089898230C8F0943019F43B
:10210000823051F404C0843029F4923081F483E5A4
:1021100092E0C6C0923049F420E09A858A899813EB
:1021200021E02A87CE010996BBC0823049F420E025
:102130009A858A89981321E02A8BCE014196B0C0F6
:102140002D843E844F8458886D887E888F88988C33
:10215000EE24FF248701AA24BB24650140E050E05F
:1021600060E070E0E0E0F0E0C10181709070892BE8
:10217000E9F0E60CF71C081D191D9A01AB012A0DA8
:102180003B1D4C1D5D1D80E090E0A0E0B0E0E6143A
:10219000F7040805190520F481E090E0A0E0B0E024
:1021A000BA01A901480F591F6A1F7B1FAA0CBB1C4B
:1021B000CC1CDD1C97FE08C081E090E0A0E0B0E000
:1021C000A82AB92ACA2ADB2A3196E032F10549F059
:1021D000660C771C881C991C569447943794279456
:1021E000C3CFFA85EA892B893C898B859C85280F8A
:1021F000391F2E5F3F4F17C0CA0181709070892B25
:1022000061F016950795F794E79480E090E0A0E0E0
:10221000B0E8E82AF92A0A2B1B2B76956795579583
:1022200047952F5F3F4F77FDE7CF0CC0440F551FF9
:10223000661F771F17FD4160EE0CFF1C001F111F6A
:1022400021503040403090E0590790E0690790E419
:10225000790760F32B8F3C8FDB01CA018F77907079
:10226000A070B07080349105A105B10561F447FDFF
:102270000AC0E114F1040105110529F0405C5F4F2B
:102280006F4F7F4F40781A8EFE1711F081E08A8FD2
:102290004D8F5E8F6F8F78A383E0898FCE01499633
:1022A0000E940C14A096E2E10C945616A8E1B0E04E
:1022B000ECE5F1E10C94421669837A838B839C836D
:1022C0002D833E834F835887B9E0EB2EF12CEC0E23
:1022D000FD1ECE010196B7010E94E1148E010F5E32
:1022E0001F4FCE010596B8010E94E11429852230C6
:1022F00008F47EC03989323010F4B8017CC08A8578
:102300009A8989278A87243011F0223031F42317E3
:1023100009F06EC063E572E06EC0343039F41D869A
:102320001E861F86188A1C861B8604C0323021F444
:1023300084E08987B7015FC02B853C858B899C89A8
:10234000281B390B3C872B87ED84FE840F85188969
:10235000AD88BE88CF88D88CEA14FB040C051D0517
:1023600040F4EE0CFF1C001F111F215030403C8731
:102370002B8720E030E040E050E080E090E0A0E0FB
:10238000B0E460E070E0EA14FB040C051D0540F0C9
:10239000282B392B4A2B5B2BEA18FB080C091D094B
:1023A000B695A79597958795EE0CFF1C001F111FFA
:1023B0006F5F7F4F6F31710531F7DA01C9018F7798
:1023C0009070A070B07080349105A105B10561F4E2
:1023D00027FD0AC0E114F1040105110529F0205C74
:1023E0003F4F4F4F5F4F20782D873E874F87588B49
:1023F000BE01675F7F4FCB010E940C146896EAE034
:102400000C945E16A8E1B0E0E8E0F2E10C94461608
:1024100069837A838B839C832D833E834F83588784
:1024200089E0E82EF12CEC0EFD1ECE010196B701DD
:102430000E94E1148E010F5E1F4FCE010596B80178
:102440000E94E1148985823040F08989823028F029
:10245000C701B8010E94591501C08FEF6896E6E0E8
:102460000C946216A8E1B0E0E8E3F2E10C944616A1
:1024700069837A838B839C832D833E834F83588724
:1024800089E0E82EF12CEC0EFD1ECE010196B7017D
:102490000E94E1148E010F5E1F4FCE010596B80118
:1024A0000E94E1148985823040F08989823028F0C9
:1024B000C701B8010E94591501C08FEF6896E6E088
:1024C0000C946216A8E1B0E0E8E6F2E10C9446163E
:1024D00069837A838B839C832D833E834F835887C4
:1024E00089E0E82EF12CEC0EFD1ECE010196B7011D
:1024F0000E94E1148E010F5E1F4FCE010596B801B8
:102500000E94E1148985823040F08989823028F068
:10251000C701B8010E94591501C081E06896E6E044
:102520000C946216A8E0B0E0E8E9F2E10C944316DE
:102530009B01AC0183E08983DA01C9018827B7FDDB
:1025400083959927AA27BB27B82E21153105410568
:10255000510519F482E089833AC08823A9F020301C
:1025600080E0380780E0480780E8580729F460E0F9
:1025700070E080E09FEC30C0EE24FF248701E21A77
:10258000F30A040B150B02C079018A018EE1C82EF3
:10259000D12CDC82CB82ED82FE820F831887C801AA
:1025A000B7010E94BD1301971816190684F4082E6E
:1025B00004C0EE0CFF1C001F111F0A94D2F7ED821D
:1025C000FE820F831887C81AD90ADC82CB82BA82AE
:1025D000CE0101960E940C142896E9E00C945F1637
:1025E000ACE0B0E0E6EFF2E10C944A1669837A833E
:1025F0008B839C83CE010196BE016B5F7F4F0E944F
:10260000E1148D81823061F1823050F1843021F407
:102610008E81882351F12EC02F81388537FD20C04F
:102620006E812F3131051CF06623F9F023C08EE155
:1026300090E0821B930B29853A854B855C8504C00D
:1026400056954795379527958A95D2F76623B1F029
:1026500050954095309521953F4F4F4F5F4F0EC09D
:1026600020E030E040E050E009C02FEF3FEF4FEFB7
:102670005FE704C020E030E040E050E8B901CA0163
:102680002C96E2E00C946616A8E0B0E0EAE4F3E1F0
:102690000C9442167B018C01611571058105910531
:1026A00019F482E0898360C083E089838EE1C82EBB
:1026B000D12CDC82CB82ED82FE820F831887C80189
:1026C000B7010E94BD13FC013197F7FF3BC02227E1
:1026D00033272E1B3F0B57016801022E04C0D694EE
:1026E000C794B794A7940A94D2F740E050E060E012
:1026F00070E081E090E0A0E0B0E004C0880F991F96
:10270000AA1FBB1F2A95D2F70197A109B1098E21F3
:102710009F21A023B1230097A105B10521F041E03D
:1027200050E060E070E04A295B296C297D294D83E7
:102730005E836F8378878EE190E08E1B9F0B9C8376
:102740008B8312C0309781F00E2E04C0EE0CFF1C5C
:10275000001F111F0A94D2F7ED82FE820F831887A3
:10276000CE1ADF0ADC82CB821A82CE0101960E9449
:102770000C142896EAE00C945E16EF92FF920F93E9
:102780001F937B018C0180E0E81680E0F80681E071
:10279000080780E0180788F48FEFE816F1040105B8
:1027A000110531F028F088E090E0A0E0B0E017C01B
:1027B00080E090E0A0E0B0E012C080E0E81680E0A9
:1027C000F80680E0080781E0180728F088E190E02B
:1027D000A0E0B0E004C080E190E0A0E0B0E020E242
:1027E00030E040E050E0281B390B4A0B5B0B04C083
:1027F00016950795F794E7948A95D2F7F701E55A6D
:10280000FD4F8081281B310941095109C9011F91E0
:102810000F91FF90EF900895DF92EF92FF920F9348
:102820001F93FC01E480F58006811781D1808081AF
:10283000823048F480E090E0A0E1B0E0E82AF92A94
:102840000A2B1B2BA5C0843009F49FC0823021F4D1
:10285000EE24FF24870105C0E114F10401051105F0
:1028600019F4E0E0F0E096C0628173819FEF623876
:1028700079070CF05BC022E83FEF261B370B2A31AB
:1028800031052CF020E030E040E050E02AC0B801F3
:10289000A701022E04C076956795579547950A942F
:1028A000D2F781E090E0A0E0B0E004C0880F991F6B
:1028B000AA1FBB1F2A95D2F70197A109B1098E2142
:1028C0009F21A023B1230097A105B10521F081E04C
:1028D00090E0A0E0B0E09A01AB01282B392B4A2B05
:1028E0005B2BDA01C9018F779070A070B0708034D3
:1028F0009105A105B10539F427FF09C0205C3F4FC0
:102900004F4F5F4F04C0215C3F4F4F4F5F4FE0E0A0
:10291000F0E02030A0E03A07A0E04A07A0E45A0720
:1029200010F0E1E0F0E079018A0127C0603871051C
:1029300064F5FB01E158FF4FD801C7018F77907014
:10294000A070B07080349105A105B10539F4E7FE9F
:102950000DC080E490E0A0E0B0E004C08FE390E020
:10296000A0E0B0E0E80EF91E0A1F1B1F17FF05C00C
:1029700016950795F794E794319687E01695079595
:10298000F794E7948A95D1F705C0EE24FF248701D8
:10299000EFEFF0E06E2F679566276795902F9F7792
:1029A000D794DD24D7948E2F8695492F462B582F08
:1029B0005D29B701CA011F910F91FF90EF90DF9041
:1029C0000895FC01DB01408151812281622F6F77E4
:1029D00070E0221F2227221F9381892F880F822BCC
:1029E000282F30E0991F9927991F11969C931197D2
:1029F00021153105A9F5411551056105710511F440
:102A000082E037C082E89FEF13969C938E931297D3
:102A10009A01AB0167E0220F331F441F551F6A95CF
:102A2000D1F783E08C930DC0220F331F441F551F35
:102A300012968D919C911397019713969C938E9368
:102A40001297203080E0380780E0480780E458077C
:102A500058F314962D933D934D935C9317970895D7
:102A60002F3F310579F4411551056105710519F4C0
:102A700084E08C93089564FF03C081E08C9312C0BE
:102A80001C9210C02F57304013963C932E931297F0
:102A900083E08C9387E0440F551F661F771F8A954C
:102AA000D1F7706414964D935D936D937C93179753
:102AB00008951F93DC01FB019C91923008F447C0FC
:102AC0008081823008F443C0943051F411961C91F7
:102AD000843099F58181682F70E0611B71093FC0D6
:102AE000843021F0923031F48230B9F18181882331
:102AF00089F12DC011961C9111978230F1F08181DE
:102B00001817D9F412962D913C91139782819381D5
:102B10008217930794F028173907BCF014968D910B
:102B20009D910D90BC91A02D2481358146815781C6
:102B3000281739074A075B0718F4112341F00AC028
:102B400082179307A407B50740F4112319F061E039
:102B500070E005C06FEF7FEF02C060E070E0CB0176
:102B60001F910895A0E0B0E0E8EBF5E10C94421667
:102B7000EC01A880B980CA80DB80A114B104C10433
:102B8000D10441F484E2A82E89EDB82E8BE5C82E3D
:102B900087E0D82EC601B5012DE133EF41E050E0CA
:102BA0000E94901627EA31E440E050E00E9471163E
:102BB0007B018C01C601B5012DE133EF41E050E00E
:102BC0000E949016CA01B9012CEE34EF4FEF5FEF6F
:102BD0000E9471166E0D7F1D801F911F97FF04C00C
:102BE0006150704080409048688379838A839B83DA
:102BF0009B013F77C901CDB7DEB7EAE00C945E16C2
:102C00000E94B21508958BE593E00E94B2150895D5
:102C1000A0E0B0E080935B0390935C03A0935D031E
:102C2000B0935E030895AA1BBB1B51E107C0AA1F06
:102C3000BB1FA617B70710F0A61BB70B881F991F5D
:102C40005A95A9F780959095BC01CD01089597FB01
:102C5000092E07260AD077FD04D0E5DF06D0002034
:102C60001AF4709561957F4F0895F6F790958195C8
:102C70009F4F08952F923F924F925F926F927F9253
:102C80008F929F92AF92BF92CF92DF92EF92FF927C
:102C90000F931F93CF93DF93CDB7DEB7CA1BDB0B28
:102CA0000FB6F894DEBF0FBECDBF09942A883988CD
:102CB00048885F846E847D848C849B84AA84B984D4
:102CC000C884DF80EE80FD800C811B81AA81B981E0
:102CD000CE0FD11D0FB6F894DEBF0FBECDBFED01F4
:102CE0000895629FD001739FF001829FE00DF11D56
:102CF000649FE00DF11D929FF00D839FF00D749F76
:102D0000F00D659FF00D9927729FB00DE11DF91F21
:102D1000639FB00DE11DF91FBD01CF01112408957E
:102D200097FB092E05260ED057FD04D014D00AD0EB
:102D3000001C38F450954095309521953F4F4F4FEA
:102D40005F4F0895F6F790958095709561957F4F48
:102D50008F4F9F4F0895A1E21A2EAA1BBB1BFD01A6
:102D60000DC0AA1FBB1FEE1FFF1FA217B307E4076A
:102D7000F50720F0A21BB30BE40BF50B661F771FC2
:102D8000881F991F1A9469F76095709580959095A2
:0E2D90009B01AC01BD01CF010895F894FFCF67
:102D9E002D2D536E616B652067616D652D2D006065
:102DAE0000596F752077696E2100710053636F7241
:102DBE00653A203078007C004C6576656C3A2023AD
:102DCE00008800476F742066756E3F009300476F52
:102DDE0020776F726B21009E00206272756E716C8F
:102DEE0000A9001EC84614010803010803010803C8
:102DFE000108030108030108030108030108030188
:102E0E0008030108030000803F000000000000805E
:102E1E003F0000803F000000000000803FFF039055
:102E2E000048002400436F6D706C6574652100F5D9
:102E3E0000506C6561736520776169742E2E2E00CB
:102E4E000101C8802D2D436F6C6F727320434D505E
:102E5E002D2D0014012F2F20537461727420202009
:102E6E00202F2F000200004E016801040225012FC1
:102E7E002F20526573756C74733A202F2F00033414
:102E8E000100004E014E013F012F2F20536E616B4A
:102E9E0065202020202F2F0006000082019C013487
:102EAE000159012F2F202020536E616B6520202F9A
:102EBE002F0007680100008201820173012F2F206D
:102ECE005365747570202020202F2F00010000D034
:102EDE0001040268018D012F2F20536574207A653D
:102EEE00726F202F2F00059C010000D001EA01A770
:102EFE00012F2F43616C6C6962726174652F2F0014
:102F0E00049C010000EA01B601C1012F2F2042618D
:102F1E00636B20202020202F2F00009C010000B684
:102F2E0001D001DB012F2F20526561646D652020D9
:102F3E00202F2F00010000480234019C01F5015B97
:102F4E002050726F6772616D6D65723A5D5B202005
:102F5E00206272756E716C2020205D5B2020202017
:102F6E0028617429202020205D5B2020676D616917
:102F7E006C2E636F6D205D00000402000048024855
:102F8E00020F020000000000000000000102020318
:102F9E0003030304040404040404040505050505E1
:102FAE0005050505050505050505050606060606BE
:102FBE0006060606060606060606060606060606A3
:102FCE00060606060606060606060607070707078E
:102FDE000707070707070707070707070707070773
:102FEE000707070707070707070707070707070763
:102FFE000707070707070707070707070707070753
:10300E00070707070707070707070708080808083D
:10301E000808080808080808080808080808080822
:10302E000808080808080808080808080808080812
:10303E000808080808080808080808080808080802
:10304E0008080808080808080808080808080808F2
:10305E0008080808080808080808080808080808E2
:10306E0008080808080808080808080808080808D2
:10307E0008080808080808080808080808080808C2
:10308E0008080808080808080808080100000000D9
:00000001FF
