:100000000C940E010C942B010C944E030C942B01B8
:100010000C942B010C942B010C942B010C942B01B0
:100020000C942B010C942B010C942B010C942B01A0
:100030000C942B010C942B010C942B010C942B0190
:100040000C94AC030C942B010C942B010C942B01FD
:100050000C942B01000000000000002F000000079E
:10006000000700147F147F14242A7F2A12C4C810AA
:10007000264636495522500005030000001C224147
:10008000000041221C0014083E081408083E08081D
:1000900000005030001010101010006060000020B0
:1000A000100804023E5149453E00427F4000426133
:1000B0005149462141454B311814127F10274545BF
:1000C00045393C4A494930017109050336494949D6
:1000D00036064949291E0036360000005636000013
:1000E00008142241001414141414004122140802AC
:1000F000015109063E5965655E7E1111117E7F49E9
:100100004949363E414141227F4141221C7F4949B4
:1001100049417F090909013E4149497A7F08080898
:100120007F00417F41002040413F017F0814224170
:100130007F404040407F020C027F7F0408107F3EDA
:100140004141413E7F090909063E4151215E7F0937
:10015000192946464949493101017F01013F404083
:10016000403F1F2040201F3F4038403F6314081489
:100170006307087008076151494543007F4141000A
:10018000552A552A550041417F00040201020440CE
:1001900040404040000102040020545454787F48FD
:1001A0004444383844444420384444487F38545404
:1001B0005418087E0901020C5252523E7F08040472
:1001C0007800447D40002040443D007F10284400DA
:1001D00000417F40007C041804787C0804047838CF
:1001E000444444387C14141408081414187C7C0803
:1001F0000404084854545420043F4440203C4040E8
:10020000207C1C2040201C3C4030403C44281028CE
:10021000440C5050503C4464544C440011241FBEC4
:10022000CFE5D8E0DEBFCDBF12E0A0E6B0E0E6ED5E
:10023000FEE102C005900D92A639B107D9F712E090
:10024000A6E9B2E001C01D92A63DB107E1F70E9408
:10025000C0030C94690F0C940000CF92DF92EF92D0
:10026000FF920F931F937C01262F6AE070E00E949B
:100270001E0FD62EC72E30E08901000F111F020F6E
:10028000131F040F111D000F111F02551D4F862F44
:10029000972F6AE070E00E941E0FE82FF0E084E0E4
:1002A000EE0FFF1F8A95E1F7C7016AE070E00E9438
:1002B0001E0F90E0E82BF92B8D2D9C2D6AE070E04D
:1002C0000E941E0FCB016AE070E00E941E0F382FC3
:1002D00020E0E22BF32BD801ED93FC931F910F91BB
:1002E000FF90EF90DF90CF900895882311F0389819
:1002F00001C0389A88EC90E00197F1F7369A369968
:10030000FECF08952091C0023091C102389A88EC46
:1003100090E00197F1F7369A3699FECF2115310515
:1003200049F08091C6029091C702820F931F969563
:10033000879504C08091C6029091C7029093C10234
:100340008093C0022091C2023091C302389888EC99
:1003500090E00197F1F7369A3699FECF21153105D5
:1003600049F08091C6029091C702820F931F969523
:10037000879504C08091C6029091C7029093C302F2
:100380008093C20208951F931092C1021092C0027E
:100390001092C3021092C20210E00E9482011F5FFD
:1003A0001F3FD9F71F910895CF92DF92EF92FF92EE
:1003B0000F931F93082F10E06091C0027091C1024B
:1003C000A6E9CA2EA2E0DA2E7801EE0CFF1CEE0C94
:1003D000FF1CEC0CFD1C882777FD8095982F0E9450
:1003E000FE0B9B01AC0160E070EC8FEF93E40E9488
:1003F000C20AF70160837183828393836091C20292
:100400007091C3020D5F1F4F000F111F000F111FCE
:10041000C00ED11E882777FD8095982F0E94FE0B75
:100420009B01AC0160E070EC8FEF93E40E94C20A84
:10043000F60160837183828393831F910F91FF90F4
:10044000EF90DF90CF9008958FEF93E0909361004D
:10045000809360000895DF92EF92FF920F931F93B5
:10046000CF93DF93D82E6091C0027091C102082F04
:1004700010E0882777FD8095982F0E94FE0B000FD3
:10048000111F000F111FF801EA56FD4F2081318125
:10049000428153810E94C8090E945C0C7B016091DB
:1004A000C2027091C302882777FD8095982F0E9421
:1004B000FE0B0E551D4FF801208131814281538181
:1004C0000E94C8090E945C0CEB019701261B370BA8
:1004D00037FF03C0309521953F4F609160007091C8
:1004E000610084E690E0AC01249FC001259F900D3F
:1004F000349F900D11240E941E0F162F072FC70145
:1005000060E04D2D0E942D01CE0161E04D2D0E9435
:100510002D01812F902F62E04D2D0E942D01DF9142
:10052000CF911F910F91FF90EF90DF900895CF92A0
:10053000DF92FF920F931F93CF93DF938C019FB7AE
:10054000F8948BB78F778BBF9FBF0E94620580E0C6
:1005500090E061E070E00E944B0580917F009091F7
:10056000800060E00E94190582E00432180719F447
:1005700085E090E002C081E090E063E070E00E94DE
:100580004B058BE560E00E94C804C2E6D0E0FF2482
:1005900030E9C32E31E0D32E83E260E00E94C8042C
:1005A00082E00432180719F480E090E002C08881EC
:1005B00099810E94260380E29EE4F6013197F1F7CB
:1005C0000197D9F783E260E00E94C8040E94C3014A
:1005D00083E260E00E94C8048F2DF801099582E053
:1005E0000432180729F0F394229683E0F816A1F656
:1005F00080E090E00E9426038DE560E00E94C80440
:1006000082E090E065E070E00E944B0580916E0012
:1006100090916F0060E00E94190588E893E120E95D
:1006200031E0F9013197F1F70197D9F79FB7F894C5
:1006300080E48ABF8BB780688BBF9FBFDF91CF916B
:100640001F910F91FF90DF90CF900895AC0120E0B3
:1006500030E061E070E0DB98CB01022E02C0880F31
:10066000991F0A94E2F784239523892B11F0DA9AD3
:1006700001C0DA98DB9A2F5F3F4F2031310559F7DF
:10068000DC9A0000DC980895DC98DB988AB38C61D2
:100690008ABB80E090E00E94260308951F920F928B
:1006A0000FB60F9211248F939F93EF93FF9380E8DF
:1006B00080938100E0E4FFE13197F1F78ABF83B3D3
:1006C000807F803911F482E00FC0803611F481E020
:1006D0000BC0803C11F484E007C0803311F483E048
:1006E00003C0803F61F780E083992DC0882331F4F7
:1006F0009FB7F8948091C402826022C0813061F477
:10070000E091D402F091D502878190859093D50233
:100710008093D4028FE70DC08230A9F4E091D40217
:10072000F091D502858196819093D5028093D40271
:1007300081E8809381009FB7F8948091C402816022
:100740008093C4029FBFFF91EF919F918F910F9073
:100750000FBE0F901F9018951F920F920FB60F9219
:1007600011248F939F9384B195B19093C702809386
:10077000C6029F918F910F900FBE0F901F901895FA
:1007800018BA17BA15BA14BA88E082BB11BA80EF4A
:1007900085BB84B38F7084BB80E888B98AE085BF4D
:1007A00080EC8BBF17B88FE886B90E94440388EEAF
:1007B00093E00E948E0778948FB7F8949091C402CA
:1007C0009093C5028FBF8091C50280FF0AC09FB77A
:1007D000F8948091C4028E7F8093C4029FBF0E94D0
:1007E00066068FB7F8949091C4029093C5028FBFAC
:1007F0008091C50281FF12C09FB7F8948091C40216
:100800008D7F8093C4029FBF0E9499079FB7F89481
:100810008091C40281608093C4029FBF8FB7F89417
:100820009091C4029093C5028FBF8091C50284FF4E
:1008300014C08BE292E00E9497029FB7F8948091D7
:10084000C4028F7E8093C4029FBF9FB7F8948091AB
:10085000C40281608093C4029FBF8FB7F8949091C7
:10086000C4029093C5028FBF8091C50285FF0CC062
:1008700084ED91E00E9497029FB7F8948091C402A2
:100880008F7D8093C4029FBF8FB7F8949091C4026C
:100890009093C5028FBF8091C50286FF8DCF84E201
:1008A00092E00E9497029FB7F8948091C4028F7BD8
:1008B0008093C4029FBF80CF982F8A3010F4805D50
:1008C00008958A50863010F08FE30895892F895C4F
:1008D0000895282F982F92959F709A3018F4892F99
:1008E000805D08C0892F8A50863010F08FE302C0E7
:1008F000892F895C8093C802922F9F709A3018F4D8
:10090000892F805D08C0892F8A50863010F08FE3D0
:1009100002C0892F895C8093C90208959C01807070
:100920009F709A3018F4892F805D08C0892F8A50F3
:10093000863010F08FE302C0892F895C8093C90252
:10094000C901807F907034E0969587953A95E1F7DC
:10095000982F8A3010F4805D07C08A50863010F0DE
:100960008FE302C0892F895C8093CA02922F9F7007
:100970009A3018F4892F805D08C0892F8A508630FC
:1009800010F08FE302C0892F895C8093CB02089519
:10099000CF93DF93282F362F803208F42CE5C091B7
:1009A000CC02D091CD02CE0164E570E00E941E0F12
:1009B0008068C398C4988FB9779BFECFC39ACE0145
:1009C00064E570E00E941E0F6064C398C4986FB91C
:1009D000779BFECFC39A85E0289FC0011124FC01BC
:1009E000EC54F040875490402491220F311120950F
:1009F000C398C49A2FB9779BFECFC39A3196E81754
:100A0000F90791F7332339F0C398C49A8FEF8FB960
:100A1000779BFECF05C0C398C49A1FB8779BFECFC3
:100A2000C39A2696D093CD02C093CC02DF91CF918A
:100A300008950F931F93CF93DF93082F162F282F1E
:100A4000392FE90104C02196612F0E94C8049E013C
:100A5000201B922F88818823B1F71123B9F022231C
:100A6000A9F02E3098F42EE030E0291B3109C9019D
:100A7000880F991F820F931F880F9FEFC398C49A06
:100A80009FB9779BFECFC39A8150C1F7DF91CF9179
:100A90001F910F91089524E530E0629FA001639FAC
:100AA000500D729F500D11249C01220F331F280FEF
:100AB000391F220F331F420F531F5093CD02409313
:100AC000CC020895C398C49880E88FB9779BFECF75
:100AD000C39AC398C49880E48FB9779BFECFC39A1A
:100AE00080E090E0C398C49A1FB8779BFECFC39A6A
:100AF000019621E0883F9207A9F70895AF92BF922F
:100B0000CF92DF92EF92FF920F931F938C01C29AC4
:100B100087B38C6B87BB84EF91E020E931E0F9016A
:100B20003197F1F70197D9F7C29880EA9FE00197D2
:100B3000F1F7C29A80E58DB9C39AC398C49881E24F
:100B40008FB9779BFECFC39AC398C49888EC8FB9AE
:100B5000779BFECFC39AC398C49886E08FB9779BE2
:100B6000FECFC39AC398C49883E18FB9779BFECF19
:100B7000C39AC398C49880E28FB9779BFECFC39A7B
:100B8000C398C4988CE08FB9779BFECFC39A0E941C
:100B90006205C398C49881E28FB9779BFECFC39A50
:100BA000C398C4988EE98FB9779BFECFC39AC39838
:100BB000C49880E28FB9779BFECFC39AB80180E0DA
:100BC00090E00E94B00C5B016C0120E030E04AE74D
:100BD00055E40E94C8097B018C0120E030E040E828
:100BE0005FE30E94CE0B88231CF461E070E024C018
:100BF000C801B70120E03FEF4FE757E40E946E0BBA
:100C00001816B4F4C601B50120E030E040E251E42A
:100C10000E94C8090E94F20780E991E005C0FC012A
:100C20003197F1F76150704061157105C1F707C048
:100C3000C801B7010E94F207CB010197F1F71F919C
:100C40000F91FF90EF90DF90CF90BF90AF900895FD
:100C50000E9462050895C398613011F4C49A01C0DE
:100C6000C4988FB9779BFECFC39A08951F93162F10
:100C70000E948E048091C902612F0E94C804809155
:100C8000CA02612F0E94C8048091CB02612F0E948A
:100C9000C80480E2612F0E94C8041F9108951F9329
:100CA000162F0E9469048091C802612F0E94C80417
:100CB0008091C902612F0E94C8041F91089582EAA1
:100CC00090E09093D5028093D4020895EF92FF9222
:100CD0000F931F93CF93DF930E9462052FB7F89471
:100CE0008091D4029091D5029093D3028093D20246
:100CF0002FBFE091D202F091D302C581D681FF24AB
:100D0000F39404C0F3940D80DE81C02DCE17DF076D
:100D1000C9F724E02F1510F484E0F82E40918100EB
:100D20008F2D90E081589F4F242F30E0821793073A
:100D30003CF48FE7F80EF092810021E8F20E05C036
:100D400047FD03C080E88093810080918100282FB7
:100D500030E02F57304041E004C00F80D885C02DCF
:100D60004F5F842F90E082179307BCF380E090E000
:100D700060E070E00E944B0580919100909192009C
:100D800061E00E941905EE2402E010E029C080E035
:100D900090E0B8010E944B0529853A858091C500F5
:100DA0009091C6002817390739F4B8016150704096
:100DB00080E090E00E944B0529853A8560E08091B3
:100DC000D2029091D3028C179D0709F461E0C9010A
:100DD0000E9419050D80DE81C02DE3940F5F1F4F27
:100DE000EF14A8F28091D2029091D3028C5B9040D4
:100DF00009F08DC083E090E062E070E00E944B0556
:100E000082E560E00E94C80487E090E062E070E064
:100E10000E944B0587E460E00E94C8048BE090E0EC
:100E200062E070E00E944B0582E460E00E94C8042A
:100E300080E090E063E070E00E944B0581E360E0B9
:100E40000E94C80482E090E063E070E00E944B05DD
:100E50008091AE029091AF0260E00E9436068091D0
:100E6000B0029091B10260E00E9436068091B20219
:100E70009091B30260E00E94360680E090E064E06A
:100E800070E00E944B0582E360E00E94C80482E0AB
:100E900090E064E070E00E944B058091B402909174
:100EA000B50260E00E9436068091B6029091B702CA
:100EB00060E00E9436068091B8029091B90260E02D
:100EC0000E94360680E090E065E070E00E944B05ED
:100ED00085E260E00E94C80482E090E065E070E096
:100EE0000E944B058091BA029091BB0260E00E9483
:100EF00036068091BC029091BD0260E00E943606E9
:100F00008091BE029091BF0260E00E943606DF91A0
:100F1000CF911F910F91FF90EF90089522EA30E05A
:100F20003093D5022093D4020E947E050E9466066B
:100F300008958FB7F8942091D4023091D502309360
:100F4000D3022093D2028FBFE091D202F091D3025C
:100F5000E081E23061F1E33030F4EE23A9F0E130DA
:100F600009F03FC008C0E43059F1E430D8F0E53072
:100F700009F037C02EC08FB7F894E091D402F091F9
:100F8000D5022381348108C08FB7F894E091D40250
:100F9000F091D502218132813093D5022093D40281
:100FA0008FBF16C080E090E00E942603EDCF9FB770
:100FB000F8948091C40280618093C4029FBFDBCF0C
:100FC0009FB7F8948091C40280628093C4029FBF4F
:100FD00008959FB7F8948091C40280648093C402FE
:100FE0009FBF0895EF92FF920F931F937B018C0197
:100FF00020E030E040E05FE40E949E0B88238CF00C
:10100000C801B70120E030E040E05FE40E946A09D7
:101010000E945C0C9B01AC01205030404040504885
:1010200006C0C801B7010E945C0C9B01AC01B9016C
:10103000CA011F910F91FF90EF900895A0E0B0E0DA
:10104000E4E2F8E00C94320FDC012B01FA019C91F0
:10105000923008F439C1EB018881823008F433C141
:10106000943069F4843009F02FC111969C91119746
:101070008981981709F428C1ADE8B1E025C1843011
:1010800009F421C18230A9F4923009F01DC19A01FE
:10109000AD0188E0EA010990AE01E90109929E01E3
:1010A0008150C1F7E201898111969C918923818346
:1010B00008C1923009F407C112962D903C90139705
:1010C000EB018A819B811496AD90BD90CD90DC9010
:1010D0001797EC80FD800E811F819101281B390B31
:1010E000B90137FF04C066277727621B730B603294
:1010F00071050CF061C0121613066CF5370148013A
:10110000062E04C096948794779467940A94D2F735
:1011100021E030E040E050E004C0220F331F441FC4
:10112000551F6A95D2F721503040404050402E2143
:101130003F2140235123211531054105510521F05F
:1011400021E030E040E050E079018A01E628F7280C
:10115000082919293CC0232BD1F1260E371E350151
:101160004601062E04C096948794779467940A9457
:10117000D2F721E030E040E050E004C0220F331FFE
:10118000441F551F6A95D2F72150304040405040CF
:101190002A213B214C215D212115310541055105B5
:1011A00021F021E030E040E050E059016A01A6283A
:1011B000B728C828D9280BC0821593052CF01C012C
:1011C000AA24BB24650103C0EE24FF2487011196E5
:1011D0009C91D20111968C91981709F445C09923DE
:1011E00039F0A80197012A193B094C095D0906C08D
:1011F000A60195012E193F09400B510B57FD08C060
:1012000011823382228224833583468357831DC013
:1012100081E081833382228288279927DC01821B27
:10122000930BA40BB50B84839583A683B7830DC062
:10123000220F331F441F551F248335834683578352
:1012400082819381019793838283248135814681B2
:101250005781DA01C9010197A109B1098F5F9F4F39
:10126000AF4FBF4328F30BC0918333822282EA0C35
:10127000FB1C0C1D1D1DE482F5820683178383E091
:101280008083248135814681578157FF1AC0C90167
:10129000AA2797FDA095BA2F81709070A070B070AA
:1012A0005695479537952795822B932BA42BB52BD5
:1012B00084839583A683B7838281938101969383E8
:1012C0008283DF0101C0D201CD01CDB7DEB7E2E1FB
:1012D0000C944E0FA0E2B0E0E0E7F9E00C943E0F72
:1012E00069837A838B839C832D833E834F835887C6
:1012F000E9E0EE2EF12CEC0EFD1ECE010196B701B9
:101300000E944D0E8E010F5E1F4FCE010596B80153
:101310000E944D0E8A8991E089278A8BC701B80106
:10132000AE01475E5F4F0E941E080E94780DA09696
:10133000E6E00C945A0FA0E2B0E0E1EAF9E00C9488
:101340003E0F69837A838B839C832D833E834F83F7
:101350005887F9E0EF2EF12CEC0EFD1ECE01019620
:10136000B7010E944D0E8E010F5E1F4FCE010596F4
:10137000B8010E944D0EC701B801AE01475E5F4F34
:101380000E941E080E94780DA096E6E00C945A0F69
:10139000A0E2B0E0EEECF9E00C94320F69837A83BE
:1013A0008B839C832D833E834F835887CE01019688
:1013B000BE01675F7F4F0E944D0ECE010596BE01B4
:1013C0006F5E7F4F0E944D0E9985923088F089891B
:1013D0008230C8F0943019F4823051F404C0843063
:1013E00029F4923081F48DE891E0C6C0923049F43E
:1013F00020E09A858A89981321E02A87CE010996F0
:10140000BBC0823049F420E09A858A89981321E094
:101410002A8BCE014196B0C02D843E844F845888DB
:101420006D887E888F88988CEE24FF248701AA24FB
:10143000BB24650140E050E060E070E0E0E0F0E0F7
:10144000C10181709070892BE9F0E60CF71C081D32
:10145000191D9A01AB012A0D3B1D4C1D5D1D80E03D
:1014600090E0A0E0B0E0E614F7040805190520F4C8
:1014700081E090E0A0E0B0E0BA01A901480F591F57
:101480006A1F7B1FAA0CBB1CCC1CDD1C97FE08C06E
:1014900081E090E0A0E0B0E0A82AB92ACA2ADB2ABD
:1014A0003196E032F10549F0660C771C881C991CD6
:1014B0005694479437942794C3CFFA85EA892B89A9
:1014C0003C898B859C85280F391F2E5F3F4F17C0A5
:1014D000CA0181709070892B61F016950795F79479
:1014E000E79480E090E0A0E0B0E8E82AF92A0A2B2F
:1014F0001B2B76956795579547952F5F3F4F77FD47
:10150000E7CF0CC0440F551F661F771F17FD4160C2
:10151000EE0CFF1C001F111F21503040403090E0A6
:10152000590790E0690790E4790760F32B8F3C8FAF
:10153000DB01CA018F779070A070B0708034910584
:10154000A105B10561F447FD0AC0E114F1040105EC
:10155000110529F0405C5F4F6F4F7F4F40781A8E26
:10156000FE1711F081E08A8F4D8F5E8F6F8F78A309
:1015700083E0898FCE0149960E94780DA096E2E122
:101580000C944E0FA8E1B0E0E8ECFAE00C943A0FAE
:1015900069837A838B839C832D833E834F83588713
:1015A000B9E0EB2EF12CEC0EFD1ECE010196B70139
:1015B0000E944D0E8E010F5E1F4FCE010596B801A1
:1015C0000E944D0E2985223008F47EC039893230C0
:1015D00010F4B8017CC08A859A8989278A872430CB
:1015E00011F0223031F4231709F06EC06DE871E07C
:1015F0006EC0343039F41D861E861F86188A1C86FC
:101600001B8604C0323021F484E08987B7015FC0B3
:101610002B853C858B899C89281B390B3C872B8724
:10162000ED84FE840F851889AD88BE88CF88D88C5C
:10163000EA14FB040C051D0540F4EE0CFF1C001F12
:10164000111F215030403C872B8720E030E040E0E4
:1016500050E080E090E0A0E0B0E460E070E0EA14E8
:10166000FB040C051D0540F0282B392B4A2B5B2B66
:10167000EA18FB080C091D09B695A795979587955B
:10168000EE0CFF1C001F111F6F5F7F4F6F31710544
:1016900031F7DA01C9018F779070A070B070803493
:1016A0009105A105B10561F427FD0AC0E114F1041B
:1016B0000105110529F0205C3F4F4F4F5F4F207807
:1016C0002D873E874F87588BBE01675F7F4FCB01C9
:1016D0000E94780D6896EAE00C94560FA8E1B0E0FD
:1016E000E4E7FBE00C943E0F69837A838B839C8351
:1016F0002D833E834F83588789E0E82EF12CEC0E32
:10170000FD1ECE010196B7010E944D0E8E010F5EA7
:101710001F4FCE010596B8010E944D0E898582307B
:1017200040F08989823028F0C701B8010E94C50EB7
:1017300001C08FEF6896E6E00C945A0FA8E1B0E084
:10174000E4EAFBE00C943E0F69837A838B839C83ED
:101750002D833E834F83588789E0E82EF12CEC0ED1
:10176000FD1ECE010196B7010E944D0E8E010F5E47
:101770001F4FCE010596B8010E944D0E898582301B
:1017800040F08989823028F0C701B8010E94C50E57
:1017900001C08FEF6896E6E00C945A0FA8E1B0E024
:1017A000E4EDFBE00C943E0F69837A838B839C838A
:1017B0002D833E834F83588789E0E82EF12CEC0E71
:1017C000FD1ECE010196B7010E944D0E8E010F5EE7
:1017D0001F4FCE010596B8010E944D0E89858230BB
:1017E00040F08989823028F0C701B8010E94C50EF7
:1017F00001C081E06896E6E00C945A0FA8E0B0E0E2
:10180000E4E0FCE00C943B0F9B01AC0183E0898396
:10181000DA01C9018827B7FD83959927AA27BB2735
:10182000B82E211531054105510519F482E089834F
:101830003AC08823A9F0203080E0380780E04807CC
:1018400080E8580729F460E070E080E09FEC30C049
:10185000EE24FF248701E21AF30A040B150B02C0E1
:1018600079018A018EE1C82ED12CDC82CB82ED82F7
:10187000FE820F831887C801B7010E94290D0197C6
:101880001816190684F4082E04C0EE0CFF1C001F65
:10189000111F0A94D2F7ED82FE820F831887C81AAF
:1018A000D90ADC82CB82BA82CE0101960E94780DE1
:1018B0002896E9E00C94570FACE0B0E0E2E6FCE0DB
:1018C0000C94420F69837A838B839C83CE010196AB
:1018D000BE016B5F7F4F0E944D0E8D81823061F1A2
:1018E000823050F1843021F48E81882351F12EC052
:1018F0002F81388537FD20C06E812F3131051CF0D6
:101900006623F9F023C08EE190E0821B930B2985BA
:101910003A854B855C8504C0569547953795279544
:101920008A95D2F76623B1F0509540953095219570
:101930003F4F4F4F5F4F0EC020E030E040E050E09F
:1019400009C02FEF3FEF4FEF5FE704C020E030E02A
:1019500040E050E8B901CA012C96E2E00C945E0F19
:10196000A8E0B0E0E6EBFCE00C943A0F7B018C01C0
:10197000611571058105910519F482E0898360C0C4
:1019800083E089838EE1C82ED12CDC82CB82ED826C
:10199000FE820F831887C801B7010E94290DFC0140
:1019A0003197F7FF3BC0222733272E1B3F0B5701F0
:1019B0006801022E04C0D694C794B794A7940A94E1
:1019C000D2F740E050E060E070E081E090E0A0E01D
:1019D000B0E004C0880F991FAA1FBB1F2A95D2F739
:1019E0000197A109B1098E219F21A023B12300975E
:1019F000A105B10521F041E050E060E070E04A2926
:101A00005B296C297D294D835E836F8378878EE106
:101A100090E08E1B9F0B9C838B8312C0309781F0CC
:101A20000E2E04C0EE0CFF1C001F111F0A94D2F7EB
:101A3000ED82FE820F831887CE1ADF0ADC82CB820A
:101A40001A82CE0101960E94780D2896EAE00C9445
:101A5000560FEF92FF920F931F937B018C0180E052
:101A6000E81680E0F80681E0080780E0180788F4AF
:101A70008FEFE816F1040105110531F028F088E038
:101A800090E0A0E0B0E017C080E090E0A0E0B0E01F
:101A900012C080E0E81680E0F80680E0080781E0E8
:101AA000180728F088E190E0A0E0B0E004C080E1F1
:101AB00090E0A0E0B0E020E230E040E050E0281B01
:101AC000390B4A0B5B0B04C016950795F794E79406
:101AD0008A95D2F7F701EB56FE4F8081281B31091A
:101AE00041095109C9011F910F91FF90EF9008958D
:101AF000DF92EF92FF920F931F93FC01E480F58039
:101B000006811781D1808081823048F480E090E0A6
:101B1000A0E1B0E0E82AF92A0A2B1B2BA5C08430EB
:101B200009F49FC0823021F4EE24FF24870105C010
:101B3000E114F1040105110519F4E0E0F0E096C0AC
:101B4000628173819FEF623879070CF05BC022E8F5
:101B50003FEF261B370B2A3131052CF020E030E017
:101B600040E050E02AC0B801A701022E04C07695DB
:101B70006795579547950A94D2F781E090E0A0E0E9
:101B8000B0E004C0880F991FAA1FBB1F2A95D2F787
:101B90000197A109B1098E219F21A023B1230097AC
:101BA000A105B10521F081E090E0A0E0B0E09A014C
:101BB000AB01282B392B4A2B5B2BDA01C9018F771C
:101BC0009070A070B07080349105A105B10539F412
:101BD00027FF09C0205C3F4F4F4F5F4F04C0215C7F
:101BE0003F4F4F4F5F4FE0E0F0E02030A0E03A077A
:101BF000A0E04A07A0E45A0710F0E1E0F0E0790124
:101C00008A0127C06038710564F5FB01E158FF4F78
:101C1000D801C7018F779070A070B07080349105A3
:101C2000A105B10539F4E7FE0DC080E490E0A0E025
:101C3000B0E004C08FE390E0A0E0B0E0E80EF91E51
:101C40000A1F1B1F17FF05C016950795F794E79409
:101C5000319687E016950795F794E7948A95D1F722
:101C600005C0EE24FF248701EFEFF0E06E2F6795AB
:101C700066276795902F9F77D794DD24D7948E2F72
:101C80008695492F462B582F5D29B701CA011F9110
:101C90000F91FF90EF90DF900895FC01DB014081F0
:101CA00051812281622F6F7770E0221F2227221F2D
:101CB0009381892F880F822B282F30E0991F992735
:101CC000991F11969C93119721153105A9F541157E
:101CD00051056105710511F482E037C082E89FEF7C
:101CE00013969C938E9312979A01AB0167E0220F93
:101CF000331F441F551F6A95D1F783E08C930DC0A5
:101D0000220F331F441F551F12968D919C911397DC
:101D1000019713969C938E931297203080E038079A
:101D200080E0480780E4580758F314962D933D93BC
:101D30004D935C93179708952F3F310579F4411522
:101D400051056105710519F484E08C93089564FFD1
:101D500003C081E08C9312C01C9210C02F573040FA
:101D600013963C932E93129783E08C9387E0440F55
:101D7000551F661F771F8A95D1F7706414964D938F
:101D80005D936D937C93179708951F93DC01FB017E
:101D90009C91923008F447C08081823008F443C09F
:101DA000943051F411961C91843099F58181682FFB
:101DB00070E0611B71093FC0843021F0923031F432
:101DC0008230B9F18181882389F12DC011961C914F
:101DD00011978230F1F081811817D9F412962D9164
:101DE0003C911397828193818217930794F028176F
:101DF0003907BCF014968D919D910D90BC91A02D4A
:101E00002481358146815781281739074A075B07A6
:101E100018F4112341F00AC082179307A407B507ED
:101E200040F4112319F061E070E005C06FEF7FEF1F
:101E300002C060E070E0CB011F910895AA1BBB1B9C
:101E400051E107C0AA1FBB1FA617B70710F0A61BBA
:101E5000B70B881F991F5A95A9F780959095BC01DB
:101E6000CD0108952F923F924F925F926F927F9291
:101E70008F929F92AF92BF92CF92DF92EF92FF929A
:101E80000F931F93CF93DF93CDB7DEB7CA1BDB0B46
:101E90000FB6F894DEBF0FBECDBF09942A883988EB
:101EA00048885F846E847D848C849B84AA84B984F2
:101EB000C884DF80EE80FD800C811B81AA81B981FE
:101EC000CE0FD11D0FB6F894DEBF0FBECDBFED0112
:061ED0000895F894FFCF15
:101ED600FF03900048002400446F6E6521006800EF
:101EE600506C6561736520776169742E2E2E0070C3
:101EF60000802D2D436F6C6F727320434D502D2D36
:101F06000082002F2F205374617274202020202F0E
:101F16002F00020000BC00D6003E0193002F2F20A8
:101F2600526573756C74733A202F2F0003A200005C
:101F360000BC00BC00AD002F2F20536574757020C7
:101F46002020202F2F00010000F0003E01A200C734
:101F5600002F2F43616C6C6962726174652F2F00CC
:101F660004D60000000A012401E1002F2F2053654A
:101F760074207A65726F202F2F0005D6000000248A
:101F860001F000FB002F2F204261636B20202020F0
:101F9600202F2F0000D6000000F0000A0115012FA7
:101FA6002F20526561646D652020202F2F000100CF
:101FB600008201A200D6002F015B2050726F67726B
:101FC600616D6D65723A5D5B2020206272756E717F
:101FD6006C2020205D5B2020202028617429202091
:101FE60020205D5B2020676D61696C2E636F6D201C
:101FF6005D00003E010000820182014901000000EF
:1020060000000000000001020203030303040404AD
:10201600040404040405050505050505050505056F
:10202600050505050506060606060606060606064F
:10203600060606060606060606060606060606063A
:10204600060606060607070707070707070707071F
:10205600070707070707070707070707070707070A
:1020660007070707070707070707070707070707FA
:1020760007070707070707070707070707070707EA
:1020860007070707070808080808080808080808CF
:1020960008080808080808080808080808080808BA
:1020A60008080808080808080808080808080808AA
:1020B600080808080808080808080808080808089A
:1020C600080808080808080808080808080808088A
:1020D600080808080808080808080808080808087A
:1020E600080808080808080808080808080808086A
:1020F600080808080808080808080808080808085A
:06210600080808080800AB
:00000001FF
