:100000000C940A020C9427020C9464070C942702A7
:100010000C9427020C9428070C9427020C942702B6
:100020000C9427020C9427020C9427020C942702AC
:100030000C9427020C9427020C9427020C9427029C
:100040000C9427020C9427020C9427020C9427028C
:100050000C942702000000000000002F00000007A1
:10006000000700147F147F14242A7F2A12C4C810AA
:10007000264636495522500005030000001C224147
:10008000000041221C0014083E081408083E08081D
:1000900000005030001010101010006060000020B0
:1000A000100804023E5149453E00427F4000426133
:1000B0005149462141454B311814127F10274545BF
:1000C00045393C4A494930017109050336494949D6
:1000D00036064949291E0036360000005636000013
:1000E00008142241001414141414004122140802AC
:1000F000015109063E5965655E7E1111117E7F49E9
:100100004949363E414141227F4141221C7F4949B4
:1001100049417F090909013E4149497A7F08080898
:100120007F00417F41002040413F017F0814224170
:100130007F404040407F020C027F7F0408107F3EDA
:100140004141413E7F090909063E4151215E7F0937
:10015000192946464949493101017F01013F404083
:10016000403F1F2040201F3F4038403F6314081489
:100170006307087008076151494543007F4141000A
:10018000552A552A550041417F00040201020440CE
:1001900040404040000102040020545454787F48FD
:1001A0004444383844444420384444487F38545404
:1001B0005418087E0901020C5252523E7F08040472
:1001C0007800447D40002040443D007F10284400DA
:1001D00000417F40007C041804787C0804047838CF
:1001E000444444387C14141408081414187C7C0803
:1001F0000404084854545420043F4440203C4040E8
:10020000207C1C2040201C3C4030403C44281028CE
:10021000440C5050503C4464544C44FFFF7F7F4595
:100220005D5D5D5D5D5D5D5D5D5D7F7F415F5D5DD4
:100230005D5D5D5D5D5D5D417F7F415F5F5F5F5FD8
:100240005F5F5F5F5F7F7F415F5D5D5D5D5D5D5DAA
:100250005D5D417F7F437D7D7D7D7D7D7D7D7D7F7E
:100260007F515555555555555555457F7FFFFFFFD6
:10027000FFFFFFFFFFFFFFFFFFFFFFFFFFFFFFFF8E
:10028000FFFFFFFFFFFFFFFFFFFFFFFFFFFFFFFF7E
:10029000FFFFFFFFFFFFFFFFFFFFFFFFFFFFFFFF6E
:1002A000FFFFFFFFFFFFFFFFFFFFFFFFFFFFFFFF5E
:1002B000FFFFFFFFFFFFFFFFFFFFFFFFFFFFFFFF4E
:1002C000FFFFFFFFFFFF0C0CFCFCFCFCFCFCFCFC3C
:1002D000FCFCFCFCFCFCFCFCFCFCFCFCFCFFFFFF55
:1002E0000C0CFCFCFCFCF0F0F3F3F3C3CFCFCFCF4E
:1002F000C3F3F3F3F0F0FCFCFCFC0000FFFFFF0095
:10030000009F9F9C9C9C9C9C9C9C9C9C9C9C9C9CC3
:100310009C9C9C8080FFFFFFFFFFE0E0E7E7E7E7B2
:10032000E7E7E7E7E7E7E7E7E7E7E7E7E7E7E7E75D
:10033000E7FFFFFFE0E0FFFFFFFFFFFFFFFFFFFF23
:10034000FFFFFFFFFFFFFFFFFFFFFFFFFFFFE0E0FB
:10035000FFFFFFE0E0FFFFFFFFFFFFFFFFFFFFFFEB
:10036000FFFFFFFFFFFFFFFFFFFFFFFFFFFFFFFF9D
:10037000FFFFFFFFFFFFFFFFFFFFFFFFFFFFFFFF8D
:10038000FFFFFFFFFFFFFFFFFFFFFFFFFFFFFFFF7D
:10039000FFFFFFFFFFFFFFFFFFFFFFFFFFFFFFFF6D
:1003A000FFFFFFFFFFFFFFFFFFFFFFFFFFFFFFFF5D
:1003B000FFFFFFFFFFFFFFFFFFFFFFFFFFFFFFFF4D
:1003C000FFFFC8DBDBC3FFCBFBFBFBFFCBDFDFC3E8
:1003D000FFCBFBFBC3FFCBDBDBDF037FFFC0FFFFFC
:1003E000017E665A5A425A5E627FFFC7BBABABCFF3
:1003F000FFCBFBC3FBC3FFCBDBDBC3DBFFC2FFC019
:10040000FFDFFFCBDBDBFFCBDBDBC3FFCBFBC3FBC8
:10041000C3FFFF0011241FBECFE5D8E0DEBFCDBF74
:1004200013E0A0E6B0E0E6E2F1E302C005900D9231
:10043000A435B107D9F713E0A4E5B3E001C01D92DC
:10044000AB37B107E1F70E94E4080C9491180C94C3
:10045000000086E0809356038091540390E024E0EE
:10046000880F991F2A95E1F780935503E7EBF0E099
:1004700088E224E192E02183808392833396815045
:100480008E31C9F7089508958091B9008150809305
:10049000B900882319F484E08093B900089580910D
:1004A000B9008F5F8093B900853019F481E08093A3
:1004B000B9000895FC019281923009F1933018F44B
:1004C000913021F505C0933051F09430F9F40FC00C
:1004D0008181815081838930F0F486E206C0818178
:1004E0008F5F81838732B8F089E0818308958081AE
:1004F00081508083823078F482E580830895808102
:100500008F5F8083823538F090830895108281E177
:10051000818382E0828308952F923F924F925F926F
:100520006F927F928F929F92AF92BF92CF92DF9203
:10053000EF92FF920F931F93CF93DF930E94C10C12
:1005400080E090E065E070E00E94AA0C8091860057
:100550009091870061E00E948D0B8091550361E0CE
:100560000E94020E2091B600822E86948694869474
:10057000277081E090E0982E01C0990C2A95EAF747
:10058000AA2464E5462E51E0652E712C43E0542EDA
:100590006AC02A2C33246101CC0CDD1C7601E20CEC
:1005A000F31C87EB90E0E80EF91EE701B980B694E2
:1005B000B694B694B49C800111248881080F111D53
:1005C000C80164E570E00E94D717806860E00E946F
:1005D000C00DC80164E570E00E94D717862F8064C3
:1005E00060E00E94C00D89818770362D01C0330FF5
:1005F0008A95EAF780915603E7EBF0E0859DA0012C
:1006000011244E0F5F1FD601B70115C02181EB01E8
:1006100098818081981771F4822F869586958695AA
:10062000B81641F42770C30102C0880F991F2A959C
:10063000E2F7382B3396E417F50741F7A20DB31D07
:10064000A954BF4F9091B5008C91981739F48B1431
:1006500029F4892D8F77382BE0E89E2A832F61E0DB
:100660000E94C00DA39480915603A81608F491CF60
:1006700097FC1FC004E5809E800111248091B50085
:10068000080F111DC80164E570E00E94D71780684B
:1006900060E00E94C00DC80164E570E00E94D717B9
:1006A000862F806460E00E94C00D892D61E00E9469
:1006B000C00DDF91CF911F910F91FF90EF90DF90D0
:1006C000CF90BF90AF909F908F907F906F905F90F2
:1006D0004F903F902F9008950E94C7176FE470E0ED
:1006E0000E94EB178E5F8093B5000E94C7176CE1E4
:1006F00070E00E94EB17865F8093B60008950E9419
:100700006C0386E0809356038091540390E074E07C
:10071000880F991F7A95E1F780935503E7EBF0E096
:1007200088E224E192E02183808392833396815092
:100730008E31C9F780E090E060E070E00E94AA0C82
:1007400080916F009091700061E00E948D0B0E947B
:100750008C020895CF93DF93C7EBD0E0CE010E94C7
:100760005A02239680E0C53DD807C1F789E014C03E
:1007700090E0DC01AA0FBB1FA80FB91FA954BF4FFF
:100780000197FC01EE0FFF1FE80FF91FE954FF4F1F
:10079000828112968C93822F282F215048F79091B6
:1007A000B7008091B500981709F0CAC09091B800C1
:1007B0008091B600981709F0C3C00E946C03809125
:1007C0005603282F2F5F2093560385509091540392
:1007D0009295907F982B909355032A3008F4B0C0DF
:1007E0000E94C10C809154038F5F80935403833027
:1007F000D0F11092540383E090E062E070E00E9438
:10080000AA0C80919C0090919D0060E00E948D0B4D
:1008100083E090E063E070E00E94AA0C8091A70062
:100820009091A80060E00E948D0B80E090E065E070
:1008300070E00E94AA0C8091B1009091B20061E03A
:100840000E948D0B2FB7F89480916B0390916C03ED
:10085000826090936C0380936B032FBF88EC80932E
:10086000B4008EE153C083E090E062E070E00E944B
:10087000AA0C80917A0090917B0060E00E948D0B21
:1008800082E090E063E070E00E94AA0C8091910009
:100890009091920060E00E948D0B8091540360E083
:1008A0000E94020E80E090E065E070E00E94AA0CD9
:1008B000809186009091870061E00E948D0B80916D
:1008C000550361E00E94020E80E261E00E943C0B51
:1008D0006091B40070E0882777FD8095982F0E9482
:1008E000561420E030E040EC5FE30E941A130E94AF
:1008F0004A106093B4008091540390E09C01220F51
:10090000331F280F391F8091B300821B8093B300DF
:100910008399FECF80E49FE10197F1F780E88ABFD9
:100920008091B400809307018091B300809370039D
:10093000809154038295807F809355030E947F03AA
:100940000E948C02DF91CF9108951F939C016AE071
:1009500070E00E94D717462F172F862F972F6AE037
:1009600070E00E94D717E82FF0E084E0EE0FFF1F41
:100970008A95E1F7C9016AE070E00E94D71790E01C
:10098000E82BF92B842F912F6AE070E00E94D71793
:10099000CB016AE070E00E94D717382F20E0E22BED
:1009A000F32BCF011F91089510926A0310926903EF
:1009B000AB9AA39A20E030E040E050E060E0E0E055
:1009C000F4E0369A3699FECF84B195B190936A03DC
:1009D000809369038091690390916A0391FF0BC032
:1009E0008091690390916A03DF01A81BB90BB09352
:1009F0006A03A09369038091690390916A03A0E060
:100A0000B0E0280F391F4A1F5B1F6F5F653FC9F6B3
:100A1000AB98BB27A52F942F832F90936A038093C5
:100A20006903089590E02091690330916A03FC0105
:100A3000EE0FFF1FE35AFC4F31832083880F991F6D
:100A4000FC01E95AFC4F0190F081E02DE21BF30B11
:100A5000DC01AD59BC4F1196FC93EE93F7FF06C035
:100A6000882799278E1B9F0B8D939C930895209127
:100A7000690330916A03E82FF0E0EE0FFF1FE95A97
:100A8000FC4F31832083089580915D0390915E0334
:100A9000909358038093570380915F039091600374
:100AA00090935A038093590380916103909162035C
:100AB00090935C0380935B03109264031092630332
:100AC00010926603109265031092680310926703F8
:100AD0000E94C10C85E090E063E070E00E94AA0CE7
:100AE00083E560E00E943C0B81E660E00E943C0BE5
:100AF00086E760E00E943C0B85E660E00E943C0BCC
:100B000084E660E00E943C0B88E893E120E931E054
:100B1000F9013197F1F70197D9F708954F925F9254
:100B20006F927F929F92AF92BF92CF92DF92EF929D
:100B3000FF920F931F93CF93DF933C019FB7F894DD
:100B40008BB78F778BBF9FBF0E94C10C80E090E076
:100B500061E070E00E94AA0C80910401909105016F
:100B600060E00E948D0B81E090E063E070E00E9405
:100B7000AA0C8BE560E00E943C0BC3EED0E0992408
:100B800070E9472E71E0572E8CEF90E00E94CA0664
:100B90006091060170E080E090E00E94081520E07E
:100BA00030E04AE754E40E9420125B016C0120E02F
:100BB00030E04AE755E40E9420127B018C0120E0DE
:100BC00030E040E85FE30E94261488231CF461E0D3
:100BD00070E022C0C801B70120E03FEF4FE757E4C3
:100BE0000E94C6131816A4F4C601B50120E030E037
:100BF00040E251E40E9420120E944A1005C0C20146
:100C00000197F1F76150704061157105C1F707C098
:100C1000C801B7010E944A10CB010197F1F783E2A6
:100C200060E00E943C0B888199810E94CA06609115
:100C3000060170E080E090E00E94081520E030E0BE
:100C40004AE754E40E9420125B016C0120E030E08E
:100C50004AE755E40E9420127B018C0120E030E03D
:100C600040E85FE30E94261488231CF461E070E0F2
:100C700022C0C801B70120E03FEF4FE757E40E94D0
:100C8000C6131816A4F4C601B50120E030E040E216
:100C900051E40E9420120E944A1005C0C20101972F
:100CA000F1F76150704061157105C1F707C0C801C7
:100CB000B7010E944A10CB010197F1F783E260E08F
:100CC0000E943C0B0E94D40483E260E00E943C0B33
:100CD000892DF30109959394229683E0981609F0E3
:100CE00053CF8CEF90E00E94CA068DE560E00E9431
:100CF0003C0B82E090E065E070E00E94AA0C8091DD
:100D0000F3009091F40060E00E948D0B88E893E17D
:100D100020E931E0F9013197F1F70197D9F79FB751
:100D2000F89480E48ABF8BB780688BBF9FBFDF9148
:100D3000CF911F910F91FF90EF90DF90CF90BF90D8
:100D4000AF909F907F906F905F904F9008951BB8E9
:100D500088E08AB98EE880BD10BC87E689B908951D
:100D60001F93182F8A3019F48DE00E94B0065D9B06
:100D7000FECF1CB91F910895CF93DF93EC0102C001
:100D80000E94B006FE01219684918823C9F7DF9165
:100D9000CF910895AC0120E030E061E070E0DB9895
:100DA000CB01022E02C0880F991F0A94E2F7842318
:100DB0009523892B11F0DA9A01C0DA98DB9A2F5F1C
:100DC0003F4F2031310559F7DC9A0000DC98089537
:100DD0001F93182FCB010E94CA06812F02C000006A
:100DE00081508823E1F7109580E090E00E94CA06C8
:100DF00002C0000011501123E1F780E090E00E9452
:100E0000CA061F910895DC98DB988AB38C618ABB6F
:100E100080E090E00E94CA06089520E030E0482F6C
:100E200050E0DB98CA01022E02C0959587950A947E
:100E3000E2F780FF02C0DA9A01C0DA98DB9A2F5FEE
:100E40003F4F2330310569F7DC9A0000DC980895A4
:100E50001F920F920FB60F9211242F933F934F932F
:100E60005F936F937F938F939F93AF93BF93EF9312
:100E7000FF93809170038150809370038F5F99F48A
:100E8000809107018150809307018F5F31F4809139
:100E9000B400809307010E946C030E94AA03809112
:100EA000B30080937003FF91EF91BF91AF919F9139
:100EB0008F917F916F915F914F913F912F910F9003
:100EC0000FBE0F901F9018951F920F920FB60F92A2
:100ED00011242F933F934F935F936F937F938F933F
:100EE0009F93AF93BF93EF93FF9380E49FE10197AC
:100EF000F1F780E88ABF83B3807F803911F482E004
:100F00000FC0803611F481E00BC0803C11F484E006
:100F100007C0803311F483E003C0803F61F780E0B5
:100F200083999EC0882341F42FB7F89480916B0376
:100F300090916C0382608FC0813091F4E0917903CD
:100F4000F0917A038781908590937A038093790357
:100F50002FB7F89480916B0390916C0388607BC0ED
:100F6000823091F4E0917903F0917A038581968142
:100F700090937A03809379032FB7F89480916B0351
:100F800090916C03846067C020916B0330916C0377
:100F9000833051F58FB7F89430936E0320936D032F
:100FA0008FBF80916D0386FF02C00E944402809132
:100FB000790390917A0321E08334920741F42FB7AB
:100FC000F89480916B0390916C03926044C08B5AAB
:100FD000914009F045C0809106018150809306013F
:100FE000882391F589E02EC08FB7F89430936E0373
:100FF00020936D038FBF80916D0386FF02C00E9416
:101000004F028091790390917A0321E0853C920709
:1010100019F489E291E006C021E08932920739F49F
:1010200085EC91E090937A03809379030DC08B5AFD
:10103000914051F4809106018F5F809306018A30C0
:1010400019F481E0809306012FB7F89480916B0327
:1010500090916C03816090936C0380936B032FBF1E
:10106000FF91EF91BF91AF919F918F917F916F9180
:101070005F914F913F912F910F900FBE0F901F9056
:10108000189583E40E94B00680915703909158030D
:101090000E94A504892F0E94B00680915703909169
:1010A00058030E94A5040E94B006809159039091B4
:1010B0005A030E94A504892F0E94B006809159030B
:1010C00090915A030E94A5040E94B00680915B0390
:1010D00090915C030E94A504892F0E94B006809124
:1010E0005B0390915C030E94A5040E94B0068DE40E
:1010F0000E94B00680915D0390915E030E94A5045A
:10110000892F0E94B00680915D0390915E030E943A
:10111000A5040E94B00680915F03909160030E9435
:10112000A504892F0E94B00680915F03909160030F
:101130000E94A5040E94B006809161039091620311
:101140000E94A504892F0E94B006809161039091AE
:1011500062030E94A5040E94B00684E40E94B006C7
:1011600080916303909164030E94A504892F0E94DB
:10117000B00680916303909164030E94A5040E94CD
:10118000B00680916503909166030E94A504892FA3
:101190000E94B00680916503909166030E94A504A9
:1011A0000E94B00680916703909168030E94A50495
:1011B000892F0E94B00680916703909168030E9476
:1011C000A5040E94B00608950E94A70688E893E14E
:1011D00020E931E0F9013197F1F70197D9F781E082
:1011E0000E94B00618BA17BA15BAA39A939A11BA00
:1011F00085B3806F85BB84B38F7084BB90E898B94A
:1012000088E085BF9BBF12BC13BE1FBC1EBC15BCB3
:1012100019BE86E085BD89E087B987E886B9369A28
:101220003699FECF84B195B190936A038093690398
:101230000E94030780E090E00E94CA0688EE93E0D7
:101240000E94D10F82E00E94B006789483E00E9451
:10125000B0068FB7F89420916B0330916C033093F4
:101260006E0320936D038FBF80916D0380FF1DC0BF
:101270002FB7F89480916B0390916C038E7F9093BD
:101280006C0380936B032FBF2FB7F89480916B038F
:1012900090916C0390936E0380936D032FBF8091A8
:1012A0006D0386FD02C00E94190E8FB7F89420913D
:1012B0006B0330916C0330936E0320936D038FBFEB
:1012C00080916D0381FF1AC02FB7F89480916B0352
:1012D00090916C038D7F90936C0380936B032FBF71
:1012E0000E94DC0F2FB7F89480916B0390916C03F0
:1012F000816090936C0380936B032FBF8FB7F8943A
:1013000020916B0330916C0330936E0320936D0337
:101310008FBF80916D0384FF1EC082E195E00E9423
:101320008E050E9441082FB7F89480916B0390912D
:101330006C038F7E90936C0380936B032FBF2FB74A
:10134000F89480916B0390916C03816090936C038F
:1013500080936B032FBF8FB7F89420916B0330916C
:101360006C0330936E0320936D038FBF80916D03E8
:1013700085FF10C087E395E00E948E052FB7F89493
:1013800080916B0390916C038F7D90936C0380939D
:101390006B032FBF8FB7F89420916B0330916C03D0
:1013A00030936E0320936D038FBF80916D039091F6
:1013B0006E0391FF1CC02FB7F89480916B0390913E
:1013C0006C039D7F90936C0380936B032FBF0E94EF
:1013D00044050E9441082FB7F89480916B039091C7
:1013E0006C03816090936C0380936B032FBF8FB766
:1013F000F89420916B0330916C0330936E0320932B
:101400006D038FBF80916D0382FF26C02FB7F894C4
:1014100080916B0390916C038B7F90936C0380930E
:101420006B032FBF8091790390917A0321E083347D
:10143000920731F08757914019F081E00E94420FE6
:101440002FB7F89480916B0390916C038160909317
:101450006C0380936B032FBF8FB7F89420916B03BD
:1014600030916C0330936E0320936D038FBF809196
:101470006D0383FF26C02FB7F89480916B03909182
:101480006C03877F90936C0380936B032FBF8091D5
:10149000790390917A0321E08334920731F08757E2
:1014A000914019F080E00E94420F2FB7F89480918C
:1014B0006B0390916C03816090936C0380936B033A
:1014C0002FBF8FB7F89420916B0330916C0330934A
:1014D0006E0320936D038FBF80916D0387FF1EC045
:1014E0002FB7F89480916B0390916C038F77909352
:1014F0006C0380936B032FBF0E947F0314BC89B7DA
:10150000806489BF2FB7F89480916B0390916C032E
:10151000806490936C0380936B032FBF8FB7F89414
:1015200020916B0330916C0330936E0320936D0315
:101530008FBF80916D0390916E0390FF8ACE2FB77D
:10154000F89480916B0390916C039E7F90936C0351
:1015500080936B032FBF89B78F7B89BF0E944302A3
:101560002FB7F89480916B0390916C038F7B9093CD
:101570006C0380936B032FBF6CCE982F8A3010F4CE
:10158000805D08958A50863010F08FE30895892F8A
:10159000895C0895282F982F92959F709A3018F49F
:1015A000892F805D08C0892F8A50863010F08FE324
:1015B00002C0892F895C80937103922F9F709A30AB
:1015C00018F4892F805D08C0892F8A50863010F06A
:1015D0008FE302C0892F895C8093720308959C0178
:1015E000932F92959F709A3018F4892F805D08C0D0
:1015F000892F8A50863010F08FE302C0892F895CD2
:1016000080937103C90180709F709A3018F4892FFC
:10161000805D08C0892F8A50863010F08FE302C0A9
:10162000892F895C80937203C901807F907034E0B8
:10163000969587953A95E1F7982F8A3010F4805D5A
:1016400007C08A50863010F08FE302C0892F895C72
:1016500080937303922F9F709A3018F4892F805DC6
:1016600008C0892F8A50863010F08FE302C0892F7E
:10167000895C809374030895CF93DF93282F362FCE
:10168000803208F42CE5C0917503D0917603CE0129
:1016900064E570E00E94D7178068C398C4988FB93A
:1016A000779BFECFC39ACE0164E570E00E94D71706
:1016B0006064C398C4986FB9779BFECFC39A85E0E6
:1016C000289FC0011124FC01EC54F0408754904045
:1016D0002491220F31112095C398C49A2FB9779B7A
:1016E000FECFC39A3196E817F90791F7332339F003
:1016F000C398C49A8FEF8FB9779BFECF05C0C3986C
:10170000C49A1FB8779BFECFC39A2696D0937603D0
:10171000C0937503DF91CF9108950F931F93CF93DB
:10172000DF93082F162F282F392FE90104C02196A7
:10173000612F0E943C0B9E01201B922F88818823E1
:10174000B1F71123B9F02223A9F02E3098F42EE03E
:1017500030E0291B3109C901880F991F820F931F9F
:10176000880F9FEFC398C49A9FB9779BFECFC39A07
:101770008150C1F7DF91CF911F910F9108952F9262
:101780003F924F925F926F927F928F929F92AF9211
:10179000BF92CF92DF92EF92FF920F931F93CF935E
:1017A000DF935C016B01742E602EE0917503F09164
:1017B0007603CF0164E570E00E94D7178068C39874
:1017C000C4988FB9779BFECFC39ACF0164E570E0D0
:1017D0000E94D7176064C398C4986FB9779BFECFF7
:1017E000C39A4090B4015090B5018090060180E307
:1017F000880E40E065E0362EE22EFF2408E010E07F
:101800000E191F0922242A944F5FF5019080992018
:1018100019F00894A11CB11CC201840F911DA816D7
:10182000B90619F44A3009F4982CF60120812223D4
:1018300019F00894C11CD11CC816D90619F44A30F5
:1018400009F4282D239DC0011124EC01CC54D04073
:10185000939CD0011124AC54B040875490409920FF
:1018600011F450E003C0FD015491550F222311F4EF
:1018700030E003C0FE013491330FE32FF0E0652F19
:1018800070E0662069F0002E02C0EE0FFF1F0A9480
:10189000E2F70E2C02C0759567950A94E2F70CC02A
:1018A000002E02C0F595E7950A94E2F70E2C02C0CF
:1018B000660F771F0A94E2F73E2F362B7110309592
:1018C000C398C49A3FB9779BFECFC39A21961196CD
:1018D000C817D90709F0C3CF772031F0C398C49A4D
:1018E0002FB8779BFECF05C0C398C49A1FB8779BCB
:1018F000FECFC39A992009F087CF222309F084CF25
:101900007720A9F04E3098F42EE030E0241B310906
:10191000C901880F991F820F931F880F9FEFC398EB
:10192000C49A9FB9779BFECFC39A8150C1F7DF91CC
:10193000CF911F910F91FF90EF90DF90CF90BF90CC
:10194000AF909F908F907F906F905F904F903F905F
:101950002F90089524E530E0629FA001639F500D11
:10196000729F500D11249C01220F331F280F391F25
:10197000220F331F420F531F50937603409375037A
:101980000895C398C49880E88FB9779BFECFC39A17
:10199000C398C49881E48FB9779BFECFC39A80E047
:1019A00090E0C398C49A1FB8779BFECFC39A019664
:1019B00021E0843A9207A9F70895C398C49880E873
:1019C0008FB9779BFECFC39AC398C49880E48FB930
:1019D000779BFECFC39AEBE1F2E08491C398C49A5F
:1019E0008FB9779BFECFC39A319682E0EF36F80726
:1019F000A1F7EFE6F2E08491C398C49A8FB9779B80
:101A0000FECFC39A319684E0E331F807A1F7EFEBFC
:101A1000F3E08491C398C49A8FB9779BFECFC39AA1
:101A2000319684E0E331F807A1F70895AF92BF92B1
:101A3000CF92DF92EF92FF920F931F938C01C29A85
:101A400087B38C6B87BB84EF91E020E931E0F9012B
:101A50003197F1F70197D9F7C29880EA9FE0019793
:101A6000F1F7C29A80E58DB9C39AC398C49881E210
:101A70008FB9779BFECFC39AC398C49888EC8FB96F
:101A8000779BFECFC39AC398C49886E08FB9779BA3
:101A9000FECFC39AC398C49883E18FB9779BFECFDA
:101AA000C39AC398C49880E28FB9779BFECFC39A3C
:101AB000C398C4988CE08FB9779BFECFC39A0E94DD
:101AC000DD0CC398C49881E28FB9779BFECFC39A8F
:101AD000C398C4988EE98FB9779BFECFC39AC398F9
:101AE000C49880E28FB9779BFECFC39AB80180E09B
:101AF00090E00E9408155B016C0120E030E04AE7AD
:101B000055E40E9420127B018C0120E030E040E887
:101B10005FE30E94261488231CF461E070E024C077
:101B2000C801B70120E03FEF4FE757E40E94C6131A
:101B30001816B4F4C601B50120E030E040E251E4EB
:101B40000E9420120E944A1080E991E005C0FC0129
:101B50003197F1F76150704061157105C1F707C009
:101B6000C801B7010E944A10CB010197F1F71F91FC
:101B70000F91FF90EF90DF90CF90BF90AF900895BE
:101B8000C398613011F4C49A01C0C4988FB9779B8F
:101B9000FECFC39A08951F93162F0E94EF0A8091DB
:101BA0007103612F0E943C0B80917203612F0E9490
:101BB0003C0B80917303612F0E943C0B8091740356
:101BC000612F0E943C0B80E2612F0E943C0B1F9111
:101BD00008951F93162F0E94EF0A80917203612FC0
:101BE0000E943C0B80917303612F0E943C0B8091FB
:101BF0007403612F0E943C0B80E2612F0E943C0B1A
:101C00001F9108951F93162F0E94CA0A8091710395
:101C1000612F0E943C0B80917203612F0E943C0B4C
:101C20001F91089589E291E090937A03809379035C
:101C30000895EF92FF920F931F93CF93DF930E942B
:101C4000C10C2FB7F8948091790390917A03909307
:101C50007803809377032FBFE0917703F0917803A7
:101C6000C581D681FF24F39404C0F3940D80DE81F6
:101C7000C02DCE17DF07C9F724E02F1518F484E034
:101C8000F82E03C082E08F1510F4C781D08580E064
:101C900090E060E070E00E94AA0C809118019091A1
:101CA000190161E00E948D0BEE2401E010E03AC0C2
:101CB00080E090E0B8010E94AA0C21E0C334D20772
:101CC00029F480E090E0B8010E94AA0C29853A85A9
:101CD00060E080917703909178038C179D0709F459
:101CE00061E0C9010E948D0B81E0CB3AD807A1F4D5
:101CF00089E090E0B8010E94AA0C20910601205DC5
:101D000060E080917703909178038C179D0709F428
:101D100061E0822F0E943C0B0D80DE81C02DE39498
:101D20000F5F1F4FEF1420F280917703909178039B
:101D30008354914009F09FC083E090E062E070E03E
:101D40000E94AA0C82E560E00E943C0B87E090E0D4
:101D500062E070E00E94AA0C87E460E00E943C0B05
:101D60008BE090E062E070E00E94AA0C82E460E008
:101D70000E943C0B80E090E063E070E00E94AA0CBF
:101D800083E460E00E943C0B82E090E063E070E05E
:101D90000E94AA0C80915703909158030E94A504B9
:101DA00060E00E94E90D8091590390915A030E94CE
:101DB000A50460E00E94E90D80915B0390915C03B3
:101DC0000E94A50460E00E94E90D80E090E064E0DC
:101DD00070E00E94AA0C8DE460E00E943C0B82E05F
:101DE00090E064E070E00E94AA0C80915D03909105
:101DF0005E030E94A50460E00E94E90D80915F03EC
:101E0000909160030E94A50460E00E94E90D80911A
:101E10006103909162030E94A50460E00E94E90DB5
:101E200080E090E065E070E00E94AA0C84E460E04D
:101E30000E943C0B82E090E065E070E00E94AA0CFA
:101E400080916303909164030E94A50460E00E9466
:101E5000E90D80916503909166030E94A50460E0FE
:101E60000E94E90D80916703909168030E94A50488
:101E700060E00E94E90DDF91CF911F910F91FF90DB
:101E8000EF9008959F92AF92BF92CF92DF92EF9220
:101E9000FF920F931F93CF93DF93982E8FB7F894F1
:101EA0002091790330917A0330937803209377035C
:101EB0008FBFE0917703F0917803A581B6812185EA
:101EC000328511E005C01F5F15960D90BC91A02DC5
:101ED00019968D919C911A9782179307A1F7153047
:101EE00008F014E00E94C10CE0917703F0917803B0
:101EF000133038F4EF01CC2420E9A22E21E0B22ED9
:101F00003FC0C781D085F7CF80E090E0B7010E9445
:101F1000AA0C992019F0EF81F88502C0ED81FE81AD
:101F20002185328569857A8540E08091770390919B
:101F300078038C179D0709F441E0C9012C2D092D68
:101F40000E94BF0B0D80DE81C02DD3940894E11C4C
:101F5000F11CD116C8F2E0917703F09178031330A9
:101F600010F4EF0102C0C781D08584EF91E0F50144
:101F70003197F1F70197D9F7C39488E0C81629F093
:101F8000DD2491E0E92EF12CE4CFDF91CF911F9178
:101F90000F91FF90EF90DF90CF90BF90AF909F9008
:101FA000089529E231E030937A03209379030E9467
:101FB000160D0E94190E08958FB7F8942091790399
:101FC00030917A0330937803209377038FBFE091A9
:101FD0007703F0917803E081E33039F1E43028F4BD
:101FE000E13061F0E23030F512C0E630C1F1E730A7
:101FF00009F442C0E43009F04CC024C08FB7F89413
:10200000E0917903F0917A032381348108C08FB77E
:10201000F894E0917903F0917A0321813281309331
:102020007A03209379038FBF19C080E090E00E946B
:10203000CA06EDCF2FB7F89480916B0390916C0393
:10204000806114C02FB7F89480916B0390916C035A
:10205000806290936C0380936B032FBF08952FB71A
:10206000F89480916B0390916C03806890936C035B
:1020700080936B032FBFC2CF2FB7F89480916B036F
:1020800090916C03916090936C0380936B032FBFCE
:10209000BECF0895EF92FF920F931F937B018C01A7
:1020A00020E030E040E05FE40E94F61388238CF0EB
:1020B000C801B70120E030E040E05FE40E94C211B7
:1020C0000E94B4149B01AC01205030404040504865
:1020D00006C0C801B7010E94B4149B01AC01B9014C
:1020E000CA011F910F91FF90EF900895A0E0B0E01A
:1020F000ECE7F0E10C94FE17DC012B01FA019C9156
:10210000923008F439C1EB018881823008F433C180
:10211000943069F4843009F02FC111969C91119785
:102120008981981709F428C1A8E4B2E025C1843058
:1021300009F421C18230A9F4923009F01DC19A013D
:10214000AD0188E0EA010990AE01E90109929E0122
:102150008150C1F7E201898111969C918923818385
:1021600008C1923009F407C112962D903C90139744
:10217000EB018A819B811496AD90BD90CD90DC904F
:102180001797EC80FD800E811F819101281B390B70
:10219000B90137FF04C066277727621B730B6032D3
:1021A00071050CF061C0121613066CF53701480179
:1021B000062E04C096948794779467940A94D2F775
:1021C00021E030E040E050E004C0220F331F441F04
:1021D000551F6A95D2F721503040404050402E2183
:1021E0003F2140235123211531054105510521F09F
:1021F00021E030E040E050E079018A01E628F7284C
:10220000082919293CC0232BD1F1260E371E350190
:102210004601062E04C096948794779467940A9496
:10222000D2F721E030E040E050E004C0220F331F3D
:10223000441F551F6A95D2F721503040404050400E
:102240002A213B214C215D212115310541055105F4
:1022500021F021E030E040E050E059016A01A62879
:10226000B728C828D9280BC0821593052CF01C016B
:10227000AA24BB24650103C0EE24FF248701119624
:102280009C91D20111968C91981709F445C099231D
:1022900039F0A80197012A193B094C095D0906C0CC
:1022A000A60195012E193F09400B510B57FD08C09F
:1022B00011823382228224833583468357831DC053
:1022C00081E081833382228288279927DC01821B67
:1022D000930BA40BB50B84839583A683B7830DC0A2
:1022E000220F331F441F551F248335834683578392
:1022F00082819381019793838283248135814681F2
:102300005781DA01C9010197A109B1098F5F9F4F78
:10231000AF4FBF4328F30BC0918333822282EA0C74
:10232000FB1C0C1D1D1DE482F5820683178383E0D0
:102330008083248135814681578157FF1AC0C901A6
:10234000AA2797FDA095BA2F81709070A070B070E9
:102350005695479537952795822B932BA42BB52B14
:1023600084839583A683B783828193810196938327
:102370008283DF0101C0D201CD01CDB7DEB7E2E13A
:102380000C941A18A0E2B0E0E8ECF1E10C940A1801
:1023900069837A838B839C832D833E834F83588705
:1023A000E9E0EE2EF12CEC0EFD1ECE010196B701F8
:1023B0000E94A5168E010F5E1F4FCE010596B80133
:1023C0000E94A5168A8991E089278A8BC701B801E6
:1023D000AE01475E5F4F0E9476100E94D015A09616
:1023E000E6E00C942618A0E2B0E0E9EFF1E10C94ED
:1023F0000A1869837A838B839C832D833E834F8362
:102400005887F9E0EF2EF12CEC0EFD1ECE0101965F
:10241000B7010E94A5168E010F5E1F4FCE010596D3
:10242000B8010E94A516C701B801AE01475E5F4F13
:102430000E9476100E94D015A096E6E00C94261813
:10244000A0E2B0E0E6E2F2E10C94FE1769837A8341
:102450008B839C832D833E834F835887CE010196C7
:10246000BE01675F7F4F0E94A516CE010596BE0193
:102470006F5E7F4F0E94A5169985923088F08989FA
:102480008230C8F0943019F4823051F404C08430A2
:1024900029F4923081F488E492E0C6C0923049F485
:1024A00020E09A858A89981321E02A87CE0109962F
:1024B000BBC0823049F420E09A858A89981321E0D4
:1024C0002A8BCE014196B0C02D843E844F8458881B
:1024D0006D887E888F88988CEE24FF248701AA243B
:1024E000BB24650140E050E060E070E0E0E0F0E037
:1024F000C10181709070892BE9F0E60CF71C081D72
:10250000191D9A01AB012A0D3B1D4C1D5D1D80E07C
:1025100090E0A0E0B0E0E614F7040805190520F407
:1025200081E090E0A0E0B0E0BA01A901480F591F96
:102530006A1F7B1FAA0CBB1CCC1CDD1C97FE08C0AD
:1025400081E090E0A0E0B0E0A82AB92ACA2ADB2AFC
:102550003196E032F10549F0660C771C881C991C15
:102560005694479437942794C3CFFA85EA892B89E8
:102570003C898B859C85280F391F2E5F3F4F17C0E4
:10258000CA0181709070892B61F016950795F794B8
:10259000E79480E090E0A0E0B0E8E82AF92A0A2B6E
:1025A0001B2B76956795579547952F5F3F4F77FD86
:1025B000E7CF0CC0440F551F661F771F17FD416002
:1025C000EE0CFF1C001F111F21503040403090E0E6
:1025D000590790E0690790E4790760F32B8F3C8FEF
:1025E000DB01CA018F779070A070B07080349105C4
:1025F000A105B10561F447FD0AC0E114F10401052C
:10260000110529F0405C5F4F6F4F7F4F40781A8E65
:10261000FE1711F081E08A8F4D8F5E8F6F8F78A348
:1026200083E0898FCE0149960E94D015A096E2E101
:102630000C941A18A8E1B0E0E0E2F3E10C9406185B
:1026400069837A838B839C832D833E834F83588752
:10265000B9E0EB2EF12CEC0EFD1ECE010196B70178
:102660000E94A5168E010F5E1F4FCE010596B80180
:102670000E94A5162985223008F47EC0398932309F
:1026800010F4B8017CC08A859A8989278A8724300A
:1026900011F0223031F4231709F06EC068E472E0C3
:1026A0006EC0343039F41D861E861F86188A1C863B
:1026B0001B8604C0323021F484E08987B7015FC0F3
:1026C0002B853C858B899C89281B390B3C872B8764
:1026D000ED84FE840F851889AD88BE88CF88D88C9C
:1026E000EA14FB040C051D0540F4EE0CFF1C001F52
:1026F000111F215030403C872B8720E030E040E024
:1027000050E080E090E0A0E0B0E460E070E0EA1427
:10271000FB040C051D0540F0282B392B4A2B5B2BA5
:10272000EA18FB080C091D09B695A795979587959A
:10273000EE0CFF1C001F111F6F5F7F4F6F31710583
:1027400031F7DA01C9018F779070A070B0708034D2
:102750009105A105B10561F427FD0AC0E114F1045A
:102760000105110529F0205C3F4F4F4F5F4F207846
:102770002D873E874F87588BBE01675F7F4FCB0108
:102780000E94D0156896EAE00C942218A8E1B0E007
:10279000ECECF3E10C940A1869837A838B839C83B5
:1027A0002D833E834F83588789E0E82EF12CEC0E71
:1027B000FD1ECE010196B7010E94A5168E010F5E87
:1027C0001F4FCE010596B8010E94A516898582305B
:1027D00040F08989823028F0C701B8010E941D1796
:1027E00001C08FEF6896E6E00C942618A8E1B0E0EF
:1027F000ECEFF3E10C940A1869837A838B839C8352
:102800002D833E834F83588789E0E82EF12CEC0E10
:10281000FD1ECE010196B7010E94A5168E010F5E26
:102820001F4FCE010596B8010E94A51689858230FA
:1028300040F08989823028F0C701B8010E941D1735
:1028400001C08FEF6896E6E00C942618A8E1B0E08E
:10285000ECE2F4E10C940A1869837A838B839C83FD
:102860002D833E834F83588789E0E82EF12CEC0EB0
:10287000FD1ECE010196B7010E94A5168E010F5EC6
:102880001F4FCE010596B8010E94A516898582309A
:1028900040F08989823028F0C701B8010E941D17D5
:1028A00001C081E06896E6E00C942618A8E0B0E04C
:1028B000ECE5F4E10C9407189B01AC0183E08983FB
:1028C000DA01C9018827B7FD83959927AA27BB2775
:1028D000B82E211531054105510519F482E089838F
:1028E0003AC08823A9F0203080E0380780E048070C
:1028F00080E8580729F460E070E080E09FEC30C089
:10290000EE24FF248701E21AF30A040B150B02C020
:1029100079018A018EE1C82ED12CDC82CB82ED8236
:10292000FE820F831887C801B7010E9481150197A5
:102930001816190684F4082E04C0EE0CFF1C001FA4
:10294000111F0A94D2F7ED82FE820F831887C81AEE
:10295000D90ADC82CB82BA82CE0101960E94D015C0
:102960002896E9E00C942318ACE0B0E0EAEBF4E13F
:102970000C940E1869837A838B839C83CE01019615
:10298000BE016B5F7F4F0E94A5168D81823061F181
:10299000823050F1843021F48E81882351F12EC091
:1029A0002F81388537FD20C06E812F3131051CF015
:1029B0006623F9F023C08EE190E0821B930B2985FA
:1029C0003A854B855C8504C0569547953795279584
:1029D0008A95D2F76623B1F05095409530952195B0
:1029E0003F4F4F4F5F4F0EC020E030E040E050E0DF
:1029F00009C02FEF3FEF4FEF5FE704C020E030E06A
:102A000040E050E8B901CA012C96E2E00C942A1883
:102A1000A8E0B0E0EEE0F5E10C9406187B018C0133
:102A2000611571058105910519F482E0898360C003
:102A300083E089838EE1C82ED12CDC82CB82ED82AB
:102A4000FE820F831887C801B7010E948115FC011F
:102A50003197F7FF3BC0222733272E1B3F0B57012F
:102A60006801022E04C0D694C794B794A7940A9420
:102A7000D2F740E050E060E070E081E090E0A0E05C
:102A8000B0E004C0880F991FAA1FBB1F2A95D2F778
:102A90000197A109B1098E219F21A023B12300979D
:102AA000A105B10521F041E050E060E070E04A2965
:102AB0005B296C297D294D835E836F8378878EE146
:102AC00090E08E1B9F0B9C838B8312C0309781F00C
:102AD0000E2E04C0EE0CFF1C001F111F0A94D2F72B
:102AE000ED82FE820F831887CE1ADF0ADC82CB824A
:102AF0001A82CE0101960E94D0152896EAE00C9425
:102B00002218EF92FF920F931F937B018C0180E0BC
:102B1000E81680E0F80681E0080780E0180788F4EE
:102B20008FEFE816F1040105110531F028F088E077
:102B300090E0A0E0B0E017C080E090E0A0E0B0E05E
:102B400012C080E0E81680E0F80680E0080781E027
:102B5000180728F088E190E0A0E0B0E004C080E130
:102B600090E0A0E0B0E020E230E040E050E0281B40
:102B7000390B4A0B5B0B04C016950795F794E79445
:102B80008A95D2F7F701E05BFD4F8081281B310960
:102B900041095109C9011F910F91FF90EF900895CC
:102BA000DF92EF92FF920F931F93FC01E480F58078
:102BB00006811781D1808081823048F480E090E0E6
:102BC000A0E1B0E0E82AF92A0A2B1B2BA5C084302B
:102BD00009F49FC0823021F4EE24FF24870105C050
:102BE000E114F1040105110519F4E0E0F0E096C0EC
:102BF000628173819FEF623879070CF05BC022E835
:102C00003FEF261B370B2A3131052CF020E030E056
:102C100040E050E02AC0B801A701022E04C076951A
:102C20006795579547950A94D2F781E090E0A0E028
:102C3000B0E004C0880F991FAA1FBB1F2A95D2F7C6
:102C40000197A109B1098E219F21A023B1230097EB
:102C5000A105B10521F081E090E0A0E0B0E09A018B
:102C6000AB01282B392B4A2B5B2BDA01C9018F775B
:102C70009070A070B07080349105A105B10539F451
:102C800027FF09C0205C3F4F4F4F5F4F04C0215CBE
:102C90003F4F4F4F5F4FE0E0F0E02030A0E03A07B9
:102CA000A0E04A07A0E45A0710F0E1E0F0E0790163
:102CB0008A0127C06038710564F5FB01E158FF4FB8
:102CC000D801C7018F779070A070B07080349105E3
:102CD000A105B10539F4E7FE0DC080E490E0A0E065
:102CE000B0E004C08FE390E0A0E0B0E0E80EF91E91
:102CF0000A1F1B1F17FF05C016950795F794E79449
:102D0000319687E016950795F794E7948A95D1F761
:102D100005C0EE24FF248701EFEFF0E06E2F6795EA
:102D200066276795902F9F77D794DD24D7948E2FB1
:102D30008695492F462B582F5D29B701CA011F914F
:102D40000F91FF90EF90DF900895FC01DB0140812F
:102D500051812281622F6F7770E0221F2227221F6C
:102D60009381892F880F822B282F30E0991F992774
:102D7000991F11969C93119721153105A9F54115BD
:102D800051056105710511F482E037C082E89FEFBB
:102D900013969C938E9312979A01AB0167E0220FD2
:102DA000331F441F551F6A95D1F783E08C930DC0E4
:102DB000220F331F441F551F12968D919C9113971C
:102DC000019713969C938E931297203080E03807DA
:102DD00080E0480780E4580758F314962D933D93FC
:102DE0004D935C93179708952F3F310579F4411562
:102DF00051056105710519F484E08C93089564FF11
:102E000003C081E08C9312C01C9210C02F57304039
:102E100013963C932E93129783E08C9387E0440F94
:102E2000551F661F771F8A95D1F7706414964D93CE
:102E30005D936D937C93179708951F93DC01FB01BD
:102E40009C91923008F447C08081823008F443C0DE
:102E5000943051F411961C91843099F58181682F3A
:102E600070E0611B71093FC0843021F0923031F471
:102E70008230B9F18181882389F12DC011961C918E
:102E800011978230F1F081811817D9F412962D91A3
:102E90003C911397828193818217930794F02817AE
:102EA0003907BCF014968D919D910D90BC91A02D89
:102EB0002481358146815781281739074A075B07E6
:102EC00018F4112341F00AC082179307A407B5072D
:102ED00040F4112319F061E070E005C06FEF7FEF5F
:102EE00002C060E070E0CB011F910895A0E0B0E067
:102EF000ECE7F7E10C940618EC01A880B980CA80D1
:102F0000DB80A114B104C104D10441F484E2A82EF1
:102F100089EDB82E8BE5C82E87E0D82EC601B50105
:102F20002DE133EF41E050E00E94541827EA31E4EC
:102F300040E050E00E9435187B018C01C601B501CC
:102F40002DE133EF41E050E00E945418CA01B9016D
:102F50002CEE34EF4FEF5FEF0E9435186E0D7F1DA2
:102F6000801F911F97FF04C06150704080409048BF
:102F7000688379838A839B839B013F77C901CDB79F
:102F8000DEB7EAE00C9422180E947617089580E5D7
:102F900093E00E9476170895A0E0B0E0809350037C
:102FA00090935103A0935203B09353030895AA1B27
:102FB000BB1B51E107C0AA1FBB1FA617B70710F024
:102FC000A61BB70B881F991F5A95A9F78095909556
:102FD000BC01CD01089597FB092E07260AD077FD85
:102FE00004D0E5DF06D000201AF4709561957F4F7C
:102FF0000895F6F7909581959F4F08952F923F92EF
:103000004F925F926F927F928F929F92AF92BF92F8
:10301000CF92DF92EF92FF920F931F93CF93DF93A4
:10302000CDB7DEB7CA1BDB0B0FB6F894DEBF0FBE01
:10303000CDBF09942A88398848885F846E847D844E
:103040008C849B84AA84B984C884DF80EE80FD8050
:103050000C811B81AA81B981CE0FD11D0FB6F894C6
:10306000DEBF0FBECDBFED010895629FD001739FFB
:10307000F001829FE00DF11D649FE00DF11D929F14
:10308000F00D839FF00D749FF00D659FF00D992753
:10309000729FB00DE11DF91F639FB00DE11DF91F77
:1030A000BD01CF011124089597FB092E05260ED0EE
:1030B00057FD04D014D00AD0001C38F45095409528
:1030C000309521953F4F4F4F5F4F0895F6F79095FC
:1030D0008095709561957F4F8F4F9F4F0895A1E226
:1030E0001A2EAA1BBB1BFD010DC0AA1FBB1FEE1F82
:1030F000FF1FA217B307E407F50720F0A21BB30BCD
:10310000E40BF50B661F771F881F991F1A9469F748
:1031100060957095809590959B01AC01BD01CF01A4
:063120000895F894FFCFB2
:103126002D2D536E616B652067616D652D2D0060D9
:1031360000596F752077696E2100710053636F72B5
:10314600653A203078007C004C6576656C3A202321
:10315600008800476F742066756E3F009300476FC6
:1031660020776F726B21009E00206272756E716C03
:1031760000A9001EC846140108030108030108033C
:1031860001080301080301080301080301080301FC
:1031960008030108030000803F0000803F00008014
:1031A6003FFF03900048002400436F6D706C657408
:1031B600652100E900506C6561736520776169746B
:1031C6002E2E2E00F50002C8802D2D436F6C6F72D7
:1031D6007320434D502D2D0009012F2F205374616C
:1031E6007274202020202F2F0002000043015D0171
:1031F600F9011A012F2F20526573756C74733A20EA
:103206002F2F0003290100004301430134012F2F12
:1032160020536E616B65202020202F2F00060000B2
:103226007701910129014E012F2F2047616D6520FD
:103236004F4E3A202F2F00075D01000077017701DE
:1032460068012F2F205365747570202020202F2FA2
:1032560000010000C501F9015D0182012F2F204404
:10326600656C6179202073202F2F000591010000E5
:10327600C501DF019C012F2F2043616C69627261D9
:1032860074652F2F000491010000DF01AB01B60128
:103296002F2F204261636B20202020202F2F00003B
:1032A60091010000AB01C501D0012F2F20526561AD
:1032B600646D652020202F2F000100003D022901AA
:1032C6009101EA015B2050726F6772616D6D6572E4
:1032D6003A5D5B2020206272756E716C2020205D45
:1032E6005B2020202028617429202020205D5B207F
:1032F60020676D61696C2E636F6D205D0000F901BA
:1033060000003D023D020402000000000000000033
:103316000001020203030303040404040404040476
:103326000505050505050505050505050505050547
:103336000606060606060606060606060606060627
:103346000606060606060606060606060606060617
:1033560007070707070707070707070707070707F7
:1033660007070707070707070707070707070707E7
:1033760007070707070707070707070707070707D7
:1033860007070707070707070707070707070707C7
:1033960008080808080808080808080808080808A7
:1033A6000808080808080808080808080808080897
:1033B6000808080808080808080808080808080887
:1033C6000808080808080808080808080808080877
:1033D6000808080808080808080808080808080867
:1033E6000808080808080808080808080808080857
:1033F6000808080808080808080808080808080847
:103406000808080808080808080808080808080836
:0434160001000000B1
:00000001FF
