:100000000C940A020C9427020C9471080C94270299
:100010000C9427020C9436080C9427020C942702A7
:100020000C9427020C9427020C9427020C942702AC
:100030000C9427020C9427020C9427020C9427029C
:100040000C9427020C9427020C9427020C9427028C
:100050000C942702000000000000002F00000007A1
:10006000000700147F147F14242A7F2A12C4C810AA
:10007000264636495522500005030000001C224147
:10008000000041221C0014083E081408083E08081D
:1000900000005030001010101010006060000020B0
:1000A000100804023E5149453E00427F4000426133
:1000B0005149462141454B311814127F10274545BF
:1000C00045393C4A494930017109050336494949D6
:1000D00036064949291E0036360000005636000013
:1000E00008142241001414141414004122140802AC
:1000F000015109063E5965655E7E1111117E7F49E9
:100100004949363E414141227F4141221C7F4949B4
:1001100049417F090909013E4149497A7F08080898
:100120007F00417F41002040413F017F0814224170
:100130007F404040407F020C027F7F0408107F3EDA
:100140004141413E7F090909063E4151215E7F0937
:10015000192946464949493101017F01013F404083
:10016000403F1F2040201F3F4038403F6314081489
:100170006307087008076151494543007F4141000A
:10018000552A552A550041417F00040201020440CE
:1001900040404040000102040020545454787F48FD
:1001A0004444383844444420384444487F38545404
:1001B0005418087E0901020C5252523E7F08040472
:1001C0007800447D40002040443D007F10284400DA
:1001D00000417F40007C041804787C0804047838CF
:1001E000444444387C14141408081414187C7C0803
:1001F0000404084854545420043F4440203C4040E8
:10020000207C1C2040201C3C4030403C44281028CE
:10021000440C5050503C4464544C44FFFF7F7F4595
:100220005D5D5D5D5D5D5D5D5D5D7F7F415F5D5DD4
:100230005D5D5D5D5D5D5D417F7F415F5F5F5F5FD8
:100240005F5F5F5F5F7F7F415F5D5D5D5D5D5D5DAA
:100250005D5D417F7F437D7D7D7D7D7D7D7D7D7F7E
:100260007F515555555555555555457F7FFFFFFFD6
:10027000FFFFFFFFFFFFFFFFFFFFFFFFFFFFFFFF8E
:10028000FFFFFFFFFFFFFFFFFFFFFFFFFFFFFFFF7E
:10029000FFFFFFFFFFFFFFFFFFFFFFFFFFFFFFFF6E
:1002A000FFFFFFFFFFFFFFFFFFFFFFFFFFFFFFFF5E
:1002B000FFFFFFFFFFFFFFFFFFFFFFFFFFFFFFFF4E
:1002C000FFFFFFFFFFFF0C0CFCFCFCFCFCFCFCFC3C
:1002D000FCFCFCFCFCFCFCFCFCFCFCFCFCFFFFFF55
:1002E0000C0CFCFCFCFCF0F0F3F3F3C3CFCFCFCF4E
:1002F000C3F3F3F3F0F0FCFCFCFC0000FFFFFF0095
:10030000009F9F9C9C9C9C9C9C9C9C9C9C9C9C9CC3
:100310009C9C9C8080FFFFFFFFFFE0E0E7E7E7E7B2
:10032000E7E7E7E7E7E7E7E7E7E7E7E7E7E7E7E75D
:10033000E7FFFFFFE0E0FFFFFFFFFFFFFFFFFFFF23
:10034000FFFFFFFFFFFFFFFFFFFFFFFFFFFFE0E0FB
:10035000FFFFFFE0E0FFFFFFFFFFFFFFFFFFFFFFEB
:10036000FFFFFFFFFFFFFFFFFFFFFFFFFFFFFFFF9D
:10037000FFFFFFFFFFFFFFFFFFFFFFFFFFFFFFFF8D
:10038000FFFFFFFFFFFFFFFFFFFFFFFFFFFFFFFF7D
:10039000FFFFFFFFFFFFFFFFFFFFFFFFFFFFFFFF6D
:1003A000FFFFFFFFFFFFFFFFFFFFFFFFFFFFFFFF5D
:1003B000FFFFFFFFFFFFFFFFFFFFFFFFFFFFFFFF4D
:1003C000FFFFC8DBDBC3FFCBFBFBFBFFCBDFDFC3E8
:1003D000FFCBFBFBC3FFCBDBDBDF037FFFC0FFFFFC
:1003E000017E665A5A425A5E627FFFC7BBABABCFF3
:1003F000FFCBFBC3FBC3FFCBDBDBC3DBFFC2FFC019
:10040000FFDFFFCBDBDBFFCBDBDBC3FFCBFBC3FBC8
:10041000C3FFFF0011241FBECFE5D8E0DEBFCDBF74
:1004200013E0A0E6B0E0ECE4FBE202C005900D9220
:10043000A634B107D9F713E0A6E4B3E001C01D92DA
:10044000A537B107E1F70E9492060C94A4150C940D
:10045000000086E0809348038091460390E024E00A
:10046000880F991F2A95E1F780934703E5EAF0E0AA
:1004700088E224E192E02183808392833396815045
:100480008E31C9F7089508958091A7008150809317
:10049000A700882319F484E08093A7000895809131
:1004A000A7008F5F8093A700853019F481E08093C7
:1004B000A70008958CE38093A30084E18093A400B7
:1004C0000895FC019281923009F1933018F4913033
:1004D00021F505C0933051F09430F9F40FC08181BB
:1004E000815081838930F0F486E206C081818F5F7C
:1004F00081838732B8F089E08183089580818150BB
:100500008083823078F482E58083089580818F5FD4
:100510008083823538F090830895108281E1818351
:1005200082E0828308952F923F924F925F926F9262
:100530007F928F929F92AF92BF92CF92DF92EF9273
:10054000FF920F931F93CF93DF930E94DD0A80E009
:1005500090E065E070E00E94C60A8091750090917D
:10056000760061E00E94C5098091470361E00E9426
:10057000000C2091A400822E869486948694277085
:1005800081E090E0982E01C0990C2A95EAF7AA2400
:1005900064E5462E51E0652E712C43E0542E67C071
:1005A0002A2C33246101CC0CDD1C7601E20CF31CF7
:1005B00085EA90E0E80EF91EE701B980B694B6949A
:1005C000B694B49C800111248881080F111DC801C4
:1005D00064E570E00E945915806860E00E94DC0BC1
:1005E000C80164E570E00E945915862F806460E0C0
:1005F0000E94DC0B89818770362D01C0330F8A95EC
:10060000EAF780914803E5EAF0E0859DA001112416
:100610004E0F5F1FD601B70115C02181EB019881F4
:100620008081981771F4822F869586958695B816E5
:1006300041F42770C30102C0880F991F2A95E2F781
:10064000382B3396E417F50741F7A20DB31DAB55D0
:10065000BF4F9091A3008C91981721F48B1411F443
:1006600039299924832F61E00E94DC0BA3948091A7
:100670004803A81608F494CF9920F9F004E5809E69
:10068000800111248091A300080F111DC80164E5A9
:1006900070E00E945915806860E00E94DC0BC80180
:1006A00064E570E00E945915862F806460E00E9426
:1006B000DC0B892D61E00E94DC0BDF91CF911F9153
:1006C0000F91FF90EF90DF90CF90BF90AF909F90F1
:1006D0008F907F906F905F904F903F902F900895F4
:1006E0008CE38093A30084E18093A40086E0809350
:1006F00048038091460390E074E0880F991F7A9533
:10070000E1F780934703E5EAF0E088E224E192E034
:10071000218380839283339681508E31C9F70E9462
:1007200093020895CF93DF93C5EAD0E0CE010E94F3
:100730006102239680E0C33CD807C1F789E014C06A
:1007400090E0DC01AA0FBB1FA80FB91FAB55BF4F2C
:100750000197FC01EE0FFF1FE80FF91FEB55FF4F4C
:10076000828112968C93822F282F215048F79091E6
:10077000A5008091A300981709F09CC09091A60055
:100780008091A400981709F095C080914803282F04
:100790002E5F209348038450909146039295907F5A
:1007A000982B909347032A3008F484C00E94DD0AF6
:1007B000809146038F5F809346038823B1F11092A6
:1007C000460383E090E062E070E00E94C60A8091F8
:1007D0008B0090918C0060E00E94C50983E090E05E
:1007E00063E070E00E94C60A8091960090919700A5
:1007F00060E00E94C50980E090E065E070E00E9442
:10080000C60A8091A0009091A10061E00E94C509F4
:100810002FB7F89480915F0390916003826090936A
:10082000600380935F032FBF35C083E090E062E0F8
:1008300070E00E94C60A8091690090916A0060E0B1
:100840000E94C50982E090E063E070E00E94C60A61
:10085000809180009091810060E00E94C5098091A4
:10086000460360E00E94000C80E090E065E070E0EC
:100870000E94C60A809175009091760061E00E9406
:10088000C5098091470361E00E94000C80E261E0AD
:100890000E9474098399FECF80E49FE10197F1F7EC
:1008A00080E88ABF809146038295807F80934703CA
:1008B0000E9470030E949302DF91CF910895CF921E
:1008C000DF92EF92FF920F931F937C01262F6AE035
:1008D00070E00E945915D62EC72E30E08901000F16
:1008E000111F020F131F040F111D000F111F075BB3
:1008F0001C4F862F972F6AE070E00E945915E82F51
:10090000F0E084E0EE0FFF1F8A95E1F7C7016AE08F
:1009100070E00E94591590E0E82BF92B8D2D9C2D4D
:100920006AE070E00E945915CB016AE070E00E9415
:100930005915382F20E0E22BF32BD801ED93FC93CF
:100940001F910F91FF90EF90DF90CF900895882333
:1009500011F0389801C0389A88EC90E00197F1F7CF
:10096000369A3699FECF84B195B190936503809302
:100970006403089520915B0330915C03389A88ECFE
:1009800090E00197F1F7369A3699FECF84B195B190
:1009900090936503809364032115310549F080919C
:1009A000640390916503820F931F9695879504C009
:1009B000809164039091650390935C0380935B0343
:1009C00020915D0330915E03389888EC90E00197A8
:1009D000F1F7369A3699FECF84B195B190936503BD
:1009E000809364032115310549F08091640390914F
:1009F0006503820F931F9695879504C080916403C9
:100A00009091650390935E0380935D0308951F9317
:100A100010925C0310925B0310925E0310925D03D0
:100A200010E00E94BA041F5F1F3FD9F71F9108957D
:100A3000CF92DF92EF92FF920F931F93082F10E057
:100A400060915B0370915C03A3ECCA2EA0E0DA2EE8
:100A50007801EE0CFF1CEE0CFF1CEC0CFD1C882733
:100A600077FD8095982F0E9439129B01AC0160E0C0
:100A700070EC8FEF93E40E94FD10F70160837183A7
:100A80008283938360915D0370915E030D5F1F4FBE
:100A9000000F111F000F111FC00ED11E882777FDF8
:100AA0008095982F0E9439129B01AC0160E070EC98
:100AB0008FEF93E40E94FD10F601608371838283BF
:100AC00093831F910F91FF90EF90DF90CF90089547
:100AD0008FEF93E09093DC008093DB000895DF922A
:100AE000EF92FF920F931F93CF93DF93D82E6091D5
:100AF0005B0370915C03082F10E0882777FD8095D9
:100B0000982F0E943912000F111F000F111FF801BA
:100B1000ED53FF4F20813181428153810E940310A8
:100B20000E9497127B0160915D0370915E0388279C
:100B300077FD8095982F0E94391201531F4FF801BD
:100B400020813181428153810E9403100E949712BB
:100B5000EB019701261B370B37FF03C0309521951A
:100B60003F4F6091DB007091DC0084E690E0AC01C7
:100B7000249FC001259F900D349F900D11240E9449
:100B80005915162F072FC70160E04D2D0E945F04F5
:100B9000CE0161E04D2D0E945F04812F902F62E015
:100BA0004D2D0E945F04DF91CF911F910F91FF9017
:100BB000EF90DF900895CF92DF92FF920F931F93F3
:100BC000CF93DF938C019FB7F8948BB78F778BBF50
:100BD0009FBF0E94DD0A80E090E061E070E00E942B
:100BE000C60A8091FA009091FB0060E00E94C5095E
:100BF00085E00836180719F485E090E002C081E02E
:100C000090E063E070E00E94C60A8BE560E00E941D
:100C10007409CDEDD0E0FF2430E9C32E31E0D32EAE
:100C200083E260E00E94740985E00836180719F431
:100C300080E090E002C0888199810E946A0680E28B
:100C40009EE4F6013197F1F70197D9F783E260E06E
:100C50000E9474090E94070583E260E00E94740903
:100C60008F2DF801099585E00836180729F0F394CF
:100C7000229683E0F816A1F680E090E00E946A06D2
:100C80008DE560E00E94740982E090E065E070E02C
:100C90000E94C60A8091E9009091EA0060E00E94FB
:100CA000C50988E893E120E931E0F9013197F1F7CE
:100CB0000197D9F79FB7F89480E48ABF8BB7806813
:100CC0008BBF9FBFDF91CF911F910F91FF90DF905E
:100CD000CF900895AC0120E030E061E070E0DB9857
:100CE000CB01022E02C0880F991F0A94E2F78423D9
:100CF0009523892B11F0DA9A01C0DA98DB9A2F5FDD
:100D00003F4F2031310559F7DC9A0000DC980895F7
:100D1000DC98DB988AB38C618ABB80E090E00E940B
:100D20006A06089518BA17BA15BA14BA88E082BBD1
:100D300011BA80EF85BB84B38F7084BB80E888B91B
:100D40008AE085BF80EC8BBF86E085BD17B887E859
:100D500086B90E94880688EE93E00E94AA0D7894D6
:100D60008FB7F89420915F03309160033093620352
:100D7000209361038FBF8091610380FF1DC02FB757
:100D8000F89480915F03909160038E7F909360034D
:100D900080935F032FBF2FB7F89480915F039091EA
:100DA000600390936203809361032FBF809161037E
:100DB00087FD02C00E94170C8FB7F89420915F0343
:100DC0003091600330936203209361038FBF809161
:100DD000610381FF1AC02FB7F89480915F0390914F
:100DE00060038D7F9093600380935F032FBF0E9409
:100DF000B50D2FB7F89480915F03909160038160E7
:100E00009093600380935F032FBF8FB7F894209176
:100E10005F033091600330936203209361038FBFBF
:100E20008091610384FF1CC08FE695E00E94DB0582
:100E30002FB7F89480915F03909160038F7E909319
:100E4000600380935F032FBF2FB7F89480915F03F7
:100E50009091600381609093600380935F032FBF44
:100E60008FB7F89420915F03309160033093620351
:100E7000209361038FBF8091610385FF10C088E1DB
:100E800095E00E94DB052FB7F89480915F03909165
:100E900060038F7D9093600380935F032FBF8FB7B4
:100EA000F89420915F0330916003309362032093A4
:100EB00061038FBF8091610386FF10C088E695E0D3
:100EC0000E94DB052FB7F89480915F039091600337
:100ED0008F7B9093600380935F032FBF8FB7F8944D
:100EE00020915F033091600330936203209361038C
:100EF0008FBF8091610382FF26C02FB7F894809145
:100F00005F03909160038B7F9093600380935F03F6
:100F10002FBF809173039091740321E0883392076F
:100F200031F08C56914019F081E00E941B0D2FB7D3
:100F3000F89480915F0390916003816090936003C7
:100F400080935F032FBF8FB7F89420915F03309198
:100F5000600330936203209361038FBF809161032C
:100F600083FF26C02FB7F89480915F0390916003B0
:100F7000877F9093600380935F032FBF80917303FB
:100F80009091740321E08833920731F08C569140A0
:100F900019F080E00E941B0D2FB7F89480915F0339
:100FA0009091600381609093600380935F032FBFF3
:100FB0008FB7F89420915F03309160033093620300
:100FC000209361038FBF809161039091620390FF32
:100FD0001EC02FB7F89480915F03909160039E7FAD
:100FE0009093600380935F032FBF0E94700314BC33
:100FF00089B7806489BF2FB7F89480915F0390917F
:10100000600380689093600380935F032FBF8FB766
:10101000F89420915F033091600330936203209332
:1010200061038FBF809161039091620391FF98CE1D
:101030002FB7F89480915F03909160039D7F909308
:10104000600380935F032FBF89B78F7B89BF0E94A6
:1010500043022FB7F89480915F03909160038F77DC
:101060009093600380935F032FBF7ACE1F920F92FD
:101070000FB60F9211242F933F934F935F936F936B
:101080007F938F939F93AF93BF93EF93FF93809141
:1010900066038150809366038F5F91F48091FC001A
:1010A00081508093FC008F5F29F48CE38093FC00D7
:1010B0000E945A020E9492038091A20080936603CC
:1010C000FF91EF91BF91AF919F918F917F916F9120
:1010D0005F914F913F912F910F900FBE0F901F90F6
:1010E00018951F920F920FB60F9211242F933F93D2
:1010F0004F935F936F937F938F939F93AF93BF9320
:10110000EF93FF9380E49FE10197F1F780E88ABFB6
:1011100083B3807F803911F482E00FC0803611F4F0
:1011200081E00BC0803C11F484E007C0803311F4EF
:1011300083E003C0803F61F780E0839958C0882333
:1011400041F42FB7F89480915F039091600382601F
:1011500013C08130B9F4E0917303F0917403878177
:10116000908590937403809373032FB7F8948091C4
:101170005F039091600388609093600380935F03A6
:101180002FBF35C0823091F4E0917303F091740366
:101190008581968190937403809373032FB7F8949D
:1011A00080915F03909160038460E6CF20915F039C
:1011B00030916003833071F48FB7F89430936203F9
:1011C000209361038FBF8091610387FF10C00E944D
:1011D00044020DC08FB7F8943093620320936103EB
:1011E0008FBF8091610387FF02C00E944F02FF9171
:1011F000EF91BF91AF919F918F917F916F915F918F
:101200004F913F912F910F900FBE0F901F90189507
:10121000982F8A3010F4805D08958A50863010F03F
:101220008FE30895892F895C0895282F982F929530
:101230009F709A3018F4892F805D08C0892F8A50DA
:10124000863010F08FE302C0892F895C809367039A
:10125000922F9F709A3018F4892F805D08C0892FD3
:101260008A50863010F08FE302C0892F895C80930A
:10127000680308959C0180709F709A3018F4892F3C
:10128000805D08C0892F8A50863010F08FE302C03D
:10129000892F895C80936803C901807F907034E056
:1012A000969587953A95E1F7982F8A3010F4805DEE
:1012B00007C08A50863010F08FE302C0892F895C06
:1012C00080936903922F9F709A3018F4892F805D64
:1012D00008C0892F8A50863010F08FE302C0892F12
:1012E000895C80936A030895CF93DF93282F362F6C
:1012F000803208F42CE5C0916B03D0916C03CE01D1
:1013000064E570E00E9459158068C398C4988FB94D
:10131000779BFECFC39ACE0164E570E00E94591519
:101320006064C398C4986FB9779BFECFC39A85E079
:10133000289FC0011124FC01EC54F04087549040D8
:101340002491220F31112095C398C49A2FB9779B0D
:10135000FECFC39A3196E817F90791F7332339F096
:10136000C398C49A8FEF8FB9779BFECF05C0C398FF
:10137000C49A1FB8779BFECFC39A2696D0936C036E
:10138000C0936B03DF91CF9108950F931F93CF9379
:10139000DF93082F162F282F392FE90104C021963B
:1013A000612F0E9474099E01201B922F888188233F
:1013B000B1F71123B9F02223A9F02E3098F42EE0D2
:1013C00030E0291B3109C901880F991F820F931F33
:1013D000880F9FEFC398C49A9FB9779BFECFC39A9B
:1013E0008150C1F7DF91CF911F910F9108955F92C6
:1013F0006F927F928F929F92AF92BF92CF92DF9225
:10140000EF92FF920F931F93CF93DF935C016B01D9
:10141000842E702EE0916B03F0916C03CF0164E594
:1014200070E00E9459158068C398C4988FB9779B63
:10143000FECFC39ACF0164E570E00E945915606445
:10144000C398C4986FB9779BFECFC39A992465E07F
:10145000662EE22EFF2408E010E00E191F09552425
:101460005A949394F5014081442319F00894A11CE7
:10147000B11CF6012081222319F00894C11CD11C53
:10148000269DC0011124EC01CC54D040469DD001D2
:101490001124AC54B04087549040442311F450E0E0
:1014A00003C0FD015491550F222311F430E003C015
:1014B000FE013491330FE32FF0E0652F70E07720C9
:1014C00069F0002E02C0EE0FFF1F0A94E2F70E2C07
:1014D00002C0759567950A94E2F70CC0002E02C011
:1014E000F595E7950A94E2F70E2C02C0660F771F78
:1014F0000A94E2F73E2F362B81103095C398C49A98
:101500003FB9779BFECFC39A21961196C817D9078A
:1015100009F0C3CF882031F0C398C49A5FB8779B95
:10152000FECF05C0C398C49A1FB8779BFECFC39A5D
:10153000442309F096CF222309F093CF8820B1F0FD
:10154000FDE0F91598F02EE030E029193109C901C4
:10155000880F991F820F931F880F9FEFC398C49A1B
:101560009FB9779BFECFC39A8150C1F7DF91CF918E
:101570001F910F91FF90EF90DF90CF90BF90AF90B1
:101580009F908F907F906F905F90089524E530E05A
:10159000629FA001639F500D729F500D11249C010A
:1015A000220F331F280F391F220F331F420F531FE3
:1015B00050936C0340936B030895C398C49880E8DC
:1015C0008FB9779BFECFC39AC398C49881E48FB933
:1015D000779BFECFC39A80E090E0C398C49A1FB86F
:1015E000779BFECFC39A019621E0843A9207A9F730
:1015F0000895C398C49880E88FB9779BFECFC39AAB
:10160000C398C49880E48FB9779BFECFC39AEBE16F
:10161000F2E08491C398C49A8FB9779BFECFC39AA6
:10162000319682E0EF36F807A1F7EFE6F2E0849119
:10163000C398C49A8FB9779BFECFC39A319684E042
:10164000E331F807A1F7EFEBF3E08491C398C49A74
:101650008FB9779BFECFC39A319684E0E331F807C8
:10166000A1F70895AF92BF92CF92DF92EF92FF92CF
:101670000F931F938C01C29A87B38C6B87BB84EF47
:1016800091E020E931E0F9013197F1F70197D9F7BD
:10169000C29880EA9FE00197F1F7C29A80E58DB980
:1016A000C39AC398C49881E28FB9779BFECFC39A3F
:1016B000C398C49888EC8FB9779BFECFC39AC39820
:1016C000C49886E08FB9779BFECFC39AC398C4981D
:1016D00083E18FB9779BFECFC39AC398C49880E209
:1016E0008FB9779BFECFC39AC398C4988CE08FB90B
:1016F000779BFECFC39A0E94F90AC398C49881E2EF
:101700008FB9779BFECFC39AC398C4988EE98FB9DF
:10171000779BFECFC39AC398C49880E28FB9779B1A
:10172000FECFC39AB80180E090E00E94EB125B010B
:101730006C0120E030E04AE755E40E9403107B0191
:101740008C0120E030E040E85FE30E94091288232A
:101750001CF461E070E024C0C801B70120E03FEF55
:101760004FE757E40E94A9111816B4F4C601B50159
:1017700020E030E040E251E40E9403100E942D0E70
:1017800080E991E005C0FC013197F1F761507040AC
:1017900061157105C1F707C0C801B7010E942D0E80
:1017A000CB010197F1F71F910F91FF90EF90DF9020
:1017B000CF90BF90AF900895C398613011F4C49A50
:1017C00001C0C4988FB9779BFECFC39A08951F9329
:1017D000162F0E943A0980916803612F0E947409B4
:1017E00080916903612F0E94740980916A03612FBF
:1017F0000E94740980E2612F0E9474091F9108956C
:101800001F93162F0E94150980916703612F0E9474
:10181000740980916803612F0E9474091F910895D3
:101820008EE191E090937403809373030895EF9297
:10183000FF920F931F93CF93DF930E94DD0A2FB780
:10184000F894809173039091740390937203809342
:1018500071032FBFE0917103F0917203C581D681AE
:10186000FF24F39404C0F3940D80DE81C02DCE17C5
:10187000DF07C9F724E02F1518F484E0F82E03C021
:1018800082E08F1510F4C781D08580E090E060E0A1
:1018900070E00E94C60A80910D0190910E0161E0F6
:1018A0000E94C509EE2401E010E027C080E090E02E
:1018B000B8010E94C60A29853A858091410190911C
:1018C00042012817390729F480E090E0B8010E940E
:1018D000C60A29853A8560E0809171039091720370
:1018E0008C179D0709F461E0C9010E94C5090D80AC
:1018F000DE81C02DE3940F5F1F4FEF14B8F280918B
:101900007103909172038853914009F08DC083E078
:1019100090E062E070E00E94C60A82E560E00E940A
:10192000740987E090E062E070E00E94C60A87E4F4
:1019300060E00E9474098BE090E062E070E00E9439
:10194000C60A82E460E00E94740980E090E063E0EF
:1019500070E00E94C60A81E360E00E94740982E0A0
:1019600090E063E070E00E94C60A80914903909184
:101970004A0360E00E94E70B80914B0390914C0377
:1019800060E00E94E70B80914D0390914E0360E070
:101990000E94E70B80E090E064E070E00E94C60ADD
:1019A00082E360E00E94740982E090E064E070E00D
:1019B0000E94C60A80914F039091500360E00E94FC
:1019C000E70B809151039091520360E00E94E70B76
:1019D000809153039091540360E00E94E70B80E0F4
:1019E00090E065E070E00E94C60A85E260E00E9437
:1019F000740982E090E065E070E00E94C60A809180
:101A000055039091560360E00E94E70B80915703C5
:101A10009091580360E00E94E70B809159039091E8
:101A20005A0360E00E94E70BDF91CF911F910F9165
:101A3000FF90EF9008959F92AF92BF92CF92DF9266
:101A4000EF92FF920F931F93CF93DF93982E8FB750
:101A5000F8942091730330917403309372032093B0
:101A600071038FBFE0917103F0917203A581B6817C
:101A70002185328511E005C01F5F15960D90BC9140
:101A8000A02D19968D919C911A9782179307A1F713
:101A9000153008F014E00E94DD0AE0917103F09126
:101AA0007203133038F4EF01CC2420E9A22E21E098
:101AB000B22E3FC0C781D085F7CF80E090E0B7015C
:101AC0000E94C60A992019F0EF81F88502C0ED81C5
:101AD000FE812185328569857A8540E08091710398
:101AE000909172038C179D0709F441E0C9012C2DD8
:101AF000092D0E94F7090D80DE81C02DD394089432
:101B0000E11CF11CD116C8F2E0917103F09172034F
:101B1000133010F4EF0102C0C781D08584EF91E04B
:101B2000F5013197F1F70197D9F7C39488E0C8160A
:101B300029F0DD2491E0E92EF12CE4CFDF91CF9163
:101B40001F910F91FF90EF90DF90CF90BF90AF90DB
:101B50009F9008952EE131E0309374032093730336
:101B60000E94320B0E94170C08958FB7F8942091B1
:101B700073033091740330937203209371038FBF0A
:101B8000E0917103F0917203E081E33049F1E430B8
:101B900028F4E13071F0E23040F514C0E530A9F1ED
:101BA000E53058F1E63009F43DC0E73009F054C0A3
:101BB00046C08FB7F894E0917303F09174032381CA
:101BC000348108C08FB7F894E0917303F0917403E7
:101BD0002181328130937403209373038FBF21C01E
:101BE00080E090E00E946A06EDCF2FB7F8948091D4
:101BF0005F039091600380611CC02FB7F8948091BF
:101C00005F0390916003806207C02FB7F8948091C2
:101C10005F039091600380649093600380935F03FF
:101C20002FBF08952FB7F89480915F0390916003C0
:101C300091609093600380935F032FBFBACF2FB75B
:101C4000F89480915F039091600392609093600399
:101C500080935F032FBFB6CF0895EF92FF920F934B
:101C60001F937B018C0120E030E040E05FE40E94A4
:101C7000D91188238CF0C801B70120E030E040E0A2
:101C80005FE40E94A50F0E9497129B01AC012050B7
:101C900030404040504806C0C801B7010E9497122A
:101CA0009B01AC01B901CA011F910F91FF90EF9008
:101CB0000895A0E0B0E0EFE5FEE00C946D15DC01C6
:101CC0002B01FA019C91923008F439C1EB01888113
:101CD000823008F433C1943069F4843009F02FC1A4
:101CE00011969C9111978981981709F428C1ADE349
:101CF000B2E025C1843009F421C18230A9F49230C8
:101D000009F01DC19A01AD0188E0EA010990AE0118
:101D1000E90109929E018150C1F7E2018981119682
:101D20009C918923818308C1923009F407C11296DE
:101D30002D903C901397EB018A819B811496AD9076
:101D4000BD90CD90DC901797EC80FD800E811F81B7
:101D50009101281B390BB90137FF04C0662777278B
:101D6000621B730B603271050CF061C01216130612
:101D70006CF537014801062E04C096948794779439
:101D800067940A94D2F721E030E040E050E004C0CC
:101D9000220F331F441F551F6A95D2F72150304040
:101DA000404050402E213F21402351232115310531
:101DB0004105510521F021E030E040E050E079019B
:101DC0008A01E628F728082919293CC0232BD1F1DC
:101DD000260E371E35014601062E04C096948794C0
:101DE000779467940A94D2F721E030E040E050E025
:101DF00004C0220F331F441F551F6A95D2F721508C
:101E00003040404050402A213B214C215D2121158A
:101E100031054105510521F021E030E040E050E07E
:101E200059016A01A628B728C828D9280BC08215ED
:101E300093052CF01C01AA24BB24650103C0EE24E9
:101E4000FF24870111969C91D20111968C919817CD
:101E500009F445C0992339F0A80197012A193B09D3
:101E60004C095D0906C0A60195012E193F09400BDA
:101E7000510B57FD08C0118233822282248335839F
:101E8000468357831DC081E0818333822282882765
:101E90009927DC01821B930BA40BB50B84839583DC
:101EA000A683B7830DC0220F331F441F551F248301
:101EB00035834683578382819381019793838283FD
:101EC0002481358146815781DA01C9010197A10931
:101ED000B1098F5F9F4FAF4FBF4328F30BC0918372
:101EE00033822282EA0CFB1C0C1D1D1DE482F5824C
:101EF0000683178383E0808324813581468157815F
:101F000057FF1AC0C901AA2797FDA095BA2F817063
:101F10009070A070B0705695479537952795822B95
:101F2000932BA42BB52B84839583A683B7838281BF
:101F30009381019693838283DF0101C0D201CD0199
:101F4000CDB7DEB7E2E10C948915A0E2B0E0EBEA90
:101F5000FFE00C94791569837A838B839C832D83AE
:101F60003E834F835887E9E0EE2EF12CEC0EFD1EE8
:101F7000CE010196B7010E9488148E010F5E1F4F9B
:101F8000CE010596B8010E9488148A8991E08927BC
:101F90008A8BC701B801AE01475E5F4F0E94590EA0
:101FA0000E94B313A096E6E00C949515A0E2B0E071
:101FB000ECEDFFE00C94791569837A838B839C8325
:101FC0002D833E834F835887F9E0EF2EF12CEC0EE2
:101FD000FD1ECE010196B7010E9488148E010F5E8E
:101FE0001F4FCE010596B8010E948814C701B801A1
:101FF000AE01475E5F4F0E94590E0E94B313A09638
:10200000E6E00C949515A0E2B0E0E9E0F0E10C9474
:102010006D1569837A838B839C832D833E834F83E5
:102020005887CE010196BE01675F7F4F0E948814DA
:10203000CE010596BE016F5E7F4F0E948814998580
:10204000923088F089898230C8F0943019F4823057
:1020500051F404C0843029F4923081F48DE392E08D
:10206000C6C0923049F420E09A858A89981321E00D
:102070002A87CE010996BBC0823049F420E09A85B8
:102080008A89981321E02A8BCE014196B0C02D8415
:102090003E844F8458886D887E888F88988CEE2483
:1020A000FF248701AA24BB24650140E050E060E0E2
:1020B00070E0E0E0F0E0C10181709070892BE9F000
:1020C000E60CF71C081D191D9A01AB012A0D3B1DDA
:1020D0004C1D5D1D80E090E0A0E0B0E0E614F70448
:1020E0000805190520F481E090E0A0E0B0E0BA0115
:1020F000A901480F591F6A1F7B1FAA0CBB1CCC1CCF
:10210000DD1C97FE08C081E090E0A0E0B0E0A82AC6
:10211000B92ACA2ADB2A3196E032F10549F0660C69
:10212000771C881C991C5694479437942794C3CFE6
:10213000FA85EA892B893C898B859C85280F391F74
:102140002E5F3F4F17C0CA0181709070892B61F0DC
:1021500016950795F794E79480E090E0A0E0B0E84A
:10216000E82AF92A0A2B1B2B7695679557954795F0
:102170002F5F3F4F77FDE7CF0CC0440F551F661F01
:10218000771F17FD4160EE0CFF1C001F111F21502F
:102190003040403090E0590790E0690790E47907BB
:1021A00060F32B8F3C8FDB01CA018F779070A0709A
:1021B000B07080349105A105B10561F447FD0AC0F6
:1021C000E114F1040105110529F0405C5F4F6F4FE8
:1021D0007F4F40781A8EFE1711F081E08A8F4D8F65
:1021E0005E8F6F8F78A383E0898FCE0149960E941E
:1021F000B313A096E2E10C948915A8E1B0E0E3E006
:10220000F1E10C94751569837A838B839C832D830C
:102210003E834F835887B9E0EB2EF12CEC0EFD1E68
:10222000CE010196B7010E9488148E010F5E1F4FE8
:10223000CE010596B8010E9488142985223008F441
:102240007EC03989323010F4B8017CC08A859A8901
:1022500089278A87243011F0223031F4231709F0BE
:102260006EC06DE372E06EC0343039F41D861E8698
:102270001F86188A1C861B8604C0323021F484E035
:102280008987B7015FC02B853C858B899C89281B7A
:10229000390B3C872B87ED84FE840F851889AD8828
:1022A000BE88CF88D88CEA14FB040C051D0540F4C9
:1022B000EE0CFF1C001F111F215030403C872B8764
:1022C00020E030E040E050E080E090E0A0E0B0E4CA
:1022D00060E070E0EA14FB040C051D0540F0282BBB
:1022E000392B4A2B5B2BEA18FB080C091D09B69504
:1022F000A79597958795EE0CFF1C001F111F6F5F28
:102300007F4F6F31710531F7DA01C9018F77907016
:10231000A070B07080349105A105B10561F427FD6E
:102320000AC0E114F1040105110529F0205C3F4FBA
:102330004F4F5F4F20782D873E874F87588BBE01C8
:10234000675F7F4FCB010E94B3136896EAE00C945D
:102350009115A8E1B0E0EFEAF1E10C9479156983F9
:102360007A838B839C832D833E834F83588789E0B8
:10237000E82EF12CEC0EFD1ECE010196B7010E9455
:1023800088148E010F5E1F4FCE010596B8010E9482
:1023900088148985823040F08989823028F0C7010D
:1023A000B8010E94001501C08FEF6896E6E00C941A
:1023B0009515A8E1B0E0EFEDF1E10C947915698392
:1023C0007A838B839C832D833E834F83588789E058
:1023D000E82EF12CEC0EFD1ECE010196B7010E94F5
:1023E00088148E010F5E1F4FCE010596B8010E9422
:1023F00088148985823040F08989823028F0C701AD
:10240000B8010E94001501C08FEF6896E6E00C94B9
:102410009515A8E1B0E0EFE0F2E10C94791569833D
:102420007A838B839C832D833E834F83588789E0F7
:10243000E82EF12CEC0EFD1ECE010196B7010E9494
:1024400088148E010F5E1F4FCE010596B8010E94C1
:1024500088148985823040F08989823028F0C7014C
:10246000B8010E94001501C081E06896E6E00C9476
:102470009515A8E0B0E0EFE3F2E10C9476159B012E
:10248000AC0183E08983DA01C9018827B7FD839510
:102490009927AA27BB27B82E2115310541055105DB
:1024A00019F482E089833AC08823A9F0203080E0C3
:1024B000380780E0480780E8580729F460E070E0BA
:1024C00080E09FEC30C0EE24FF248701E21AF30A7B
:1024D000040B150B02C079018A018EE1C82ED12CA4
:1024E000DC82CB82ED82FE820F831887C801B701A0
:1024F0000E94641301971816190684F4082E04C06C
:10250000EE0CFF1C001F111F0A94D2F7ED82FE8211
:102510000F831887C81AD90ADC82CB82BA82CE010F
:1025200001960E94B3132896E9E00C949215ACE052
:10253000B0E0EDE9F2E10C947D1569837A838B8339
:102540009C83CE010196BE016B5F7F4F0E94881471
:102550008D81823061F1823050F1843021F48E819E
:10256000882351F12EC02F81388537FD20C06E8120
:102570002F3131051CF06623F9F023C08EE190E085
:10258000821B930B29853A854B855C8504C0569543
:102590004795379527958A95D2F76623B1F05095E0
:1025A0004095309521953F4F4F4F5F4F0EC020E033
:1025B00030E040E050E009C02FEF3FEF4FEF5FE722
:1025C00004C020E030E040E050E8B901CA012C9698
:1025D000E2E00C949915A8E0B0E0E1EFF2E10C9490
:1025E00075157B018C01611571058105910519F443
:1025F00082E0898360C083E089838EE1C82ED12C7C
:10260000DC82CB82ED82FE820F831887C801B7017E
:102610000E946413FC013197F7FF3BC02227332748
:102620002E1B3F0B57016801022E04C0D694C7949D
:10263000B794A7940A94D2F740E050E060E070E0CD
:1026400081E090E0A0E0B0E004C0880F991FAA1FCD
:10265000BB1F2A95D2F70197A109B1098E219F21AD
:10266000A023B1230097A105B10521F041E050E07E
:1026700060E070E04A295B296C297D294D835E83E7
:102680006F8378878EE190E08E1B9F0B9C838B83FA
:1026900012C0309781F00E2E04C0EE0CFF1C001FFC
:1026A000111F0A94D2F7ED82FE820F831887CE1A8B
:1026B000DF0ADC82CB821A82CE0101960E94B3131C
:1026C0002896EAE00C949115EF92FF920F931F93D6
:1026D0007B018C0180E0E81680E0F80681E00807C5
:1026E00080E0180788F48FEFE816F1040105110562
:1026F00031F028F088E090E0A0E0B0E017C080E082
:1027000090E0A0E0B0E012C080E0E81680E0F806BB
:1027100080E0080781E0180728F088E190E0A0E059
:10272000B0E004C080E190E0A0E0B0E020E230E062
:1027300040E050E0281B390B4A0B5B0B04C0169598
:102740000795F794E7948A95D2F7F701EB5BFD4F75
:102750008081281B310941095109C9011F910F913D
:10276000FF90EF900895DF92EF92FF920F931F93E7
:10277000FC01E480F58006811781D1808081823060
:1027800048F480E090E0A0E1B0E0E82AF92A0A2BC2
:102790001B2BA5C0843009F49FC0823021F4EE24A5
:1027A000FF24870105C0E114F1040105110519F4A6
:1027B000E0E0F0E096C0628173819FEF62387907B4
:1027C0000CF05BC022E83FEF261B370B2A313105A6
:1027D0002CF020E030E040E050E02AC0B801A70132
:1027E000022E04C076956795579547950A94D2F7BF
:1027F00081E090E0A0E0B0E004C0880F991FAA1F1C
:10280000BB1F2A95D2F70197A109B1098E219F21FB
:10281000A023B1230097A105B10521F081E090E04C
:10282000A0E0B0E09A01AB01282B392B4A2B5B2B9F
:10283000DA01C9018F779070A070B0708034910573
:10284000A105B10539F427FF09C0205C3F4F4F4F68
:102850005F4F04C0215C3F4F4F4F5F4FE0E0F0E01F
:102860002030A0E03A07A0E04A07A0E45A0710F0A1
:10287000E1E0F0E079018A0127C06038710564F574
:10288000FB01E158FF4FD801C7018F779070A0700E
:10289000B07080349105A105B10539F4E7FE0DC093
:1028A00080E490E0A0E0B0E004C08FE390E0A0E01E
:1028B000B0E0E80EF91E0A1F1B1F17FF05C0169592
:1028C0000795F794E794319687E016950795F79466
:1028D000E7948A95D1F705C0EE24FF248701EFEF36
:1028E000F0E06E2F679566276795902F9F77D794B6
:1028F000DD24D7948E2F8695492F462B582F5D299E
:10290000B701CA011F910F91FF90EF90DF900895DA
:10291000FC01DB01408151812281622F6F7770E0E1
:10292000221F2227221F9381892F880F822B282F75
:1029300030E0991F9927991F11969C9311972115A3
:102940003105A9F5411551056105710511F482E0C4
:1029500037C082E89FEF13969C938E9312979A014B
:10296000AB0167E0220F331F441F551F6A95D1F753
:1029700083E08C930DC0220F331F441F551F129606
:102980008D919C911397019713969C938E93129718
:10299000203080E0380780E0480780E4580758F38B
:1029A00014962D933D934D935C93179708952F3F65
:1029B000310579F4411551056105710519F484E07B
:1029C0008C93089564FF03C081E08C9312C01C9225
:1029D00010C02F57304013963C932E93129783E0EC
:1029E0008C9387E0440F551F661F771F8A95D1F798
:1029F000706414964D935D936D937C93179708952F
:102A00001F93DC01FB019C91923008F447C0808148
:102A1000823008F443C0943051F411961C918430F4
:102A200099F58181682F70E0611B71093FC0843086
:102A300021F0923031F48230B9F18181882389F11B
:102A40002DC011961C9111978230F1F081811817D9
:102A5000D9F412962D913C9113978281938182171C
:102A6000930794F028173907BCF014968D919D9127
:102A70000D90BC91A02D2481358146815781281766
:102A800039074A075B0718F4112341F00AC082177F
:102A90009307A407B50740F4112319F061E070E033
:102AA00005C06FEF7FEF02C060E070E0CB011F91C7
:102AB0000895AA1BBB1B51E107C0AA1FBB1FA61785
:102AC000B70710F0A61BB70B881F991F5A95A9F7D7
:102AD00080959095BC01CD0108952F923F924F9221
:102AE0005F926F927F928F929F92AF92BF92CF929E
:102AF000DF92EF92FF920F931F93CF93DF93CDB7A7
:102B0000DEB7CA1BDB0B0FB6F894DEBF0FBECDBF1E
:102B100009942A88398848885F846E847D848C84EF
:102B20009B84AA84B984C884DF80EE80FD800C81F8
:102B30001B81AA81B981CE0FD11D0FB6F894DEBFDB
:0C2B40000FBECDBFED010895F894FFCF4B
:102B4C00596F752077696E2100600053636F726551
:102B5C003A203078006B004C6576656C3A20230087
:102B6C007700476F742066756E3F008200476F20B8
:102B7C00776F726B21008D00206272756E716C0024
:102B8C009800144614010803010803010803010806
:102B9C0003010803010803010803010803010803EA
:102BAC000108030000803F000000000000803F008F
:102BBC0000803F000000000000803FFF03900048B1
:102BCC00002400446F6E652100E300506C65617356
:102BDC006520776169742E2E2E00EB003C802D2D24
:102BEC00436F6C6F727320434D502D2D00FE002FE0
:102BFC002F205374617274202020202F2F0002008C
:102C0C000038015201EE010F012F2F205265737510
:102C1C006C74733A202F2F00031E0100003801380A
:102C2C000129012F2F20536E616B65202020202F4E
:102C3C002F000600006C0186011E0143012F2F207E
:102C4C002020536E616B6520202F2F00075201004E
:102C5C00006C016C015D012F2F2053657475702081
:102C6C002020202F2F00010000A001EE015201773F
:102C7C00012F2F43616C6C6962726174652F2F0098
:102C8C000486010000BA01D40191012F2F20536555
:102C9C0074207A65726F202F2F000586010000D4F6
:102CAC0001A001AB012F2F204261636B202020205B
:102CBC00202F2F000086010000A001BA01C5012FB2
:102CCC002F20526561646D652020202F2F0001009C
:102CDC000032021E018601DF015B2050726F6772A9
:102CEC00616D6D65723A5D5B2020206272756E714C
:102CFC006C2020205D5B202020202861742920205E
:102D0C0020205D5B2020676D61696C2E636F6D20E8
:102D1C005D0000EE01000032023202F901000000F9
:102D2C00000000000000010202030303030404047A
:102D3C00040404040405050505050505050505053C
:102D4C00050505050506060606060606060606061C
:102D5C000606060606060606060606060606060607
:102D6C0006060606060707070707070707070707EC
:102D7C0007070707070707070707070707070707D7
:102D8C0007070707070707070707070707070707C7
:102D9C0007070707070707070707070707070707B7
:102DAC00070707070708080808080808080808089C
:102DBC000808080808080808080808080808080887
:102DCC000808080808080808080808080808080877
:102DDC000808080808080808080808080808080867
:102DEC000808080808080808080808080808080857
:102DFC000808080808080808080808080808080847
:102E0C000808080808080808080808080808080836
:102E1C000808080808080808080808080808080826
:062E2C0008080808080078
:00000001FF
