:100000000C940A020C9427020C9427080C942702E3
:100010000C9427020C94EC070C9427020C942702F2
:100020000C9427020C9427020C9427020C942702AC
:100030000C9427020C9427020C9427020C9427029C
:100040000C9427020C9427020C9427020C9427028C
:100050000C942702000000000000002F00000007A1
:10006000000700147F147F14242A7F2A12C4C810AA
:10007000264636495522500005030000001C224147
:10008000000041221C0014083E081408083E08081D
:1000900000005030001010101010006060000020B0
:1000A000100804023E5149453E00427F4000426133
:1000B0005149462141454B311814127F10274545BF
:1000C00045393C4A494930017109050336494949D6
:1000D00036064949291E0036360000005636000013
:1000E00008142241001414141414004122140802AC
:1000F000015109063E5965655E7E1111117E7F49E9
:100100004949363E414141227F4141221C7F4949B4
:1001100049417F090909013E4149497A7F08080898
:100120007F00417F41002040413F017F0814224170
:100130007F404040407F020C027F7F0408107F3EDA
:100140004141413E7F090909063E4151215E7F0937
:10015000192946464949493101017F01013F404083
:10016000403F1F2040201F3F4038403F6314081489
:100170006307087008076151494543007F4141000A
:10018000552A552A550041417F00040201020440CE
:1001900040404040000102040020545454787F48FD
:1001A0004444383844444420384444487F38545404
:1001B0005418087E0901020C5252523E7F08040472
:1001C0007800447D40002040443D007F10284400DA
:1001D00000417F40007C041804787C0804047838CF
:1001E000444444387C14141408081414187C7C0803
:1001F0000404084854545420043F4440203C4040E8
:10020000207C1C2040201C3C4030403C44281028CE
:10021000440C5050503C4464544C44FFFF7F7F4595
:100220005D5D5D5D5D5D5D5D5D5D7F7F415F5D5DD4
:100230005D5D5D5D5D5D5D417F7F415F5F5F5F5FD8
:100240005F5F5F5F5F7F7F415F5D5D5D5D5D5D5DAA
:100250005D5D417F7F437D7D7D7D7D7D7D7D7D7F7E
:100260007F515555555555555555457F7FFFFFFFD6
:10027000FFFFFFFFFFFFFFFFFFFFFFFFFFFFFFFF8E
:10028000FFFFFFFFFFFFFFFFFFFFFFFFFFFFFFFF7E
:10029000FFFFFFFFFFFFFFFFFFFFFFFFFFFFFFFF6E
:1002A000FFFFFFFFFFFFFFFFFFFFFFFFFFFFFFFF5E
:1002B000FFFFFFFFFFFFFFFFFFFFFFFFFFFFFFFF4E
:1002C000FFFFFFFFFFFF0C0CFCFCFCFCFCFCFCFC3C
:1002D000FCFCFCFCFCFCFCFCFCFCFCFCFCFFFFFF55
:1002E0000C0CFCFCFCFCF0F0F3F3F3C3CFCFCFCF4E
:1002F000C3F3F3F3F0F0FCFCFCFC0000FFFFFF0095
:10030000009F9F9C9C9C9C9C9C9C9C9C9C9C9C9CC3
:100310009C9C9C8080FFFFFFFFFFE0E0E7E7E7E7B2
:10032000E7E7E7E7E7E7E7E7E7E7E7E7E7E7E7E75D
:10033000E7FFFFFFE0E0FFFFFFFFFFFFFFFFFFFF23
:10034000FFFFFFFFFFFFFFFFFFFFFFFFFFFFE0E0FB
:10035000FFFFFFE0E0FFFFFFFFFFFFFFFFFFFFFFEB
:10036000FFFFFFFFFFFFFFFFFFFFFFFFFFFFFFFF9D
:10037000FFFFFFFFFFFFFFFFFFFFFFFFFFFFFFFF8D
:10038000FFFFFFFFFFFFFFFFFFFFFFFFFFFFFFFF7D
:10039000FFFFFFFFFFFFFFFFFFFFFFFFFFFFFFFF6D
:1003A000FFFFFFFFFFFFFFFFFFFFFFFFFFFFFFFF5D
:1003B000FFFFFFFFFFFFFFFFFFFFFFFFFFFFFFFF4D
:1003C000FFFFC8DBDBC3FFCBFBFBFBFFCBDFDFC3E8
:1003D000FFCBFBFBC3FFCBDBDBDF037FFFC0FFFFFC
:1003E000017E665A5A425A5E627FFFC7BBABABCFF3
:1003F000FFCBFBC3FBC3FFCBDBDBC3DBFFC2FFC019
:10040000FFDFFFCBDBDBFFCBDBDBC3FFCBFBC3FBC8
:10041000C3FFFF0011241FBECFE5D8E0DEBFCDBF74
:1004200013E0A0E6B0E0E8EBFAE202C005900D921E
:10043000A031B107D9F713E0A0E1B3E001C01D92EC
:10044000AC33B107E1F70E9448060C945A150C949E
:100450000000089584E08093630008958091660011
:10046000815080936600882319F484E080936600AD
:100470000895809166008F5F80936600853019F43F
:1004800081E080936600089586E48093610084E1B2
:10049000809362000895FC018281823001F18330F3
:1004A00018F4813021F505C0833051F08430F9F41F
:1004B0000FC08181815081838830F0F48FE206C0C3
:1004C00081818F5F81838033B8F089E081830895D3
:1004D000808181508083882379F483E506C0808100
:1004E0008F5F8083843540F081E08083089510829F
:1004F00081E1818382E08283089580916300853069
:1005000020F10E94930A84E090E063E070E00E9492
:100510007C0A80918B0090918C0061E00E947B09A5
:1005200080E197E220E931E0F9013197F1F7019795
:10053000D9F72FB7F8948091260390912703926002
:1005400090932703809326032FBF40916300842F4D
:1005500090E09C0121503040DC01AA0FBB1FA80F86
:10056000B91FAC59BF4FF901EE0FFF1FE20FF31F88
:10057000EC59FF4F80818C93818111968C93119758
:10058000928112969C931297892F8150823010F499
:100590009E5F01C0925012969C9383E0489FC001D9
:1005A00011248C599F4F0E944B0220916300822F8F
:1005B00090E0DC01AA0FBB1FA80FB91FAC59BF4FB9
:1005C0000197FC01EE0FFF1FE80FF91FEC59FF4FD9
:1005D000828112968C932F5F2093630008952F924F
:1005E0003F924F925F926F927F928F929F92AF92C3
:1005F000BF92CF92DF92EF92FF920F931F93CF9310
:10060000DF930E94930A80E090E065E070E00E9432
:100610007C0A8091640061E00E94B60B80E261E098
:100620000E942A098091650061E00E94B60B20912A
:100630006200822E869486948694277081E090E0F2
:10064000982E01C0990C2A95EAF7AA24A4E54A2E0F
:10065000F1E06F2E712CE3E05E2E67C02A2C33246C
:100660006101CC0CDD1C7601E20CF31C84E690E009
:10067000E80EF91EE701B980B694B694B694B49C1E
:10068000800111248881080F111DC80164E570E004
:100690000E940F15806860E00E94920BC80164E51B
:1006A00070E00E940F15862F806460E00E94920B1C
:1006B00089818770362D01C0330F8A95EAF78091C2
:1006C0006300E4E6F0E0859DA00111244E0F5F1F5A
:1006D000D601B70115C02181EB019881808198175F
:1006E00071F4822F869586958695B81641F4277009
:1006F000C30102C0880F991F2A95E2F7382B339661
:10070000E417F50741F7A20DB31DAC59BF4F909107
:1007100061008C91981721F48B1411F439299924D4
:10072000832F61E00E94920BA39480916300A8162E
:1007300008F494CF9920F9F004E5809E80011124FB
:1007400080916100080F111DC80164E570E00E94EE
:100750000F15806860E00E94920BC80164E570E0AC
:100760000E940F15862F806460E00E94920B892DF5
:1007700061E00E94920BDF91CF911F910F91FF904A
:10078000EF90DF90CF90BF90AF909F908F907F9031
:100790006F905F904F903F902F9008950F931F930D
:1007A00010E003E008C0109FC00111248C599F4F36
:1007B0000E944B021F5F309163001317A0F3232F99
:1007C00014C0822F90E0DC01AA0FBB1FA80FB91F35
:1007D000AC59BF4F0197FC01EE0FFF1FE80FF91F47
:1007E000EC59FF4F828112968C93215011F0231700
:1007F00040F39091640080916100981771F490919A
:10080000650080916200981741F40E947D0282E0A9
:10081000809361008AE0809362000E94EF021F9142
:100820000F9108950E94EF020895CF92DF92EF9208
:10083000FF920F931F937C01262F6AE070E00E94C5
:100840000F15D62EC72E30E08901000F111F020FA1
:10085000131F040F111D000F111F005F1C4F862F67
:10086000972F6AE070E00E940F15E82FF0E084E017
:10087000EE0FFF1F8A95E1F7C7016AE070E00E9462
:100880000F1590E0E82BF92B8D2D9C2D6AE070E080
:100890000E940F15CB016AE070E00E940F15382FFF
:1008A00020E0E22BF32BD801ED93FC931F910F91E5
:1008B000FF90EF90DF90CF900895882311F0389843
:1008C00001C0389A88EC90E00197F1F7369A369992
:1008D000FECF84B195B190932C0380932B030895A0
:1008E0002091220330912303389A88EC90E00197FD
:1008F000F1F7369A3699FECF84B195B190932C03D7
:1009000080932B032115310549F080912B039091A1
:100910002C03820F931F9695879504C080912B031B
:1009200090912C039093230380932203209124031E
:1009300030912503389888EC90E00197F1F7369ACA
:100940003699FECF84B195B190932C0380932B03FD
:100950002115310549F080912B0390912C03820FD2
:10096000931F9695879504C080912B0390912C033B
:10097000909325038093240308951F9310922303DB
:1009800010922203109225031092240310E00E947B
:1009900070041F5F1F3FD9F71F910895CF92DF9218
:1009A000EF92FF920F931F93082F10E060912203A4
:1009B00070912303ADE8CA2EA0E0DA2E7801EE0C88
:1009C000FF1CEE0CFF1CEC0CFD1C882777FD8095AE
:1009D000982F0E94EF119B01AC0160E070EC8FEF4B
:1009E00093E40E94B310F701608371838283938341
:1009F00060912403709125030D5F1F4F000F111F9D
:100A0000000F111FC00ED11E882777FD8095982FEB
:100A10000E94EF119B01AC0160E070EC8FEF93E45A
:100A20000E94B310F60160837183828393831F91C8
:100A30000F91FF90EF90DF90CF9008958FEF93E0AC
:100A40009093A6008093A5000895DF92EF92FF9205
:100A50000F931F93CF93DF93D82E60912203709151
:100A60002303082F10E0882777FD8095982F0E9498
:100A7000EF11000F111F000F111FF801E357FF4F77
:100A800020813181428153810E94B90F0E944D1211
:100A90007B016091240370912503882777FD809561
:100AA000982F0E94EF1107561F4FF80120813181C6
:100AB000428153810E94B90F0E944D12EB019701B0
:100AC000261B370B37FF03C0309521953F4F6091B0
:100AD000A5007091A60084E690E0AC01249FC001BF
:100AE000259F900D349F900D11240E940F15162FF5
:100AF000072FC70160E04D2D0E941504CE0161E073
:100B00004D2D0E941504812F902F62E04D2D0E94E3
:100B10001504DF91CF911F910F91FF90EF90DF901F
:100B20000895CF92DF92FF920F931F93CF93DF939D
:100B30008C019FB7F8948BB78F778BBF9FBF0E94B4
:100B4000930A80E090E061E070E00E947C0A80916E
:100B5000C4009091C50060E00E947B0985E00E31E1
:100B6000180719F485E090E002C081E090E063E0AE
:100B700070E00E947C0A8BE560E00E942A09C7EAC7
:100B8000D0E0FF2430E9C32E31E0D32E83E260E0D1
:100B90000E942A0985E00E31180719F480E090E0E0
:100BA00002C0888199810E94200680E29EE4F601BD
:100BB0003197F1F70197D9F783E260E00E942A09A3
:100BC0000E94BD0483E260E00E942A098F2DF80193
:100BD000099585E00E31180729F0F394229683E0F9
:100BE000F816A1F680E090E00E9420068DE560E016
:100BF0000E942A0982E090E065E070E00E947C0A91
:100C00008091B3009091B40060E00E947B0988E875
:100C100093E120E931E0F9013197F1F70197D9F734
:100C20009FB7F89480E48ABF8BB780688BBF9FBF63
:100C3000DF91CF911F910F91FF90DF90CF9008959A
:100C4000AC0120E030E061E070E0DB98CB01022EE7
:100C500002C0880F991F0A94E2F784239523892BF9
:100C600011F0DA9A01C0DA98DB9A2F5F3F4F2031FA
:100C7000310559F7DC9A0000DC980895DC98DB9880
:100C80008AB38C618ABB80E090E00E9420060895C0
:100C900018BA17BA15BA14BA88E082BB11BA80EF35
:100CA00085BB84B38F7084BB80E888B98AE085BF38
:100CB00080EC8BBF86E085BD17B887E886B90E94B7
:100CC0003E0688EE93E00E94600D78948FB7F8940A
:100CD0002091260330912703309329032093280382
:100CE0008FBF8091280380FF1DC02FB7F89480919B
:100CF0002603909127038E7F9093270380932603EA
:100D00002FBF2FB7F89480912603909127039093DB
:100D10002903809328032FBF8091280387FD02C0F9
:100D20000E94CD0B8FB7F8942091260330912703B2
:100D300030932903209328038FBF8091280381FFDC
:100D40001AC02FB7F89480912603909127038D7FC6
:100D500090932703809326032FBF0E946B0D2FB71C
:100D6000F894809126039091270381609093270344
:100D7000809326032FBF8FB7F894209126033091DC
:100D8000270330932903209328038FBF80912803E2
:100D900084FF1CC085E295E00E9491052FB7F8946E
:100DA00080912603909127038F7E90932703809351
:100DB00026032FBF2FB7F894809126039091270325
:100DC000816090932703809326032FBF8FB7F894F9
:100DD0002091260330912703309329032093280381
:100DE0008FBF8091280385FF10C08EEC94E00E9495
:100DF00091052FB7F89480912603909127038F7D5A
:100E000090932703809326032FBF8FB7F8942091E8
:100E100026033091270330932903209328038FBFA3
:100E20008091280386FF10C08EE195E00E94910515
:100E30002FB7F89480912603909127038F7B90938E
:100E40002703809326032FBF8FB7F89420912603A2
:100E50003091270330932903209328038FBF80917B
:100E6000280382FF26C02FB7F89480912603909123
:100E700027038B7F90932703809326032FBF8091B6
:100E80003A0390913B0321E08230920731F0865380
:100E9000914019F081E00E94D10C2FB7F894809115
:100EA0002603909127038160909327038093260364
:100EB0002FBF8FB7F89420912603309127033093EA
:100EC0002903209328038FBF8091280383FF26C026
:100ED0002FB7F8948091260390912703877F9093F2
:100EE0002703809326032FBF80913A0390913B0301
:100EF00021E08230920731F08653914019F080E072
:100F00000E94D10C2FB7F89480912603909127036B
:100F1000816090932703809326032FBF8FB7F894A7
:100F2000209126033091270330932903209328032F
:100F30008FBF809128039091290390FF1EC02FB787
:100F4000F89480912603909127039E7F9093270326
:100F5000809326032FBF0E94120414BC89B78064BB
:100F600089BF2FB7F894809126039091270380685A
:100F700090932703809326032FBF8FB7F894209177
:100F800026033091270330932903209328038FBF32
:100F9000809128039091290391FF98CE2FB7F89460
:100FA00080912603909127039D7F90932703809340
:100FB00026032FBF89B78F7B89BF0E9429022FB7D5
:100FC000F89480912603909127038F7790932703BD
:100FD000809326032FBF7ACE1F920F920FB60F92E7
:100FE00011242F933F934F935F936F937F938F932E
:100FF0009F93AF93BF93EF93FF9380912D03815005
:1010000080932D038F5F91F48091C600815080936F
:10101000C6008F5F29F48CE38093C6000E944402CF
:101020000E94CE038091600080932D03FF91EF9189
:10103000BF91AF919F918F917F916F915F914F91F0
:101040003F912F910F900FBE0F901F9018951F92F8
:101050000F920FB60F9211242F933F934F935F93EC
:101060006F937F938F939F93AF93BF93EF93FF9370
:1010700080E49FE10197F1F780E88ABF83B3807F26
:10108000803911F482E00FC0803611F481E00BC08A
:10109000803C11F484E007C0803311F483E003C086
:1010A000803F61F780E0839958C0882341F42FB7CF
:1010B000F8948091260390912703826013C08130B9
:1010C000B9F4E0913A03F0913B03878190859093C6
:1010D0003B0380933A032FB7F894809126039091B5
:1010E0002703886090932703809326032FBF35C082
:1010F000823091F4E0913A03F0913B03858196812F
:1011000090933B0380933A032FB7F8948091260382
:10111000909127038460E6CF209126033091270326
:10112000833071F48FB7F894309329032093280308
:101130008FBF8091280387FF10C00E942E020DC030
:101140008FB7F89430932903209328038FBF8091A1
:10115000280387FF02C00E943902FF91EF91BF91DF
:10116000AF919F918F917F916F915F914F913F913F
:101170002F910F900FBE0F901F901895982F8A30C7
:1011800010F4805D08958A50863010F08FE3089542
:10119000892F895C0895282F982F92959F709A30F7
:1011A00018F4892F805D08C0892F8A50863010F08E
:1011B0008FE302C0892F895C80932E03922F9F704A
:1011C0009A3018F4892F805D08C0892F8A508630A4
:1011D00010F08FE302C0892F895C80932F0308955C
:1011E0009C0180709F709A3018F4892F805D08C030
:1011F000892F8A50863010F08FE302C0892F895CD6
:1012000080932F03C901807F907034E09695879575
:101210003A95E1F7982F8A3010F4805D07C08A5024
:10122000863010F08FE302C0892F895C80933003F1
:10123000922F9F709A3018F4892F805D08C0892FF3
:101240008A50863010F08FE302C0892F895C80932A
:1012500031030895CF93DF93282F362F803208F47F
:101260002CE5C0913203D0913303CE0164E570E0E8
:101270000E940F158068C398C4988FB9779BFECFE2
:10128000C39ACE0164E570E00E940F156064C398B4
:10129000C4986FB9779BFECFC39A85E0289FC001A1
:1012A0001124FC01EC54F040875490402491220F0B
:1012B00031112095C398C49A2FB9779BFECFC39A5A
:1012C0003196E817F90791F7332339F0C398C49A98
:1012D0008FEF8FB9779BFECF05C0C398C49A1FB814
:1012E000779BFECFC39A2696D0933303C0933203E5
:1012F000DF91CF9108950F931F93CF93DF93082F22
:10130000162F282F392FE90104C02196612F0E9442
:101310002A099E01201B922F88818823B1F711236F
:10132000B9F02223A9F02E3098F42EE030E0291BEA
:101330003109C901880F991F820F931F880F9FEFF2
:10134000C398C49A9FB9779BFECFC39A8150C1F7C7
:10135000DF91CF911F910F9108955F926F927F92CD
:101360008F929F92AF92BF92CF92DF92EF92FF92B5
:101370000F931F93CF93DF935C016B01842E702E2C
:10138000E0913203F0913303CF0164E570E00E94F5
:101390000F158068C398C4988FB9779BFECFC39A06
:1013A000CF0164E570E00E940F156064C398C49893
:1013B0006FB9779BFECFC39A992465E0662EE22E23
:1013C000FF2408E010E00E191F0955245A94939445
:1013D000F5014081442319F00894A11CB11CF601C9
:1013E0002081222319F00894C11CD11C269DC00124
:1013F0001124EC01CC54D040469DD0011124AC54B2
:10140000B04087549040442311F450E003C0FD01E4
:101410005491550F222311F430E003C0FE013491A2
:10142000330FE32FF0E0652F70E0772069F0002E96
:1014300002C0EE0FFF1F0A94E2F70E2C02C0759552
:1014400067950A94E2F70CC0002E02C0F595E79567
:101450000A94E2F70E2C02C0660F771F0A94E2F797
:101460003E2F362B81103095C398C49A3FB9779B95
:10147000FECFC39A21961196C817D90709F0C3CF9A
:10148000882031F0C398C49A5FB8779BFECF05C01F
:10149000C398C49A1FB8779BFECFC39A442309F020
:1014A00096CF222309F093CF8820B1F0FDE0F91503
:1014B00098F02EE030E029193109C901880F991FF1
:1014C000820F931F880F9FEFC398C49A9FB9779B91
:1014D000FECFC39A8150C1F7DF91CF911F910F9139
:1014E000FF90EF90DF90CF90BF90AF909F908F9044
:1014F0007F906F905F90089524E530E0629FA00197
:10150000639F500D729F500D11249C01220F331FB9
:10151000280F391F220F331F420F531F50933303DD
:10152000409332030895C398C49880E88FB9779B9D
:10153000FECFC39AC398C49881E48FB9779BFECF3E
:10154000C39A80E090E0C398C49A1FB8779BFECFFF
:10155000C39A019621E0843A9207A9F70895C398A7
:10156000C49880E88FB9779BFECFC39AC398C4987C
:1015700080E48FB9779BFECFC39AEBE1F2E08491D0
:10158000C398C49A8FB9779BFECFC39A319682E0F5
:10159000EF36F807A1F7EFE6F2E08491C398C49A1A
:1015A0008FB9779BFECFC39A319684E0E331F80779
:1015B000A1F7EFEBF3E08491C398C49A8FB9779BBE
:1015C000FECFC39A319684E0E331F807A1F708957E
:1015D000AF92BF92CF92DF92EF92FF920F931F9341
:1015E0008C01C29A87B38C6B87BB84EF91E020E9B2
:1015F00031E0F9013197F1F70197D9F7C29880EA04
:101600009FE00197F1F7C29A80E58DB9C39AC3981C
:10161000C49881E28FB9779BFECFC39AC398C498D0
:1016200088EC8FB9779BFECFC39AC398C49886E0A5
:101630008FB9779BFECFC39AC398C49883E18FB9C3
:10164000779BFECFC39AC398C49880E28FB9779BEB
:10165000FECFC39AC398C4988CE08FB9779BFECF16
:10166000C39A0E94AF0AC398C49881E28FB9779B4E
:10167000FECFC39AC398C4988EE98FB9779BFECFEB
:10168000C39AC398C49880E28FB9779BFECFC39A60
:10169000B80180E090E00E94A1125B016C0120E0A3
:1016A00030E04AE755E40E94B90F7B018C0120E04D
:1016B00030E040E85FE30E94BF1188231CF461E042
:1016C00070E024C0C801B70120E03FEF4FE757E4C6
:1016D0000E945F111816B4F4C601B50120E030E095
:1016E00040E251E40E94B90F0E94E30D80E991E0CD
:1016F00005C0FC013197F1F761507040611571052B
:10170000C1F707C0C801B7010E94E30DCB010197E3
:10171000F1F71F910F91FF90EF90DF90CF90BF9066
:10172000AF900895C398613011F4C49A01C0C49871
:101730008FB9779BFECFC39A08951F93162F0E94EF
:10174000F00880912F03612F0E942A0980913003B5
:10175000612F0E942A0980913103612F0E942A097A
:1017600080E2612F0E942A091F9108951F93162F6E
:101770000E94CB0880912E03612F0E942A0980913C
:101780002F03612F0E942A091F91089588EE90E08F
:1017900090933B0380933A030895EF92FF920F9347
:1017A0001F93CF93DF930E94930A2FB7F8948091F1
:1017B0003A0390913B0390933903809338032FBFF2
:1017C000E0913803F0913903C581D681FF24F39469
:1017D00004C0F3940D80DE81C02DCE17DF07C9F75A
:1017E00024E02F1518F484E0F82E03C082E08F1552
:1017F00010F4C781D08580E090E060E070E00E9446
:101800007C0A8091D7009091D80061E00E947B090A
:10181000EE2401E010E027C080E090E0B8010E94D3
:101820007C0A29853A8580910B0190910C0128173B
:10183000390729F480E090E0B8010E947C0A2985EC
:101840003A8560E080913803909139038C179D07A9
:1018500009F461E0C9010E947B090D80DE81C02D81
:10186000E3940F5F1F4FEF14B8F28091380390910B
:1018700039038250914009F08DC083E090E062E02E
:1018800070E00E947C0A82E560E00E942A0987E0FD
:1018900090E062E070E00E947C0A87E460E00E94D1
:1018A0002A098BE090E062E070E00E947C0A82E40A
:1018B00060E00E942A0980E090E063E070E00E940E
:1018C0007C0A81E360E00E942A0982E090E063E004
:1018D00070E00E947C0A809110039091110360E0F7
:1018E0000E949D0B809112039091130360E00E946F
:1018F0009D0B809114039091150360E00E949D0B55
:1019000080E090E064E070E00E947C0A82E360E0A6
:101910000E942A0982E090E064E070E00E947C0A64
:10192000809116039091170360E00E949D0B8091B7
:1019300018039091190360E00E949D0B80911A0397
:1019400090911B0360E00E949D0B80E090E065E0B9
:1019500070E00E947C0A85E260E00E942A0982E031
:1019600090E065E070E00E947C0A80911C039091F9
:101970001D0360E00E949D0B80911E0390911F0348
:1019800060E00E949D0B809120039091210360E014
:101990000E949D0BDF91CF911F910F91FF90EF90CF
:1019A00008959F92AF92BF92CF92DF92EF92FF92F3
:1019B0000F931F93CF93DF93982E8FB7F8942091B6
:1019C0003A0330913B0330933903209338038FBFA0
:1019D000E0913803F0913903A581B68121853285E4
:1019E00011E005C01F5F15960D90BC91A02D1996B2
:1019F0008D919C911A9782179307A1F7153008F0E3
:101A000014E00E94930AE0913803F09139031330F7
:101A100038F4EF01CC2420E9A22E21E0B22E3FC001
:101A2000C781D085F7CF80E090E0B7010E947C0AA3
:101A3000992019F0EF81F88502C0ED81FE812185A2
:101A4000328569857A8540E0809138039091390329
:101A50008C179D0709F441E0C9012C2D092D0E9426
:101A6000AD090D80DE81C02DD3940894E11CF11CDA
:101A7000D116C8F2E0913803F0913903133010F415
:101A8000EF0102C0C781D08584EF91E0F501319765
:101A9000F1F70197D9F7C39488E0C81629F0DD243F
:101AA00091E0E92EF12CE4CFDF91CF911F910F91BE
:101AB000FF90EF90DF90CF90BF90AF909F900895F0
:101AC00028EE30E030933B0320933A030E94E80A6B
:101AD0000E94CD0B08958FB7F89420913A0330916E
:101AE0003B0330933903209338038FBFE0913803D1
:101AF000F0913903E081E33049F1E43028F4E1303A
:101B000071F0E23040F514C0E530A9F1E53058F14C
:101B1000E63009F43DC0E73009F054C046C08FB745
:101B2000F894E0913A03F0913B032381348108C09B
:101B30008FB7F894E0913A03F0913B032181328111
:101B400030933B0320933A038FBF21C080E090E0A5
:101B50000E942006EDCF2FB7F89480912603909134
:101B6000270380611CC02FB7F894809126039091C1
:101B70002703806207C02FB7F894809126039091C5
:101B80002703806490932703809326032FBF089533
:101B90002FB7F8948091260390912703916090933A
:101BA0002703809326032FBFBACF2FB7F8948091D5
:101BB0002603909127039260909327038093260336
:101BC0002FBFB6CF0895EF92FF920F931F937B0123
:101BD0008C0120E030E040E05FE40E948F11882318
:101BE0008CF0C801B70120E030E040E05FE40E94E3
:101BF0005B0F0E944D129B01AC01205030404040D1
:101C0000504806C0C801B7010E944D129B01AC01AB
:101C1000B901CA011F910F91FF90EF900895A0E0C4
:101C2000B0E0E5E1FEE00C942315DC012B01FA01A4
:101C30009C91923008F439C1EB018881823008F41C
:101C400033C1943069F4843009F02FC111969C910E
:101C500011978981981709F428C1A7E0B2E025C13E
:101C6000843009F421C18230A9F4923009F01DC1F9
:101C70009A01AD0188E0EA010990AE01E9010992FB
:101C80009E018150C1F7E201898111969C918923BF
:101C9000818308C1923009F407C112962D903C90BF
:101CA0001397EB018A819B811496AD90BD90CD90E6
:101CB000DC901797EC80FD800E811F819101281B1D
:101CC000390BB90137FF04C066277727621B730BF6
:101CD000603271050CF061C0121613066CF5370105
:101CE0004801062E04C096948794779467940A94CA
:101CF000D2F721E030E040E050E004C0220F331F73
:101D0000441F551F6A95D2F7215030404040504043
:101D10002E213F2140235123211531054105510535
:101D200021F021E030E040E050E079018A01E6282E
:101D3000F728082919293CC0232BD1F1260E371E7C
:101D400035014601062E04C09694879477946794D3
:101D50000A94D2F721E030E040E050E004C0220FC6
:101D6000331F441F551F6A95D2F721503040404021
:101D700050402A213B214C215D212115310541058F
:101D8000510521F021E030E040E050E059016A01C6
:101D9000A628B728C828D9280BC0821593052CF08F
:101DA0001C01AA24BB24650103C0EE24FF24870183
:101DB00011969C91D20111968C91981709F445C007
:101DC000992339F0A80197012A193B094C095D09AB
:101DD00006C0A60195012E193F09400B510B57FD76
:101DE00008C011823382228224833583468357833D
:101DF0001DC081E081833382228288279927DC01FC
:101E0000821B930BA40BB50B84839583A683B783A6
:101E10000DC0220F331F441F551F24833583468373
:101E200057838281938101979383828324813581B3
:101E300046815781DA01C9010197A109B1098F5F74
:101E40009F4FAF4FBF4328F30BC091833382228251
:101E5000EA0CFB1C0C1D1D1DE482F5820683178312
:101E600083E08083248135814681578157FF1AC0E2
:101E7000C901AA2797FDA095BA2F81709070A07014
:101E8000B0705695479537952795822B932BA42BA9
:101E9000B52B84839583A683B78382819381019632
:101EA00093838283DF0101C0D201CD01CDB7DEB7BC
:101EB000E2E10C943F15A0E2B0E0E1E6FFE00C9413
:101EC0002F1569837A838B839C832D833E834F8375
:101ED0005887E9E0EE2EF12CEC0EFD1ECE010196A6
:101EE000B7010E943E148E010F5E1F4FCE01059672
:101EF000B8010E943E148A8991E089278A8BC70124
:101F0000B801AE01475E5F4F0E940F0E0E94691339
:101F1000A096E6E00C944B15A0E2B0E0E2E9FFE009
:101F20000C942F1569837A838B839C832D833E8346
:101F30004F835887F9E0EF2EF12CEC0EFD1ECE01F9
:101F40000196B7010E943E148E010F5E1F4FCE0115
:101F50000596B8010E943E14C701B801AE01475E64
:101F60005F4F0E940F0E0E946913A096E6E00C944A
:101F70004B15A0E2B0E0EFEBFFE00C942315698372
:101F80007A838B839C832D833E834F835887CE0136
:101F90000196BE01675F7F4F0E943E14CE010596F9
:101FA000BE016F5E7F4F0E943E149985923088F08B
:101FB00089898230C8F0943019F4823051F404C019
:101FC000843029F4923081F487E092E0C6C09230E8
:101FD00049F420E09A858A89981321E02A87CE0166
:101FE0000996BBC0823049F420E09A858A8998130B
:101FF00021E02A8BCE014196B0C02D843E844F84CF
:1020000058886D887E888F88988CEE24FF248701FD
:10201000AA24BB24650140E050E060E070E0E0E00D
:10202000F0E0C10181709070892BE9F0E60CF71C9B
:10203000081D191D9A01AB012A0D3B1D4C1D5D1D8C
:1020400080E090E0A0E0B0E0E614F7040805190590
:1020500020F481E090E0A0E0B0E0BA01A901480FCF
:10206000591F6A1F7B1FAA0CBB1CCC1CDD1C97FED2
:1020700008C081E090E0A0E0B0E0A82AB92ACA2A0E
:10208000DB2A3196E032F10549F0660C771C881C9A
:10209000991C5694479437942794C3CFFA85EA89BC
:1020A0002B893C898B859C85280F391F2E5F3F4FDC
:1020B00017C0CA0181709070892B61F01695079541
:1020C000F794E79480E090E0A0E0B0E8E82AF92AED
:1020D0000A2B1B2B76956795579547952F5F3F4F9A
:1020E00077FDE7CF0CC0440F551F661F771F17FD04
:1020F0004160EE0CFF1C001F111F2150304040308A
:1021000090E0590790E0690790E4790760F32B8F1E
:102110003C8FDB01CA018F779070A070B070803463
:102120009105A105B10561F447FD0AC0E114F10470
:102130000105110529F0405C5F4F6F4F7F4F4078DC
:102140001A8EFE1711F081E08A8F4D8F5E8F6F8F90
:1021500078A383E0898FCE0149960E946913A096E7
:10216000E2E10C943F15A8E1B0E0E9EBF0E10C945A
:102170002B1569837A838B839C832D833E834F83C6
:102180005887B9E0EB2EF12CEC0EFD1ECE01019626
:10219000B7010E943E148E010F5E1F4FCE010596BF
:1021A000B8010E943E142985223008F47EC0398986
:1021B000323010F4B8017CC08A859A8989278A87D1
:1021C000243011F0223031F4231709F06EC067E09B
:1021D00072E06EC0343039F41D861E861F86188A60
:1021E0001C861B8604C0323021F484E08987B70145
:1021F0005FC02B853C858B899C89281B390B3C87CC
:102200002B87ED84FE840F851889AD88BE88CF8822
:10221000D88CEA14FB040C051D0540F4EE0CFF1CE1
:10222000001F111F215030403C872B8720E030E0F9
:1022300040E050E080E090E0A0E0B0E460E070E0DA
:10224000EA14FB040C051D0540F0282B392B4A2B02
:102250005B2BEA18FB080C091D09B695A795979505
:102260008795EE0CFF1C001F111F6F5F7F4F6F31B2
:10227000710531F7DA01C9018F779070A070B070E5
:1022800080349105A105B10561F427FD0AC0E11470
:10229000F1040105110529F0205C3F4F4F4F5F4FBE
:1022A00020782D873E874F87588BBE01675F7F4F11
:1022B000CB010E9469136896EAE00C944715A8E1E7
:1022C000B0E0E5E6F1E10C942F1569837A838B8306
:1022D0009C832D833E834F83588789E0E82EF12C21
:1022E000EC0EFD1ECE010196B7010E943E148E0138
:1022F0000F5E1F4FCE010596B8010E943E148985DE
:10230000823040F08989823028F0C701B8010E94EC
:10231000B61401C08FEF6896E6E00C944B15A8E167
:10232000B0E0E5E9F1E10C942F1569837A838B83A2
:102330009C832D833E834F83588789E0E82EF12CC0
:10234000EC0EFD1ECE010196B7010E943E148E01D7
:102350000F5E1F4FCE010596B8010E943E1489857D
:10236000823040F08989823028F0C701B8010E948C
:10237000B61401C08FEF6896E6E00C944B15A8E107
:10238000B0E0E5ECF1E10C942F1569837A838B833F
:102390009C832D833E834F83588789E0E82EF12C60
:1023A000EC0EFD1ECE010196B7010E943E148E0177
:1023B0000F5E1F4FCE010596B8010E943E1489851D
:1023C000823040F08989823028F0C701B8010E942C
:1023D000B61401C081E06896E6E00C944B15A8E0C5
:1023E000B0E0E5EFF1E10C942C159B01AC0183E02A
:1023F0008983DA01C9018827B7FD83959927AA2720
:10240000BB27B82E211531054105510519F482E08D
:1024100089833AC08823A9F0203080E0380780E023
:10242000480780E8580729F460E070E080E09FECFE
:1024300030C0EE24FF248701E21AF30A040B150BC7
:1024400002C079018A018EE1C82ED12CDC82CB82B8
:10245000ED82FE820F831887C801B7010E941A130C
:1024600001971816190684F4082E04C0EE0CFF1C00
:10247000001F111F0A94D2F7ED82FE820F83188786
:10248000C81AD90ADC82CB82BA82CE0101960E9498
:1024900069132896E9E00C944815ACE0B0E0E3E558
:1024A000F2E10C94331569837A838B839C83CE018C
:1024B0000196BE016B5F7F4F0E943E148D8182307A
:1024C00061F1823050F1843021F48E81882351F102
:1024D0002EC02F81388537FD20C06E812F31310508
:1024E0001CF06623F9F023C08EE190E0821B930B71
:1024F00029853A854B855C8504C056954795379567
:1025000027958A95D2F76623B1F05095409530957E
:1025100021953F4F4F4F5F4F0EC020E030E040E02D
:1025200050E009C02FEF3FEF4FEF5FE704C020E01E
:1025300030E040E050E8B901CA012C96E2E00C948A
:102540004F15A8E0B0E0E7EAF2E10C942B157B010F
:102550008C01611571058105910519F482E089836B
:1025600060C083E089838EE1C82ED12CDC82CB82CF
:10257000ED82FE820F831887C801B7010E941A13EB
:10258000FC013197F7FF3BC0222733272E1B3F0B5F
:1025900057016801022E04C0D694C794B794A7943B
:1025A0000A94D2F740E050E060E070E081E090E013
:1025B000A0E0B0E004C0880F991FAA1FBB1F2A9596
:1025C000D2F70197A109B1098E219F21A023B12340
:1025D0000097A105B10521F041E050E060E070E016
:1025E0004A295B296C297D294D835E836F83788717
:1025F0008EE190E08E1B9F0B9C838B8312C03097E3
:1026000081F00E2E04C0EE0CFF1C001F111F0A9457
:10261000D2F7ED82FE820F831887CE1ADF0ADC82A2
:10262000CB821A82CE0101960E9469132896EAE0B5
:102630000C944715EF92FF920F931F937B018C012F
:1026400080E0E81680E0F80681E0080780E01807DF
:1026500088F48FEFE816F1040105110531F028F038
:1026600088E090E0A0E0B0E017C080E090E0A0E05B
:10267000B0E012C080E0E81680E0F80680E00807CD
:1026800081E0180728F088E190E0A0E0B0E004C005
:1026900080E190E0A0E0B0E020E230E040E050E0F7
:1026A000281B390B4A0B5B0B04C016950795F79452
:1026B000E7948A95D2F7F701E15FFD4F8081281BEF
:1026C000310941095109C9011F910F91FF90EF9004
:1026D0000895DF92EF92FF920F931F93FC01E48025
:1026E000F58006811781D1808081823048F480E0B6
:1026F00090E0A0E1B0E0E82AF92A0A2B1B2BA5C044
:10270000843009F49FC0823021F4EE24FF24870135
:1027100005C0E114F1040105110519F4E0E0F0E051
:1027200096C0628173819FEF623879070CF05BC0BD
:1027300022E83FEF261B370B2A3131052CF020E031
:1027400030E040E050E02AC0B801A701022E04C0EA
:1027500076956795579547950A94D2F781E090E072
:10276000A0E0B0E004C0880F991FAA1FBB1F2A95E4
:10277000D2F70197A109B1098E219F21A023B1238E
:102780000097A105B10521F081E090E0A0E0B0E064
:102790009A01AB01282B392B4A2B5B2BDA01C9019B
:1027A0008F779070A070B07080349105A105B1054D
:1027B00039F427FF09C0205C3F4F4F4F5F4F04C0E3
:1027C000215C3F4F4F4F5F4FE0E0F0E02030A0E052
:1027D0003A07A0E04A07A0E45A0710F0E1E0F0E071
:1027E00079018A0127C06038710564F5FB01E15861
:1027F000FF4FD801C7018F779070A070B070803400
:102800009105A105B10539F4E7FE0DC080E490E023
:10281000A0E0B0E004C08FE390E0A0E0B0E0E80EFC
:10282000F91E0A1F1B1F17FF05C016950795F79481
:10283000E794319687E016950795F794E7948A9583
:10284000D1F705C0EE24FF248701EFEFF0E06E2FF3
:10285000679566276795902F9F77D794DD24D79447
:102860008E2F8695492F462B582F5D29B701CA0117
:102870001F910F91FF90EF90DF900895FC01DB0115
:10288000408151812281622F6F7770E0221F2227C1
:10289000221F9381892F880F822B282F30E0991FC8
:1028A0009927991F11969C93119721153105A9F528
:1028B000411551056105710511F482E037C082E8C8
:1028C0009FEF13969C938E9312979A01AB0167E04A
:1028D000220F331F441F551F6A95D1F783E08C9355
:1028E0000DC0220F331F441F551F12968D919C91CE
:1028F0001397019713969C938E931297203080E044
:10290000380780E0480780E4580758F314962D9361
:102910003D934D935C93179708952F3F310579F4BC
:10292000411551056105710519F484E08C930895F2
:1029300064FF03C081E08C9312C01C9210C02F571B
:10294000304013963C932E93129783E08C9387E04C
:10295000440F551F661F771F8A95D1F77064149630
:102960004D935D936D937C93179708951F93DC01AE
:10297000FB019C91923008F447C08081823008F4BA
:1029800043C0943051F411961C91843099F58181A3
:10299000682F70E0611B71093FC0843021F09230D4
:1029A00031F48230B9F18181882389F12DC01196EB
:1029B0001C9111978230F1F081811817D9F4129689
:1029C0002D913C911397828193818217930794F004
:1029D00028173907BCF014968D919D910D90BC91EC
:1029E000A02D2481358146815781281739074A0750
:1029F0005B0718F4112341F00AC082179307A4075C
:102A0000B50740F4112319F061E070E005C06FEFE5
:102A10007FEF02C060E070E0CB011F910895AA1B18
:102A2000BB1B51E107C0AA1FBB1FA617B70710F0B9
:102A3000A61BB70B881F991F5A95A9F780959095EB
:102A4000BC01CD0108952F923F924F925F926F92F9
:102A50007F928F929F92AF92BF92CF92DF92EF922E
:102A6000FF920F931F93CF93DF93CDB7DEB7CA1BAF
:102A7000DB0B0FB6F894DEBF0FBECDBF09942A88DA
:102A8000398848885F846E847D848C849B84AA8482
:102A9000B984C884DF80EE80FD800C811B81AA810F
:102AA000B981CE0FD11D0FB6F894DEBF0FBECDBFDA
:082AB000ED010895F894FFCF39
:102AB800144614042B14022A14022914022814029E
:102AC80001080301080301080301080301080301C1
:102AD8000803596F752077696E2100820000008015
:102AE8003F000000000000803F0000803F00000021
:102AF800000000803FFF03900048002400446F6EF0
:102B0800652100AD00506C6561736520776169745B
:102B18002E2E2E00B5003C802D2D436F6C6F7273E6
:102B280020434D502D2D00C8002F2F205374617263
:102B380074202020202F2F0002000002011C01B861
:102B480001D9002F2F20526573756C74733A202FAA
:102B58002F0003E800000002010201F3002F2F20DC
:102B6800536E616B65202020202F2F000600003651
:102B7800015001E8000D012F2F202020536E616BBA
:102B88006520202F2F0007E80000003601360127B6
:102B9800012F2F205365747570202020202F2F00BF
:102BA8000100006A01B8011C0141012F2F43616C2B
:102BB8006C6962726174652F2F00045001000084F3
:102BC800019E015B012F2F20536574207A65726F77
:102BD800202F2F0005500100009E016A0175012F6A
:102BE8002F204261636B20202020202F2F000050CF
:102BF8000100006A0184018F012F2F205265616452
:102C08006D652020202F2F00010000FC01E80050F6
:102C180001A9015B2050726F6772616D6D65723A30
:102C28005D5B2020206272756E716C2020205D5BD8
:102C38002020202028617429202020205D5B20206E
:102C4800676D61696C2E636F6D205D0000B80100CF
:102C580000FC01FC01C301000000000000000000AE
:102C68000102020303030304040404040404040526
:102C780005050505050505050505050505050506FB
:102C880006060606060606060606060606060606DC
:102C980006060606060606060606060606060607CB
:102CA80007070707070707070707070707070707AC
:102CB800070707070707070707070707070707079C
:102CC800070707070707070707070707070707078C
:102CD800070707070707070707070707070707087B
:102CE800080808080808080808080808080808085C
:102CF800080808080808080808080808080808084C
:102D0800080808080808080808080808080808083B
:102D1800080808080808080808080808080808082B
:102D2800080808080808080808080808080808081B
:102D3800080808080808080808080808080808080B
:102D480008080808080808080808080808080808FB
:102D580008080808080808080808080808080800F3
:00000001FF
