:1000000096C1D8C141C2AEC1ADC1ACC1ABC1AAC1DC
:10001000A9C1A8C1A7C1A6C1A5C1A4C15FC2A2C1EF
:10002000A1C1A0C19FC1000000000000002F00007E
:100030000007000700147F147F14242A7F2A12C4AB
:10004000C810264636495522500005030000001C02
:100050002241000041221C0014083E081408083EFA
:1000600008080000503000101010101000606000F0
:100070000020100804023E5149453E00427F4000E6
:1000800042615149462141454B311814127F1027D6
:10009000454545393C4A494930017109050336490E
:1000A000494936064949291E0036360000005636B1
:1000B00000000814224100141414141400412214E6
:1000C0000802015109063E5965655E7E1111117ED7
:1000D0007F494949363E414141227F4141221C7FAF
:1000E000494949417F090909013E4149497A7F0847
:1000F00008087F00417F41002040413F017F0814F4
:1001000022417F404040407F020C027F7F04081064
:100110007F3E4141413E7F090909063E4151215E32
:100120007F09192946464949493101017F01013FAB
:100130004040403F1F2040201F3F4038403F631455
:1001400008146307087008076151494543007F415F
:100150004100552A552A550041417F000402010201
:1001600004404040404000010204002054545478B0
:100170007F484444383844444420384444487F3815
:1001800054545418087E0901020C5252523E7F0802
:1001900004047800447D40002040443D007F102846
:1001A000440000417F40007C041804787C0804046B
:1001B0007838444444387C14141408081414187C07
:1001C0007C080404084854545420043F4440203C14
:1001D0004040207C1C2040201C3C4030403C4428B7
:1001E0001028440C5050503C4464544C44F02C2291
:1001F0002CF0FE929292F2FE92929EF0FE02020289
:1002000002C07C427CC0FE92929292C628FE28C612
:10021000829292926CFE402010FEFE402210FEFE62
:1002200010284482F8040202FEFE040804FEFE10B8
:100230001010FE7C8282827CFE020202FEFE2222DE
:10024000221C7C828282820202FE02024E909090E8
:100250007E1C22FE221C82443844823E40407EC0E6
:100260000E101010FE7E407C407E7E407C40FE02E0
:10027000FE909060FE906000FE00FE9090604492C0
:1002800092927CFE10FE82FE8C523212FE48A494A2
:10029000A4F8FC94949464FC94949860FC04040482
:1002A00004C0784478C078A4A49458C428FC28C416
:1002B00084849494687C808040FC7C808440FCFC36
:1002C00010106884F0080404FCFC081008FCFC1002
:1002D0001010FC7884848478FC040404FCFC24243E
:1002E000241878848484840404FC04044C90909042
:1002F0007C1824FC241884483048843C40407CC04E
:100300001C202020FC7C4078407C7C407840FC0411
:10031000FCA0A040FCA0E000FC00FCA0A0404884A1
:10032000949478FC10FC84FC88945434FC001124D0
:100330001FBECFE5D4E0DEBFCDBF12E0A0E6B0E047
:10034000E4E9FBE102C005900D92AC39B107D9F7A1
:1003500012E0ACE9B2E001C01D92AA3AB107E1F7A0
:10036000D1D016CC4DCEAC0120E030E061E070E0A1
:10037000AB98CB01022E02C0880F991F0A94E2F7B6
:1003800084239523892B11F0AC9A01C0AC98AB9AC9
:100390002F5F3F4F2031310559F7AA9A0000AA98E4
:1003A0000895AA98AB9884B38C6184BB80E090E0F8
:1003B000DADF08951F920F920FB60F9211242F9338
:1003C0003F938F939F93EF93FF93E091A802F09157
:1003D000A9022091620030919C02849916C0858107
:1003E00096819093A9028093A8022F5F20936200C8
:1003F0008FB7F894316030939C028FBF809160007A
:1004000090916100880F991F15C087819085909306
:10041000A9028093A8022150209362008FB7F8941C
:10042000316030939C028FBF809160009091610099
:10043000969587959093610080936000809160000D
:10044000909161008139910518F084E290E004C038
:10045000849730F480E990E090936100809360008D
:1004600084EF91E020E931E0F9013197F1F701974C
:10047000D9F7FF91EF919F918F913F912F910F901D
:100480000FBE0F901F9018951F920F920FB60F92EC
:1004900011242F933F938F939F93EF93FF9384EFB8
:1004A00091E020E931E0F9013197F1F70197D9F7AF
:1004B00080E8809362009FB7F89480919C028260EC
:1004C00080939C029FBFFF91EF919F918F913F91ED
:1004D0002F910F900FBE0F901F9018951F920F92A3
:1004E0000FB60F9211248F939F9384B195B190937F
:1004F000A7028093A6029F918F910F900FBE0F903D
:100500001F901895CF93DF9318BA17BA15BA14BA7B
:100510008CE182BB11BA8AE085BF80EC8BBF17B833
:100520008FE886B93EDF88EE93E0E9D47894C0E99D
:10053000D1E08FB7F89490919C0290939D028FBF69
:1005400080919D0280FF09C09FB7F89480919C0222
:100550008E7F80939C029FBF34D48FB7F894909184
:100560009C0290939D028FBF80919D0281FF24C0C9
:100570008FB7F89490919C029D7F90939C028FBFBF
:1005800096D38091A8029091A90220919C02855A4D
:10059000904021F48FB7F894206103C08FB7F8948E
:1005A0002F7E20939C028FBF9FB7F89480919C026E
:1005B000816080939C029FBF8FB7F89490919C02BA
:1005C00090939D028FBF80919D0284FFB2CF4DD347
:1005D0008CE291E0FE013197F1F70197D9F79FB7CF
:1005E000F89480919C02816080939C029FBFA1CF70
:1005F000AF92BF92CF92DF92EF92FF920F931F9331
:10060000BC01C09A87B38F6287BB24EF31E040E919
:1006100051E0FA013197F1F721503040D1F7C098FD
:10062000E0EAFFE03197F1F7C09A80E58DB9C19A11
:10063000C198C29881E28FB9779BFECFC19AC198C9
:10064000C29888EC8FB9779BFECFC19AC198C298A7
:1006500086E08FB9779BFECFC19AC198C29883E19B
:100660008FB9779BFECFC19AC198C29880E28FB9AB
:10067000779BFECFC19AC198C2988CE08FB9779BC7
:10068000FECFC19AC198C29881E28FB9779BFECF05
:10069000C19AC198C2988EE98FB9779BFECFC19A53
:1006A000C198C29880E28FB9779BFECFC19A80E053
:1006B00090E0B9D75B016C0120E030E04AE755E4F7
:1006C000EBD57B018C0120E030E040E85FE32FD7E1
:1006D00088231CF461E070E020C0C801B70120E06D
:1006E0003FEF4FE757E4CDD61816A4F4C601B50185
:1006F00020E030E040E251E4CFD50AD480E991E037
:1007000005C0FC013197F1F761507040611571052A
:10071000C1F706C0C801B701FBD3CB010197F1F7C0
:100720001F910F91FF90EF90DF90CF90BF90AF900F
:1007300008951F93CF93DF93382F162F803208F43C
:100740003CE5C0919E02D0919F02CE0164E570E02D
:10075000D4D98068C198C2988FB9779BFECFC19ACF
:10076000CE0164E570E0C9D96064C198C2986FB9E0
:10077000779BFECFC19A85E0389FC0011124BC0150
:10078000635D7140AC014A5750408E5C9140303CF3
:1007900018F0FB01249103C0FA012491220F1111DA
:1007A0002095C198C29A2FB9779BFECFC19A6F5FEF
:1007B0007F4F4F5F5F4F6817790749F7112339F073
:1007C000C198C29A8FEF8FB9779BFECF05C0C198B1
:1007D000C29A1FB8779BFECFC19A2696D0939F02EC
:1007E000C0939E02DF91CF911F9108950F931F93A5
:1007F000CF93DF93082F162F282F392FE90103C03D
:100800002196612F96DF9E01201B922F88818823DD
:10081000B9F71123B9F02223A9F02E3098F42EE075
:1008200030E0291B3109C901880F991F820F931FDE
:10083000880F9FEFC198C29A9FB9779BFECFC19A4C
:100840008150C1F7DF91CF911F910F9108953F9291
:100850004F925F926F927F928F929F92AF92BF92D0
:10086000CF92DF92EF92FF920F931F93DF93CF937C
:1008700000D000D0CDB7DEB74C015B01642E502E06
:10088000E0919E02F0919F02CF0164E570E035D9BE
:100890008068C198C2988FB9779BFECFC19ACF016B
:1008A00064E570E02AD96064C198C2986FB9779BFB
:1008B000FECFC19A772465E0462EE22EFF2408E0A1
:1008C00010E00E191F0933243A947394F401C08088
:1008D000CC2019F00894811C911CF501D080DD20FA
:1008E00019F00894A11CB11CC49C90011124D49C43
:1008F000C0011124AC014A5750405A834983FC017E
:10090000E35DF140FC83EB83A9014A575040D901D4
:10091000A35DB14085579040CC2011F430E009C070
:10092000FFEBFC1518F4FD01349103C0FA0134917A
:10093000330FDD2011F420E00BC0FFEBFD1520F498
:10094000EB81FC81249104C0E981FA812491220F7A
:10095000622F70E0232F30E0552069F0002E02C096
:10096000660F771F0A94E2F70E2C02C03595279583
:100970000A94E2F70CC0002E02C0759567950A94A0
:10098000E2F70E2C02C0220F331F0A94E2F7262B47
:1009900061102095C198C29A2FB9779BFECFC19A5A
:1009A00029813A812F5F3F4F3A832983EB81FC8174
:1009B0003196FC83EB834F5F5F4F11962817390701
:1009C00009F0AACF662031F0C198C29A3FB8779B50
:1009D000FECF05C0C198C29A1FB8779BFECFC19ABF
:1009E000CC2009F072CFDD2009F06FCF6620B1F086
:1009F000FDE0F71598F02EE030E027193109C90124
:100A0000880F991F820F931F880F9FEFC198C29A7A
:100A10009FB9779BFECFC19A8150C1F70F900F907D
:100A20000F900F90CF91DF911F910F91FF90EF905A
:100A3000DF90CF90BF90AF909F908F907F906F90FE
:100A40005F904F903F90089524E530E0629FA001B1
:100A5000639F500D729F500D11249C01220F331F74
:100A6000280F391F220F331F420F531F50939F022D
:100A700040939E020895C198C29880E88FB9779BF1
:100A8000FECFC19AC198C29880E48FB9779BFECF00
:100A9000C19A80E090E0C198C29A1FB8779BFECFC0
:100AA000C19A019621E080359207A9F70895C1986F
:100AB000C29880E88FB9779BFECFC19AC198C2983F
:100AC00081E48FB9779BFECFC19A80E090E0C19816
:100AD000C29A1FB8779BFECFC19A019621E080355C
:100AE0009207A9F70895982F8A3010F4805D089531
:100AF0008A50863010F08FE30895892F895C08951D
:100B00001F93182F80E360E014DE88E760E011DEB9
:100B1000912F92959F709A3018F4892F805D08C0AC
:100B2000892F8A50863010F08FE302C0892F895CAC
:100B300060E0FFDD912F9F709A3018F4892F805D5F
:100B400008C0892F8A50863010F08FE302C0892FA9
:100B5000895C60E0EEDD1F910895EF92FF92CF93E4
:100B6000DF93EC0180E360E0E4DD88E760E0E1DD55
:100B70007E019F2D92959F709A3018F4892F805D89
:100B800008C0892F8A50863010F08FE302C0892F69
:100B9000895C60E0CEDD9D2F9F709A3018F4892F1C
:100BA000805D08C0892F8A50863010F08FE302C024
:100BB000892F895C60E0BDDDCE01807F9070F4E01C
:100BC00095958795FA95E1F7982F8A3010F4805D16
:100BD00007C08A50863010F08FE302C0892F895CED
:100BE00060E0A7DD9E012F702A3018F4822F805D0F
:100BF00008C0822F8A50863010F08FE302C0822F07
:100C0000895C60E096DDDF91CF91FF90EF900895D1
:100C10000895C198613011F4C29A01C0C2988FB989
:100C2000779BFECFC19A089588E790E09093A90240
:100C30008093A80208951F93182FCB013FB7F89413
:100C40002BB72F732BBF3FBF8EDB112311F03898CA
:100C500001C0389A369A3699FECF9FB7F8948BB771
:100C6000806C8BBF9FBF1F9108959FB7F8948091B0
:100C7000600080939D029FBF60919D0280E070E0C4
:100C8000DADF8091A6029091A7029093A50280934B
:100C9000A40260919D0281E070E0CDDF8091A60208
:100CA0009091A7029093A3028093A20208958FB718
:100CB000F8942091A8023091A9023093A1022093C8
:100CC000A0028FBFE091A002F091A102E081E1308B
:100CD00039F0E13070F0E230F1F0E330F1F417C0B8
:100CE0008FB7F894E091A802F091A9022381348192
:100CF00008C08FB7F894E091A802F091A902218171
:100D000032813093A9022093A8028FBF089580E01A
:100D100090E029DBEECFA9DFE3CF0895AF92BF9239
:100D2000CF92DF92EF92FF920F931F935B016C01C2
:100D30008A01BDDE80E090E061E070E085DEC80100
:100D400060E054DDC601B50120E030E04AE755E43B
:100D5000A3D27B018C0120E030E040E85FE3E7D3E1
:100D600088231CF461E070E020C0C801B70120E0D6
:100D70003FEF4FE757E485D31816A4F4C601B50139
:100D800020E030E040E251E487D2C2D080E991E037
:100D900005C0FC013197F1F7615070406115710594
:100DA000C1F706C0C801B701B3D0CB010197F1F775
:100DB0001F910F91FF90EF90DF90CF90BF90AF9079
:100DC0000895EF92FF920F931F93CF93DF936FDEFF
:100DD0002FB7F8948091A8029091A9029093A10254
:100DE0008093A0022FBFC091A002D091A102ED81FB
:100DF000FE8129853A85FF24F39404C0F39405808D
:100E0000F681E02D8185928582179307B9F724E05A
:100E10002F1510F484E0F82E409162008F2D90E0A1
:100E200081589F4F242F30E0821793073CF48FE7BF
:100E3000F80EF092620021E8F20E05C047FD03C0F3
:100E400080E88093620080916200282F30E02F5765
:100E5000304041E004C00F80D885C02D4F5F842F03
:100E600090E082179307BCF3EE2401E010E019C074
:100E700080E090E0B801E8DD8091A0029091A102AD
:100E800029853A858C179D0719F4C90161E002C0D4
:100E9000C90160E0ABDC0D80DE81C02DE3940F5F03
:100EA0001F4FEF1428F38091A0029091A102855A60
:100EB0009040F1F480E090E063E070E0C5DD809167
:100EC000A4029091A50249DE80E090E064E070E029
:100ED000BBDD8091A2029091A3023FDE88E090E00A
:100EE00064E070E0B1DD809160009091610035DEDA
:100EF000DF91CF911F910F91FF90EF90089528E718
:100F000030E03093A9022093A80272DB5ADF0895E3
:100F1000EF92FF920F931F937B018C0120E030E052
:100F200040E05FE4D9D288237CF0C801B70120E01B
:100F300030E040E05FE45ED125D39B01AC0120505E
:100F400030404040504805C0C801B7011BD39B0149
:100F5000AC01B901CA011F910F91FF90EF90089564
:100F6000A0E0B0E0E5EBF7E0DCC5DC012B01FA0125
:100F70009C91923008F439C1EB018881823008F4E9
:100F800033C1943069F4843009F02FC111969C91DB
:100F900011978981981709F428C1A3E9B1E025C107
:100FA000843009F421C18230A9F4923009F01DC1C6
:100FB0009A01AD0188E0EA010990AE01E9010992C8
:100FC0009E018150C1F7E201898111969C9189238C
:100FD000818308C1923009F407C112962D903C908C
:100FE0001397EB018A819B811496AD90BD90CD90B3
:100FF000DC901797EC80FD800E811F819101281BEA
:10100000390BB90137FF04C066277727621B730BC2
:10101000603271050CF061C0121613066CF53701D1
:101020004801062E04C096948794779467940A9496
:10103000D2F721E030E040E050E004C0220F331F3F
:10104000441F551F6A95D2F7215030404040504010
:101050002E213F2140235123211531054105510502
:1010600021F021E030E040E050E079018A01E628FB
:10107000F728082919293CC0232BD1F1260E371E49
:1010800035014601062E04C09694879477946794A0
:101090000A94D2F721E030E040E050E004C0220F93
:1010A000331F441F551F6A95D2F7215030404040EE
:1010B00050402A213B214C215D212115310541055C
:1010C000510521F021E030E040E050E059016A0193
:1010D000A628B728C828D9280BC0821593052CF05C
:1010E0001C01AA24BB24650103C0EE24FF24870150
:1010F00011969C91D20111968C91981709F445C0D4
:10110000992339F0A80197012A193B094C095D0977
:1011100006C0A60195012E193F09400B510B57FD42
:1011200008C0118233822282248335834683578309
:101130001DC081E081833382228288279927DC01C8
:10114000821B930BA40BB50B84839583A683B78373
:101150000DC0220F331F441F551F24833583468340
:101160005783828193810197938382832481358180
:1011700046815781DA01C9010197A109B1098F5F41
:101180009F4FAF4FBF4328F30BC09183338222821E
:10119000EA0CFB1C0C1D1D1DE482F58206831783DF
:1011A00083E08083248135814681578157FF1AC0AF
:1011B000C901AA2797FDA095BA2F81709070A070E1
:1011C000B0705695479537952795822B932BA42B76
:1011D000B52B84839583A683B783828193810196FF
:1011E00093838283DF0101C0D201CD01CDB7DEB789
:1011F000E2E1B3C4A0E2B0E0EFEFF8E09EC469839F
:101200007A838B839C832D833E834F835887E9E0C9
:10121000EE2EF12CEC0EFD1ECE010196B7019CD3F3
:101220008E010F5E1F4FCE010596B80195D38A89B6
:1012300091E089278A8BC701B801AE01475E5F4FF5
:101240008FDEB5D2A096E6E094C4A0E2B0E0EAE278
:10125000F9E073C469837A838B839C832D833E83F7
:101260004F835887F9E0EF2EF12CEC0EFD1ECE01D6
:101270000196B70171D38E010F5E1F4FCE01059607
:10128000B8016AD3C701B801AE01475E5F4F68DE9F
:101290008ED2A096E6E06DC4A0E2B0E0E1E5F9E010
:1012A00040C469837A838B839C832D833E834F83E1
:1012B0005887CE010196BE01675F7F4F4DD3CE01A7
:1012C0000596BE016F5E7F4F47D39985923088F0B7
:1012D00089898230C8F0943019F4823051F404C006
:1012E000843029F4923081F483E991E0C6C09230D1
:1012F00049F420E09A858A89981321E02A87CE0153
:101300000996BBC0823049F420E09A858A899813F7
:1013100021E02A8BCE014196B0C02D843E844F84BB
:1013200058886D887E888F88988CEE24FF248701EA
:10133000AA24BB24650140E050E060E070E0E0E0FA
:10134000F0E0C10181709070892BE9F0E60CF71C88
:10135000081D191D9A01AB012A0D3B1D4C1D5D1D79
:1013600080E090E0A0E0B0E0E614F704080519057D
:1013700020F481E090E0A0E0B0E0BA01A901480FBC
:10138000591F6A1F7B1FAA0CBB1CCC1CDD1C97FEBF
:1013900008C081E090E0A0E0B0E0A82AB92ACA2AFB
:1013A000DB2A3196E032F10549F0660C771C881C87
:1013B000991C5694479437942794C3CFFA85EA89A9
:1013C0002B893C898B859C85280F391F2E5F3F4FC9
:1013D00017C0CA0181709070892B61F0169507952E
:1013E000F794E79480E090E0A0E0B0E8E82AF92ADA
:1013F0000A2B1B2B76956795579547952F5F3F4F87
:1014000077FDE7CF0CC0440F551F661F771F17FDF0
:101410004160EE0CFF1C001F111F21503040403076
:1014200090E0590790E0690790E4790760F32B8F0B
:101430003C8FDB01CA018F779070A070B070803450
:101440009105A105B10561F447FD0AC0E114F1045D
:101450000105110529F0405C5F4F6F4F7F4F4078C9
:101460001A8EFE1711F081E08A8F4D8F5E8F6F8F7D
:1014700078A383E0898FCE01499699D1A096E2E1C5
:101480006CC3A8E1B0E0E6E4FAE057C369837A836D
:101490008B839C832D833E834F83588789E0E82E7E
:1014A000F12CEC0EFD1ECE010196B70155D28E0136
:1014B0000F5E1F4FCE010596B8014ED2898582304E
:1014C00038F08989823020F0C701B801BDD201C04F
:1014D0008FEF6896E6E04DC3A8E1B0E0E1E7FAE0FF
:1014E0002CC369837A838B839C832D833E834F83B4
:1014F000588789E0E82EF12CEC0EFD1ECE010196F6
:10150000B7012AD28E010F5E1F4FCE010596B8019A
:1015100023D28985823038F08989823020F0C70152
:10152000B80192D201C08FEF6896E6E022C3A8E12D
:10153000B0E0ECE9FAE001C369837A838B839C8392
:101540002D833E834F83588789E0E82EF12CEC0EE3
:10155000FD1ECE010196B701FFD18E010F5E1F4F18
:10156000CE010596B801F8D18985823038F0898995
:10157000823020F0C701B80167D201C081E06896CF
:10158000E6E0F7C2ACE0B0E0E7ECFAE0DAC269838B
:101590007A838B839C83CE010196BE016B5F7F4F64
:1015A000DBD18D81823061F1823050F1843021F4C1
:1015B0008E81882351F12EC02F81388537FD20C0C0
:1015C0006E812F3131051CF06623F9F023C08EE1C6
:1015D00090E0821B930B29853A854B855C8504C07E
:1015E00056954795379527958A95D2F76623B1F09A
:1015F00050954095309521953F4F4F4F5F4F0EC00E
:1016000020E030E040E050E009C02FEF3FEF4FEF27
:101610005FE704C020E030E040E050E8B901CA01D3
:101620002C96E2E0AAC2A8E0B0E0E8E1FBE081C2CB
:101630007B018C01611571058105910519F482E02A
:1016400089835FC083E089838EE1C82ED12CDC8240
:10165000CB82ED82FE820F831887C801B70158D074
:10166000FC013197F7FF3BC0222733272E1B3F0B8E
:1016700057016801022E04C0D694C794B794A7946A
:101680000A94D2F740E050E060E070E081E090E042
:10169000A0E0B0E004C0880F991FAA1FBB1F2A95C5
:1016A000D2F70197A109B1098E219F21A023B1236F
:1016B0000097A105B10521F041E050E060E070E045
:1016C0004A295B296C297D294D835E836F83788746
:1016D0008EE190E08E1B9F0B9C838B8312C0309712
:1016E00081F00E2E04C0EE0CFF1C001F111F0A9487
:1016F000D2F7ED82FE820F831887CE1ADF0ADC82D2
:10170000CB821A82CE01019652D02896EAE02DC2F1
:10171000EF92FF920F931F937B018C0180E0E816FC
:1017200080E0F80681E0080780E0180788F48FEF72
:10173000E816F1040105110531F028F088E090E089
:10174000A0E0B0E017C080E090E0A0E0B0E012C000
:1017500080E0E81680E0F80680E0080781E01807DE
:1017600028F088E190E0A0E0B0E004C080E190E0E3
:10177000A0E0B0E020E230E040E050E0281B390B70
:101780004A0B5B0B04C016950795F794E7948A956E
:10179000D2F7F701E556FE4F8081281B3109410938
:1017A0005109C9011F910F91FF90EF900895DF92A9
:1017B000EF92FF920F931F93FC01E480F580068166
:1017C0001781D1808081823048F480E090E0A0E1F0
:1017D000B0E0E82AF92A0A2B1B2BA5C0843009F4B3
:1017E0009FC0823021F4EE24FF24870105C0E1145C
:1017F000F1040105110519F4E0E0F0E096C0628102
:1018000073819FEF623879070CF05BC022E83FEFED
:10181000261B370B2A3131052CF020E030E040E068
:1018200050E02AC0B801A701022E04C07695679542
:10183000579547950A94D2F781E090E0A0E0B0E098
:1018400004C0880F991FAA1FBB1F2A95D2F70197C2
:10185000A109B1098E219F21A023B1230097A105E1
:10186000B10521F081E090E0A0E0B0E09A01AB0189
:10187000282B392B4A2B5B2BDA01C9018F7790700B
:10188000A070B07080349105A105B10539F427FF2F
:1018900009C0205C3F4F4F4F5F4F04C0215C3F4F5A
:1018A0004F4F5F4FE0E0F0E02030A0E03A07A0E0CB
:1018B0004A07A0E45A0710F0E1E0F0E079018A015C
:1018C00027C06038710564F5FB01E158FF4FD8016E
:1018D000C7018F779070A070B07080349105A1051A
:1018E000B10539F4E7FE0DC080E490E0A0E0B0E07F
:1018F00004C08FE390E0A0E0B0E0E80EF91E0A1FFC
:101900001B1F17FF05C016950795F794E7943196AE
:1019100087E016950795F794E7948A95D1F705C067
:10192000EE24FF248701EFEFF0E06E2F6795662726
:101930006795902F9F77D794DD24D7948E2F869527
:10194000492F462B582F5D29B701CA011F910F91CE
:10195000FF90EF90DF900895FC01DB014081518101
:101960002281622F6F7770E0221F2227221F93812E
:10197000892F880F822B282F30E0991F9927991FD4
:1019800011969C93119721153105A9F54115510523
:101990006105710511F482E037C082E89FEF13966C
:1019A0009C938E9312979A01AB0167E0220F331F2D
:1019B000441F551F6A95D1F783E08C930DC0220F09
:1019C000331F441F551F12968D919C9113970197B9
:1019D00013969C938E931297203080E0380780E016
:1019E000480780E4580758F314962D933D934D9380
:1019F0005C93179708952F3F310579F441155105F0
:101A00006105710519F484E08C93089564FF03C0A7
:101A100081E08C9312C01C9210C02F573040139657
:101A20003C932E93129783E08C9387E0440F551FCD
:101A3000661F771F8A95D1F7706414964D935D9356
:101A40006D937C93179708951F93DC01FB019C9184
:101A5000923008F447C08081823008F443C094304B
:101A600051F411961C91843099F58181682F70E0B2
:101A7000611B71093FC0843021F0923031F4823013
:101A8000B9F18181882389F12DC011961C9111979C
:101A90008230F1F081811817D9F412962D913C9182
:101AA0001397828193818217930794F0281739073F
:101AB000BCF014968D919D910D90BC91A02D248128
:101AC000358146815781281739074A075B0718F483
:101AD000112341F00AC082179307A407B50740F409
:101AE000112319F061E070E005C06FEF7FEF02C0D5
:101AF00060E070E0CB011F910895AA1BBB1B51E170
:101B000007C0AA1FBB1FA617B70710F0A61BB70B6D
:101B1000881F991F5A95A9F780959095BC01CD0112
:101B200008952F923F924F925F926F927F928F9281
:101B30009F92AF92BF92CF92DF92EF92FF920F935C
:101B40001F93CF93DF93CDB7DEB7CA1BDB0B0FB666
:101B5000F894DEBF0FBECDBF09942A883988488823
:101B60005F846E847D848C849B84AA84B984C884B9
:101B7000DF80EE80FD800C811B81AA81B981CE0FB0
:101B8000D11D0FB6F894DEBF0FBECDBFED01089595
:041B9000F894FFCFF7
:101B94009000805BEFBFBDEFBFBDEFBFBDEFBFBD2A
:101BA400EFBFBDEFBFBD5D00020000A500CE004445
:101BB4000163005BEFBFBDEFBFBDEFBFBDEFBFBDB6
:101BC400EFBFBDEFBFBDEFBFBDEFBFBDEFBFBDEF0B
:101BD400BFBD5D3A000378000000A500A5008300A6
:101BE4005BEFBFBDEFBFBDEFBFBDEFBFBDEFBFBD7F
:101BF400EFBFBDEFBFBDEFBFBDEFBFBD5D000100D7
:101C040000FA0044017800B0005BEFBFBDEFBFBD38
:101C1400EFBFBDEFBFBDEFBFBDEFBFBDEFBFBDEFBA
:101C2400BFBDEFBFBDEFBFBD5D0004CE0000001718
:101C3400011701D9005BEFBFBDEFBFBDEFBFBDEF23
:101C4400BFBDEFBFBD5D0000CE000000FA00FA008A
:101C540005015BEFBFBDEFBFBDEFBFBDEFBFBDEF84
:101C6400BFBDEFBFBD20EFBFBDEFBFBDEFBFBDEF39
:101C7400BFBD5D0001000088017800CE0022015B39
:101C84002050726F6772616D6D65723A5D5B2020E2
:101C9400206272756E716C2020205D5B20202020F4
:101CA40028617429202020205D5B2020676D6169F4
:101CB4006C2E636F6D205D00004401000088018874
:101CC400014F0100000000000000000001020203B7
:101CD40003030304040404040404040505050505BE
:101CE400050505050505050505050506060606069B
:101CF4000606060606060606060606060606060680
:101D0400060606060606060606060607070707076A
:101D1400070707070707070707070707070707074F
:101D2400070707070707070707070707070707073F
:101D3400070707070707070707070707070707072F
:101D4400070707070707070707070708080808081A
:101D540008080808080808080808080808080808FF
:101D640008080808080808080808080808080808EF
:101D740008080808080808080808080808080808DF
:101D840008080808080808080808080808080808CF
:101D940008080808080808080808080808080808BF
:101DA40008080808080808080808080808080808AF
:101DB400080808080808080808080808080808089F
:0C1DC400080808080808080808080800BB
:00000001FF
