:10000000F6C050C1B9C10EC10DC10CC10BC10AC1AE
:1000100009C108C107C106C105C104C1D7C102C1D8
:1000200001C100C1FFC0000000000000002F00005F
:100030000007000700147F147F14242A7F2A12C4AB
:10004000C810264636495522500005030000001C02
:100050002241000041221C0014083E081408083EFA
:1000600008080000503000101010101000606000F0
:100070000020100804023E5149453E00427F4000E6
:1000800042615149462141454B311814127F1027D6
:10009000454545393C4A494930017109050336490E
:1000A000494936064949291E0036360000005636B1
:1000B00000000814224100141414141400412214E6
:1000C0000802015109063E5965655E7E1111117ED7
:1000D0007F494949363E414141227F4141221C7FAF
:1000E000494949417F090909013E4149497A7F0847
:1000F00008087F00417F41002040413F017F0814F4
:1001000022417F404040407F020C027F7F04081064
:100110007F3E4141413E7F090909063E4151215E32
:100120007F09192946464949493101017F01013FAB
:100130004040403F1F2040201F3F4038403F631455
:1001400008146307087008076151494543007F415F
:100150004100552A552A550041417F000402010201
:1001600004404040404000010204002054545478B0
:100170007F484444383844444420384444487F3815
:1001800054545418087E0901020C5252523E7F0802
:1001900004047800447D40002040443D007F102846
:1001A000440000417F40007C041804787C0804046B
:1001B0007838444444387C14141408081414187C07
:1001C0007C080404084854545420043F4440203C14
:1001D0004040207C1C2040201C3C4030403C4428B7
:1001E0001028440C5050503C4464544C440011249A
:1001F0001FBECFE5D4E0DEBFCDBF12E0A0E6B0E089
:10020000E2E9F8E102C005900D92AC34B107D9F7EC
:1002100012E0ACE4B2E001C01D92AA35B107E1F7EB
:10022000E9D035CBEDCEAC0120E030E061E070E00C
:10023000AB98CB01022E02C0880F991F0A94E2F7F7
:1002400084239523892B11F0AC9A01C0AC98AB9A0A
:100250002F5F3F4F2031310559F7AA9A0000AA9825
:1002600008951F93182FCB01DEDF812F02C00000FD
:1002700081508823E1F7109580E090E0D4DF02C040
:10028000000011501123E1F780E090E0CCDF1F91D6
:100290000895AA98AB9884B38C6184BB80E090E009
:1002A000C2DF08951F920F920FB60F9211242F9361
:1002B0003F938F939F93EF93FF93E0915802F091B8
:1002C00059022091620030914C02849916C08581B8
:1002D000968190935902809358022F5F2093620079
:1002E0008FB7F894316030934C028FBF80916000DB
:1002F00090916100880F991F15C087819085909318
:100300005902809358022150209362008FB7F894CD
:10031000316030934C028FBF8091600090916100FA
:10032000969587959093610080936000809160001E
:10033000909161008139910518F084E290E004C049
:10034000849730F480E990E090936100809360009E
:1003500084EF91E020E931E0F9013197F1F701975D
:10036000D9F7FF91EF919F918F913F912F910F902E
:100370000FBE0F901F9018951F920F920FB60F92FD
:1003800011242F933F938F939F93EF93FF9384EFC9
:1003900091E020E931E0F9013197F1F70197D9F7C0
:1003A00080E8809362009FB7F89480914C0282604D
:1003B00080934C029FBFFF91EF919F918F913F914E
:1003C0002F910F900FBE0F901F9018951F920F92B4
:1003D0000FB60F9211248F939F9384B195B1909390
:1003E0005702809356029F918F910F900FBE0F90EE
:1003F0001F901895CF93DF9318BA17BA15BA14BA8D
:100400008CE182BB11BA8AE085BF80EC8BBF17B844
:100410008FE886B93EDF88EE93E0B9D37894C0E9DF
:10042000D1E08FB7F89490914C0290934D028FBF1A
:1004300080914D0280FF09C09FB7F89480914C02D3
:100440008E7F80934C029FBFE5D28FB7F894909136
:100450004C0290934D028FBF80914D0281FF24C0CA
:100460008FB7F89490914C029D7F90934C028FBF70
:1004700097D3809158029091590220914C028C5848
:10048000904021F48FB7F894206103C08FB7F8949F
:100490002F7E20934C028FBF9FB7F89480914C021F
:1004A000816080934C029FBF8FB7F89490914C026B
:1004B00090934D028FBF80914D0284FFB2CF35D211
:1004C0008CE291E0FE013197F1F70197D9F79FB7E0
:1004D000F89480914C02816080934C029FBFA1CF21
:1004E000CF93DF93282F362F803208F42CE5C0916C
:1004F0004E02D0914F02CE0164E570E07DD9806854
:10050000C198C2988FB9779BFECFC19ACE0164E59E
:1005100070E072D96064C198C2986FB9779BFECFC2
:10052000C19A85E0289FC0011124FC01EA57F040E0
:10053000855790402491220F31112095C198C29A7D
:100540002FB9779BFECFC19A3196E817F90791F73B
:10055000332339F0C198C29A8FEF8FB9779BFECFC2
:1005600005C0C198C29A1FB8779BFECFC19A269644
:10057000D0934F02C0934E02DF91CF9108950F9315
:100580001F93CF93DF93082F162F282F392FE901C0
:1005900003C02196612FA4DF9E01201B922F88812A
:1005A0008823B9F71123B9F02223A9F02E3098F44B
:1005B0002EE030E0291B3109C901880F991F820FF5
:1005C000931F880F9FEFC198C29A9FB9779BFECF68
:1005D000C19A8150C1F7DF91CF911F910F9108957A
:1005E00024E530E0629FA001639F500D729F500D83
:1005F00011249C01220F331F280F391F220F331F94
:10060000420F531F50934F0240934E020895C198DA
:10061000C29880E88FB9779BFECFC19AC198C298E3
:1006200080E48FB9779BFECFC19A80E090E0C198BB
:10063000C29A1FB8779BFECFC19A019621E0883FEE
:100640009207A9F70895AF92BF92CF92DF92EF92EF
:10065000FF920F931F938C01C09A87B38F6287BB61
:1006600084EF91E020E931E0F9013197F1F701974A
:10067000D9F7C09880EA9FE00197F1F7C09A80E52A
:100680008DB9C19AC198C29881E28FB9779BFECF8C
:10069000C19AC198C29888EC8FB9779BFECFC19A56
:1006A000C198C29886E08FB9779BFECFC19AC19856
:1006B000C29883E18FB9779BFECFC19AC198C29847
:1006C00080E28FB9779BFECFC19AC198C2988CE027
:1006D0008FB9779BFECFC19A9ADFC198C29881E209
:1006E0008FB9779BFECFC19AC198C2988EE98FB916
:1006F000779BFECFC19AC198C29880E28FB9779B51
:10070000FECFC19AB80180E090E00CD65B016C018D
:1007100020E030E04AE755E43ED47B018C0120E044
:1007200030E040E85FE382D588231CF461E070E0AC
:1007300020C0C801B70120E03FEF4FE757E420D5C4
:100740001816A4F4C601B50120E030E040E251E4FF
:1007500022D45DD280E991E005C0FC013197F1F728
:100760006150704061157105C1F706C0C801B7013D
:100770004ED2CB010197F1F71F910F91FF90EF90AF
:10078000DF90CF90BF90AF900895982F8A3010F4EB
:10079000805D08958A50863010F08FE30895892F88
:1007A000895C08950F931F93082F162F80E398DE1E
:1007B00088E7612F95DE902F92959F709A3018F4FC
:1007C000892F805D08C0892F8A50863010F08FE312
:1007D00002C0892F895C612F83DE902F9F709A3031
:1007E00018F4892F805D08C0892F8A50863010F058
:1007F0008FE302C0892F895C612F72DE1F910F91F8
:100800000895EF92FF921F93CF93DF93EC01162F81
:1008100080E366DE88E7612F63DE7E019F2D92957F
:100820009F709A3018F4892F805D08C0892F8A50F4
:10083000863010F08FE302C0892F895C612F50DE73
:100840009D2F9F709A3018F4892F805D08C0892FE2
:100850008A50863010F08FE302C0892F895C612FA7
:100860003FDECE01807F9070E4E095958795EA9514
:10087000E1F7982F8A3010F4805D07C08A508630E7
:1008800010F08FE302C0892F895C612F29DE9E0161
:100890002F702A3018F4822F805D08C0822F8A5072
:1008A000863010F08FE302C0822F895C612F18DE42
:1008B000DF91CF911F91FF90EF900895A8DE0895EA
:1008C000C198613011F4C29A01C0C2988FB9779B68
:1008D000FECFC19A089582E790E0909359028093E9
:1008E000580208951F93CF93DF93182FEB019FB702
:1008F000F8948BB78F738BBF9FBF8FE0B2DC11234F
:1009000011F0389801C0389A369A03C08FE0BE01C2
:10091000A8DC3699FBCF9FB7F8948BB7806C8BBF60
:100920009FBFDF91CF911F9108959FB7F894809159
:10093000600080934D029FBF60914D0280E070E0A7
:10094000D1DF809156029091570290935502809387
:10095000540260914D0281E070E0C4DF8091560244
:100960009091570290935302809352020895AF9250
:10097000BF92CF92DF92EF92FF920F931F935B0192
:100980006C018A0144DE80E090E061E070E028DEE6
:10099000C80160E0F4DDC601B50120E030E04AE7BF
:1009A00055E4F9D27B018C0120E030E040E85FE3C0
:1009B0003DD488231CF461E070E020C0C801B70179
:1009C00020E03FEF4FE757E4DBD31816A4F4C6014D
:1009D000B50120E030E040E251E4DDD218D180E9F9
:1009E00091E005C0FC013197F1F76150704061154D
:1009F0007105C1F706C0C801B70109D1CB01019744
:100A0000F1F71F910F91FF90EF90DF90CF90BF9083
:100A1000AF9008950F931F93CF93DF93F8DD2FB717
:100A2000F8948091580290915902909351028093CA
:100A300050022FBFE0915002F0915102C581D68142
:100A400011E004C01F5F0D80DE81C02DCE17DF07CF
:100A5000C9F7153008F014E040916200812F90E052
:100A600081589F4F242F30E0821793072CF41158A0
:100A7000109362001F5705C047FD03C080E88093B4
:100A8000620080916200282F30E02F57304041E013
:100A900004C00F80D885C02D4F5F842F90E082174F
:100AA0009307BCF300E016C080E090E0602F70E098
:100AB00097DD29853A8560E080915002909151023E
:100AC0008C179D0709F461E0C90159DD0D80DE81B5
:100AD000C02D0F5F011740F3809150029091510299
:100AE0008C58904009F04EC080E090E062E070E0E9
:100AF00077DD81E360E0F4DC8AE360E0F1DC8091A3
:100B000054029091550260E07CDE80E090E063E06A
:100B100070E066DD82E360E0E3DC8AE360E0E0DC75
:100B2000809152029091530260E06BDE80E090E091
:100B300064E070E055DD84E660E0D2DC89E660E0E8
:100B4000CFDC86E660E0CCDC86E660E0C9DC8AE3E8
:100B500060E0C6DC80E260E0C3DC809154029091EA
:100B600055022091520230915302821B930B60E098
:100B700048DE8AE090E062E070E032DD8091600063
:100B800060E010DEDF91CF911F910F91089522E771
:100B900030E0309359022093580255DD3BDF089531
:100BA0008FB7F89420915802309159023093510236
:100BB000209350028FBFE0915002F0915102E081EA
:100BC000E13039F0E13070F0E230F1F0E330F1F48F
:100BD00017C08FB7F894E0915802F0915902238121
:100BE000348108C08FB7F894E0915802F09159020F
:100BF0002181328130935902209358028FBF08958A
:100C000080E090E010DBEECF90DEE3CF0895EF922E
:100C1000FF920F931F937B018C0120E030E040E0B6
:100C20005FE4D9D288237CF0C801B70120E030E02E
:100C300040E05FE45ED125D39B01AC012050304001
:100C40004040504805C0C801B7011BD39B01AC010F
:100C5000B901CA011F910F91FF90EF900895A0E094
:100C6000B0E0E4E3F6E0DCC5DC012B01FA019C9185
:100C7000923008F439C1EB018881823008F433C125
:100C8000943069F4843009F02FC111969C9111972A
:100C90008981981709F428C1A3E4B1E025C1843003
:100CA00009F421C18230A9F4923009F01DC19A01E2
:100CB000AD0188E0EA010990AE01E90109929E01C7
:100CC0008150C1F7E201898111969C91892381832A
:100CD00008C1923009F407C112962D903C901397E9
:100CE000EB018A819B811496AD90BD90CD90DC90F4
:100CF0001797EC80FD800E811F819101281B390B15
:100D0000B90137FF04C066277727621B730B603277
:100D100071050CF061C0121613066CF5370148011D
:100D2000062E04C096948794779467940A94D2F719
:100D300021E030E040E050E004C0220F331F441FA8
:100D4000551F6A95D2F721503040404050402E2127
:100D50003F2140235123211531054105510521F043
:100D600021E030E040E050E079018A01E628F728F0
:100D7000082919293CC0232BD1F1260E371E350135
:100D80004601062E04C096948794779467940A943B
:100D9000D2F721E030E040E050E004C0220F331FE2
:100DA000441F551F6A95D2F72150304040405040B3
:100DB0002A213B214C215D21211531054105510599
:100DC00021F021E030E040E050E059016A01A6281E
:100DD000B728C828D9280BC0821593052CF01C0110
:100DE000AA24BB24650103C0EE24FF2487011196C9
:100DF0009C91D20111968C91981709F445C09923C2
:100E000039F0A80197012A193B094C095D0906C070
:100E1000A60195012E193F09400B510B57FD08C043
:100E200011823382228224833583468357831DC0F7
:100E300081E081833382228288279927DC01821B0B
:100E4000930BA40BB50B84839583A683B7830DC046
:100E5000220F331F441F551F248335834683578336
:100E60008281938101979383828324813581468196
:100E70005781DA01C9010197A109B1098F5F9F4F1D
:100E8000AF4FBF4328F30BC0918333822282EA0C19
:100E9000FB1C0C1D1D1DE482F5820683178383E075
:100EA0008083248135814681578157FF1AC0C9014B
:100EB000AA2797FDA095BA2F81709070A070B0708E
:100EC0005695479537952795822B932BA42BB52BB9
:100ED00084839583A683B7838281938101969383CC
:100EE0008283DF0101C0D201CD01CDB7DEB7E2E1DF
:100EF000B3C4A0E2B0E0EEE7F7E09EC469837A8372
:100F00008B839C832D833E834F835887E9E0EE2EAD
:100F1000F12CEC0EFD1ECE010196B7019CD38E0183
:100F20000F5E1F4FCE010596B80195D38A8991E0D7
:100F300089278A8BC701B801AE01475E5F4F8FDEFC
:100F4000B5D2A096E6E094C4A0E2B0E0E9EAF7E00A
:100F500073C469837A838B839C832D833E834F8301
:100F60005887F9E0EF2EF12CEC0EFD1ECE01019614
:100F7000B70171D38E010F5E1F4FCE010596B801E8
:100F80006AD3C701B801AE01475E5F4F68DE8ED2FB
:100F9000A096E6E06DC4A0E2B0E0E0EDF7E040C46A
:100FA00069837A838B839C832D833E834F83588709
:100FB000CE010196BE01675F7F4F4DD3CE010596EE
:100FC000BE016F5E7F4F47D39985923088F0898943
:100FD0008230C8F0943019F4823051F404C0843067
:100FE00029F4923081F483E491E0C6C0923049F450
:100FF00020E09A858A89981321E02A87CE010996F4
:10100000BBC0823049F420E09A858A89981321E098
:101010002A8BCE014196B0C02D843E844F845888DF
:101020006D887E888F88988CEE24FF248701AA24FF
:10103000BB24650140E050E060E070E0E0E0F0E0FB
:10104000C10181709070892BE9F0E60CF71C081D36
:10105000191D9A01AB012A0D3B1D4C1D5D1D80E041
:1010600090E0A0E0B0E0E614F7040805190520F4CC
:1010700081E090E0A0E0B0E0BA01A901480F591F5B
:101080006A1F7B1FAA0CBB1CCC1CDD1C97FE08C072
:1010900081E090E0A0E0B0E0A82AB92ACA2ADB2AC1
:1010A0003196E032F10549F0660C771C881C991CDA
:1010B0005694479437942794C3CFFA85EA892B89AD
:1010C0003C898B859C85280F391F2E5F3F4F17C0A9
:1010D000CA0181709070892B61F016950795F7947D
:1010E000E79480E090E0A0E0B0E8E82AF92A0A2B33
:1010F0001B2B76956795579547952F5F3F4F77FD4B
:10110000E7CF0CC0440F551F661F771F17FD4160C6
:10111000EE0CFF1C001F111F21503040403090E0AA
:10112000590790E0690790E4790760F32B8F3C8FB3
:10113000DB01CA018F779070A070B0708034910588
:10114000A105B10561F447FD0AC0E114F1040105F0
:10115000110529F0405C5F4F6F4F7F4F40781A8E2A
:10116000FE1711F081E08A8F4D8F5E8F6F8F78A30D
:1011700083E0898FCE01499699D1A096E2E16CC3B4
:10118000A8E1B0E0E5ECF8E057C369837A838B838C
:101190009C832D833E834F83588789E0E82EF12C72
:1011A000EC0EFD1ECE010196B70155D28E010F5EE9
:1011B0001F4FCE010596B8014ED28985823038F096
:1011C0008989823020F0C701B801BDD201C08FEFFC
:1011D0006896E6E04DC3A8E1B0E0E0EFF8E02CC38C
:1011E00069837A838B839C832D833E834F835887C7
:1011F00089E0E82EF12CEC0EFD1ECE010196B70120
:101200002AD28E010F5E1F4FCE010596B80123D260
:101210008985823038F08989823020F0C701B80191
:1012200092D201C08FEF6896E6E022C3A8E1B0E059
:10123000EBE1F9E001C369837A838B839C832D837F
:101240003E834F83588789E0E82EF12CEC0EFD1E7B
:10125000CE010196B701FFD18E010F5E1F4FCE0167
:101260000596B801F8D18985823038F089898230B5
:1012700020F0C701B80167D201C081E06896E6E0BE
:10128000F7C2ACE0B0E0E6E4F9E0DAC269837A8361
:101290008B839C83CE010196BE016B5F7F4FDBD1B8
:1012A0008D81823061F1823050F1843021F48E8161
:1012B000882351F12EC02F81388537FD20C06E81E3
:1012C0002F3131051CF06623F9F023C08EE190E048
:1012D000821B930B29853A854B855C8504C0569506
:1012E0004795379527958A95D2F76623B1F05095A3
:1012F0004095309521953F4F4F4F5F4F0EC020E0F6
:1013000030E040E050E009C02FEF3FEF4FEF5FE7E4
:1013100004C020E030E040E050E8B901CA012C965A
:10132000E2E0AAC2A8E0B0E0E7E9F9E081C27B010F
:101330008C01611571058105910519F482E089839D
:101340005FC083E089838EE1C82ED12CDC82CB8202
:10135000ED82FE820F831887C801B70158D0FC01C7
:101360003197F7FF3BC0222733272E1B3F0B570136
:101370006801022E04C0D694C794B794A7940A9427
:10138000D2F740E050E060E070E081E090E0A0E063
:10139000B0E004C0880F991FAA1FBB1F2A95D2F77F
:1013A0000197A109B1098E219F21A023B1230097A4
:1013B000A105B10521F041E050E060E070E04A296C
:1013C0005B296C297D294D835E836F8378878EE14D
:1013D00090E08E1B9F0B9C838B8312C0309781F013
:1013E0000E2E04C0EE0CFF1C001F111F0A94D2F732
:1013F000ED82FE820F831887CE1ADF0ADC82CB8251
:101400001A82CE01019652D02896EAE02DC2EF92C0
:10141000FF920F931F937B018C0180E0E81680E020
:10142000F80681E0080780E0180788F48FEFE816D7
:10143000F1040105110531F028F088E090E0A0E00A
:10144000B0E017C080E090E0A0E0B0E012C080E023
:10145000E81680E0F80680E0080781E0180728F029
:1014600088E190E0A0E0B0E004C080E190E0A0E07E
:10147000B0E020E230E040E050E0281B390B4A0B9E
:101480005B0B04C016950795F794E7948A95D2F7FD
:10149000F701E55BFE4F8081281B310941095109A5
:1014A000C9011F910F91FF90EF900895DF92EF9285
:1014B000FF920F931F93FC01E480F5800681178152
:1014C000D1808081823048F480E090E0A0E1B0E0FB
:1014D000E82AF92A0A2B1B2BA5C0843009F49FC0E7
:1014E000823021F4EE24FF24870105C0E114F104C9
:1014F0000105110519F4E0E0F0E096C06281738106
:101500009FEF623879070CF05BC022E83FEF261BA3
:10151000370B2A3131052CF020E030E040E050E07C
:101520002AC0B801A701022E04C076956795579589
:1015300047950A94D2F781E090E0A0E0B0E004C0C3
:10154000880F991FAA1FBB1F2A95D2F70197A109DF
:10155000B1098E219F21A023B1230097A105B105D8
:1015600021F081E090E0A0E0B0E09A01AB01282BEF
:10157000392B4A2B5B2BDA01C9018F779070A07051
:10158000B07080349105A105B10539F427FF09C079
:10159000205C3F4F4F4F5F4F04C0215C3F4F4F4F88
:1015A0005F4FE0E0F0E02030A0E03A07A0E04A071B
:1015B000A0E45A0710F0E1E0F0E079018A0127C0C9
:1015C0006038710564F5FB01E158FF4FD801C70190
:1015D0008F779070A070B07080349105A105B1052F
:1015E00039F4E7FE0DC080E490E0A0E0B0E004C074
:1015F0008FE390E0A0E0B0E0E80EF91E0A1F1B1F89
:1016000017FF05C016950795F794E794319687E084
:1016100016950795F794E7948A95D1F705C0EE24BF
:10162000FF248701EFEFF0E06E2F6795662767953F
:10163000902F9F77D794DD24D7948E2F8695492FAE
:10164000462B582F5D29B701CA011F910F91FF90BA
:10165000EF90DF900895FC01DB01408151812281F0
:10166000622F6F7770E0221F2227221F9381892F1C
:10167000880F822B282F30E0991F9927991F1196E8
:101680009C93119721153105A9F541155105610567
:10169000710511F482E037C082E89FEF13969C93A6
:1016A0008E9312979A01AB0167E0220F331F441FFC
:1016B000551F6A95D1F783E08C930DC0220F331F1D
:1016C000441F551F12968D919C9113970197139665
:1016D0009C938E931297203080E0380780E0480773
:1016E00080E4580758F314962D933D934D935C93E3
:1016F000179708952F3F310579F44115510561057C
:10170000710519F484E08C93089564FF03C081E0AF
:101710008C9312C01C9210C02F57304013963C93EC
:101720002E93129783E08C9387E0440F551F661F1A
:10173000771F8A95D1F7706414964D935D936D93DE
:101740007C93179708951F93DC01FB019C919230C5
:1017500008F447C08081823008F443C0943051F4CB
:1017600011961C91843099F58181682F70E0611B7E
:1017700071093FC0843021F0923031F48230B9F1E8
:101780008181882389F12DC011961C911197823097
:10179000F1F081811817D9F412962D913C9113978D
:1017A000828193818217930794F028173907BCF040
:1017B00014968D919D910D90BC91A02D2481358121
:1017C00046815781281739074A075B0718F4112308
:1017D00041F00AC082179307A407B50740F411230C
:1017E00019F061E070E005C06FEF7FEF02C060E0CC
:1017F00070E0CB011F910895AA1BBB1B51E107C0EC
:10180000AA1FBB1FA617B70710F0A61BB70B881F90
:10181000991F5A95A9F780959095BC01CD0108951F
:101820002F923F924F925F926F927F928F929F92F0
:10183000AF92BF92CF92DF92EF92FF920F931F93DE
:10184000CF93DF93CDB7DEB7CA1BDB0B0FB6F8948F
:10185000DEBF0FBECDBF09942A88398848885F84CF
:101860006E847D848C849B84AA84B984C884DF8040
:10187000EE80FD800C811B81AA81B981CE0FD11D24
:101880000FB6F894DEBF0FBECDBFED010895F894FA
:02189000FFCF88
:101892009000802F2F205374617274202020202FFB
:1018A2002F000200008C00A600F40063002F2F20FE
:1018B200526573756C74733A202F2F000372000007
:1018C200008C008C007D002F2F20536574757020D2
:1018D2002020202F2F00010000C000F4007200978A
:1018E200002F2F43616C6C6962726174652F2F0047
:1018F20004A6000000DA00DA00B1002F2F203C2DF0
:101902002D204261636B202F2F0000A6000000C033
:1019120000C000CB002F2F20526561646D6520202E
:10192200202F2F0001000038017200A600E5005BA5
:101932002050726F6772616D6D65723A5D5B202037
:10194200206272756E716C2020205D5B2020202049
:1019520028617429202020205D5B2020676D616949
:101962006C2E636F6D205D0000F4000000380138BA
:1019720001FF00000000000000000000010202035D
:101982000303030404040404040404050505050513
:1019920005050505050505050505050606060606F0
:1019A20006060606060606060606060606060606D5
:1019B20006060606060606060606060707070707C0
:1019C20007070707070707070707070707070707A5
:1019D2000707070707070707070707070707070795
:1019E2000707070707070707070707070707070785
:1019F2000707070707070707070707080808080870
:101A02000808080808080808080808080808080854
:101A12000808080808080808080808080808080844
:101A22000808080808080808080808080808080834
:101A32000808080808080808080808080808080824
:101A42000808080808080808080808080808080814
:101A52000808080808080808080808080808080804
:101A620008080808080808080808080808080808F4
:0C1A720008080808080808080808080010
:00000001FF
